:020000040800F2
:10000000D85100205D02000827250008232200089F
:1000100025250008AD060008A52B000800000000FB
:100020000000000000000000000000009D0100082A
:100030003907000800000000F9010008B126000897
:1000400077020008770200087702000877020008AC
:10005000770200087702000877020008770200089C
:10006000770200087702000877020008770200088C
:10007000770200087702000877020008770200087C
:100080007702000877020008790500087702000867
:100090007702000877020008770200083B07000893
:1000A000770200087702000877020008770200084C
:1000B000770200087702000877020008770200083C
:1000C000770200087702000877020008770200082C
:1000D00077020008992B00087702000877020008D1
:1000E000770200087702000877020008770200080C
:1000F00077020008770200087702000877020008FC
:1001000077020008770200087702000877020008EB
:10011000770200087702000877020008E927000844
:10012000B10600087702000877020008770200088D
:1001300077020008770200087702000877020008BB
:1001400077020008770200087702000877020008AB
:10015000770200087702000877020008770200089B
:10016000770200087702000877020008770200088B
:1001700077020008770200087702000800000000FC
:100180007702000877020008DFF80CD000F0E2F9EF
:1001900000480047A1630008D85100202C4B196883
:1001A0000868B0E8F04F80F30988BFF36F8F4FF015
:1001B000000080F3118870470000000008480068C4
:1001C000006880F308884FF0000080F3148862B65E
:1001D00061B6BFF34F8FBFF36F8F00DF00BF00BF6B
:1001E00008ED00E0DFF80C00016841F470010160E7
:1001F000704700BF88ED00E0EFF30980BFF36F8F19
:10020000134B1A681EF0100F08BF20ED108A20E96A
:10021000F04F106009B44FF0500080F31188BFF325
:100220004F8FBFF36F8F07F0A1F94FF0000080F3FD
:10023000118809BC19680868B0E8F04F1EF0100F6B
:1002400008BFB0EC108A80F30988BFF36F8F704746
:100250004C000020EFF305807047000006488047FF
:1002600006480047FEE7FEE7FEE7FEE7FEE7FEE79B
:10027000FEE7FEE7FEE7FEE7D92700088901000850
:100280002DE9F05F0546002092469B4688460646CB
:10029000814640241BE0284641464746224600F05E
:1002A000EBF853465A46C01A914110D311461846EE
:1002B000224600F0D2F82D1A67EB01084F4622467D
:1002C0000120002100F0C9F817EB00094E41201E63
:1002D000A4F10104DFDC484631462A464346BDE826
:1002E000F09F40EA01039B0703D009E008C9121FF1
:1002F00008C0042AFAD203E011F8013B00F8013BE0
:10030000521EF9D27047D2B201E000F8012B491E0B
:10031000FBD270470022F6E710B513460A460446A2
:100320001946FFF7F0FF204610BD2DE9FE4F81EA88
:10033000030404F0004421F0004100944FF0000B4E
:1003400023F0004350EA01045ED052EA03045BD07C
:10035000C3F30A54C1F30A552C44A4F2F3340194B4
:10036000A0FB0254C1F3130141F48011C3F3130342
:1003700043F4801301FB024400FB034E840A970AF6
:1003800044EA815447EA8357A4FB076802958D0A23
:1003900005FB07854FEA932C04FB0C542705029DAF
:1003A0004FEA065847EA1637B5EB08056EEB070C1F
:1003B000870E920E47EA811742EA8312A7FB0201D9
:1003C000B6EB0B0164EB00042B0D43EA0C335E1813
:1003D00044EB1C50DA465146E7FB0201C5F3130417
:1003E0004FEA0B3343EA14534FEA0432019C43EAC9
:1003F0000603A4F10C040294009CCDE900B400F0C3
:100400005AF803B0BDE8F08F00200146F9E70EB5B9
:1004100040F2334102910021CDE900110A460B461A
:1004200000F049F803B000BDC1F30A5210B5C1F3A2
:10043000130140F2FF3341F480119A4201DA0020A7
:1004400010BD40F233439A42A2F2334203DC5242DF
:1004500000F012F810BD904010BD202A04DB203AB5
:1004600000FA02F1002070479140C2F1200320FA07
:1004700003F3194390407047202A04DB203A21FA05
:1004800002F00021704721FA02F3D040C2F12002AD
:10049000914008431946704710B5141E73F10004CB
:1004A00008DA401C41F1000192185B411A4301D166
:1004B00020F0010010BD2DE9F04D92469B4611B190
:1004C000B1FA81F202E0B0FA80F220329046FFF7F2
:1004D000C4FF04460F4640EA0A0041EA0B015346B6
:1004E0005A46084313D0114653EA010019D0C8F107
:1004F00040025046FFF7C0FF05460E46504659469B
:100500004246FFF7AAFF084305D0012004E0204639
:100510003946BDE8F08D0020054346EAE0762C43DD
:1005200037430A986305E40AA0EB08000022FD0A9D
:1005300044EA47540A3002D500200146E9E70105A4
:1005400010196941DDE9084500196941BDE8F04D20
:10055000A2E70000064C074D06E0E06840F001030A
:1005600094E8070098471034AC42F6D3FFF710FE2A
:1005700090B40008B0B40008014800F002BA0000CE
:10058000D0000020464910B54A6822F440324A6043
:100590004A6843681A434A6001684A6822F48072D4
:1005A0004A6001684A68036942EA03224A600168B6
:1005B0004A6822F040724A6001684A6883681A43B8
:1005C0004A6001688A6822F400628A6001688A6869
:1005D000C3681A438A60816A6FF07062D142016811
:1005E0008A6822F070628A6001688A680CD0836A27
:1005F0001A438A6001688A6822F040528A60016862
:100600008A68C36A1A4301E022F040528A60016896
:100610008A6822F002028A6001688A68037E42EAE0
:1006200043028A6090F82010002901684A680FD0C0
:1006300042F400624A6001684A6822F460424A60FB
:1006400001684A68174C436A04EB43331A4301E0DC
:1006500022F400624A600168CA6A22F47002CA6227
:100660000168CA6A838B104C04EB03531A43CA62B5
:1006700001688A6822F400728A6001688A6890F8CA
:10068000303042EA43228A6001688A6822F480623C
:100690008A6001688A68406942EA8020886010BDEB
:1006A0000023014000E0FFFF0000F0FFFEE7000034
:1006B000014800F0AFBB00001801002001681823BA
:1006C000CAB2103AB2FBF3F2054B6FF30901032AE9
:1006D0009B5CC36500D9091D816508467047000011
:1006E00040B4000810B5014600208B698A6A4FF0BB
:1006F000C07453B1B3F5005F15D072B1012A0CD0AC
:10070000022A0AD0032A09D104E01AB1012A06D02C
:10071000022A03D1C96AC90100D5012010BDC96AE6
:10072000A142FAD010BD002AF7D0012AF2D0022A45
:10073000F3D0032AF3D010BD70474FF4007000F0DF
:100740003DBD72B6FEE7000030B5B3F5804F05D071
:100750006FF0704140F82210002030BD8C690B68AA
:100760008D6823434C688989240144EA0524234386
:1007700043EA014150F82230014C23401943E9E794
:100780000000F0CF10B50A6850F8223023F00103C2
:1007900040F822308C68082C23D000234A6822437A
:1007A000CC681C430B6922431A434B690E4C1A4315
:1007B000CB691A430B6A1A434B6A1A438B6A1A4372
:1007C000CB6A1A430B6B1A438B691343CA6B0968D4
:1007D0001A4350F82130A343134340F8213000203E
:1007E00010BD4023DAE700007FFF0F0030B5D1E9EC
:1007F000003443EA04138C688D89240244EA0544DA
:1008000023430C8A074D00EB820005EB045423437D
:100810000C7D6D0105EB0464896923430B43436040
:10082000002030BD0000F0FF7047000078B50024C4
:10083000009490F83C20012A19D0012280F83C2035
:100840000A6807230568092A13D9EE680A3A02EBF9
:10085000420293409E43EE600B788A680A3B03EBAA
:1008600043039A400368DD682A43DA6010E00220FF
:1008700078BD2E6902EB420293409E432E610B78B5
:100880008A6803EB43039A4003681D692A431A618F
:100890004A681F23072A13D205686E6B521E02EBAB
:1008A000820293409E436E630B790A885B1E92B26C
:1008B00003EB83039A4003685D6B2A435A6327E086
:1008C00005680D2A12D22E6BD21F02EB82029340D2
:1008D0009E432E630B790A88DB1F92B203EB8303DE
:1008E0009A4003681D6B2A431A6311E0EE6A0D3AC1
:1008F00002EB820293409E43EE620B790A880D3B25
:1009000092B203EB83039A400368DD6A2A43DA62FA
:10091000164B0568144A9D4206D10D68122D03D16D
:10092000556845F48005556005689D4218D10B68EF
:10093000102B01D0112B13D1536843F400035360E3
:10094000096810290CD10A490A4A0968B1FBF2F179
:1009500001EB8101490000E0491E00910029FBD113
:1009600080F83C40002078BD002301400020014079
:100970004800002040420F00704770470068C06C7C
:10098000704770B5044600680668456816F0020FA7
:1009900005F020012AD049B3216CC90603D4216C8B
:1009A00041F400712164816811F0405F17D1217E0C
:1009B000A9B9C16A11F4700F02D0816849050ED43B
:1009C000416821F020014160206C20F48070206497
:1009D000206CC00403D4206C40F001002064204649
:1009E000FFF7CAFF21686FF01200086016F0040FCD
:1009F00005F0800132D089B3206CC00603D4206C8E
:100A000040F4005020642068816811F4401F1ED11A
:100A1000816B11F4401F02D08168490517D44168E9
:100A2000490514D4816811F0405F10D1217E71B95D
:100A3000416821F080014160206C20F480502064E6
:100A4000206CC00503D4206C40F0010020642046D7
:100A5000FFF7EAFE21686FF00C00086016F0010F46
:100A600005F040010FD071B120680068C0070AD0BE
:100A7000206C40F480302064204600F043F8216868
:100A80006FF00100086016F0200F05F080610ED0B5
:100A900000290CD0606C40F00200606420686FF0A8
:100AA000200505602046FFF768FF2068056070BDDF
:100AB00070B504004FF0000503D0206C002610B183
:100AC00007E0012070BD204600F01EF8666484F83F
:100AD0003C60206CC00610D4206C20F4885040F09C
:100AE000020020642046FFF74DFD6664206C20F074
:100AF000020040F00100206400E0012584F83C6021
:100B0000284670BD7047000070B586B006461421B7
:100B10006846FFF7FFFB2249306888423DD12148F3
:100B20000025016841F480610160006800F4806084
:100B300005901C481438016841F0200101600068EC
:100B4000694600F020000590802000900320CDE948
:100B50000105154800F03EFB154C14482060800547
:100B6000C4E901050014C4E903504000606180003D
:100B7000A0614011C4E907052046656200F01AFA39
:100B800008B1FFF7DEFDB463002205211220A66341
:100B900000F0C8FC122000F0B7FC06B070BD0000E9
:100BA0000022014044380240001402401064024018
:100BB000180100202DE9F041044600680D468168C7
:100BC0004FF0000749050BD58068C00508D5206C9B
:100BD00040F02000206484F83C700120BDE8F081E2
:100BE00000F002FC064613E0681C11D025B100F0AD
:100BF000FBFB801BA8420BD920680068800707D444
:100C0000206C40F00400206484F83C700320E5E789
:100C1000206800688007E7D521686FF0120008603F
:100C2000206C40F4007020642068816811F0405FFF
:100C300013D1217E89B9C16A11F4700F02D0806886
:100C400040050AD4206C20F480702064206CC0041D
:100C500003D4206C40F0010020640020BEE70000B7
:100C600018B50021009190F83C20012A07D00122FC
:100C700080F83C2002689368DB0702D011E0022074
:100C800018BD936843F0010393602E4A2E4B1268FF
:100C9000B2FBF3F202EB420200E0521E0092002A85
:100CA000FBD102689368DB0742D0036C40F2016419
:100CB000A34343F48073036453685B0505D5036C59
:100CC00023F4005343F480530364036CDB0404D522
:100CD000436C23F00603436400E0416480F83C1059
:100CE0001A496FF02203136049680068CA06184960
:100CF00006D0884224D1816811F0405F13D01FE0F4
:100D00008842F8D0134A904203D1D1F80423D20686
:100D1000F1D0114A904213D1D1F8041301F01F0110
:100D20001029E8D30CE0816841F08041816007E040
:100D3000016C41F010010164416C41F0010141641A
:100D4000002018BD4800002040420F000023014051
:100D50000020014000210140002201402DE9F04126
:100D60000446876D00F040FB064694F835000025E8
:100D7000022806D08020606584F834500120BDE848
:100D8000F0812068016821F0160101602068416946
:100D900021F080014161206C08B9A06C20B120686D
:100DA000016821F0080101602068016821F001015B
:100DB00001600CE000F018FB801B052807D92020FB
:100DC0006065032084F8350084F83450D7E7206844
:100DD0000068C007EED194F85C103F208840B860EE
:100DE000012084F8350084F834500020C7E790F8DB
:100DF0003510022903D0802141650120704705216B
:100E000080F835100068016821F0010101600020C0
:100E1000704700002DE9F84304464FF00009CDF873
:100E2000009063484FF41651A56D0068B0FBF1F7D0
:100E30002E6894F85C10082000FA01F131420FD0BE
:100E400021680A6852070BD50A6822F004020A607A
:100E500094F85C108840A860606D40F00100606507
:100E600094F85C104FF0010808FA01F0304208D005
:100E700021684969090604D5A860606D40F0020048
:100E8000606594F85C1004208840304208D02168E6
:100E90000968890704D5A860606D40F004006065AA
:100EA00094F85C1010208840304218D021680968FE
:100EB000090714D5A86020680168490304D50068B3
:100EC000000308D5A16C07E00168C90503D40168D7
:100ED00021F008010160216C09B12046884794F88F
:100EE0005C1020208840304231D021680968C90652
:100EF0002DD5A86094F8350005282068016806D033
:100F0000490347D5006800031DD4616C1CE021F043
:100F1000160101602068416921F080014161206C67
:100F200008B9A06C20B12068016821F008010160B7
:100F300094F85C103F208840A86084F8358084F8DD
:100F40003490216D1FE0E16B09B120468847606D48
:100F500000282BD0606DC00714D0052084F8350020
:100F60002068016821F0010101600098401C009098
:100F7000B84203D820680068C007F6D184F83580ED
:100F800084F83490E16C002910D001B02046BDE80F
:100F9000F04308470168C905D5D4016821F0100164
:100FA000016084F8358084F83490CCE7BDE8F8839C
:100FB000480000202DE9F041044600F015FA0646ED
:100FC0005CB1022084F83500002584F83450206894
:100FD000016821F0010101600DE00120BDE8F08110
:100FE00000F002FA801B052805D920206065032047
:100FF00084F83500F2E720680068C007F0D1226865
:10100000116820480140D4E901031843D4E90336AC
:101010003343184363691843A3691843E3691843CA
:10102000236A18430843616A042903D1D4E90B13E6
:1010300019430843106020684069666A20F0070180
:1010400030460E43012704280CD1A06A0643E06A0B
:1010500040B12046FFF746FB20B14020606584F890
:101060003570BAE7206846612046FFF727FB94F801
:101070005C203F2191408160656584F835700020D7
:10108000ACE700003F8010F070B5044600F0ACF90A
:101090000546601C02D004480078044400F0A4F91E
:1010A000401BA042FAD370BD3C0000202DE9F04166
:1010B00086B014216846FFF72DF920480168002901
:1010C00039D1012101601E480024016841F001016D
:1010D000016000684FF4805800F001000C27CDF843
:1010E0000080CDE90470032602250396CDE9015462
:1010F0006946144800F06EF84FF68070CDE900059F
:1011000002AA694682E8D0000F4800F063F84CF26A
:101110003370CDE9000502AA694682E8D0000B4889
:1011200000F058F802AA694682E8D000CDE90085AF
:10113000074800F04FF806B0BDE8F0811C00002021
:10114000383802400014024000100240000C0240F7
:101150000018024038B500220092B0F5007F24D17B
:1011600012484178002920D00178602908D210491E
:101170004B6801780F4C04EB8104491C017023601B
:101180000178532911D34270406800280DD0694678
:1011900006F08DFC0098002807D007494FF08050DA
:1011A0000860BFF34F8FBFF36F8F38BD3000002052
:1011B000001000E08003002004ED00E0044910B5B9
:1011C0000A68024202D00860FFF7C4FF10BD0000A9
:1011D000143C01402DE9F84FDFF8BCA100220125A5
:1011E00003264FF00F090AF1040BAAF1040E00BF09
:1011F0000B6805FA02F42340A34270D10F7907F07F
:101200000307012F01D0022F16D187684FEA420849
:1012100006FA08FC27EA0C07D1F80CC00CFA08FC07
:101220004CEA070CC0F808C04768A7430C79C4F320
:10123000001494403C4344600C79E443A4070AD072
:10124000C4684FEA420C06FA0CF7BC438F6807FAF1
:101250000CF72743C7600C7904F00304022C12D169
:10126000D40800EB840CDCF820405707FF0E09FA85
:1012700007F824EA0804D1F8108008FA07F848EAC9
:101280000408CCF8208004684FEA420C06FA0CF7F8
:10129000BC430F7907F0030707FA0CF727430760F1
:1012A0004C6814F4403F70D03C4C276847F48047AA
:1012B0002760246822F0030704F480440094384C2B
:1012C00007EB040CDCF8084897074FEA177809FA8F
:1012D00008F7BC43334FB84202D1002724E054E062
:1012E000314FB84201D101271EE0304FB84201D141
:1012F000022719E02E4FB84201D1032714E02D4FE9
:10130000B84201D104270FE02B4FB84201D1052785
:101310000AE02A4FB84201D1062705E0284FB8421B
:1013200001D1072700E0082707FA08F72743CCF880
:101330000878DAF800405746D1F804C09C435FEAC9
:10134000CC2C00D51C433C60DBF800405F46D1F854
:1013500004C09C435FEA8C2C00D51C433C60DEF843
:1013600000407746D1F804C09C435FEA8C3C00D52E
:101370001C433C60084F083F3C68D1F804C09C43C4
:101380005FEACC3C00D51C433C60521C102AFFF4A1
:101390002FAFBDE8F88F0000083C01404438024000
:1013A00000300140000002400004024000080240FA
:1013B000000C0240001002400014024000180240DD
:1013C000001C02400069084000D0012070474269BB
:1013D00021EA02030A4043EA0241816170470AB1EF
:1013E000816170470904FBE701488068704700008D
:1013F0003C000020024881680278114481607047F7
:101400003C0000200B4810B5016841F400710160F8
:10141000016841F480610160016841F480710160FC
:10142000032000F09FF80F2000F006F800F050F8BD
:10143000002010BD003C024030B505461F4887B073
:101440000024016841F020010160006806A900F055
:101450002000009001A800F031F90498A8B100F034
:101460004DF940001649174AB0FBF1F11648491EE4
:10147000026040F2E732C0E90324C0E9011484614C
:1014800000F074FB040003D015E000F037F9E9E741
:101490000D4800F099FB04000DD1372000F034F81E
:1014A000102D07D200222946372000F03BF80748CC
:1014B000056000E0012407B0204630BD40380240FE
:1014C00040420F00001400401002002040000020A5
:1014D0000C4882B0016841F480410160006800F46A
:1014E000804000900748001F016841F08051016072
:1014F0000068002200F0805000900F21901E02B082
:1015000000F010B844380240002809DB00F01F0248
:10151000012191404009800000F1E020C0F8001155
:1015200070470000F0B40E4B1B680C46C3F3022357
:10153000C3F10705042D00D90425191D072901D27F
:10154000002300E0DB1E012606FA05F1491E2140BA
:1015500099409E40761E16403143F0BC01F034BBEA
:101560000CED00E0064900F0070208684FF6FF03A3
:10157000184040EA0220034A104308607047000008
:101580000CED00E00000FA052DE9F0470E460500DD
:1015900065D0DFF81481D8F80000F7B200F007003A
:1015A000B04207D288F80070D8F8000000F00700B9
:1015B000B04254D128683D4C810712D5400703D56D
:1015C000206840F4E05020602878000703D52068A8
:1015D00040F4604020602068A96820F0F0000843D3
:1015E00020602878C0072DD0304968680839012864
:1015F00012D0022813D0032811D0096889070029C6
:101600002DDA216821F0030101432160FFF7ECFE90
:10161000814641F2883A0EE009688903EFE70968DC
:101620008901ECE7FFF7E0FEA0EB0901514502D983
:101630000320BDE8F0872068696800F00C00B0EB7B
:10164000810FEFD1D8F80010404601F00701B142F8
:1016500007D90770006800F00700B04201D00120F0
:10166000E7E72878400705D52068E96820F4E050CE
:10167000084320602878000706D52068296920F4EF
:10168000604040EAC100206000F058F82168084A34
:10169000C1F30311515CC840064908600648006860
:1016A000FFF7CAFE0020C4E7003C024008380240B1
:1016B00048B4000848000020400000200F220260CB
:1016C0000C4A136803F003034360136803F0F0034C
:1016D0008360136803F4E053C36012684FF4E0536F
:1016E00003EAD20202610448006800F007000860C3
:1016F0007047000008380240003C02400448054999
:1017000000680968044AC1F38221515CC8407047EF
:10171000480000200838024058B400080448054931
:1017200000680968044AC1F34231515CC8407047FF
:10173000480000200838024058B40008154810B589
:10174000006810F00C02144813D04110042A0FD086
:10175000082A0ED10F4C241F2268236802F03F0292
:101760005B0207D52068C0F38810A0FB010106E0EA
:10177000084610BD2168C1F38811A1FB00010023B8
:10178000FEF77EFD2168C1F30141491C4900B0FB11
:10179000F1F010BD083802400024F4002DE9F84FA4
:1017A00004006ED02078DFF84C93C007A9F104053F
:1017B0004AD009F104000168C1F38101012908D070
:1017C0000068C0F3810002280AD1D9F80000400265
:1017D00006D52868800337D560680028E1D033E05B
:1017E0006068B0F5803F10D0B0F5A02F286810D009
:1017F00020F480302860286820F480202860606809
:10180000A8B1FFF7F1FD06460DE0286840F48030EE
:10181000F4E740F480202860F7E700BFFFF7E4FD1D
:10182000801B642873D828688003F7D50CE0FFF785
:10183000DBFD064605E000BFFFF7D6FD801B6428F0
:10184000F0D828688003F7D42078DFF8AC828007CE
:101850004FF0000A3ED5A748001D016811F00C0F9B
:1018600008D00068C0F3810002280BD1D9F800002D
:10187000400207D42868800716D5E068012800D107
:1018800012E033E1E068B8B10120C8F80000FFF7CA
:10189000ABFD064605E000BFFFF7A6FD801B022852
:1018A000C0D828688007F7D52868216920F0F8009B
:1018B00040EAC10028600DE0C8F800A0FFF794FDE1
:1018C000064604E0FFF790FD801B02281FD8286819
:1018D0008007F7D42078000722D5864F87486169B2
:1018E000703771B101210160FFF77EFD064604E00B
:1018F000FFF77AFD801B022809D838688007F7D5E2
:101900000EE0C0F800A0FFF76FFD064605E082E09C
:10191000FFF76AFD801B02287DD838688007F7D45E
:101920002078400768D5DFF8CCB100270BF13C0BDD
:10193000DBF80000C0000BD4DBF8001041F0805150
:10194000CBF80010DBF80000012700F08050009079
:101950006B4E3068C00510D4306840F48070306041
:10196000FFF742FD009005E0FFF73EFD0099401AA9
:10197000022850D83068C005F6D55E4EA0686C3697
:1019800001280FD00528306810D020F00100306009
:10199000306820F004003060A068B8B1FFF724FD83
:1019A00000900FE0306840F00100F4E740F00400E0
:1019B0003060F7E7FFF718FD0099411A41F28830CF
:1019C000814266D830688007F4D50EE0FFF70CFD41
:1019D000009007E0FFF708FD0099411A41F28830B6
:1019E000814256D830688007F4D42FB1DBF800105C
:1019F00021F08051CBF80010A069C8B33D49091D02
:101A00000968C1F3810102294AD00228504607D053
:101A1000C8F8600000E03CE0FFF7E6FC04463BE06D
:101A20004746C8F86000FFF7DFFC064605E000BF48
:101A3000FFF7DAFC801B02282BD828688001F7D436
:101A4000D4E907010843A16A2E4A490802EB014183
:101A5000626A41EA8211084394F82C1040EA01615D
:101A6000C9F8001001203866FFF7BEFC044606E006
:101A70003EE000BFFFF7B8FC001B022809D8286829
:101A80008001F7D534E000BFFFF7AEFC001B022851
:101A900002D90320BDE8F88F28688001F4D427E03C
:101AA0000128F7D0D9F80000E26900F480019142E2
:101AB0001CD1226A00F03F01914217D147F6C07154
:101AC000626A0140B1EB821F10D1A26A4FF0FF336E
:101AD00000F4403103EB5202B1EB024F06D194F80F
:101AE0002C1000F07060B0EB016F01D00120D1E745
:101AF0000020CFE70438024000004742800E4742F2
:101B0000007000400000FFFF70B515460E4604004F
:101B100003D094F8490010B107E0012070BD002007
:101B200084F84800204600F01DF804F10801206800
:101B3000FEF728FE3146A2682068FEF757FED4E97A
:101B400001022946236BFEF7FFFD2168A06851F8CA
:101B5000202042F0010241F82020012084F84900B1
:101B6000002070BDFFF7A2BA7047704710B504009F
:101B700003D094F83D0010B107E0012010BD002013
:101B800084F83C00204600F01EF8022084F83D0056
:101B9000211D206800F02EFE012084F8460084F804
:101BA0003E0084F83F0084F8400084F8410084F847
:101BB000420084F8430084F8440084F8450084F827
:101BC0003D00002010BD704790F83D10012901D064
:101BD00001207047022180F83D100168CA6842F078
:101BE0000102CA6000681149884214D0B0F1804FE8
:101BF00011D00F4988420ED00E4988420BD00E49B1
:101C0000884208D00D49884205D00D49884202D04B
:101C10000C49884204D1816801F00701062903D0EC
:101C2000016841F00101016000207047000001409F
:101C30000004004000080040000C00400004014087
:101C4000004001400018004070472DE9F041044673
:101C50000068C66805694FF00007A90713D5B107EA
:101C600011D5F91E01610120207720688069800765
:101C7000204602D0FFF7E8FF04E000F07EF820469F
:101C800000F07CF82777680716D5700714D521680F
:101C90006FF004000861022020772068806910F44A
:101CA000407F204602D0FFF7CFFF04E000F065F848
:101CB000204600F063F82777280715D5300713D59D
:101CC00021686FF008000861042020772068C0694F
:101CD0008007204602D0FFF7B7FF04E000F04DF880
:101CE000204600F04BF82777E80616D5F00614D505
:101CF00021686FF010000861082020772068C06913
:101D000010F4407F204602D0FFF79EFF04E000F071
:101D100034F8204600F032F82777E80708D0F007BB
:101D200006D021686FF001000861204600F028F815
:101D3000280608D5300606D521686FF080000861B6
:101D40002046FFF711FF680608D5700606D5216802
:101D50006FF040000861204600F01CF8A8060AD584
:101D6000B00608D521686FF0200008612046BDE864
:101D7000F041FFF7FABEBDE8F08170477047000000
:101D800000680349884201D1FFF734BB7047000067
:101D9000001400407047704770470000F8B50168B4
:101DA00004460868CA684B6910F00F0F4FF0000531
:101DB00059D003F0010602F49077374365D0C1078C
:101DC00005D0D10503D5616C41F001016164410783
:101DD00005D5D90703D0616C41F002016164810728
:101DE00005D5D90703D0616C41F004016164010796
:101DF00007D502F02001314303D0616C41F00801A6
:101E00006164616C00293AD0800604D5900602D541
:101E1000204600F085FD20684069616CC0F38010A9
:101E2000090700D460B3204600F053FD20684069E4
:101E3000400621D52068143050E8001F21F04001F1
:101E400040E80012002AF5D1E06BA8B172490165A3
:101E5000E06BFEF7CCFF002811D0E06B016D01B004
:101E6000BDE8F040084783060FD593060DD5204600
:101E7000BDE8F84000F054BD2046FFF78DFFF8BDE7
:101E80002046FFF789FF6564F8BD266B2023012EED
:101E90007ED1C6067CD5D6067AD5086848680090FB
:101EA00048694FF0020640064DD5E26B1068406865
:101EB0004FF480770004000C3AD0A18D814237D9CD
:101EC000E085D069B8422DD020680C3050E8001F62
:101ED00021F4807140E80012002AF5D12068143006
:101EE00050E8001F21F0010140E80012002AF5D15E
:101EF0002068143050E8001F21F0400140E8001233
:101F0000002AF5D184F84230256320680C3050E86F
:101F1000001F21F0100140E80012002AF5D1E06B0B
:101F2000FEF71CFF6663A08DE18D401A81B206E0CA
:101F3000A18D8142A8D1D069B842A5D1666320465F
:101F4000FFF729FFF8BDA08DE18D401A81B2E08D29
:101F50000028F7D00029F5D020680C3050E8002F79
:101F600022F4907240E80027002FF5D12068143049
:101F700050E8002F22F0010240E80027002FF5D1A1
:101F800084F84230256320680C3050E8002F00E0D0
:101F900006E022F0100240E80023002BF3D1CDE749
:101FA00005062BD5150629D594F841002128C9D15D
:101FB000A068B0F5805F01D12069B0B1206A411CF2
:101FC0002162216800784860E08C401E0004000C0B
:101FD000E084B7D12068C16821F08001C160206829
:101FE000C16841F04001C160F8BD206A0088C0F3BB
:101FF00008004860206A801C2062E5E74006F3D5AF
:102000005006F1D5CA68204622F04002CA6084F822
:10201000413000F005F9F8BDC528000870B504008E
:1020200004D094F84100002510B106E0012070BDF5
:1020300084F84050204600F023F8242084F8410022
:102040002068C16821F40051C160204600F0CAFC3C
:102050002068016921F4904101612068416921F003
:102060002A0141612068C16841F40051C160656482
:10207000202084F8410084F842006563002070BD90
:1020800010B586B0044614216846FEF743F9184996
:102090002068884229D11748016841F01001016089
:1020A000006800F01000059012481438016841F0F3
:1020B000010101600068694600F0010005904FF4DD
:1020C000C060009002200190012002900320039044
:1020D000072004900848FFF77DF8002205212520FD
:1020E000FFF720FA2520FFF70FFA06B010BD000019
:1020F00000100140443802400000024090F8423095
:10210000202B01D00220704721B11AB100230363B4
:1021100000F0EEBC0120704730B4006814498842DA
:1021200024D1144841880A0416D402464C0412787B
:102130004FF0000304D50A2A0DD141F4004113E009
:102140000D2A0FD0C1F30D040B4D491C89B22A553D
:102150004180C72900D3438030BC0122054907488C
:10216000FFF7CCBF41F480414180F5E730BC7047B8
:10217000001001402800002058020020C801002063
:102180002DE9F843044690F84100984616460D465E
:10219000202802D00220BDE8F88385B17EB100205E
:1021A0006064212084F84100FFF71EF9A68481466F
:1021B000E684A0682027B0F5805F02D003E001200C
:1021C000E9E7206910B12E4600250EE000260CE05C
:1021D0008021204600F0A7FCA8B9C6B116F8010B73
:1021E00021684860E08C401EE084E08C4B464FF054
:1021F0000002CDF800800028EAD14FF040012046CF
:1022000000F091FC40B184F841700320C3E735F839
:10221000020BC0F30800E3E784F841700020BAE73E
:102220007047FEE71FB50021164800910191029109
:10223000134A039102604FF48032C0E90121016129
:10224000017680F82010104AC0E90A210124C461F7
:10225000C16080F830104461FEF72AFC08B1FEF737
:1022600070FA0520CDE90004072002906946054870
:10227000FEF7DCFA002801D0FEF763FA1FBD00006C
:1022800000220140D00000200100000F094808B5DD
:10229000016841F4800101600068002200F48000C0
:1022A000009005213820FFF73DF9BDE808403820AF
:1022B000FFF72AB93038024010B5002004F070F959
:1022C000124C134A00216060124804F0DFF9104AF2
:1022D000A06024320021104804F0D8F90C4AE060D4
:1022E000483200210D4804F0D1F9094A20616C32CE
:1022F00000210B4804F0CAF9054A606190320021C0
:10230000084804F0C3F9A06110BD000000000020DF
:102310000C8400088526000829250008A925000846
:10232000692600087525000810B58EB01C21684686
:10233000FDF7F0FF1C2107A8FDF7ECFF1A484FF04E
:10234000204110220160194941600621816000216D
:10235000C160C0E904128161C16113020162C0E978
:1023600009139302C0E90B134163816341640F2099
:102370003C230090CDE9010303AC112384E80E0057
:1023800009240691CDE907400AA8099480E80E00C7
:102390000D9107AA69460448FFF7B6FB002801D053
:1023A000FEF7CFF90EB010BD78010020040100A0A7
:1023B0002DE9F04F87B014216846FDF7ABFF454883
:1023C0000025016841F010010160016801F0100171
:1023D0000591016841F020010160016801F02001D0
:1023E0000591016841F080010160016801F0800100
:1023F0000591016841F001010160016801F00101EE
:102400000591016841F002010160016801F00201DB
:102410000591016841F008010160016801F00801BF
:102420000591016841F0400101600068DFF8A89063
:1024300000F04000059001224FF4C0614846FEF7CD
:10244000CEFFDFF898A04FF40048002241465046E6
:10245000FEF7C5FFDFF888B04FF400770022394659
:102460005846FEF7BCFF1C20CDE900050124694653
:1024700002941C48FEF7AEFE0097CDE9014569467F
:1024800048460395FEF7A6FEA002CDE90004022609
:10249000CDE9024669464846FEF79CFE8DE870008D
:1024A00069461148FEF796FECDF80080CDE901455A
:1024B000694650460395FEF78DFE01AA112000974C
:1024C00082E8510069465846FEF784FE07B0BDE831
:1024D000F08F000030380240001402400004024037
:1024E0000018024000100240000002400C4810B5E5
:1024F0000A4901604FF4E1314160002181600C2202
:10250000C160C0E904128161C161FFF787FD002845
:1025100003D0BDE81040FEF714B910BD0010014013
:10252000C8010020FEE7FEE71CB500F071FD104C6D
:102530004FF0FF3726464FF4FA6801A9684600F0CD
:10254000B3FD98B100253946706803F0FBFFE570D4
:102550002DB19DF8000060709DF80400A0707068B7
:1025600004F06CF8404603F0ADFFE6E70125EAE72A
:102570000000002001250A4EDFF82880AF0210215C
:102580003046FEF71FFF0446012D04D11CB9394621
:102590004046FEF71CFF25460A2003F093FFEEE7B6
:1025A00000100240001402400EB5FF24DFF89C80AA
:1025B0004FF0000A4FF01F0910264FF4784B00BF70
:1025C0004FF0FF314746D8F8040003F0BBFFD7E9CE
:1025D000005004F033F8CDE900694F46C5F30722F7
:1025E00002239621462003F0D1FDC5F307420223C2
:1025F000AA214620CDE9006703F0C8FDCDE9006AB5
:102600006E21EAB203230846029703F023FE2D0E43
:10261000A54217D04FF6FF7000902C4691236D22F3
:1026200082211E2003F090FA0CB109A100E00BA159
:10263000CDE900611023C822CDF808B082211E2008
:1026400003F0DDFDC82003F03DFFB9E700000020E6
:102650004448543131204F4B00000000444854316D
:1026600031204552524F5200054D4FF4007421461F
:102670002846FEF7ACFEC82003F024FFF7E7000071
:1026800000140240094C4FF0FF37264603F078FE55
:1026900005463946606803F055FF3570606803F001
:1026A000CDFFC82003F00EFFF0E70000000000207F
:1026B00010B54FF0E020006905F09EFC012803D022
:1026C000BDE8104005F00AB810BD000030B593B069
:1026D00030216846FDF71EFE14210CA8FDF71AFEF6
:1026E0001D480025016841F080510160006800F03C
:1026F000805011901948016841F4804101600068E0
:10270000022400F4804011900120039010200490D6
:10271000009406940820CDE90750A820CDE90904CB
:1027200004200B906846FFF739F808B172B6FEE74F
:102730000CA90F2081E831004FF4A0500F904FF406
:102740008050109005210CA8FEF71EFF002801D034
:1027500072B6FEE713B030BD403802400070004052
:1027600070B5194C2068194A10F00C01184804D0B3
:102770005510042903D0082903D002601BE005602E
:1027800019E01149091F0B68C3F380560B6803F069
:102790003F0316B1B5FBF3F201E0B2FBF3F20B68B5
:1027A0000968C3F388135A43C1F30141491C490026
:1027B000B2FBF1F101602168064AC1F30311515CDB
:1027C0000268CA40026070BD083802400024F4006C
:1027D0004800002048B400080248016841F4700134
:1027E0000160704788ED00E00148FFF72EBA000055
:1027F00010020020F0B50268274B284D284E294FC3
:10280000294C4FF0804C984209D0604507D0A8422F
:1028100005D0B04203D0B84201D0A04204D122F08A
:10282000700E4A6842EA0E0298421BD0604519D0E9
:10283000A84217D0B04215D0B84213D0A04211D050
:102840001A4DA8420ED01A4DA8420BD0194DA842DD
:1028500008D0194DA84205D0184DA84202D0184DF5
:10286000A84203D122F44075CA682A434D6922F078
:1028700080022A438D68C5620D688562984201D046
:10288000A04201D109690163016841F004010160BE
:10289000012141610260F0BD0000014000040040E0
:1028A00000080040000C00400004014000400140CE
:1028B000004401400048014000180040001C004056
:1028C0000020004010B5806B0021C185FFF764FA3D
:1028D00010BD01680C3151E8002F22F4907241E8DC
:1028E0000023002BF5D10168143151E8002F22F0AC
:1028F000010241E80023002BF5D1016B012909D128
:1029000001680C3151E8002F22F0100241E8002349
:10291000002BF5D1202180F842100021016370477F
:1029200008B590F84210222901D0022008BD826823
:102930004FF480539A4201D1016921B1816A9A42D0
:102940001BD04AB10AE00268816A5268C2F30802E9
:102950000A80816A891C08E0026972B102685268C3
:1029600002F07F020A70816A491C8162C18D491E92
:102970000904090CC18503D01BE002685268F1E725
:102980000168CA6822F02002CA600168CA6822F49D
:102990008072CA6001684A6922F001024A612021FE
:1029A00080F8421000214163026B012A03D0FFF737
:1029B000B3FB002008BD016301680C3151E8002F12
:1029C00022F0100241E80023002BF5D101680A68CB
:1029D000D20602D50A6849680091818DFFF7DBF9BC
:1029E000E7E7000070B5044600680169E26821F479
:1029F0004051114301612169A068E269084361699E
:102A0000114308432168CA6849F20C639A430243A0
:102A1000CA6020684169A26921F440711143416193
:102A200031492068884202D03049884202D1FEF7FD
:102A300075FE01E0FEF762FEE269002319216425BC
:102A40003226B2F5004F626828D0A0FB0101930F37
:102A50009200FDF715FC0146B0FBF5F06FF018028F
:102A6000504301EB800006EB0010B0FBF5F000F0E6
:102A7000F002B1FBF5F002EB0012B1FBF5F06FF0E4
:102A80001803584301EB800006EB0010B0FBF5F093
:102A900000F00F0021681044886070BDA0FB0101A8
:102AA00092185B41FDF7ECFB0146B0FBF5F002012B
:102AB000B1FBF5F06FF01803584301EB800006EB13
:102AC000C000B0FBF5F000F0F80002EB4002B1FBF3
:102AD000F5F0584301EB800006EBC000B0FBF5F0C9
:102AE00000F00700D6E7000000100140001401408C
:102AF00081628285C28500214164222180F84210D2
:102B0000016921B10168CA6842F48072CA60016833
:102B10004A6942F001024A610068C16841F020013F
:102B2000C160002070472DE9F843984617460D46CE
:102B30000446089E24E0701C22D0FEF755FCA0EB52
:102B40000800B0421AD8CEB12068C168490717D52D
:102B5000802D15D0402D13D00168C94309070FD42B
:102B600001680025406800902046FFF7B2FE08206B
:102B7000606484F840500120BDE8F8830320FBE73F
:102B80002068006835EA000004D00020B842D2D0A6
:102B90000020F1E70120F9E70148FFF7FFB8000046
:102BA000C8010020FEE700000FB4054B10B503A9D3
:102BB000044A029800F028F810BC5DF814FB0000ED
:102BC0004D310008CC0000200907090E002804DB65
:102BD00000F1E02080F80014704700F00F0000F1D1
:102BE000E02080F8141D704702E008C8121F08C1D9
:102BF000002AFAD170477047002001E001C1121F7E
:102C0000002AFBD1704700002DE9FF4F8DB09B4695
:102C10000F460446002606E025280BD05A460F9999
:102C20009047641C761C20780028F5D111B03046FE
:102C3000BDE8F08F0025A8460122984900E0054331
:102C400014F8013F203B02FA03F00842F7D1207844
:102C50002E2817D114F8010F45F004052A280ED0AC
:102C60006FF02F022078A0F1300109290AD808EB73
:102C7000880102EB410100EB0108641CF2E757F800
:102C8000048B641C20786C280DD004DC4C2812D0F6
:102C90006A2811D104E074280DD07A280CD10AE0FA
:102CA00045F4001507E0617845F48015814202D1B2
:102CB000641C05F58015641C2278692A45D008DC5F
:102CC000002AB3D0582A69D0632A10D0642A08D1C8
:102CD0003BE0702A67D0732A13D0752A5CD0782A1B
:102CE0005CD010465A460F999047761CD3E017F8EF
:102CF000040B8DF8000000208DF80100E94601204A
:102D000003E057F8049B4FF0FF3069074FF00005D0
:102D100001D40AE06D1C45450DDA8542FADB19F84D
:102D200005100029F6D106E06D1C8542FCDB19F880
:102D300005100029F8D12E4404E019F8010B5A4679
:102D40000F9990476D1EF8D2A5E00A200021CDE929
:102D50000801C5F3025002280DD001CFC117031E90
:102D600071F100030DDA4FF0000CD0EB0C006CEBAE
:102D700001012D2308E0FF1D27F00707F7E80201F6
:102D8000EDE72B0504D52B238DF8283001233BE0FC
:102D9000EB0739D02023F7E70A2000E010200021BC
:102DA000CDE9080107E01020002145F00405CDE938
:102DB00008014FF00808C5F3025002280FD001CFD8
:102DC00000214FF0000A2B071FD5702A0DD0DDE936
:102DD00008C38CF0100C5CEA030C0CD015E0FF1D4E
:102DE00027F00707F7E80201EBE740228DF82820DB
:102DF0004FF0010A0BE050EA010306D030238DF8B2
:102E000028308DF8292002239A46582A04D024A27B
:102E10000DF120090B9209E026A2F9E7DDE908236C
:102E2000FDF72EFA0B9B9B5C09F8013D50EA01026D
:102E3000F4D1ADEB090020300890680701D44FF0C1
:102E400001080899884502DDA8EB010000E0002098
:102E50008046002506E00AA85A46405D0F99904733
:102E60006D1C761C5545F6DB04E030205A460F9960
:102E70009047761CB8F10001A8F10108F5DC05E0E7
:102E800019F8010B5A460F999047761C0899481E6D
:102E900008900029F4DC641CC5E600000928010044
:102EA00030313233343536373839616263646566C0
:102EB0000000000030313233343536373839414282
:102EC000434445460000000010B50648FDF7C8FE23
:102ED0000A210448FDF76EFE0248FDF74FFD80B25F
:102EE00010BD0000D00000202DE9F04100250E4665
:102EF00007462C4608E03846FFF7E6FF0544052064
:102F000000F02CF8641CE4B2B442F4D3B5FBF6F044
:102F1000BDE8F08110B50C4C206808B9FFF720FC23
:102F20000A492068B0FBF1F00949086009480168C6
:102F300041F080710160084800214160016841F062
:102F40000101016010BD00004800002040420F0058
:102F500024000020FCED00E0001000E070B5054604
:102F600000244FF47A7603E0304600F005F8641C44
:102F7000AC42F9D370BD000004494A68044B1B6899
:102F800058434B689B1A8342FBD37047001000E004
:102F900024000020FCB50022009201921A4A936896
:102FA000127803EB8303DF00532A27D3DFF85CC0DA
:102FB00000226C460CEBC2031D69DB68EE1A04EBC1
:102FC000D2031D786D062D0E1D70BE4202D945F04C
:102FD00001051D70521CD2B2282AEBD39DF8003097
:102FE0009DF801209DF803509C189DF8022015447F
:102FF0002C449DF80450E4B2AC4201D00120FCBD49
:103000000B7002700020FCBD300000208003002007
:1030100010B514481449154C0068B0FBF1F0A060DD
:103020001348016841F0807101601248002141603D
:10303000016841F00101016003220021012004F038
:103040007DFB606008B9FDF77CFB00F015F80022FD
:1030500005211720FEF766FABDE810401720FEF79D
:1030600053BA00004800002040420F00300000200A
:10307000FCED00E0001000E000B585B014216846CA
:10308000FDF748F94FF400700090112001900120E5
:1030900002900220039069460248FEF79BF805B0B3
:1030A00000BD0000001802402DE9F04F244C8A4674
:1030B000834685B04FF001090021606804F00CFEE2
:1030C000FFF7DAFFDFF87C804FF400750022294615
:1030D0004046FEF784F9142004F040F90122294605
:1030E0004046FEF77CF9002626706670142168467B
:1030F000FDF710F94FF44410CDE9005001270220EC
:10310000CDE9027069464046FEF764F80E48056056
:1031100067700A21606804F0DFFD012804D1514680
:103120005846FFF737FF81466670FFF7A5FF01227B
:1031300029464046FEF753F905B04846BDE8F08FF2
:103140003000002000180240143C014013B56423F5
:10315000012269460248FFF713F800981CBD0000E1
:10316000C801002070B50A490646002408884D8829
:1031700021464543204602F021FF03F0F1F84FF0CD
:10318000D84002E0A0F88060641CAC42FAD370BD65
:10319000700300202DE9F04F38492C260A4688712B
:1031A00092884FF4305A4FF4285B41F6631E2B2768
:1031B0004FF02A0C4FF0F00845F210594FF44875C3
:1031C0004FF4A0744FF4F07358B10C80A1F8028052
:1031D0004A4530D1A1F808A0A1F80AB03802888188
:1031E00041E0A1F800804C804A4507D1A1F808A031
:1031F000A1F80AB04FF42C50888105E072450E8189
:1032000005D14F81A1F80CC00B804D8002E0A1F8E0
:103210000AC08F81A2F5A640103803D0A2F5EE4077
:10322000963801D10C804B80A2F5184006381FD18A
:103230000B804D801CE0724511D0A2F51840063875
:103240000DD00E81A1F80AC0A1F80C70A2F5A6401D
:1032500010380BD0A2F5EE40963807D008E00E816A
:10326000A1F80AC08F810D804B80EFE70B804C8066
:10327000BDE8F04F002002F0DFBD00007003002029
:1032800010B5144602F09AFE03F06AF84FF0D840E9
:10329000A0F8804010BD10B5CF2003F055F80020F5
:1032A00003F046F8C12003F043F8302003F040F863
:1032B000ED2003F049F8642003F03AF8032003F00E
:1032C00037F8122003F034F8812003F031F8E820B9
:1032D00003F03AF8852003F02BF8102003F028F8CB
:1032E0007A2003F025F8CB2003F02EF8392003F0E4
:1032F0001FF82C2003F01CF8002003F019F83420EC
:1033000003F016F8022003F013F8F72003F01CF87E
:10331000202003F00DF8EA2003F016F8002003F057
:1033200007F8002003F004F8C02003F00DF81B207C
:1033300002F0FEFFC12003F007F8012002F0F8FFC1
:10334000C52003F001F8302002F0F2FF302002F037
:10335000EFFFC72002F0F8FFB72002F0E9FF3620A8
:1033600002F0F2FF482002F0E3FF3A2002F0ECFF07
:10337000552002F0DDFFB12002F0E6FF002002F050
:10338000D7FF1A2002F0D4FFB62002F0DDFF0A209A
:1033900002F0CEFFA22002F0CBFFF22002F0D4FF19
:1033A000002002F0C5FF262002F0CEFF012002F02F
:1033B000BFFFE02002F0C8FF0F2002F0B9FF2A2073
:1033C00002F0B6FF282002F0B3FF082002F0B0FFA1
:1033D0000E2002F0ADFF082002F0AAFF542002F0F8
:1033E000A7FFA92002F0A4FF432002F0A1FF0A20BA
:1033F00002F09EFF0F2002F09BFF002002F098FFDA
:10340000002002F095FF002002F092FF002002F061
:103410008FFFE12002F098FF002002F089FF1520C5
:1034200002F086FF172002F083FF072002F080FFE2
:10343000112002F07DFF062002F07AFF2B2002F01F
:1034400077FF562002F074FF3C2002F071FF052048
:1034500002F06EFF102002F06BFF0F2002F068FFF9
:103460003F2002F065FF3F2002F062FF0F2002F0D4
:103470005FFF2B2002F068FF002002F059FF0020C0
:1034800002F056FF012002F053FF3F2002F050FFF0
:103490002A2002F059FF002002F04AFF002002F02B
:1034A00047FF002002F044FFEF2002F041FF11200F
:1034B00002F04AFF7820FDF7E7FDBDE81040292023
:1034C00002F042BF10B5FF2002F03EFFFF2002F0E5
:1034D0002FFF982002F02CFF062002F029FFBC20CD
:1034E00002F032FF012002F023FF0F2002F020FF44
:1034F000612002F01DFFFF2002F01AFF012002F000
:1035000017FF012002F014FF0B2002F011FF102022
:1035100002F00EFF372002F00BFF632002F008FFDD
:10352000FF2002F005FFFF2002F002FF012002F061
:10353000FFFE012002F0FCFE002002F0F9FE002058
:1035400002F0F6FEFF2002F0F3FE522002F0F0FE41
:10355000012002F0EDFE002002F0EAFE402002F021
:10356000E7FEBD2002F0F0FE012002F0E1FE232084
:1035700002F0DEFE452002F0DBFE672002F0D8FEFE
:10358000012002F0D5FE232002F0D2FE452002F0F9
:10359000CFFE672002F0CCFEBE2002F0D5FE002058
:1035A00002F0C6FE012002F0C3FEAB2002F0C0FE16
:1035B000602002F0BDFE222002F0BAFE222002F0BE
:1035C000B7FE222002F0B4FE222002F0B1FE22203B
:1035D00002F0AEFEC72002F0B7FE362002F0A8FED1
:1035E000ED2002F0B1FE7F2002F0A2FE0F2002F0DB
:1035F0009FFEC02002F0A8FE0F2002F099FE0B20D3
:1036000002F096FE0A2002F093FEFC2002F09CFEDF
:10361000082002F08DFEDF2002F096FE002002F06E
:1036200087FE002002F084FE002002F081FE0020D0
:1036300002F07EFE002002F07BFE202002F078FEE9
:10364000F32002F081FE742002F072FEB42002F03A
:103650007BFE002002F06CFE002002F069FE0020DC
:1036600002F066FEF72002F06FFE822002F060FE9C
:10367000B12002F069FE002002F05AFE132002F091
:1036800057FE132002F054FEF22002F05DFE80206F
:1036900002F04EFE042002F04BFE402002F048FEF5
:1036A000282002F045FEC12002F04EFE172002F055
:1036B0003FFE882002F03CFE882002F039FE2020E8
:1036C00002F036FEE02002F03FFE002002F030FE65
:1036D0000A2002F02DFE122002F02AFE102002F035
:1036E00027FE0E2002F024FE202002F021FECC2036
:1036F00002F01EFE072002F01BFE062002F018FE5C
:103700000B2002F015FE0E2002F012FE0F2002F038
:103710000FFE0D2002F00CFE152002F009FE102015
:1037200002F006FE002002F003FEE12002F00CFE93
:10373000002002F0FDFD0B2002F0FAFD132002F044
:10374000F7FD0D2002F0F4FD0E2002F0F1FD1B202C
:1037500002F0EEFD712002F0EBFD062002F0E8FD24
:10376000062002F0E5FD0A2002F0E2FD0F2002F043
:10377000DFFD0E2002F0DCFD0F2002F0D9FD152048
:1037800002F0D6FD0C2002F0D3FD002002F0D0FDA7
:103790002A2002F0D9FD002002F0CAFD002002F02C
:1037A000C7FD012002F0C4FDDF2002F0C1FD2B2087
:1037B00002F0CAFD002002F0BBFD002002F0B8FDBF
:1037C000032002F0B5FD1F2002F0B2FD3A2002F006
:1037D000BBFD552002F0ACFD362002F0B5FD002007
:1037E00002F0A6FD112002F0AFFD7820FDF74CFCA1
:1037F000292002F0A9FD1420FDF746FCBDE8104089
:103800002C2002F0A1BD10B5ED2002F09DFD01209D
:1038100002F08EFDFE2002F08BFDEE2002F094FD02
:10382000DE2002F085FD212002F082FDF12002F071
:103830008BFD012002F07CFDDF2002F085FD1020D1
:1038400002F076FDC42002F07FFD8F2002F070FDB3
:10385000C62002F079FD002002F06AFDE22002F0AD
:1038600067FDE22002F064FDE22002F061FDBF206E
:1038700002F06AFDAA2002F05BFDB02002F064FDB8
:103880000D2002F055FD002002F052FD0D2002F047
:103890004FFD002002F04CFD112002F049FD0020F8
:1038A00002F046FD192002F043FD002002F040FD29
:1038B000212002F03DFD002002F03AFD2D2002F013
:1038C00037FD002002F034FD3D2002F031FD0020E4
:1038D00002F02EFD5D2002F02BFD002002F028FDFD
:1038E0005D2002F025FD002002F022FDB12002F053
:1038F0002BFD802002F01CFD002002F019FD8B2022
:1039000002F016FD002002F013FD962002F010FDDB
:10391000002002F00DFDB22002F016FD002002F0A2
:1039200007FD002002F004FD022002F001FD00204E
:1039300002F0FEFC032002F0FBFC002002F0F8FC89
:10394000B32002F001FD002002F0F2FC002002F0A2
:10395000EFFC002002F0ECFC002002F0E9FC00206B
:1039600002F0E6FC002002F0E3FC002002F0E0FCA4
:10397000002002F0DDFC002002F0DAFC002002F062
:10398000D7FC002002F0D4FC002002F0D1FC002083
:1039900002F0CEFC002002F0CBFC002002F0C8FCBC
:1039A000002002F0C5FC002002F0C2FC002002F062
:1039B000BFFC002002F0BCFC002002F0B9FC00209B
:1039C00002F0B6FC002002F0B3FC002002F0B0FCD4
:1039D000002002F0ADFCB42002F0B6FC8B2002F017
:1039E000A7FC002002F0A4FC962002F0A1FC00201D
:1039F00002F09EFCA12002F09BFC002002F098FC4B
:103A0000B52002F0A1FC022002F092FC002002F09E
:103A10008FFC032002F08CFC002002F089FC0420C3
:103A200002F086FC002002F083FCB62002F08CFC41
:103A3000002002F07DFC002002F07AFCB72002F0AA
:103A400083FC002002F074FC002002F071FC3F2097
:103A500002F06EFC002002F06BFC5E2002F068FCBD
:103A6000002002F065FC642002F062FC002002F0FD
:103A70005FFC8C2002F05CFC002002F059FCAC20C2
:103A800002F056FC002002F053FCDC2002F050FC57
:103A9000002002F04DFC702002F04AFC002002F0F1
:103AA00047FC902002F044FC002002F041FCEB2097
:103AB00002F03EFC002002F03BFCDC2002F038FC6F
:103AC000002002F035FCB82002F03EFC002002F09D
:103AD0002FFC002002F02CFC002002F029FC00202A
:103AE00002F026FC002002F023FC002002F020FC63
:103AF000002002F01DFC002002F01AFCBA2002F0A7
:103B000023FC242002F014FC002002F011FC002011
:103B100002F00EFC002002F00BFCC12002F014FCAD
:103B2000202002F005FC002002F002FC542002F0EC
:103B3000FFFB002002F0FCFBFF2002F0F9FB00205D
:103B400002F0F6FBC22002F0FFFB0A2002F0F0FBBD
:103B5000002002F0EDFB042002F0EAFB002002F05E
:103B6000E7FBC32002F0F0FB3C2002F0E1FB002069
:103B700002F0DEFB3A2002F0DBFB002002F0D8FB73
:103B8000392002F0D5FB002002F0D2FB372002F0F2
:103B9000CFFB002002F0CCFB3C2002F0C9FB002050
:103BA00002F0C6FB362002F0C3FB002002F0C0FB8F
:103BB000322002F0BDFB002002F0BAFB2F2002F001
:103BC000B7FB002002F0B4FB2C2002F0B1FB002078
:103BD00002F0AEFB292002F0ABFB002002F0A8FBB4
:103BE000262002F0A5FB002002F0A2FB242002F018
:103BF0009FFB002002F09CFB242002F099FB002098
:103C000002F096FB232002F093FB002002F090FBD1
:103C10003C2002F08DFB002002F08AFB362002F0EF
:103C200087FB002002F084FB322002F081FB0020A1
:103C300002F07EFB2F2002F07BFB002002F078FBDD
:103C40002C2002F075FB002002F072FB292002F00C
:103C50006FFB002002F06CFB262002F069FB0020C5
:103C600002F066FB242002F063FB002002F060FB00
:103C7000242002F05DFB002002F05AFB232002F01A
:103C800057FB002002F054FBC42002F05DFB6220D1
:103C900002F04EFB002002F04BFB052002F048FB37
:103CA000002002F045FB842002F042FB002002F0DD
:103CB0003FFBF02002F03CFB002002F039FB182013
:103CC00002F036FB002002F033FBA42002F030FBB0
:103CD000002002F02DFB182002F02AFB002002F049
:103CE00027FB502002F024FB002002F021FB0C20D7
:103CF00002F01EFB002002F01BFB172002F018FB55
:103D0000002002F015FB952002F012FB002002F0CB
:103D10000FFBF32002F00CFB002002F009FBE62071
:103D200002F006FB002002F003FBC52002F00CFBB2
:103D3000322002F0FDFA002002F0FAFA442002F0EC
:103D4000F7FA002002F0F4FA652002F0F1FA002000
:103D500002F0EEFA762002F0EBFA002002F0E8FA28
:103D6000882002F0E5FA002002F0E2FAC62002F014
:103D7000EBFA202002F0DCFA002002F0D9FA17203A
:103D800002F0D6FA002002F0D3FA012002F0D0FAB5
:103D9000002002F0CDFAC72002F0D6FA002002F08F
:103DA000C7FA002002F0C4FA002002F0C1FA002095
:103DB00002F0BEFAC82002F0C7FA002002F0B8FAFA
:103DC000002002F0B5FA002002F0B2FA002002F062
:103DD000AFFAC92002F0B8FA002002F0A9FA0020D8
:103DE00002F0A6FA002002F0A3FA002002F0A0FAE6
:103DF000002002F09DFA002002F09AFA002002F062
:103E000097FA002002F094FA002002F091FA0020C4
:103E100002F08EFA002002F08BFA002002F088FAFD
:103E2000002002F085FA002002F082FA002002F061
:103E30007FFA002002F07CFAE02002F085FA1620DA
:103E400002F076FA002002F073FA1C2002F070FAF9
:103E5000002002F06DFA212002F06AFA002002F040
:103E600067FA362002F064FA002002F061FA462078
:103E700002F05EFA002002F05BFA522002F058FADB
:103E8000002002F055FA642002F052FA002002F0FD
:103E90004FFA7A2002F04CFA002002F049FA8B2007
:103EA00002F046FA002002F043FA992002F040FAAC
:103EB000002002F03DFAA82002F03AFA002002F0B9
:103EC00037FAB92002F034FA002002F031FAC420A7
:103ED00002F02EFA002002F02BFACA2002F028FA93
:103EE000002002F025FAD22002F022FA002002F08F
:103EF0001FFAD92002F01CFA002002F019FAE02083
:103F000002F016FA002002F013FAF32002F010FA81
:103F1000002002F00DFAE12002F016FA162002F05D
:103F200007FA002002F004FA1C2002F001FA002037
:103F300002F0FEF9222002F0FBF9002002F0F8F96D
:103F4000362002F0F5F9002002F0F2F9452002F0E7
:103F5000EFF9002002F0ECF9522002F0E9F900201C
:103F600002F0E6F9642002F0E3F9002002F0E0F943
:103F70007A2002F0DDF9002002F0DAF98B2002F05D
:103F8000D7F9002002F0D4F9992002F0D1F90020ED
:103F900002F0CEF9A82002F0CBF9002002F0C8F917
:103FA000B92002F0C5F9002002F0C2F9C42002F0E5
:103FB000BFF9002002F0BCF9CA2002F0B9F90020D4
:103FC00002F0B6F9D22002F0B3F9002002F0B0F905
:103FD000D82002F0ADF9002002F0AAF9E02002F0AA
:103FE000A7F9002002F0A4F9F32002F0A1F90020C3
:103FF00002F09EF9E22002F0A7F9052002F098F9FC
:10400000002002F095F90B2002F092F9002002F056
:104010008FF91B2002F08CF9002002F089F934207E
:1040200002F086F9002002F083F9442002F080F9C2
:10403000002002F07DF94F2002F07AF9002002F012
:1040400077F9612002F074F9002002F071F979200B
:1040500002F06EF9002002F06BF9882002F068F996
:10406000002002F065F9972002F062F9002002F0CA
:104070005FF9A62002F05CF9002002F059F9B720A0
:1040800002F056F9002002F053F9C22002F050F974
:10409000002002F04DF9C72002F04AF9002002F09A
:1040A00047F9D12002F044F9002002F041F9D6206E
:1040B00002F03EF9002002F03BF9DD2002F038F971
:1040C000002002F035F9F32002F032F9002002F06E
:1040D0002FF9E32002F038F9052002F029F9002039
:1040E00002F026F90A2002F023F9002002F020F95C
:1040F0001C2002F01DF9002002F01AF9332002F012
:1041000017F9002002F014F9442002F011F9002000
:1041100002F00EF9502002F00BF9002002F008F92D
:10412000622002F005F9002002F002F9782002F086
:10413000FFF8002002F0FCF8882002F0F9F80020D7
:1041400002F0F6F8972002F0F3F8002002F0F0F801
:10415000A62002F0EDF8002002F0EAF8B72002F005
:10416000E7F8002002F0E4F8C22002F0E1F80020B5
:1041700002F0DEF8C72002F0DBF8002002F0D8F8E9
:10418000D12002F0D5F8002002F0D2F8D52002F0BC
:10419000CFF8002002F0CCF8DD2002F0C9F80020B2
:1041A00002F0C6F8F32002F0C3F8002002F0C0F8D5
:1041B000E42002F0C9F8012002F0BAF8002002F071
:1041C000B7F8012002F0B4F8002002F0B1F80220A4
:1041D00002F0AEF8002002F0ABF82A2002F0A8F8B6
:1041E000002002F0A5F83C2002F0A2F8002002F026
:1041F0009FF84B2002F09CF8002002F099F85D2017
:1042000002F096F8002002F093F8742002F090F883
:10421000002002F08DF8842002F08AF8002002F0DD
:1042200087F8932002F084F8002002F081F8A220A1
:1042300002F07EF8002002F07BF8B32002F078F85C
:10424000002002F075F8BE2002F072F8002002F0A3
:104250006FF8C42002F06CF8002002F069F8CD205D
:1042600002F066F8002002F063F8D32002F060F854
:10427000002002F05DF8DD2002F05AF8002002F084
:1042800057F8F32002F054F8002002F051F8E5202E
:1042900002F05AF8002002F04BF8002002F048F833
:1042A000002002F045F8002002F042F8022002F05F
:1042B0003FF8002002F03CF8292002F039F80020F5
:1042C00002F036F83C2002F033F8002002F030F81B
:1042D0004B2002F02DF8002002F02AF85D2002F0B9
:1042E00027F8002002F024F8742002F021F80020C2
:1042F00002F01EF8842002F01BF8002002F018F8EB
:10430000932002F015F8002002F012F8A22002F02B
:104310000FF8002002F00CF8B32002F009F800209A
:1043200002F006F8BE2002F003F8002002F000F8C8
:10433000C42001F0FDFF002001F0FAFFCD2001F0C4
:10434000F7FF002001F0F4FFD32001F0F1FF00207F
:1043500001F0EEFFDC2001F0EBFF002001F0E8FFB0
:10436000F32001F0E5FF002001F0E2FFE62001F07C
:10437000EBFF112001F0DCFF002001F0D9FF342019
:1043800001F0D6FF002001F0D3FF562001F0D0FF4E
:10439000002001F0CDFF762001F0CAFF002001F0DF
:1043A000C7FF772001F0C4FF002001F0C1FF6620A5
:1043B00001F0BEFF002001F0BBFF882001F0B8FF34
:1043C000002001F0B5FF992001F0B2FF002001F0BC
:1043D000AFFFBB2001F0ACFF002001F0A9FF992046
:1043E00001F0A6FF002001F0A3FF662001F0A0FF6E
:1043F000002001F09DFF552001F09AFF002001F000
:1044000097FF552001F094FF002001F091FF452017
:1044100001F08EFF002001F08BFF432001F088FFA8
:10442000002001F085FF442001F082FF002001F010
:104430007FFFE72001F088FF322001F079FF0020A4
:1044400001F076FF552001F073FF002001F070FFAE
:10445000762001F06DFF002001F06AFF662001F078
:1044600067FF002001F064FF672001F061FF00207A
:1044700001F05EFF672001F05BFF002001F058FFB4
:10448000872001F055FF002001F052FF992001F034
:104490004FFF002001F04CFFBB2001F049FF00203E
:1044A00001F046FF992001F043FF002001F040FF9A
:1044B000772001F03DFF002001F03AFF442001F099
:1044C00037FF002001F034FF562001F031FF0020BB
:1044D00001F02EFF232001F02BFF002001F028FF28
:1044E000332001F025FF002001F022FF452001F0DC
:1044F0001FFF002001F01CFFE82001F025FF002035
:1045000001F016FF002001F013FF992001F010FFC9
:10451000002001F00DFF872001F00AFF002001F0CC
:1045200007FF882001F004FF002001F001FF772041
:1045300001F0FEFE002001F0FBFE662001F0F8FE17
:10454000002001F0F5FE882001F0F2FE002001F0CD
:10455000EFFEAA2001F0ECFE002001F0E9FEBB20F6
:1045600001F0E6FE002001F0E3FE992001F0E0FEFC
:10457000002001F0DDFE662001F0DAFE002001F0EF
:10458000D7FE552001F0D4FE002001F0D1FE5520C9
:1045900001F0CEFE002001F0CBFE442001F0C8FE69
:1045A000002001F0C5FE442001F0C2FE002001F011
:1045B000BFFE552001F0BCFE002001F0B9FEE9204D
:1045C00001F0C2FEAA2001F0B3FE002001F0B0FE0F
:1045D000002001F0ADFE002001F0AAFE002001F055
:1045E000B3FEAA2001F0A4FECF2001F0ADFE002012
:1045F00001F09EFE002001F09BFE002001F098FEDD
:10460000002001F095FE002001F092FE002001F054
:104610008FFE002001F08CFE002001F089FE0020BA
:1046200001F086FE002001F083FE002001F080FEF4
:10463000002001F07DFE002001F07AFE002001F054
:1046400077FE002001F074FE002001F071FE0020D2
:1046500001F06EFEF02001F077FE002001F068FE10
:10466000502001F065FE002001F062FE002001F004
:104670005FFE002001F05CFEF32001F065FE0020EB
:1046800001F056FEF92001F05FFE062001F050FE19
:10469000102001F04DFE292001F04AFE002001F01B
:1046A00047FE3A2001F050FE552001F041FE112056
:1046B00001F04AFE6420FCF7E7FC292001F044FEEB
:1046C000352001F041FE002001F032FE512001F0C2
:1046D0003BFEFF2001F02CFE532001F035FE2C2084
:1046E00001F026FE552001F02FFE822001F020FE71
:1046F000BDE810402C2001F027BE2DE9F05F4FF4FB
:1047000070445521204601F035FE651CAA2128463B
:1047100001F030FEA61C5221304601F02BFEE71CB2
:104720000821384601F026FE4FF2040801214046D8
:1047300001F020FE4FF436433421184601F01AFEF2
:1047400034214BF2016001F015FE34214BF202607E
:1047500001F010FE4FF430490D21484601F00AFEE9
:104760004BF2010A0D21504601F004FE4BF2020B00
:104770000D21584601F0FEFD24214FF4374001F091
:10478000F9FD24214BF2017001F0F4FD24214BF2DC
:10479000027001F0EFFD0D214FF4314001F0EAFD10
:1047A0000D214BF2011001F0E5FD0D214BF202103D
:1047B00001F0E0FD24214FF4384001F0DBFD24211D
:1047C0004BF6010001F0D6FD24214BF6020001F06A
:1047D000D1FD00214FF4324001F0CCFD24214FF4F3
:1047E000394001F0C7FD24214BF6011001F0C2FD54
:1047F00024214BF6021001F0BDFD05214FF433409A
:1048000001F0B8FD05214BF2013001F0B3FD0521A7
:104810004BF2023001F0AEFD34214FF43A4001F08A
:10482000A9FD34214BF6012001F0A4FD34214BF603
:10483000022001F09FFD0B214FF4354001F09AFD5D
:104840000B214BF2015001F095FD0B214BF2025070
:1048500001F090FD00214FF43C4001F08BFDA321BD
:104860004BF6014001F086FD00214BF6024001F0BD
:1048700081FD00214FF43D4001F07CFDA3214BF66A
:10488000015001F077FD00214BF6025001F072FD5E
:1048900000214FF43E4001F06DFD37214BF60160E1
:1048A00001F068FD00214FF4514001F063FD372114
:1048B0004DF2011001F05EFD00214DF2021001F0F9
:1048C00059FD53214DF2031001F054FD00214DF22A
:1048D000041001F04FFD79214DF2051001F04AFD61
:1048E00000214DF2061001F045FD97214DF2071011
:1048F00001F040FD00214DF2081001F03BFDB12117
:104900004DF2091001F036FD00214DF20A1001F0C0
:1049100031FDD5214DF20B1001F02CFD00214DF29F
:104920000C1001F027FDF4214DF20D1001F022FDD5
:1049300001214DF20E1001F01DFD23214DF20F104B
:1049400001F018FD01214DF2101001F013FD492175
:104950004DF2111001F00EFD01214DF2121001F087
:1049600009FD87214DF2131001F004FD01214DF2E4
:10497000141001F0FFFCB6214DF2151001F0FAFC05
:1049800002214DF2161001F0F5FC00214DF2171036
:1049900001F0F0FC02214DF2181001F0EBFC3B217C
:1049A0004DF2191001F0E6FC02214DF21A1001F04F
:1049B000E1FC3D214DF21B1001F0DCFC02214DF227
:1049C0001C1001F0D7FC75214DF21D1001F0D2FC36
:1049D00002214DF21E1001F0CDFCB1214DF21F104D
:1049E00001F0C8FC02214DF2201001F0C3FCD521DA
:1049F0004DF2211001F0BEFC03214DF2221001F016
:104A0000B9FC09214DF2231001F0B4FC03214DF251
:104A1000241001F0AFFC28214DF2251001F0AAFC72
:104A200003214DF2261001F0A5FC52214DF2271072
:104A300001F0A0FC03214DF2281001F09BFC6B213A
:104A40004DF2291001F096FC03214DF22A1001F0DD
:104A500091FC8D214DF22B1001F08CFC03214DF2C5
:104A60002C1001F087FCA2214DF22D1001F082FCE8
:104A700003214DF22E1001F07DFCBB214DF22F10D1
:104A800001F078FC03214DF2301001F073FCC121DC
:104A90004DF2311001F06EFC03214DF2321001F0A5
:104AA00069FCC1214DF2331001F064FC00214FF488
:104AB000524001F05FFC37214DF2012001F05AFC19
:104AC00000214DF2022001F055FC53214DF203204C
:104AD00001F050FC00214DF2042001F04BFC792143
:104AE0004DF2052001F046FC00214DF2062001F0B8
:104AF00041FC97214DF2072001F03CFC00214DF2D2
:104B0000082001F037FCB1214DF2092001F032FC00
:104B100000214DF20A2001F02DFCD5214DF20B2091
:104B200001F028FC00214DF20C2001F023FCF421BF
:104B30004DF20D2001F01EFC01214DF20E2001F07E
:104B400019FC23214DF20F2001F014FC01214DF23C
:104B5000102001F00FFC49214DF2112001F00AFC58
:104B600001214DF2122001F005FC87214DF21320A6
:104B700001F000FC01214DF2142001F0FBFBB621F5
:104B80004DF2152001F0F6FB02214DF2162001F046
:104B9000F1FB00214DF2172001F0ECFB02214DF258
:104BA000182001F0E7FB3B214DF2192001F0E2FB58
:104BB00002214DF21A2001F0DDFB3D214DF21B20B8
:104BC00001F0D8FB02214DF21C2001F0D3FB75212E
:104BD0004DF21D2001F0CEFB02214DF21E2001F00E
:104BE000C9FBB1214DF21F2001F0C4FB02214DF29F
:104BF000202001F0BFFBD5214DF2212001F0BAFBAE
:104C000003214DF2222001F0B5FB09214DF22320B2
:104C100001F0B0FB03214DF2242001F0ABFB282171
:104C20004DF2252001F0A6FB03214DF2262001F0D4
:104C3000A1FB52214DF2272001F09CFB03214DF2F4
:104C4000282001F097FB6B214DF2292001F092FB07
:104C500003214DF22A2001F08DFB8D214DF22B20F6
:104C600001F088FB03214DF22C2001F083FBA221EF
:104C70004DF22D2001F07EFB03214DF22E2001F09C
:104C800079FBBB214DF22F2001F074FB03214DF283
:104C9000302001F06FFBC1214DF2312001F06AFBA1
:104CA00003214DF2322001F065FBC1214DF233208A
:104CB00001F060FB00214FF4534001F05BFB372112
:104CC0004DF2013001F056FB00214DF2023001F0AF
:104CD00051FB53214DF2033001F04CFB00214DF20A
:104CE000043001F047FB79214DF2053001F042FB21
:104CF00000214DF2063001F03DFB97214DF20730C7
:104D000001F038FB00214DF2083001F033FBB121F6
:104D10004DF2093001F02EFB00214DF20A3001F076
:104D200029FBD5214DF20B3001F024FB00214DF27F
:104D30000C3001F01FFBF4214DF20D3001F01AFB95
:104D400001214DF20E3001F015FB23214DF20F3001
:104D500001F010FB01214DF2103001F00BFB492155
:104D60004DF2113001F006FB01214DF2123001F03D
:104D700001FB87214DF2133001F0FCFA01214DF2C5
:104D8000143001F0F7FAB6214DF2153001F0F2FAC5
:104D900002214DF2163001F0EDFA00214DF21730EC
:104DA00001F0E8FA02214DF2183001F0E3FA3B215C
:104DB0004DF2193001F0DEFA02214DF21A3001F005
:104DC000D9FA3D214DF21B3001F0D4FA02214DF207
:104DD0001C3001F0CFFA75214DF21D3001F0CAFAF6
:104DE00002214DF21E3001F0C5FAB1214DF21F3003
:104DF00001F0C0FA02214DF2203001F0BBFAD521BA
:104E00004DF2213001F0B6FA03214DF2223001F0CB
:104E1000B1FA09214DF2233001F0ACFA03214DF231
:104E2000243001F0A7FA28214DF2253001F0A2FA32
:104E300003214DF2263001F09DFA52214DF2273028
:104E400001F098FA03214DF2283001F093FA6B211A
:104E50004DF2293001F08EFA03214DF22A3001F093
:104E600089FA8D214DF22B3001F084FA03214DF2A5
:104E70002C3001F07FFAA2214DF22D3001F07AFAA8
:104E800003214DF22E3001F075FABB214DF22F3087
:104E900001F070FA03214DF2303001F06BFAC121BC
:104EA0004DF2313001F066FA03214DF2323001F05B
:104EB00061FAC1214DF2333001F05CFA00214FF468
:104EC000544001F057FA37214DF2014001F052FAF7
:104ED00000214DF2024001F04DFA53214DF2034002
:104EE00001F048FA00214DF2044001F043FA792123
:104EF0004DF2054001F03EFA00214DF2064001F06E
:104F000039FA97214DF2074001F034FA00214DF2B1
:104F1000084001F02FFAB1214DF2094001F02AFAC0
:104F200000214DF20A4001F025FAD5214DF20B4047
:104F300001F020FA00214DF20C4001F01BFAF4219F
:104F40004DF20D4001F016FA01214DF20E4001F034
:104F500011FA23214DF20F4001F00CFA01214DF21C
:104F6000104001F007FA49214DF2114001F002FA18
:104F700001214DF2124001F0FDF987214DF213405D
:104F800001F0F8F901214DF2144001F0F3F9B621D6
:104F90004DF2154001F0EEF902214DF2164001F0FC
:104FA000E9F900214DF2174001F0E4F902214DF238
:104FB000184001F0DFF93B214DF2194001F0DAF918
:104FC00002214DF21A4001F0D5F93D214DF21B406E
:104FD00001F0D0F902214DF21C4001F0CBF975210E
:104FE0004DF21D4001F0C6F902214DF21E4001F0C4
:104FF000C1F9B1214DF21F4001F0BCF902214DF27F
:10500000204001F0B7F9D5214DF2214001F0B2F96D
:1050100003214DF2224001F0ADF909214DF2234068
:1050200001F0A8F903214DF2244001F0A3F9282151
:105030004DF2254001F09EF903214DF2264001F08A
:1050400099F952214DF2274001F094F903214DF2D4
:10505000284001F08FF96B214DF2294001F08AF9C7
:1050600003214DF22A4001F085F98D214DF22B40AC
:1050700001F080F903214DF22C4001F07BF9A221CF
:105080004DF22D4001F076F903214DF22E4001F052
:1050900071F9BB214DF22F4001F06CF903214DF263
:1050A000304001F067F9C1214DF2314001F062F961
:1050B00003214DF2324001F05DF9C1214DF2334040
:1050C00001F058F900214FF4554001F053F9372110
:1050D0004DF2015001F04EF900214DF2025001F065
:1050E00049F953214DF2035001F044F900214DF2EA
:1050F000045001F03FF979214DF2055001F03AF9E1
:1051000000214DF2065001F035F997214DF207507C
:1051100001F030F900214DF2085001F02BF9B121D6
:105120004DF2095001F026F900214DF20A5001F02C
:1051300021F9D5214DF20B5001F01CF900214DF25F
:105140000C5001F017F9F4214DF20D5001F012F955
:1051500001214DF20E5001F00DF923214DF20F50B7
:1051600001F008F901214DF2105001F003F9492135
:105170004DF2115001F0FEF801214DF2125001F0F4
:10518000F9F887214DF2135001F0F4F801214DF2A6
:10519000145001F0EFF8B6214DF2155001F0EAF885
:1051A00002214DF2165001F0E5F800214DF21750A2
:1051B00001F0E0F802214DF2185001F0DBF83B213C
:1051C0004DF2195001F0D6F802214DF21A5001F0BB
:1051D000D1F83D214DF21B5001F0CCF802214DF2E7
:1051E0001C5001F0C7F875214DF21D5001F0C2F8B6
:1051F00002214DF21E5001F0BDF8B1214DF21F50B9
:1052000001F0B8F802214DF2205001F0B3F8D52199
:105210004DF2215001F0AEF803214DF2225001F081
:10522000A9F809214DF2235001F0A4F803214DF211
:10523000245001F09FF828214DF2255001F09AF8F2
:1052400003214DF2265001F095F852214DF22750DE
:1052500001F090F803214DF2285001F08BF86B21FA
:105260004DF2295001F086F803214DF22A5001F049
:1052700081F88D214DF22B5001F07CF803214DF285
:105280002C5001F077F8A2214DF22D5001F072F868
:1052900003214DF22E5001F06DF8BB214DF22F503D
:1052A00001F068F803214DF2305001F063F8C1219C
:1052B0004DF2315001F05EF803214DF2325001F011
:1052C00059F8C1214DF2335001F054F800214FF448
:1052D000564001F04FF837214DF2016001F04AF8D5
:1052E00000214DF2026001F045F853214DF20360B8
:1052F00001F040F800214DF2046001F03BF8792103
:105300004DF2056001F036F800214DF2066001F023
:1053100031F897214DF2076001F02CF800214DF291
:10532000086001F027F8B1214DF2096001F022F880
:1053300000214DF20A6001F01DF8D5214DF20B60FD
:1053400001F018F800214DF20C6001F013F8F4217F
:105350004DF20D6001F00EF801214DF20E6001F0EA
:1053600009F823214DF20F6001F004F801214DF2FC
:10537000106000F0FFFF49214DF2116000F0FAFFCC
:1053800001214DF2126000F0F5FF87214DF213600C
:1053900000F0F0FF01214DF2146000F0EBFFB621A8
:1053A0004DF2156000F0E6FF02214DF2166000F0AC
:1053B000E1FF00214DF2176000F0DCFF02214DF209
:1053C000186000F0D7FF3B214DF2196000F0D2FFCA
:1053D00002214DF21A6000F0CDFF3D214DF21B601D
:1053E00000F0C8FF02214DF21C6000F0C3FF7521E0
:1053F0004DF21D6000F0BEFF02214DF21E6000F074
:10540000B9FFB1214DF21F6000F0B4FF02214DF24F
:10541000206000F0AFFFD5214DF2216000F0AAFF1F
:1054200003214DF2226000F0A5FF09214DF2236017
:1054300000F0A0FF03214DF2246000F09BFF282123
:105440004DF2256000F096FF03214DF2266000F03A
:1054500091FF52214DF2276000F08CFF03214DF2A5
:10546000286000F087FF6B214DF2296000F082FF79
:1054700003214DF22A6000F07DFF8D214DF22B605B
:1054800000F078FF03214DF22C6000F073FFA221A1
:105490004DF22D6000F06EFF03214DF22E6000F002
:1054A00069FFBB214DF22F6000F064FF03214DF234
:1054B000306000F05FFFC1214DF2316000F05AFF13
:1054C00003214DF2326000F055FFC1214DF23360EF
:1054D00000F050FF5521204600F04CFFAA2128463D
:1054E00000F048FF5221304600F044FF08213846C2
:1054F00000F040FF0021404600F03CFF00214846FC
:1055000000F038FF0521504600F034FF02215846D4
:1055100000F030FF05214BF2030000F02BFF0221C9
:105520004BF2040000F026FF0821184600F022FF8D
:1055300050214FF4354000F01DFF0521184600F0C2
:1055400019FF00214FF4374000F014FF00214BF207
:10555000017000F00FFF01214FF4384000F00AFF06
:1055600005214BF6010000F005FF05214BF6020076
:1055700000F000FF05214BF6030000F0FBFE0221C6
:105580004FF43C4000F0F6FE00214BF6014000F0E5
:10559000F1FE00214BF6024000F0ECFE03214FF437
:1055A0004C4000F0E7FE00214CF6014000F0E2FE26
:1055B00000214CF6024000F0DDFE01214FF43D4099
:1055C00000F0D8FE84214BF6015000F0D3FE0721F5
:1055D0004BF6025000F0CEFE31214BF6035000F0A6
:1055E000C9FE00214BF6045000F0C4FE01214FF427
:1055F0003A4000F0BFFEAA214FF47F4000F0BAFE0F
:1056000055214FF6017000F0B5FE25214FF60270CE
:1056100000F0B0FE01214FF6037000F0ABFE402118
:105620004FF4585000F0A6FE00214FF4545000F003
:10563000A1FE05214FF4685000F09CFE4FF4885005
:1056400000F082FE7820FBF71FFD4FF4245000F09D
:105650007BFE0A20FBF718FDBDE8F05F4FF43050E9
:1056600000F072BE10B5E22000F06EFE1D2000F0CA
:105670005FFE022000F05CFE042000F059FE0120D5
:10568000FBF702FDE02000F05FFE012000F050FE7D
:105690000A20FBF7F9FCE02000F056FE032000F0A2
:1056A00047FE0C20FBF7F0FC012000F04DFE0A2025
:1056B000FBF7EAFCE62000F047FE2F2000F038FE62
:1056C000FF2000F035FEFF2000F032FEB02000F099
:1056D0003BFE202000F02CFE002000F029FE0320DD
:1056E00000F026FE40F21F3000F022FE012000F004
:1056F0001FFE40F2DF1000F01BFE002000F018FE3D
:10570000B42000F021FE042000F012FE40F21F4001
:1057100000F00EFE002000F00BFE2E2000F008FE30
:10572000002000F005FE002000F002FE002000F046
:10573000FFFD002000F0FCFDB62000F005FE022079
:1057400000F0F6FD4FF4037000F0F2FD002000F0D1
:10575000EFFD172000F0ECFD152000F0E9FD002022
:1057600000F0E6FD002000F0E3FDF02000F0ECFD8D
:10577000032000F0DDFD292000F0E6FDD02000F040
:10578000E3FD002000F0D4FDBE2000F0DDFD05208B
:1057900000F0CEFDFE2000F0CBFD012000F0C8FDA2
:1057A000002000F0C5FD002000F0C2FD002000F048
:1057B000BFFDB82000F0C8FD032000F0B9FD0120B6
:1057C00000F0B6FDBA2000F0BFFDBDE8104001209A
:1057D00000F0AEBD10B5112000F0B6FD7820FBF74B
:1057E00053FC362000F0B0FD002000F0A1FD3A206F
:1057F00000F0AAFD052000F09BFDB22000F0A4FD02
:105800000C2000F095FD0C2000F092FD002000F02F
:105810008FFD332000F08CFD332000F089FDB72090
:1058200000F092FD352000F083FDBB2000F08CFDE0
:10583000322000F07DFDC02000F086FD0C2000F03D
:1058400077FDC22000F080FD012000F071FDC32033
:1058500000F07AFD102000F06BFDC42000F074FD14
:10586000202000F065FDC62000F06EFD0F2000F046
:105870005FFDD02000F068FDA42000F059FDA120BC
:1058800000F056FDE02000F05FFDD02000F050FD5C
:10589000002000F04DFD022000F04AFD072000F03E
:1058A00047FD0A2000F044FD282000F041FD322091
:1058B00000F03EFD442000F03BFD422000F038FDAA
:1058C000062000F035FD0E2000F032FD122000F021
:1058D0002FFD142000F02CFD172000F029FDE12001
:1058E00000F032FDD02000F023FD002000F020FD6C
:1058F000022000F01DFD072000F01AFD0A2000F034
:1059000017FD282000F014FD312000F011FD542077
:1059100000F00EFD472000F00BFD0E2000F008FD0A
:105920001C2000F005FD172000F002FD1B2000F0F8
:10593000FFFC1E2000F0FCFC2A2000F005FD0020EA
:1059400000F0F6FC002000F0F3FC002000F0F0FC7A
:10595000EF2000F0EDFC2B2000F0F6FC002000F022
:10596000E7FC002000F0E4FC012000F0E1FC3F2017
:1059700000F0DEFCBDE81040292000F0E5BC10B5C9
:10598000112000F0E1FC7820FBF77EFB362000F0D0
:10599000DBFC482000F0CCFC3A2000F0D5FC552080
:1059A00000F0C6FCF02000F0CFFCC32000F0C0FCEB
:1059B000F02000F0C9FC962000F0BAFCB42000F002
:1059C000C3FC012000F0B4FCB62000F0BDFC0A20AE
:1059D00000F0AEFCA22000F0ABFCB72000F0B4FC5D
:1059E000C62000F0A5FCB92000F0AEFC022000F0BB
:1059F0009FFCE02000F09CFCC02000F0A5FC802073
:105A000000F096FC162000F093FCC12000F09CFCF6
:105A1000192000F08DFCC22000F096FCA72000F0B9
:105A200087FCC52000F090FC162000F081FCE820E7
:105A300000F08AFC402000F07BFC8A2000F078FC1B
:105A4000002000F075FC002000F072FC292000F01E
:105A50006FFC192000F06CFCA52000F069FC3320DD
:105A600000F066FCE02000F06FFCF02000F060FC2D
:105A7000072000F05DFC0D2000F05AFC042000F02F
:105A800057FC052000F054FC142000F051FC362097
:105A900000F04EFC542000F04BFC4C2000F048FC81
:105AA000382000F045FC132000F042FC142000F0E8
:105AB0003FFC2E2000F03CFC342000F039FCE120BB
:105AC00000F042FCF02000F033FC102000F030FC2D
:105AD000142000F02DFC0E2000F02AFC0C2000F019
