:020000040800F2
:10000000E00500209D0100084F1600088B14000831
:100010004D16000895040008C519000800000000EE
:10002000000000000000000000000000531600085F
:10003000970400080000000051160008551600083B
:10004000B7010008B7010008B7010008B7010008B0
:10005000B7010008B7010008B7010008B7010008A0
:10006000B7010008B7010008B7010008B701000890
:10007000B7010008B7010008B7010008B701000880
:10008000B7010008B7010008B7010008B701000870
:10009000B7010008B7010008B7010008B701000860
:1000A000B7010008B7010008B7010008B701000850
:1000B000B7010008B7010008B7010008B701000840
:1000C000B7010008B7010008B7010008B701000830
:1000D000B7010008B9190008B7010008B701000806
:1000E000B7010008B7010008B7010008B701000810
:1000F000B7010008B7010008B7010008B701000800
:10010000B7010008B7010008B7010008B7010008EF
:10011000B7010008B7010008B7010008B7010008DF
:10012000B7010008B7010008B7010008B7010008CF
:10013000B7010008B7010008B7010008B7010008BF
:10014000B7010008B7010008B7010008B7010008AF
:10015000B7010008B7010008B7010008B70100089F
:10016000B7010008B7010008B7010008B70100088F
:10017000B7010008B7010008B7010008000000003F
:10018000B7010008B7010008DFF80CD000F070F9E3
:10019000004800477D4C0008E005002006488047E5
:1001A00006480047FEE7FEE7FEE7FEE7FEE7FEE75C
:1001B000FEE7FEE7FEE7FEE7D51600088901000826
:1001C0002DE9F05F0546002092469B46884606468C
:1001D000814640241BE0284641464746224600F01F
:1001E000D9F853465A46C01A914110D311461846C1
:1001F000224600F0C0F82D1A67EB01084F46224650
:100200000120002100F0B7F817EB00094E41201E35
:10021000A4F10104DFDC484631462A464346BDE8E6
:10022000F09FD2B201E000F8012B491EFBD27047CB
:100230000022F6E710B513460A4604461946FFF7B2
:10024000F0FF204610BD2DE9FE4F81EA030404F0C3
:10025000004421F0004100944FF0000B23F00043D4
:1002600050EA01045ED052EA03045BD0C3F30A549F
:10027000C1F30A552C44A4F2F3340194A0FB0254B8
:10028000C1F3130141F48011C3F3130343F480134A
:1002900001FB024400FB034E840A970A44EA81549E
:1002A00047EA8357A4FB076802958D0A05FB07857B
:1002B0004FEA932C04FB0C542705029D4FEA065885
:1002C00047EA1637B5EB08056EEB070C870E920E62
:1002D00047EA811742EA8312A7FB0201B6EB0B0142
:1002E00064EB00042B0D43EA0C335E1844EB1C5006
:1002F000DA465146E7FB0201C5F313044FEA0B331C
:1003000043EA14534FEA0432019C43EA0603A4F182
:100310000C040294009CCDE900B400F05AF803B03C
:10032000BDE8F08F00200146F9E70EB540F23341F9
:1003300002910021CDE900110A460B4600F049F870
:1003400003B000BDC1F30A5210B5C1F3130140F26E
:10035000FF3341F480119A4201DA002010BD40F2CF
:1003600033439A42A2F2334203DC524200F012F8C5
:1003700010BD904010BD202A04DB203A00FA02F1A3
:10038000002070479140C2F1200320FA03F3194383
:1003900090407047202A04DB203A21FA02F0002125
:1003A000704721FA02F3D040C2F120029140084385
:1003B0001946704710B5141E73F1000408DA401C8A
:1003C00041F1000192185B411A4301D120F0010074
:1003D00010BD2DE9F04D92469B4611B1B1FA81F264
:1003E00002E0B0FA80F220329046FFF7C4FF0446E4
:1003F0000F4640EA0A0041EA0B0153465A460843B9
:1004000013D0114653EA010019D0C8F140025046FA
:10041000FFF7C0FF05460E46504659464246FFF7D5
:10042000AAFF084305D0012004E020463946BDE874
:10043000F08D0020054346EAE0762C4337430A98C6
:100440006305E40AA0EB08000022FD0A44EA4754D1
:100450000A3002D500200146E9E70105101969417B
:10046000DDE9084500196941BDE8F04DA2E700004B
:10047000064C074D06E0E06840F0010394E80700F1
:1004800098471034AC42F6D3FFF782FEC04C000808
:10049000E04C0008FEE7704772B6FEE730B5B3F5F2
:1004A000804F05D06FF0704140F82210002030BD21
:1004B0008C690B688D6823434C688989240144EA60
:1004C0000524234343EA014150F82230014C2340E4
:1004D0001943E9E70000F0CF10B50A6850F8223060
:1004E00023F0010340F822308C68082C23D000232D
:1004F0004A682243CC681C430B6922431A434B6968
:100500000E4C1A43CB691A430B6A1A434B6A1A43BF
:100510008B6A1A43CB6A1A430B6B1A438B691343DA
:10052000CA6B09681A4350F82130A343134340F8BB
:100530002130002010BD4023DAE700007FFF0F00CC
:1005400030B5D1E9003443EA04138C688D89240264
:1005500044EA054423430C8A074D00EB820005EB77
:10056000045423430C7D6D0105EB04648969234326
:100570000B434360002030BD0000F0FF2DE9F04147
:100580000446876D00F0BAF9064694F83500002558
:10059000022806D08020606584F834500120BDE830
:1005A000F0812068016821F016010160206841692E
:1005B00021F080014161206C08B9A06C20B1206855
:1005C000016821F0080101602068016821F0010143
:1005D00001600CE000F092F9801B052807D920206B
:1005E0006065032084F8350084F83450D7E720682C
:1005F0000068C007EED194F85C103F208840B860D6
:10060000012084F8350084F834500020C7E790F8C2
:100610003510022903D08021416501207047052152
:1006200080F835100068016821F0010101600020A8
:100630007047000070B5044600F060F90546601C84
:1006400002D004480078044400F058F9401BA0424E
:10065000FAD370BD0C0000202DE9F04186B01421C2
:100660006846FFF7E5FD20480168002939D10121DE
:1006700001601E480024016841F00101016000682A
:100680004FF4805800F001000C27CDF80080CDE930
:100690000470032602250396CDE9015469461448E7
:1006A00000F02EF84FF68070CDE9000502AA6946E9
:1006B00082E8D0000F4800F023F84CF23370CDE907
:1006C000000502AA694682E8D0000B4800F018F83D
:1006D00002AA694682E8D000CDE90085074800F00B
:1006E0000FF806B0BDE8F081000000203838024065
:1006F0000014024000100240000C024000180240AA
:100700002DE9F84FDFF8BCA10022012503264FF0A8
:100710000F090AF1040BAAF1040E00BF0B6805FAD9
:1007200002F42340A34270D10F7907F00307012F91
:1007300001D0022F16D187684FEA420806FA08FC5A
:1007400027EA0C07D1F80CC00CFA08FC4CEA070C9D
:10075000C0F808C04768A7430C79C4F3001494405C
:100760003C4344600C79E443A4070AD0C4684FEAD0
:10077000420C06FA0CF7BC438F6807FA0CF72743C4
:10078000C7600C7904F00304022C12D1D40800EBEA
:10079000840CDCF820405707FF0E09FA07F824EA1A
:1007A0000804D1F8108008FA07F848EA0408CCF8E1
:1007B000208004684FEA420C06FA0CF7BC430F791C
:1007C00007F0030707FA0CF7274307604C6814F497
:1007D000403F70D03C4C276847F48047276024682E
:1007E00022F0030704F480440094384C07EB040C17
:1007F000DCF8084897074FEA177809FA08F7BC436E
:10080000334FB84202D1002724E054E0314FB842C0
:1008100001D101271EE0304FB84201D1022719E073
:100820002E4FB84201D1032714E02D4FB84201D119
:1008300004270FE02B4FB84201D105270AE02A4FC9
:10084000B84201D1062705E0284FB84201D1072759
:1008500000E0082707FA08F72743CCF80878DAF809
:1008600000405746D1F804C09C435FEACC2C00D529
:100870001C433C60DBF800405F46D1F804C09C4359
:100880005FEA8C2C00D51C433C60DEF800407746C4
:10089000D1F804C09C435FEA8C3C00D51C433C600B
:1008A000084F083F3C68D1F804C09C435FEACC3C49
:1008B00000D51C433C60521C102AFFF42FAFBDE84A
:1008C000F88F0000083C01404438024000300140ED
:1008D000000002400004024000080240000C0240F8
:1008E000001002400014024000180240001C0240A8
:1008F0000AB1816170470904FBE700000148806884
:10090000704700000C000020024881680278114402
:10091000816070470C0000200B4810B5016841F45D
:1009200000710160016841F480610160016841F477
:1009300080710160032000F06FF80F2000F006F8CE
:1009400000F024F8002010BD003C024070B50D4DB1
:1009500004464FF47A712878B1FBF0F00A4909682F
:10096000B1FBF0F000F03AFB48B9102C07D200229E
:100970002146501E00F030F800206C6070BD012050
:1009800070BD00000C000020180000200A4808B5C7
:10099000016841F480410160006800F480400090EB
:1009A0000548001F016841F080510160006800F0B7
:1009B0008050009008BD000044380240002809DB48
:1009C00000F01F02012191404009800000F1E02069
:1009D000C0F8001170470000F0B40E4B1B680C46C5
:1009E000C3F30223C3F10705042D00D90425191D03
:1009F000072901D2002300E0DB1E012606FA05F1DB
:100A0000491E214099409E40761E16403143F0BC5D
:100A100000F0EABF0CED00E0064900F007020868AC
:100A20004FF6FF03184040EA0220034A10430860D3
:100A3000704700000CED00E00000FA052DE9F047DA
:100A40000E46050065D0DFF81481D8F80000F7B233
:100A500000F00700B04207D288F80070D8F8000014
:100A600000F00700B04254D128683D4C810712D5F0
:100A7000400703D5206840F4E05020602878000744
:100A800003D5206840F4604020602068A96820F009
:100A9000F000084320602878C0072DD030496868EE
:100AA0000839012812D0022813D0032811D0096870
:100AB000890700292DDA216821F003010143216013
:100AC000FFF71CFF814641F2883A0EE0096889036E
:100AD000EFE709688901ECE7FFF710FFA0EB0901D8
:100AE000514502D90320BDE8F0872068696800F00D
:100AF0000C00B0EB810FEFD1D8F80010404601F0A8
:100B00000701B14207D90770006800F00700B04242
:100B100001D00120E7E72878400705D52068E9687B
:100B200020F4E050084320602878000706D52068AC
:100B3000296920F4604040EAC100206000F038F8E4
:100B40002168084AC1F30311515CC8400649086096
:100B500006480068FFF7FAFE0020C4E7003C0240A8
:100B600008380240A84C000818000020100000209F
:100B70000448054900680968044AC1F38221515CB0
:100B8000C84070471800002008380240B84C0008E0
:100B90000448054900680968044AC1F34231515CC0
:100BA000C84070471800002008380240B84C0008C0
:100BB000154810B5006810F00C02144813D041100D
:100BC000042A0FD0082A0ED10F4C241F2268236854
:100BD00002F03F025B0207D52068C0F38810A0FB3B
:100BE000010106E0084610BD2168C1F38811A1FB90
:100BF00000010023FFF7E4FA2168C1F30141491C19
:100C00004900B0FBF1F010BD083802400024F400A8
:100C10002DE9F84F04006ED02078DFF84C93C00720
:100C2000A9F104054AD009F104000168C1F381016A
:100C3000012908D00068C0F3810002280AD1D9F840
:100C40000000400206D52868800337D56068002878
:100C5000E1D033E06068B0F5803F10D0B0F5A02F50
:100C6000286810D020F480302860286820F4802084
:100C700028606068A8B1FFF741FE06460DE02868CD
:100C800040F48030F4E740F480202860F7E700BFAC
:100C9000FFF734FE801B642873D828688003F7D5DB
:100CA0000CE0FFF72BFE064605E000BFFFF726FE2F
:100CB000801B6428F0D828688003F7D42078DFF8F8
:100CC000AC8280074FF0000A3ED5A748001D01689E
:100CD00011F00C0F08D00068C0F3810002280BD17E
:100CE000D9F80000400207D42868800716D5E068CC
:100CF000012800D112E033E1E068B8B10120C8F862
:100D00000000FFF7FBFD064605E000BFFFF7F6FD1C
:100D1000801B0228C0D828688007F7D52868216979
:100D200020F0F80040EAC10028600DE0C8F800A0FB
:100D3000FFF7E4FD064604E0FFF7E0FD801B022814
:100D40001FD828688007F7D42078000722D5864F5F
:100D500087486169703771B101210160FFF7CEFDED
:100D6000064604E0FFF7CAFD801B022809D8386850
:100D70008007F7D50EE0C0F800A0FFF7BFFD0646DC
:100D800005E082E0FFF7BAFD801B02287DD83868B5
:100D90008007F7D42078400768D5DFF8CCB100276A
:100DA0000BF13C0BDBF80000C0000BD4DBF80010AB
:100DB00041F08051CBF80010DBF80000012700F073
:100DC000805000906B4E3068C00510D4306840F4FD
:100DD00080703060FFF792FD009005E0FFF78EFD18
:100DE0000099401A022850D83068C005F6D55E4EEA
:100DF000A0686C3601280FD00528306810D020F08C
:100E000001003060306820F004003060A068B8B1A4
:100E1000FFF774FD00900FE0306840F00100F4E748
:100E200040F004003060F7E7FFF768FD0099411AD1
:100E300041F28830814266D830688007F4D50EE0F0
:100E4000FFF75CFD009007E0FFF758FD0099411A9D
:100E500041F28830814256D830688007F4D42FB1EF
:100E6000DBF8001021F08051CBF80010A069C8B366
:100E70003D49091D0968C1F3810102294AD00228B0
:100E8000504607D0C8F8600000E03CE0FFF736FDB0
:100E900004463BE04746C8F86000FFF72FFD0646D2
:100EA00005E000BFFFF72AFD801B02282BD8286829
:100EB0008001F7D4D4E907010843A16A2E4A490802
:100EC00002EB0141626A41EA8211084394F82C1056
:100ED00040EA0161C9F8001001203866FFF70EFDF5
:100EE000044606E03EE000BFFFF708FD001B0228B5
:100EF00009D828688001F7D534E000BFFFF7FEFC71
:100F0000001B022802D90320BDE8F88F2868800161
:100F1000F4D427E00128F7D0D9F80000E26900F402
:100F2000800191421CD1226A00F03F01914217D109
:100F300047F6C071626A0140B1EB821F10D1A26A0C
:100F40004FF0FF3300F4403103EB5202B1EB024F9C
:100F500006D194F82C1000F07060B0EB016F01D056
:100F60000120D1E70020CFE70438024000004742CB
:100F7000800E4742007000400000FFFF70B515462C
:100F80000E46040003D094F8490010B107E0012098
:100F900070BD002084F84800204600F01DF804F1E0
:100FA00008012068FFF798FA3146A2682068FFF729
:100FB000C7FAD4E901022946236BFFF76FFA2168CB
:100FC000A06851F8202042F0010241F820200120C1
:100FD00084F84900002070BDFFF73EBB10B5401EED
:100FE000B0F1807F01D3012010BD4FF0E02460619B
:100FF0000F21601700F0F8FC0020A061072020619D
:10100000002010BD70477047F8B5016804460868B5
:10101000CA684B6910F00F0F4FF0000559D003F06C
:10102000010602F49077374365D0C10705D0D1059A
:1010300003D5616C41F001016164410705D5D90711
:1010400003D0616C41F002016164810705D5D907C5
:1010500003D0616C41F004016164010707D502F01F
:101060002001314303D0616C41F008016164616C7F
:1010700000293AD0800604D5900602D5204600F01B
:101080005FFB20684069616CC0F38010090700D4E1
:1010900060B3204600F02DFB20684069400621D552
:1010A0002068143050E8001F21F0400140E8001291
:1010B000002AF5D1E06BA8B172490165E06BFFF73A
:1010C000A6FA002811D0E06B016D01B0BDE8F04038
:1010D000084783060FD593060DD52046BDE8F84096
:1010E00000F02EBB2046FFF78EFFF8BD2046FFF72D
:1010F0008AFF6564F8BD266B2023012E7ED1C606CB
:101100007CD5D6067AD508684868009048694FF0C3
:10111000020640064DD5E26B106840684FF48077B8
:101120000004000C3AD0A18D814237D9E085D06906
:10113000B8422DD020680C3050E8001F21F4807197
:1011400040E80012002AF5D12068143050E8001F52
:1011500021F0010140E80012002AF5D12068143086
:1011600050E8001F21F0400140E80012002AF5D1AC
:1011700084F84230256320680C3050E8001F21F0CD
:10118000100140E80012002AF5D1E06BFFF7F6F9F4
:101190006663A08DE18D401A81B206E0A18D814287
:1011A000A8D1D069B842A5D166632046FFF72AFFCF
:1011B000F8BDA08DE18D401A81B2E08D0028F7D0F6
:1011C0000029F5D020680C3050E8002F22F49072EE
:1011D00040E80027002FF5D12068143050E8002F98
:1011E00022F0010240E80027002FF5D184F84230B8
:1011F000256320680C3050E8002F00E006E022F064
:10120000100240E80023002BF3D1CDE705062BD5D3
:10121000150629D594F841002128C9D1A068B0F558
:10122000805F01D12069B0B1206A411C2162216830
:1012300000784860E08C401E0004000CE084B7D1C8
:101240002068C16821F08001C1602068C16841F058
:101250004001C160F8BD206A0088C0F30800486002
:10126000206A801C2062E5E74006F3D55006F1D5E0
:10127000CA68204622F04002CA6084F8413000F07B
:1012800003F9F8BDE516000870B5040004D094F821
:101290004100002510B106E0012070BD84F84050E7
:1012A000204600F023F8242084F841002068C1681B
:1012B00021F40051C160204600F0A4FA20680169C1
:1012C00021F4904101612068416921F02A014161C6
:1012D0002068C16841F40051C1606564202084F831
:1012E000410084F842006563002070BD10B586B0EF
:1012F000044614216846FEF79BFF17492068884280
:1013000028D11648016841F010010160006800F022
:101310001000059011481438016841F00101016086
:101320000068012100F0010005904FF4C0600090BA
:101330000220CDE901010390072004906946084886
:10134000FFF7DEF9002211462520FFF745FB252097
:10135000FFF734FB06B010BD0010014044380240D6
:101360000000024090F84230202B01D0022070474C
:1013700021B11AB10023036300F0CABA01207047FB
:1013800030B400681549884225D1154841880A04BF
:1013900016D402464C0412784FF0000304D50A2AF2
:1013A0000DD141F4004114E00D2A10D0C1F30D0419
:1013B0000C4D491C89B22A554180C72900D9438068
:1013C0000848012230BC0649C830FFF7CBBF41F4C2
:1013D00080414180F4E730BC7047000000100140BC
:1013E00008000020700000202DE9F843044690F822
:1013F0004100984616460D46202802D00220BDE83E
:10140000F88385B17EB100206064212084F841001A
:10141000FFF774FAA6848146E684A0682027B0F519
:10142000805F02D003E00120E9E7206910B12E4679
:1014300000250EE000260CE08021204600F083FA13
:10144000A8B9C6B116F8010B21684860E08C401EAF
:10145000E084E08C4B464FF00002CDF8008000287D
:10146000EAD14FF04001204600F06DFA40B184F817
:1014700041700320C3E735F8020BC0F30800E3E72F
:1014800084F841700020BAE77047FEE710B58EB0CF
:101490001C216846FEF7CCFE1C2107A8FEF7C8FEFB
:1014A0001A484FF02041102201601949416006217D
:1014B00081600021C160C0E904128161C161130231
:1014C0000162C0E909139302C0E90B134163816310
:1014D00041640F203C230090CDE9010303AC1123AC
:1014E00084E80E0009240691CDE907400AA8099472
:1014F00080E80E000D9107AA69460448FFF73EFDFB
:10150000002801D0FEF7C8FF0EB010BD200000205B
:10151000040100A02DE9F04387B014216846FEF7CE
:1015200087FE37480025016841F01001016001681D
:1015300001F010010591016841F02001016001688E
:1015400001F020010591016841F08001016001680E
:1015500001F080010591016841F00101016001681D
:1015600001F001010591016841F00201016001688B
:1015700001F002010591016841F008010160016874
:1015800001F008010591016841F040010160006827
:10159000DFF8708000F040004FF4C0660590012233
:1015A00031464046FFF7A4F9DFF85C904FF400475E
:1015B000002239464846FFF79BF91C20CDE900057B
:1015C0000124694602941148FFF79AF8CDE90064B6
:1015D0000226CDE9024669464046FFF791F88DE8BC
:1015E000700069460A48FFF78BF80097CDE901457E
:1015F000694648460395FFF783F807B0BDE8F083D6
:101600003038024000140240000402400010024042
:10161000000002400C4810B50A4901604FF4E13166
:101620004160002181600C22C160C0E90412816127
:10163000C161FFF729FE002803D0BDE81040FEF786
:101640002BBF10BD0010014038010020FEE7FEE76F
:1016500070477047FFF758B910B592B0302168460F
:10166000FEF7E6FD14210CA8FEF7E2FD1748002462
:10167000016841F080510160006800F080501190D5
:101680001348016841F4804101600068069400F449
:1016900080401190022000900120039010200490BF
:1016A0006846FFF7B5FA08B172B6FEE70F20CDE93C
:1016B0000C040E940F9400210CA81094FFF7BEF9AF
:1016C000002801D072B6FEE712B010BD40380240CB
:1016D000007000400248016841F4700101607047E9
:1016E00088ED00E010B5806B0021C185FFF78BFC11
:1016F00010BD01680C3151E8002F22F4907241E8CE
:101700000023002BF5D10168143151E8002F22F09D
:10171000010241E80023002BF5D1016B012909D119
:1017200001680C3151E8002F22F0100241E800233B
:10173000002BF5D1202180F8421000210163704771
:1017400008B590F84210222901D0022008BD826815
:101750004FF480539A4201D1016921B1816A9A42C2
:101760001BD04AB10AE00268816A5268C2F30802DB
:101770000A80816A891C08E0026972B102685268B5
:1017800002F07F020A70816A491C8162C18D491E84
:101790000904090CC18503D01BE002685268F1E717
:1017A0000168CA6822F02002CA600168CA6822F48F
:1017B0008072CA6001684A6922F001024A612021F0
:1017C00080F8421000214163026B012A03D0FFF729
:1017D000D7FD002008BD016301680C3151E8002FDE
:1017E00022F0100241E80023002BF5D101680A68BD
:1017F000D20602D50A6849680091818DFFF702FC84
:10180000E7E7000070B5044600680169E26821F46A
:101810004051114301612169A068E269084361698F
:10182000114308432168CA6849F20C639A43024392
:10183000CA6020684169A26921F440711143416185
:1018400031492068884202D03049884202D1FFF7EE
:101850009FF901E0FFF78CF9E26900231921642563
:101860003226B2F5004F626828D0A0FB0101930F29
:101870009200FEF7A5FC0146B0FBF5F06FF01802F0
:10188000504301EB800006EB0010B0FBF5F000F0D8
:10189000F002B1FBF5F002EB0012B1FBF5F06FF0D6
:1018A0001803584301EB800006EB0010B0FBF5F085
:1018B00000F00F0021681044886070BDA0FB01019A
:1018C00092185B41FEF77CFC0146B0FBF5F002018B
:1018D000B1FBF5F06FF01803584301EB800006EB05
:1018E000C000B0FBF5F000F0F80002EB4002B1FBE5
:1018F000F5F0584301EB800006EBC000B0FBF5F0BB
:1019000000F00700D6E7000000100140001401407D
:1019100081628285C28500214164222180F84210C3
:10192000016921B10168CA6842F48072CA60016825
:101930004A6942F001024A610068C16841F0200131
:10194000C160002070472DE9F843984617460D46C0
:101950000446089E24E0701C22D0FEF7CFFFA0EBC7
:101960000800B0421AD8CEB12068C168490717D51F
:10197000802D15D0402D13D00168C94309070FD41D
:1019800001680025406800902046FFF7B2FE08205D
:10199000606484F840500120BDE8F8830320FBE731
:1019A0002068006835EA000004D00020B842D2D098
:1019B0000020F1E70120F9E70148FFF725BB00000F
:1019C00038010020FEE700000FB4054B10B503A955
:1019D000044A029800F028F810BC5DF814FB0000DF
:1019E000E91C00081C0000200907090E002804DB80
:1019F00000F1E02080F80014704700F00F0000F1C3
:101A0000E02080F8141D704702E008C8121F08C1CA
:101A1000002AFAD170477047002001E001C1121F6F
:101A2000002AFBD1704700002DE9FF4F8DB09B4687
:101A30000F460446002606E025280BD05A460F998B
:101A40009047641C761C20780028F5D111B03046F0
:101A5000BDE8F08F0025A8460122984900E0054323
:101A600014F8013F203B02FA03F00842F7D1207836
:101A70002E2817D114F8010F45F004052A280ED09E
:101A80006FF02F022078A0F1300109290AD808EB65
:101A9000880102EB410100EB0108641CF2E757F8F2
:101AA000048B641C20786C280DD004DC4C2812D0E8
:101AB0006A2811D104E074280DD07A280CD10AE0EC
:101AC00045F4001507E0617845F48015814202D1A4
:101AD000641C05F58015641C2278692A45D008DC51
:101AE000002AB3D0582A69D0632A10D0642A08D1BA
:101AF0003BE0702A67D0732A13D0752A5CD0782A0D
:101B00005CD010465A460F999047761CD3E017F8E0
:101B1000040B8DF8000000208DF80100E94601203B
:101B200003E057F8049B4FF0FF3069074FF00005C2
:101B300001D40AE06D1C45450DDA8542FADB19F83F
:101B400005100029F6D106E06D1C8542FCDB19F872
:101B500005100029F8D12E4404E019F8010B5A466B
:101B60000F9990476D1EF8D2A5E00A200021CDE91B
:101B70000801C5F3025002280DD001CFC117031E82
:101B800071F100030DDA4FF0000CD0EB0C006CEBA0
:101B900001012D2308E0FF1D27F00707F7E80201E8
:101BA000EDE72B0504D52B238DF8283001233BE0EE
:101BB000EB0739D02023F7E70A2000E010200021AE
:101BC000CDE9080107E01020002145F00405CDE92A
:101BD00008014FF00808C5F3025002280FD001CFCA
:101BE00000214FF0000A2B071FD5702A0DD0DDE928
:101BF00008C38CF0100C5CEA030C0CD015E0FF1D40
:101C000027F00707F7E80201EBE740228DF82820CC
:101C10004FF0010A0BE050EA010306D030238DF8A3
:101C200028308DF8292002239A46582A04D024A26D
:101C30000DF120090B9209E026A2F9E7DDE908235E
:101C4000FEF7BEFA0B9B9B5C09F8013D50EA0102CE
:101C5000F4D1ADEB090020300890680701D44FF0B3
:101C600001080899884502DDA8EB010000E000208A
:101C70008046002506E00AA85A46405D0F99904725
:101C80006D1C761C5545F6DB04E030205A460F9952
:101C90009047761CB8F10001A8F10108F5DC05E0D9
:101CA00019F8010B5A460F999047761C0899481E5F
:101CB00008900029F4DC641CC5E600000928010036
:101CC00030313233343536373839616263646566B2
:101CD0000000000030313233343536373839414274
:101CE000434445460000000013B54FF6FF73012240
:101CF00069460248FFF778FB00981CBD38010020B8
:101D000070B50A490646002408884D882146454397
:101D1000204602F0E9FE02F0A1FF4FF0D84002E0B9
:101D2000A0F88060641CAC42FAD370BDD0010020E2
:101D30002DE9F04F38492C260A46887192884FF4D5
:101D4000305A4FF4285B41F6631E2B274FF02A0CC4
:101D50004FF0F00845F210594FF448754FF4A07455
:101D60004FF4F07358B10C80A1F802804A4530D18D
:101D7000A1F808A0A1F80AB03802888141E0A1F8D2
:101D800000804C804A4507D1A1F808A0A1F80AB00C
:101D90004FF42C50888105E072450E8105D14F81AA
:101DA000A1F80CC00B804D8002E0A1F80AC08F8121
:101DB000A2F5A640103803D0A2F5EE40963801D126
:101DC0000C804B80A2F5184006381FD10B804D8047
:101DD0001CE0724511D0A2F5184006380DD00E81D6
:101DE000A1F80AC0A1F80C70A2F5A64010380BD0DB
:101DF000A2F5EE40963807D008E00E81A1F80AC09F
:101E00008F810D804B80EFE70B804C80BDE8F04F59
:101E1000002002F0A7BD0000D001002010B5CF20A7
:101E200002F010FF002002F001FFC12002F0FEFED0
:101E3000302002F0FBFEED2002F004FF642002F0EF
:101E4000F5FE032002F0F2FE122002F0EFFE8120E8
:101E500002F0ECFEE82002F0F5FE852002F0E6FE3E
:101E6000102002F0E3FE7A2002F0E0FECB2002F028
:101E7000E9FE392002F0DAFE2C2002F0D7FE002025
:101E800002F0D4FE342002F0D1FE022002F0CEFE99
:101E9000F72002F0D7FE202002F0C8FEEA2002F070
:101EA000D1FE002002F0C2FE002002F0BFFEC020E2
:101EB00002F0C8FE1B2002F0B9FEC12002F0C2FEF3
:101EC000012002F0B3FEC52002F0BCFE302002F07B
:101ED000ADFE302002F0AAFEC72002F0B3FEB7200C
:101EE00002F0A4FE362002F0ADFE482002F09EFE75
:101EF0003A2002F0A7FE552002F098FEB12002F031
:101F0000A1FE002002F092FE1A2002F08FFEB62001
:101F100002F098FE0A2002F089FEA22002F086FE5E
:101F2000F22002F08FFE002002F080FE262002F058
:101F300089FE012002F07AFEE02002F083FE0F20ED
:101F400002F074FE2A2002F071FE282002F06EFEDC
:101F5000082002F06BFE0E2002F068FE082002F05E
:101F600065FE542002F062FEA92002F05FFE4320CD
:101F700002F05CFE0A2002F059FE0F2002F056FE2D
:101F8000002002F053FE002002F050FE002002F07C
:101F90004DFE002002F04AFEE12002F053FE002038
:101FA00002F044FE152002F041FE172002F03EFE32
:101FB000072002F03BFE112002F038FE062002F05E
:101FC00035FE2B2002F032FE562002F02FFE3C2080
:101FD00002F02CFE052002F029FE102002F026FE61
:101FE0000F2002F023FE3F2002F020FE3F2002F0EF
:101FF0001DFE0F2002F01AFE2B2002F023FE00200F
:1020000002F014FE002002F011FE012002F00EFE8C
:102010003F2002F00BFE2A2002F014FE002002F006
:1020200005FE002002F002FE002002F0FFFDEF207E
:1020300002F0FCFD112002F005FE7820FEF7FAFA0E
:10204000BDE81040292002F0FDBD10B5FF2002F0D0
:10205000F9FDFF2002F0EAFD982002F0E7FD0620DE
:1020600002F0E4FDBC2002F0EDFD012002F0DEFDF7
:102070000F2002F0DBFD612002F0D8FDFF2002F00E
:10208000D5FD012002F0D2FD012002F0CFFD0B2092
:1020900002F0CCFD102002F0C9FD372002F0C6FD91
:1020A000632002F0C3FDFF2002F0C0FDFF2002F01C
:1020B000BDFD012002F0BAFD012002F0B7FD0020B5
:1020C00002F0B4FD002002F0B1FDFF2002F0AEFDF1
:1020D000522002F0ABFD012002F0A8FD002002F02A
:1020E000A5FD402002F0A2FDBD2002F0ABFD0120C5
:1020F00002F09CFD232002F099FD452002F096FDA0
:10210000672002F093FD012002F090FD232002F0F1
:102110008DFD452002F08AFD672002F087FDBE207C
:1021200002F090FD002002F081FD012002F07EFD12
:10213000AB2002F07BFD602002F078FD222002F04F
:1021400075FD222002F072FD222002F06FFD222098
:1021500002F06CFD222002F069FDC72002F072FD42
:10216000362002F063FDED2002F06CFD7F2002F0CE
:102170005DFD0F2002F05AFDC02002F063FD0F202C
:1021800002F054FD0B2002F051FD0A2002F04EFD3A
:10219000FC2002F057FD082002F048FDDF2002F08D
:1021A00051FD002002F042FD002002F03FFD002022
:1021B00002F03CFD002002F039FD002002F036FD67
:1021C000202002F033FDF32002F03CFD742002F0E9
:1021D0002DFDB42002F036FD002002F027FD002086
:1021E00002F024FD002002F021FDF72002F02AFD7C
:1021F000822002F01BFDB12002F024FD002002F03D
:1022000015FD132002F012FD132002F00FFDF22045
:1022100002F018FD802002F009FD042002F006FD06
:10222000402002F003FD282002F000FDC12002F052
:1022300009FD172002F0FAFC882002F0F7FC882044
:1022400002F0F4FC202002F0F1FCE02002F0FAFCA5
:10225000002002F0EBFC0A2002F0E8FC122002F061
:10226000E5FC102002F0E2FC0E2002F0DFFC202052
:1022700002F0DCFCCC2002F0D9FC072002F0D6FCF6
:10228000062002F0D3FC0B2002F0D0FC0E2002F05E
:10229000CDFC0F2002F0CAFC0D2002F0C7FC152077
:1022A00002F0C4FC102002F0C1FC002002F0BEFCD1
:1022B000E12002F0C7FC002002F0B8FC0B2002F085
:1022C000B5FC132002F0B2FC0D2002F0AFFC0E2092
:1022D00002F0ACFC1B2002F0A9FC712002F0A6FC6D
:1022E000062002F0A3FC062002F0A0FC0A2002F067
:1022F0009DFC0F2002F09AFC0E2002F097FC0F20AC
:1023000002F094FC152002F091FC0C2002F08EFCEF
:10231000002002F08BFC2A2002F094FC002002F046
:1023200085FC002002F082FC012002F07FFCDF200F
:1023300002F07CFC2B2002F085FC002002F076FCF1
:10234000002002F073FC032002F070FC1F2002F05A
:102350006DFC3A2002F076FC552002F067FC362036
:1023600002F070FC002002F061FC112002F06AFC17
:102370007820FEF75FF9292002F064FC1420FEF7B4
:1023800059F9BDE810402C2002F05CBC10B5ED20DE
:1023900002F058FC012002F049FCFE2002F046FC4D
:1023A000EE2002F04FFCDE2002F040FC212002F083
:1023B0003DFCF12002F046FC012002F037FCDF205A
:1023C00002F040FC102002F031FCC42002F03AFC84
:1023D0008F2002F02BFCC62002F034FC002002F01B
:1023E00025FCE22002F022FCE22002F01FFCE220A9
:1023F00002F01CFCBF2002F025FCAA2002F016FC13
:10240000B02002F01FFC0D2002F010FC002002F0B2
:102410000DFC0D2002F00AFC002002F007FC112048
:1024200002F004FC002002F001FC192002F0FEFB87
:10243000002002F0FBFB212002F0F8FB002002F05C
:10244000F5FB2D2002F0F2FB002002F0EFFB3D2017
:1024500002F0ECFB002002F0E9FB5D2002F0E6FB5D
:10246000002002F0E3FB5D2002F0E0FB002002F020
:10247000DDFBB12002F0E6FB802002F0D7FB00205C
:1024800002F0D4FB8B2002F0D1FB002002F0CEFB47
:10249000962002F0CBFB002002F0C8FBB22002F035
:1024A000D1FB002002F0C2FB002002F0BFFB0220A3
:1024B00002F0BCFB002002F0B9FB032002F0B6FBE7
:1024C000002002F0B3FBB32002F0BCFB002002F0BE
:1024D000ADFB002002F0AAFB002002F0A7FB0020C9
:1024E00002F0A4FB002002F0A1FB002002F09EFB02
:1024F000002002F09BFB002002F098FB002002F07D
:1025000095FB002002F092FB002002F08FFB0020E0
:1025100002F08CFB002002F089FB002002F086FB19
:10252000002002F083FB002002F080FB002002F07C
:102530007DFB002002F07AFB002002F077FB0020F8
:1025400002F074FB002002F071FB002002F06EFB31
:10255000002002F06BFB002002F068FBB42002F0C8
:1025600071FB8B2002F062FB002002F05FFB9620E3
:1025700002F05CFB002002F059FBA12002F056FBA8
:10258000002002F053FBB52002F05CFB022002F0B9
:102590004DFB002002F04AFB032002F047FB002025
:1025A00002F044FB042002F041FB002002F03EFB5D
:1025B000B62002F047FB002002F038FB002002F0BA
:1025C00035FBB72002F03EFB002002F02FFB00207D
:1025D00002F02CFB3F2002F029FB002002F026FB3A
:1025E0005E2002F023FB002002F020FB642002F0BA
:1025F0001DFB002002F01AFB8C2002F017FB0020CC
:1026000002F014FBAC2002F011FB002002F00EFBE4
:10261000DC2002F00BFB002002F008FB702002F02F
:1026200005FB002002F002FB902002F0FFFA0020E0
:1026300002F0FCFAEB2002F0F9FA002002F0F6FAC0
:10264000DC2002F0F3FA002002F0F0FAB82002F0E9
:10265000F9FA002002F0EAFA002002F0E7FA00207E
:1026600002F0E4FA002002F0E1FA002002F0DEFAC3
:10267000002002F0DBFA002002F0D8FA002002F07D
:10268000D5FABA2002F0DEFA242002F0CFFA0020B8
:1026900002F0CCFA002002F0C9FA002002F0C6FADB
:1026A000C12002F0CFFA202002F0C0FA002002F090
:1026B000BDFA542002F0BAFA002002F0B7FAFF2067
:1026C00002F0B4FA002002F0B1FAC22002F0BAFA25
:1026D0000A2002F0ABFA002002F0A8FA042002F06F
:1026E000A5FA002002F0A2FAC32002F0ABFA3C20C7
:1026F00002F09CFA002002F099FA3A2002F096FAD1
:10270000002002F093FA392002F090FA002002F043
:102710008DFA372002F08AFA002002F087FA3C2076
:1027200002F084FA002002F081FA362002F07EFAEC
:10273000002002F07BFA322002F078FA002002F04A
:1027400075FA2F2002F072FA002002F06FFA2C20A6
:1027500002F06CFA002002F069FA292002F066FA11
:10276000002002F063FA262002F060FA002002F056
:102770005DFA242002F05AFA002002F057FA2420D1
:1027800002F054FA002002F051FA232002F04EFA2F
:10279000002002F04BFA3C2002F048FA002002F040
:1027A00045FA362002F042FA002002F03FFA3220C9
:1027B00002F03CFA002002F039FA2F2002F036FA3B
:1027C000002002F033FA2C2002F030FA002002F050
:1027D0002DFA292002F02AFA002002F027FA2620FA
:1027E00002F024FA002002F021FA242002F01EFA5E
:1027F000002002F01BFA242002F018FA002002F058
:1028000015FA232002F012FA002002F00FFAC42079
:1028100002F018FA622002F009FA002002F006FA2B
:10282000052002F003FA002002F000FA842002F0F2
:10283000FDF9002002F0FAF9F02002F0F7F900208B
:1028400002F0F4F9182002F0F1F9002002F0EEF99C
:10285000A42002F0EBF9002002F0E8F9182002F0C1
:10286000E5F9002002F0E2F9502002F0DFF9002043
:1028700002F0DCF90C2002F0D9F9002002F0D6F9C0
:10288000172002F0D3F9002002F0D0F9952002F0D1
:10289000CDF9002002F0CAF9F32002F0C7F90020B8
:1028A00002F0C4F9E62002F0C1F9002002F0BEF9FE
:1028B000C52002F0C7F9322002F0B8F9002002F07A
:1028C000B5F9442002F0B2F9002002F0AFF965201A
:1028D00002F0ACF9002002F0A9F9762002F0A6F986
:1028E000002002F0A3F9882002F0A0F9002002F0F5
:1028F0009DF9C62002F0A6F9202002F097F90020E9
:1029000002F094F9172002F091F9002002F08EF9FC
:10291000012002F08BF9002002F088F9C72002F0B4
:1029200091F9002002F082F9002002F07FF90020E6
:1029300002F07CF9002002F079F9C82002F082F957
:10294000002002F073F9002002F070F9002002F07C
:102950006DF9002002F06AF9C92002F073F9002035
:1029600002F064F9002002F061F9002002F05EF943
:10297000002002F05BF9002002F058F9002002F07C
:1029800055F9002002F052F9002002F04FF9002022
:1029900002F04CF9002002F049F9002002F046F95B
:1029A000002002F043F9002002F040F9002002F07C
:1029B0003DF9002002F03AF9002002F037F9E0205A
:1029C00002F040F9162002F031F9002002F02EF951
:1029D0001C2002F02BF9002002F028F9212002F03F
:1029E00025F9002002F022F9362002F01FF900201C
:1029F00002F01CF9462002F019F9002002F016F945
:102A0000522002F013F9002002F010F9642002F0C5
:102A10000DF9002002F00AF97A2002F007F90020EF
:102A200002F004F98B2002F001F9002002F0FEF818
:102A3000992002F0FBF8002002F0F8F8A82002F03C
:102A4000F5F8002002F0F2F8B92002F0EFF80020CB
:102A500002F0ECF8C42002F0E9F8002002F0E6F8F9
:102A6000CA2002F0E3F8002002F0E0F8D22002F0E1
:102A7000DDF8002002F0DAF8D92002F0D7F80020C3
:102A800002F0D4F8E02002F0D1F8002002F0CEF8F5
:102A9000F32002F0CBF8002002F0C8F8E12002F0A9
:102AA000D1F8162002F0C2F8002002F0BFF81C2076
:102AB00002F0BCF8002002F0B9F8222002F0B6F8CB
:102AC000002002F0B3F8362002F0B0F8002002F047
:102AD000ADF8452002F0AAF8002002F0A7F8522035
:102AE00002F0A4F8002002F0A1F8642002F09EF8A1
:102AF000002002F09BF87A2002F098F8002002F003
:102B000095F88B2002F092F8002002F08FF89920BF
:102B100002F08CF8002002F089F8A82002F086F874
:102B2000002002F083F8B92002F080F8002002F0C3
:102B30007DF8C42002F07AF8002002F077F8CA206D
:102B400002F074F8002002F071F8D22002F06EF862
:102B5000002002F06BF8D82002F068F8002002F0A4
:102B600065F8E02002F062F8002002F05FF8F32040
:102B700002F05CF8002002F059F8E22002F062F85E
:102B8000052002F053F8002002F050F80B2002F06C
:102B90004DF8002002F04AF81B2002F047F8002010
:102BA00002F044F8342002F041F8002002F03EF830
:102BB000442002F03BF8002002F038F84F2002F0E9
:102BC00035F8002002F032F8612002F02FF80020E2
:102BD00002F02CF8792002F029F8002002F026F803
:102BE000882002F023F8002002F020F8972002F05D
:102BF0001DF8002002F01AF8A62002F017F80020B5
:102C000002F014F8B72002F011F8002002F00EF8DC
:102C1000C22002F00BF8002002F008F8C72002F0F2
:102C200005F8002002F002F8D12001F0FFFF00209B
:102C300001F0FCFFD62001F0F9FF002001F0F6FFC3
:102C4000DD2001F0F3FF002001F0F0FFF32001F0A0
:102C5000EDFF002001F0EAFFE32001F0F3FF052083
:102C600001F0E4FF002001F0E1FF0A2001F0DEFFA7
:102C7000002001F0DBFF1C2001F0D8FF002001F054
:102C8000D5FF332001F0D2FF002001F0CFFF442018
:102C900001F0CCFF002001F0C9FF502001F0C6FF79
:102CA000002001F0C3FF622001F0C0FF002001F00E
:102CB000BDFF782001F0BAFF002001F0B7FF8820A7
:102CC00001F0B4FF002001F0B1FF972001F0AEFF4A
:102CD000002001F0ABFFA62001F0A8FF002001F0CA
:102CE000A5FFB72001F0A2FF002001F09FFFC22046
:102CF00001F09CFF002001F099FFC72001F096FF32
:102D0000002001F093FFD12001F090FF002001F09E
:102D10008DFFD52001F08AFF002001F087FFDD2024
:102D200001F084FF002001F081FFF32001F07EFF1D
:102D3000002001F07BFFE42001F084FF012001F07E
:102D400075FF002001F072FF012001F06FFF0020ED
:102D500001F06CFF022001F069FF002001F066FF26
:102D60002A2001F063FF002001F060FF3C2001F009
:102D70005DFF002001F05AFF4B2001F057FF0020BB
:102D800001F054FF5D2001F051FF002001F04EFFE3
:102D9000742001F04BFF002001F048FF842001F077
:102DA00045FF002001F042FF932001F03FFF00208B
:102DB00001F03CFFA22001F039FF002001F036FFB6
:102DC000B32001F033FF002001F030FFBE2001F0FE
:102DD0002DFF002001F02AFFC42001F027FF002072
:102DE00001F024FFCD2001F021FF002001F01EFFA3
:102DF000D32001F01BFF002001F018FFDD2001F0BF
:102E000015FF002001F012FFF32001F00FFF00205A
:102E100001F00CFFE52001F015FF002001F006FF96
:102E2000002001F003FF002001F000FF002001F06E
:102E3000FDFE022001F0FAFE002001F0F7FE29203D
:102E400001F0F4FE002001F0F1FE3C2001F0EEFE66
:102E5000002001F0EBFE4B2001F0E8FE002001F025
:102E6000E5FE5D2001F0E2FE002001F0DFFE7420AF
:102E700001F0DCFE002001F0D9FE842001F0D6FE36
:102E8000002001F0D3FE932001F0D0FE002001F0DD
:102E9000CDFEA22001F0CAFE002001F0C7FEB32043
:102EA00001F0C4FE002001F0C1FEBE2001F0BEFE14
:102EB000002001F0BBFEC42001F0B8FE002001F0AC
:102EC000B5FECD2001F0B2FE002001F0AFFED32010
:102ED00001F0ACFE002001F0A9FEDC2001F0A6FE0E
:102EE000002001F0A3FEF32001F0A0FE002001F07D
:102EF0009DFEE62001F0A6FE112001F097FE0020C5
:102F000001F094FE342001F091FE002001F08EFECD
:102F1000562001F08BFE002001F088FE762001F0A3
:102F200085FE002001F082FE772001F07FFE002068
:102F300001F07CFE662001F079FE002001F076FEB3
:102F4000882001F073FE002001F070FE992001F04E
:102F50006DFE002001F06AFEBB2001F067FE00203C
:102F600001F064FE992001F061FE002001F05EFE98
:102F7000662001F05BFE002001F058FE552001F0B4
:102F800055FE002001F052FE552001F04FFE0020BA
:102F900001F04CFE452001F049FE002001F046FE04
:102FA000432001F043FE002001F040FE442001F0E8
:102FB0003DFE002001F03AFEE72001F043FE322002
:102FC00001F034FE002001F031FE552001F02EFE0C
:102FD000002001F02BFE762001F028FE002001F0F9
:102FE00025FE662001F022FE002001F01FFE672072
:102FF00001F01CFE002001F019FE672001F016FE12
:10300000002001F013FE872001F010FE002001F0E7
:103010000DFE992001F00AFE002001F007FEBB2002
:1030200001F004FE002001F001FE992001F0FEFDF8
:10303000002001F0FBFD772001F0F8FD002001F0F9
:10304000F5FD442001F0F2FD002001F0EFFD5620D7
:1030500001F0ECFD002001F0E9FD232001F0E6FD88
:10306000002001F0E3FD332001F0E0FD002001F03D
:10307000DDFD452001F0DAFD002001F0D7FDE8205C
:1030800001F0E0FD002001F0D1FD002001F0CEFDB7
:10309000992001F0CBFD002001F0C8FD872001F050
:1030A000C5FD002001F0C2FD882001F0BFFD002019
:1030B00001F0BCFD772001F0B9FD002001F0B6FD64
:1030C000662001F0B3FD002001F0B0FD882001F082
:1030D000ADFD002001F0AAFDAA2001F0A7FD00200F
:1030E00001F0A4FDBB2001F0A1FD002001F09EFD38
:1030F000992001F09BFD002001F098FD662001F071
:1031000095FD002001F092FD552001F08FFD00207B
:1031100001F08CFD552001F089FD002001F086FDB5
:10312000442001F083FD002001F080FD442001F0E7
:103130007DFD002001F07AFD552001F077FD002093
:1031400001F074FDE92001F07DFDAA2001F06EFD83
:10315000002001F06BFD002001F068FD002001F06F
:1031600065FD002001F06EFDAA2001F05FFDCF207B
:1031700001F068FD002001F059FD002001F056FD2E
:10318000002001F053FD002001F050FD002001F06F
:103190004DFD002001F04AFD002001F047FD002018
:1031A00001F044FD002001F041FD002001F03EFD52
:1031B000002001F03BFD002001F038FD002001F06F
:1031C00035FD002001F032FD002001F02FFD002030
:1031D00001F02CFD002001F029FDF02001F032FD6E
:1031E000002001F023FD502001F020FD002001F01F
:1031F0001DFD002001F01AFD002001F017FDF32055
:1032000001F020FD002001F011FDF92001F01AFD70
:10321000062001F00BFD102001F008FD292001F02F
:1032200005FD002001F002FD3A2001F00BFD5520C4
:1032300001F0FCFC112001F005FD6420FDF7FAF916
:10324000292001F0FFFC352001F0FCFC002001F0FA
:10325000EDFC512001F0F6FCFF2001F0E7FC5320CB
:1032600001F0F0FC2C2001F0E1FC552001F0EAFC1B
:10327000822001F0DBFCBDE810402C2001F0E2BC14
:103280002DE9F05F4FF470445521204601F0F0FC29
:10329000651CAA21284601F0EBFCA61C52213046F1
:1032A00001F0E6FCE71C0821384601F0E1FC4FF292
:1032B00004080121404601F0DBFC4FF43643342181
:1032C000184601F0D5FC34214BF2016001F0D0FC2E
:1032D00034214BF2026001F0CBFC4FF430490D2158
:1032E000484601F0C5FC4BF2010A0D21504601F0A1
:1032F000BFFC4BF2020B0D21584601F0B9FC242112
:103300004FF4374001F0B4FC24214BF2017001F07E
:10331000AFFC24214BF2027001F0AAFC0D214FF406
:10332000314001F0A5FC0D214BF2011001F0A0FC91
:103330000D214BF2021001F09BFC24214FF4384088
:1033400001F096FC24214BF6010001F091FC2421B0
:103350004BF6020001F08CFC00214FF4324001F0EA
:1033600087FC24214FF4394001F082FC24214BF6E4
:10337000011001F07DFC24214BF6021001F078FCD5
:1033800005214FF4334001F073FC05214BF201306D
:1033900001F06EFC05214BF2023001F069FC342192
:1033A0004FF43A4001F064FC34214BF6012001F067
:1033B0005FFC34214BF6022001F05AFC0B214FF444
:1033C000354001F055FC0B214BF2015001F050FC4F
:1033D0000B214BF2025001F04BFC00214FF43C401A
:1033E00001F046FCA3214BF6014001F041FC002115
:1033F0004BF6024001F03CFC00214FF43D4001F04F
:1034000037FCA3214BF6015001F032FC00214BF6B2
:10341000025001F02DFC00214FF43E4001F028FC49
:1034200037214BF6016001F023FC00214FF451409D
:1034300001F01EFC37214DF2011001F019FC0021B2
:103440004DF2021001F014FC53214DF2031001F073
:103450000FFC00214DF2041001F00AFC79214DF21D
:10346000051001F005FC00214DF2061001F000FCF2
:1034700097214DF2071001F0FBFB00214DF20810DF
:1034800001F0F6FBB1214DF2091001F0F1FB002132
:103490004DF20A1001F0ECFBD5214DF20B1001F0BA
:1034A000E7FB00214DF20C1001F0E2FBF4214DF29C
:1034B0000D1001F0DDFB01214DF20E1001F0D8FBE3
:1034C00023214DF20F1001F0D3FB01214DF210101A
:1034D00001F0CEFB49214DF2111001F0C9FB012191
:1034E0004DF2121001F0C4FB87214DF2131001F0D0
:1034F000BFFB01214DF2141001F0BAFBB6214DF2D1
:10350000151001F0B5FB02214DF2161001F0B0FBD1
:1035100000214DF2171001F0ABFB02214DF2181003
:1035200001F0A6FB3B214DF2191001F0A1FB022195
:103530004DF21A1001F09CFB3D214DF21B1001F0E1
:1035400097FB02214DF21C1001F092FB75214DF208
:103550001D1001F08DFB02214DF21E1001F088FBC1
:10356000B1214DF21F1001F083FB02214DF220101A
:1035700001F07EFBD5214DF2211001F079FB0321F2
:103580004DF2221001F074FB09214DF2231001F0DD
:103590006FFB03214DF2241001F06AFB28214DF24C
:1035A000251001F065FB03214DF2261001F060FBB0
:1035B00052214DF2271001F05BFB03214DF2281040
:1035C00001F056FB6B214DF2291001F051FB032154
:1035D0004DF22A1001F04CFB8D214DF22B1001F021
:1035E00047FB03214DF22C1001F042FBA2214DF2CA
:1035F0002D1001F03DFB03214DF22E1001F038FBA0
:10360000BB214DF22F1001F033FB03214DF230109E
:1036100001F02EFBC1214DF2311001F029FB0321F5
:103620004DF2321001F024FBC1214DF2331001F0B4
:103630001FFB00214FF4524001F01AFB37214DF2DD
:10364000012001F015FB00214DF2022001F010FBDA
:1036500053214DF2032001F00BFB00214DF2042019
:1036600001F006FB79214DF2052001F001FB00215C
:103670004DF2062001F0FCFA97214DF2072001F0EF
:10368000F7FA00214DF2082001F0F2FAB1214DF2D3
:10369000092001F0EDFA00214DF20A2001F0E8FACC
:1036A000D5214DF20B2001F0E3FA00214DF20C2060
:1036B00001F0DEFAF4214DF20D2001F0D9FA0121DA
:1036C0004DF20E2001F0D4FA23214DF20F2001F02B
:1036D000CFFA01214DF2102001F0CAFA49214DF232
:1036E000112001F0C5FA01214DF2122001F0C0FABB
:1036F00087214DF2132001F0BBFA01214DF2142075
:1037000001F0B6FAB6214DF2152001F0B1FA02210E
:103710004DF2162001F0ACFA00214DF2172001F015
:10372000A7FA02214DF2182001F0A2FA3B214DF236
:10373000192001F09DFA02214DF21A2001F098FAA9
:103740003D214DF21B2001F093FA02214DF21C2085
:1037500001F08EFA75214DF21D2001F089FA022147
:103760004DF21E2001F084FAB1214DF21F2001F02C
:103770007FFA02214DF2202001F07AFAD5214DF294
:10378000212001F075FA03214DF2222001F070FA98
:1037900009214DF2232001F06BFA03214DF2242080
:1037A00001F066FA28214DF2252001F061FA03218B
:1037B0004DF2262001F05CFA52214DF2272001F053
:1037C00057FA03214DF2282001F052FA6B214DF2F5
:1037D000292001F04DFA03214DF22A2001F048FA88
:1037E0008D214DF22B2001F043FA03214DF22C20C4
:1037F00001F03EFAA2214DF22D2001F039FA032109
:103800004DF22E2001F034FABB214DF22F2001F0B1
:103810002FFA03214DF2302001F02AFAC1214DF296
:10382000312001F025FA03214DF2322001F020FA77
:10383000C1214DF2332001F01BFA00214FF4534017
:1038400001F016FA37214DF2013001F011FA002192
:103850004DF2023001F00CFA53214DF2033001F029
:1038600007FA00214DF2043001F002FA79214DF2FD
:10387000053001F0FDF900214DF2063001F0F8F9B4
:1038800097214DF2073001F0F3F900214DF2083095
:1038900001F0EEF9B1214DF2093001F0E9F9002112
:1038A0004DF20A3001F0E4F9D5214DF20B3001F070
:1038B000DFF900214DF20C3001F0DAF9F4214DF27C
:1038C0000D3001F0D5F901214DF20E3001F0D0F9A3
:1038D00023214DF20F3001F0CBF901214DF21030D0
:1038E00001F0C6F949214DF2113001F0C1F9012171
:1038F0004DF2123001F0BCF987214DF2133001F086
:10390000B7F901214DF2143001F0B2F9B6214DF2B0
:10391000153001F0ADF902214DF2163001F0A8F991
:1039200000214DF2173001F0A3F902214DF21830B9
:1039300001F09EF93B214DF2193001F099F9022175
:103940004DF21A3001F094F93D214DF21B3001F097
:103950008FF902214DF21C3001F08AF975214DF2E8
:103960001D3001F085F902214DF21E3001F080F981
:10397000B1214DF21F3001F07BF902214DF22030D0
:1039800001F076F9D5214DF2213001F071F90321D2
:103990004DF2223001F06CF909214DF2233001F093
:1039A00067F903214DF2243001F062F928214DF22C
:1039B000253001F05DF903214DF2263001F058F970
:1039C00052214DF2273001F053F903214DF22830F6
:1039D00001F04EF96B214DF2293001F049F9032134
:1039E0004DF22A3001F044F98D214DF22B3001F0D7
:1039F0003FF903214DF22C3001F03AF9A2214DF2AA
:103A00002D3001F035F903214DF22E3001F030F95F
:103A1000BB214DF22F3001F02BF903214DF2303054
:103A200001F026F9C1214DF2313001F021F90321D5
:103A30004DF2323001F01CF9C1214DF2333001F06A
:103A400017F900214FF4544001F012F937214DF2DB
:103A5000014001F00DF900214DF2024001F008F99A
:103A600053214DF2034001F003F900214DF20440CF
:103A700001F0FEF879214DF2054001F0F9F800213E
:103A80004DF2064001F0F4F897214DF2074001F0A5
:103A9000EFF800214DF2084001F0EAF8B1214DF2B3
:103AA000094001F0E5F800214DF20A4001F0E0F88C
:103AB000D5214DF20B4001F0DBF800214DF20C4016
:103AC00001F0D6F8F4214DF20D4001F0D1F80121BA
:103AD0004DF20E4001F0CCF823214DF20F4001F0E1
:103AE000C7F801214DF2104001F0C2F849214DF212
:103AF000114001F0BDF801214DF2124001F0B8F87B
:103B000087214DF2134001F0B3F801214DF214402A
:103B100001F0AEF8B6214DF2154001F0A9F80221EE
:103B20004DF2164001F0A4F800214DF2174001F0CB
:103B30009FF802214DF2184001F09AF83B214DF216
:103B4000194001F095F802214DF21A4001F090F869
:103B50003D214DF21B4001F08BF802214DF21C403B
:103B600001F086F875214DF21D4001F081F8022127
:103B70004DF21E4001F07CF8B1214DF21F4001F0E2
:103B800077F802214DF2204001F072F8D5214DF274
:103B9000214001F06DF803214DF2224001F068F858
:103BA00009214DF2234001F063F803214DF2244036
:103BB00001F05EF828214DF2254001F059F803216B
:103BC0004DF2264001F054F852214DF2274001F009
:103BD0004FF803214DF2284001F04AF86B214DF2D5
:103BE000294001F045F803214DF22A4001F040F848
:103BF0008D214DF22B4001F03BF803214DF22C407A
:103C000001F036F8A2214DF22D4001F031F80321E8
:103C10004DF22E4001F02CF8BB214DF22F4001F067
:103C200027F803214DF2304001F022F8C1214DF276
:103C3000314001F01DF803214DF2324001F018F837
:103C4000C1214DF2334001F013F800214FF45540EB
:103C500001F00EF837214DF2015001F009F8002172
:103C60004DF2025001F004F853214DF2035000F0E0
:103C7000FFFF00214DF2045000F0FAFF79214DF2D0
:103C8000055000F0F5FF00214DF2065000F0F0FF66
:103C900097214DF2075000F0EBFF00214DF2085044
:103CA00000F0E6FFB1214DF2095000F0E1FF0021E4
:103CB0004DF20A5000F0DCFFD5214DF20B5000F020
:103CC000D7FF00214DF20C5000F0D2FFF4214DF24D
:103CD0000D5000F0CDFF01214DF20E5000F0C8FF55
:103CE00023214DF20F5000F0C3FF01214DF210507F
:103CF00000F0BEFF49214DF2115000F0B9FF012143
:103D00004DF2125000F0B4FF87214DF2135000F035
:103D1000AFFF01214DF2145000F0AAFFB6214DF281
:103D2000155000F0A5FF02214DF2165000F0A0FF43
:103D300000214DF2175000F09BFF02214DF2185068
:103D400000F096FF3B214DF2195000F091FF022147
:103D50004DF21A5000F08CFF3D214DF21B5000F047
:103D600087FF02214DF21C5000F082FF75214DF2B9
:103D70001D5000F07DFF02214DF21E5000F078FF33
:103D8000B1214DF21F5000F073FF02214DF220507F
:103D900000F06EFFD5214DF2215000F069FF0321A4
:103DA0004DF2225000F064FF09214DF2235000F043
:103DB0005FFF03214DF2245000F05AFF28214DF2FD
:103DC000255000F055FF03214DF2265000F050FF22
:103DD00052214DF2275000F04BFF03214DF22850A5
:103DE00000F046FF6B214DF2295000F041FF032106
:103DF0004DF22A5000F03CFF8D214DF22B5000F087
:103E000037FF03214DF22C5000F032FFA2214DF27A
:103E10002D5000F02DFF03214DF22E5000F028FF11
:103E2000BB214DF22F5000F023FF03214DF2305003
:103E300000F01EFFC1214DF2315000F019FF0321A7
:103E40004DF2325000F014FFC1214DF2335000F01A
:103E50000FFF00214FF4564000F00AFF37214DF2CA
:103E6000016000F005FF00214DF2026000F000FF4C
:103E700053214DF2036000F0FBFE00214DF204607F
:103E800000F0F6FE79214DF2056000F0F1FE002110
:103E90004DF2066000F0ECFE97214DF2076000F055
:103EA000E7FE00214DF2086000F0E2FEB1214DF284
:103EB000096000F0DDFE00214DF20A6000F0D8FE3E
:103EC000D5214DF20B6000F0D3FE00214DF20C60C5
:103ED00000F0CEFEF4214DF20D6000F0C9FE01218C
:103EE0004DF20E6000F0C4FE23214DF20F6000F091
:103EF000BFFE01214DF2106000F0BAFE49214DF2E3
:103F0000116000F0B5FE01214DF2126000F0B0FE2C
:103F100087214DF2136000F0ABFE01214DF21460D9
:103F200000F0A6FEB6214DF2156000F0A1FE0221C0
:103F30004DF2166000F09CFE00214DF2176000F07B
:103F400097FE02214DF2186000F092FE3B214DF2E7
:103F5000196000F08DFE02214DF21A6000F088FE1B
:103F60003D214DF21B6000F083FE02214DF21C60EA
:103F700000F07EFE75214DF21D6000F079FE0221F9
:103F80004DF21E6000F074FEB1214DF21F6000F092
:103F90006FFE02214DF2206000F06AFED5214DF245
:103FA000216000F065FE03214DF2226000F060FE0A
:103FB00009214DF2236000F05BFE03214DF22460E5
:103FC00000F056FE28214DF2256000F051FE03213D
:103FD0004DF2266000F04CFE52214DF2276000F0B9
:103FE00047FE03214DF2286000F042FE6B214DF2A6
:103FF000296000F03DFE03214DF22A6000F038FEFA
:104000008D214DF22B6000F033FE03214DF22C6028
:1040100000F02EFEA2214DF22D6000F029FE0321BA
:104020004DF22E6000F024FEBB214DF22F6000F017
:104030001FFE03214DF2306000F01AFEC1214DF247
:10404000316000F015FE03214DF2326000F010FEE9
:10405000C1214DF2336000F00BFE5521204600F0E7
:1040600007FEAA21284600F003FE5221304600F048
:10407000FFFD0821384600F0FBFD0021404600F01E
:10408000F7FD0021484600F0F3FD0521504600F001
:10409000EFFD0221584600F0EBFD05214BF2030035
:1040A00000F0E6FD02214BF2040000F0E1FD0821E2
:1040B000184600F0DDFD50214FF4354000F0D8FDEA
:1040C0000521184600F0D4FD00214FF4374000F0E0
:1040D000CFFD00214BF2017000F0CAFD01214FF429
:1040E000384000F0C5FD05214BF6010000F0C0FD91
:1040F00005214BF6020000F0BBFD05214BF6030045
:1041000000F0B6FD02214FF43C4000F0B1FD00216B
:104110004BF6014000F0ACFD00214BF6024000F0F0
:10412000A7FD03214FF44C4000F0A2FD00214CF606
:10413000014000F09DFD00214CF6024000F098FD8A
:1041400001214FF43D4000F093FD84214BF60150D6
:1041500000F08EFD07214BF6025000F089FD312161
:104160004BF6035000F084FD00214BF6045000F0A4
:104170007FFD01214FF43A4000F07AFDAA214FF46F
:104180007F4000F075FD55214FF6017000F070FD85
:1041900025214FF6027000F06BFD01214FF60370F0
:1041A00000F066FD40214FF4585000F061FD002101
:1041B0004FF4545000F05CFD05214FF4685000F0BE
:1041C00057FD4FF4885000F03DFD7820FCF732FA9F
:1041D0004FF4245000F036FD0A20FCF72BFABDE81E
:1041E000F05F4FF4305000F02DBD10B5E22000F02C
:1041F00029FD1D2000F01AFD022000F017FD04200B
:1042000000F014FD0120FCF715FAE02000F01AFD83
:10421000012000F00BFD0A20FCF70CFAE02000F072
:1042200011FD032000F002FD0C20FCF703FA012031
:1042300000F008FD0A20FCF7FDF9E62000F002FD81
:104240002F2000F0F3FCFF2000F0F0FCFF2000F036
:10425000EDFCB02000F0F6FC202000F0E7FC002090
:1042600000F0E4FC032000F0E1FC40F21F3000F01D
:10427000DDFC012000F0DAFC40F2DF1000F0D6FC9B
:10428000002000F0D3FCB42000F0DCFC042000F09F
:10429000CDFC40F21F4000F0C9FC002000F0C6FC3D
:1042A0002E2000F0C3FC002000F0C0FC002000F035
:1042B000BDFC002000F0BAFC002000F0B7FCB620E6
:1042C00000F0C0FC022000F0B1FC4FF4037000F0DD
:1042D000ADFC002000F0AAFC172000F0A7FC152080
:1042E00000F0A4FC002000F0A1FC002000F09EFCE7
:1042F000F02000F0A7FC032000F098FC292000F03B
:10430000A1FCD02000F09EFC002000F08FFCBE201D
:1043100000F098FC052000F089FCFE2000F086FCEF
:10432000012000F083FC002000F080FC002000F061
:104330007DFC002000F07AFCB82000F083FC032014
:1043400000F074FC012000F071FCBA2000F07AFC4F
:10435000BDE81040012000F069BC10B5112000F04C
:1043600071FC7820FCF766F9362000F06BFC002029
:1043700000F05CFC3A2000F065FC052000F056FCE3
:10438000B22000F05FFC0C2000F050FC0C2000F08C
:104390004DFC002000F04AFC332000F047FC3320A5
:1043A00000F044FCB72000F04DFC352000F03EFC4E
:1043B000BB2000F047FC322000F038FCC02000F0A9
:1043C00041FC0C2000F032FCC22000F03BFC01203C
:1043D00000F02CFCC32000F035FC102000F026FC7F
:1043E000C42000F02FFC202000F020FCC62000F0AC
:1043F00029FC0F2000F01AFCD02000F023FCA420A0
:1044000000F014FCA12000F011FCE02000F01AFCE8
:10441000D02000F00BFC002000F008FC022000F08F
:1044200005FC072000F002FC0A2000F0FFFB28201A
:1044300000F0FCFB322000F0F9FB442000F0F6FB1A
:10444000422000F0F3FB062000F0F0FB0E2000F00D
:10445000EDFB122000F0EAFB142000F0E7FB172030
:1044600000F0E4FBE12000F0EDFBD02000F0DEFBEB
:10447000002000F0DBFB022000F0D8FB072000F05A
:10448000D5FB0A2000F0D2FB282000F0CFFB312022
:1044900000F0CCFB542000F0C9FB472000F0C6FB25
:1044A0000E2000F0C3FB1C2000F0C0FB172000F022
:1044B000BDFB1B2000F0BAFB1E2000F0B7FB2A203A
:1044C00000F0C0FB002000F0B1FB002000F0AEFBCC
:1044D000002000F0ABFBEF2000F0A8FB2B2000F049
:1044E000B1FB002000F0A2FB002000F09FFB0120A8
:1044F00000F09CFB3F2000F099FBBDE81040292014
:1045000000F0A0BB10B5112000F09CFB7820FCF758
:1045100091F8362000F096FB482000F087FB3A2007
:1045200000F090FB552000F081FBF02000F08AFBAA
:10453000C32000F07BFBF02000F084FB962000F00D
:1045400075FBB42000F07EFB012000F06FFBB6206D
:1045500000F078FB0A2000F069FBA22000F066FB67
:10456000B72000F06FFBC62000F060FBB92000F020
:1045700069FB022000F05AFBE02000F057FBC0204E
:1045800000F060FB802000F051FB162000F04EFB95
:10459000C12000F057FB192000F048FBC22000F0BA
:1045A00051FBA72000F042FBC52000F04BFB16207A
:1045B00000F03CFBE82000F045FB402000F036FB1B
:1045C0008A2000F033FB002000F030FB002000F0D8
:1045D0002DFB292000F02AFB192000F027FBA52045
:1045E00000F024FB332000F021FBE02000F02AFB48
:1045F000F02000F01BFB072000F018FB0D2000F05E
:1046000015FB042000F012FB052000F00FFB142026
:1046100000F00CFB362000F009FB542000F006FBF4
:104620004C2000F003FB382000F000FB132000F0CA
:10463000FDFA142000F0FAFA2E2000F0F7FA3420E8
:1046400000F0F4FAE12000F0FDFAF02000F0EEFABC
:10465000102000F0EBFA142000F0E8FA0E2000F031
:10466000E5FA0C2000F0E2FA082000F0DFFA35202D
:1046700000F0DCFA442000F0D9FA4C2000F0D6FA21
:10468000262000F0D3FA102000F0D0FA122000F01B
:10469000CDFA2C2000F0CAFA322000F0C7FAF02040
:1046A00000F0D0FA3C2000F0C1FAF02000F0CAFA85
:1046B000692000F0BBFA7820FBF7BCFF212000F056
:1046C000C1FABDE81040292000F0BCBA2DE9F04F36
:1046D00087B03220FBF7AEFFD32000F0B3FA00F032
:1046E00033F9944CA08000F02FF9A08000F02CF951
:1046F0004FF6FF7101EA0020A08000F025F9A188A3
:1047000049F241360843A08047F2897545F21037D7
:1047100047F2967845F2105949F6060A41F6631BAE
:10472000B0427DD0042000F08DFA00F00DF9A08099
:1047300000F00AF9A08000F007F94FF6FF7101EAD6
:104740000020A08000F000F9A1880843A0F50541F1
:10475000A080523965D0A84262D0D42000F072FA0D
:1047600000F0F2F8A08000F0EFF8A08000F0ECF884
:104770004FF6FF7101EA0020A08000F0E5F8A18863
:104780000843A080B8427ED0D32000F05BFA00F04E
:10479000DBF8A08000F0D8F8A08000F0D5F84FF644
:1047A000FF7101EA0020A08000F0CEF8A188084344
:1047B000A080404567D055214FF4704000F058FA72
:1047C000AA214FF2010000F053FA52214FF20200E9
:1047D00000F04EFA08214FF2030000F049FA0121DF
:1047E0004FF2040000F044FA4FF4454000F02AFA7A
:1047F00000F0AAF84FF6FF7101EA0020A0804CF209
:10480000015000F01FFA00F09FF8A1880843A08033
:104810000520FBF70FFFA188494534D0D32001E0E4
:104820002CE02CE000F00EFA00F08EF8A08000F0F2
:104830008BF8A08000F088F84FF6FF7101EA0020A5
:10484000A08000F081F8A1880843A08050451AD0CC
:10485000A12000F0F7F900F077F8A08000F074F8DC
:104860004FF6FF7101EA0020A08000F06DF8A188EA
:104870000843A0F5AE41A080613902D003E0A580D5
:1048800001E0A4F804B0A1882BA0FDF79DF8A08852
:10489000A84202D1FFF761FD1FE0B04202D1FDF74F
:1048A000BDFA1AE0B84202D1FDF770FD15E04045AF
:1048B00002D1FFF727FE10E0484502D1FEF7E0FCE9
:1048C0000BE0504502D1FDF7C0FB06E0584504D18E
:1048D000FFF78BFC642000F081F91648A18850385E
:1048E000A94201D103210EE0514503D0B14201D0CC
:1048F000494501D1022106E0B94203D0414501D02A
:10490000594508D1012100910291036B82684068EA
:104910006946FBF7C3FD0020FDF70AFA0122D10327
:104920000848FBF7E5FF4FF6FF70FDF7E9F907B020
:10493000BDE8F08FD00100204C43442049443A2583
:10494000780D0A000004024008B50220401EFDD286
:104950004FF0D840B0F88000ADF80000BDF800007E
:1049600008BD000070B55F4C00232146A2798988FC
:1049700041F66316012A01D01AB10CE0B14202D10E
:1049800009E0B14207D1082805D2DFE800F0161887
:1049900012140C19100E082812D2DFE800F01104CE
:1049A00006080A0C0E1080230AE0402308E0C0230A
:1049B00006E0202304E0602302E0A02300E0E023DF
:1049C000362045F21055A94200D10002A1F513424C
:1049D000413A07D0A1F5EE42893A03D0A1F5EE4263
:1049E000963A01D143F00803194600F041F9A18835
:1049F000B1420AD098062088628802D5904202D33C
:104A000003E0904201D9228060806089A94240D1B0
:104A100000F018F9002000F009F96089401C80B20C
:104A200000F010F9002000F001F96089801C80B2CC
:104A300000F008F92088401EC0F30F2000F0F6F8BF
:104A40006089C01C80B200F0FDF82078401EC0B222
:104A500000F0ECF8A08900F0F5F8002000F0E6F88E
:104A6000A089401C80B200F0EDF8002000F0DEF8D4
:104A7000A089801C80B200F0E5F86088401EC0F379
:104A80000F2000F0D3F8A089C01C80B200F0DAF843
:104A900021E000F0D7F8002000F0C8F8002000F076
:104AA000C5F82088401EC0F30F2000F0BFF8207822
:104AB000401EC0B200F0BAF8A08900F0C3F8002090
:104AC00000F0B4F8002000F0B1F86088401EC0F398
:104AD0000F2000F0ABF8A078BDE87040401EC0B2D7
:104AE00000F0A4B8D0010020F0B53B4A0D460446C2
:104AF000060A918810462F0A4089A1F5C853633BE6
:104B000016D0A1F5AA43103B4CD000F09BF83046DC
:104B100000F08CF8E0B200F089F8908900F092F88B
:104B2000384600F083F8E8B2BDE8F04000F07EB807
:104B3000917931B300F086F8304600F077F8E0B2B2
:104B400000F074F81088401EC0F30F2000F06EF8DB
:104B50001078401E5FFA80F000F068F8908900F04D
:104B600071F8384600F062F8E8B200F05FF850885B
:104B7000401EC0F30F2000F059F89078401EC0B2DC
:104B8000D2E71188091B491E8CB200F05BF80020A7
:104B900000F04CF8002000F049F8200A00F046F838
:104BA000E0B2D9E700F04EF8304600F03FF8508907
:104BB000401C80B200F046F8E0B200F037F890896F
:104BC00000F040F8384600F031F89089401C80B27F
:104BD00000F038F8A7E70000D001002010B5024629
:104BE000BE2000F02FF8052000F020F81046FBF75B
:104BF0009CFB9FED0C1B53EC112BFBF724FBFBF7ED
:104C0000A1FB80B200F012F8012000F00FF8FF20A5
:104C100000F00CF8002000F009F8BDE8104000207A
:104C200000F004B8666666666666044001B5BDF8C5
:104C30000000ADF80000BDF800004FF0D841A1F829
:104C4000800008BD01B5BDF80000ADF80000BDF85A
:104C500000004FF0D841A1F87E0008BD03484FF096
:104C6000D8410089A1F87E0070470000D0010020E3
:104C70004FF0D84222F87E0F51807047FBF74CFE70
:104C8000FCF7EAFCFCF746FCFCF7C4FCFCF7FEFB77
:104C9000FFF71CFD012202490248FCF763FBFEE717
:104CA000700000203801002000000000000000001B
:104CB00001020304060708090000000001020304C2
:104CC000E04C00080000002020000000081A000846
:104CD000004D000820000020C0050000181A000840
:104CE00000000000000000000000000001000000C3
:104CF00010000000000000000024F400000000008C
:040000050800018965
:00000001FF
