:020000040800F2
:10000000E80500209D0100085F1600089B14000809
:100010005D16000895040008D519000800000000CE
:10002000000000000000000000000000631600084F
:10003000970400080000000061160008651600081B
:10004000B7010008B7010008B7010008B7010008B0
:10005000B7010008B7010008B7010008B7010008A0
:10006000B7010008B7010008B7010008B701000890
:10007000B7010008B7010008B7010008B701000880
:10008000B7010008B7010008B7010008B701000870
:10009000B7010008B7010008B7010008B701000860
:1000A000B7010008B7010008B7010008B701000850
:1000B000B7010008B7010008B7010008B701000840
:1000C000B7010008B7010008B7010008B701000830
:1000D000B7010008C9190008B7010008B7010008F6
:1000E000B7010008B7010008B7010008B701000810
:1000F000B7010008B7010008B7010008B701000800
:10010000B7010008B7010008B7010008B7010008EF
:10011000B7010008B7010008B7010008B7010008DF
:10012000B7010008B7010008B7010008B7010008CF
:10013000B7010008B7010008B7010008B7010008BF
:10014000B7010008B7010008B7010008B7010008AF
:10015000B7010008B7010008B7010008B70100089F
:10016000B7010008B7010008B7010008B70100088F
:10017000B7010008B7010008B7010008000000003F
:10018000B7010008B7010008DFF80CD000F070F9E3
:1001900000480047AD4F0008E805002006488047AA
:1001A00006480047FEE7FEE7FEE7FEE7FEE7FEE75C
:1001B000FEE7FEE7FEE7FEE7E51600088901000816
:1001C0002DE9F05F0546002092469B46884606468C
:1001D000814640241BE0284641464746224600F01F
:1001E000D9F853465A46C01A914110D311461846C1
:1001F000224600F0C0F82D1A67EB01084F46224650
:100200000120002100F0B7F817EB00094E41201E35
:10021000A4F10104DFDC484631462A464346BDE8E6
:10022000F09FD2B201E000F8012B491EFBD27047CB
:100230000022F6E710B513460A4604461946FFF7B2
:10024000F0FF204610BD2DE9FE4F81EA030404F0C3
:10025000004421F0004100944FF0000B23F00043D4
:1002600050EA01045ED052EA03045BD0C3F30A549F
:10027000C1F30A552C44A4F2F3340194A0FB0254B8
:10028000C1F3130141F48011C3F3130343F480134A
:1002900001FB024400FB034E840A970A44EA81549E
:1002A00047EA8357A4FB076802958D0A05FB07857B
:1002B0004FEA932C04FB0C542705029D4FEA065885
:1002C00047EA1637B5EB08056EEB070C870E920E62
:1002D00047EA811742EA8312A7FB0201B6EB0B0142
:1002E00064EB00042B0D43EA0C335E1844EB1C5006
:1002F000DA465146E7FB0201C5F313044FEA0B331C
:1003000043EA14534FEA0432019C43EA0603A4F182
:100310000C040294009CCDE900B400F05AF803B03C
:10032000BDE8F08F00200146F9E70EB540F23341F9
:1003300002910021CDE900110A460B4600F049F870
:1003400003B000BDC1F30A5210B5C1F3130140F26E
:10035000FF3341F480119A4201DA002010BD40F2CF
:1003600033439A42A2F2334203DC524200F012F8C5
:1003700010BD904010BD202A04DB203A00FA02F1A3
:10038000002070479140C2F1200320FA03F3194383
:1003900090407047202A04DB203A21FA02F0002125
:1003A000704721FA02F3D040C2F120029140084385
:1003B0001946704710B5141E73F1000408DA401C8A
:1003C00041F1000192185B411A4301D120F0010074
:1003D00010BD2DE9F04D92469B4611B1B1FA81F264
:1003E00002E0B0FA80F220329046FFF7C4FF0446E4
:1003F0000F4640EA0A0041EA0B0153465A460843B9
:1004000013D0114653EA010019D0C8F140025046FA
:10041000FFF7C0FF05460E46504659464246FFF7D5
:10042000AAFF084305D0012004E020463946BDE874
:10043000F08D0020054346EAE0762C4337430A98C6
:100440006305E40AA0EB08000022FD0A44EA4754D1
:100450000A3002D500200146E9E70105101969417B
:10046000DDE9084500196941BDE8F04DA2E700004B
:10047000064C074D06E0E06840F0010394E80700F1
:1004800098471034AC42F6D3FFF782FEA0800008F4
:10049000C0800008FEE7704772B6FEE730B5B3F5DE
:1004A000804F05D06FF0704140F82210002030BD21
:1004B0008C690B688D6823434C688989240144EA60
:1004C0000524234343EA014150F82230014C2340E4
:1004D0001943E9E70000F0CF10B50A6850F8223060
:1004E00023F0010340F822308C68082C23D000232D
:1004F0004A682243CC681C430B6922431A434B6968
:100500000E4C1A43CB691A430B6A1A434B6A1A43BF
:100510008B6A1A43CB6A1A430B6B1A438B691343DA
:10052000CA6B09681A4350F82130A343134340F8BB
:100530002130002010BD4023DAE700007FFF0F00CC
:1005400030B5D1E9003443EA04138C688D89240264
:1005500044EA054423430C8A074D00EB820005EB77
:10056000045423430C7D6D0105EB04648969234326
:100570000B434360002030BD0000F0FF2DE9F04147
:100580000446876D00F0C2F9064694F83500002550
:10059000022806D08020606584F834500120BDE830
:1005A000F0812068016821F016010160206841692E
:1005B00021F080014161206C08B9A06C20B1206855
:1005C000016821F0080101602068016821F0010143
:1005D00001600CE000F09AF9801B052807D9202063
:1005E0006065032084F8350084F83450D7E720682C
:1005F0000068C007EED194F85C103F208840B860D6
:10060000012084F8350084F834500020C7E790F8C2
:100610003510022903D08021416501207047052152
:1006200080F835100068016821F0010101600020A8
:100630007047000070B5044600F068F90546601C7C
:1006400002D004480078044400F060F9401BA04246
:10065000FAD370BD140000202DE9F04186B01421BA
:100660006846FFF7E5FD20480168002939D10121DE
:1006700001601E480024016841F00101016000682A
:100680004FF4805800F001000C27CDF80080CDE930
:100690000470032602250396CDE9015469461448E7
:1006A00000F02EF84FF68070CDE9000502AA6946E9
:1006B00082E8D0000F4800F023F84CF23370CDE907
:1006C000000502AA694682E8D0000B4800F018F83D
:1006D00002AA694682E8D000CDE90085074800F00B
:1006E0000FF806B0BDE8F081000000203838024065
:1006F0000014024000100240000C024000180240AA
:100700002DE9F84FDFF8BCA10022012503264FF0A8
:100710000F090AF1040BAAF1040E00BF0B6805FAD9
:1007200002F42340A34270D10F7907F00307012F91
:1007300001D0022F16D187684FEA420806FA08FC5A
:1007400027EA0C07D1F80CC00CFA08FC4CEA070C9D
:10075000C0F808C04768A7430C79C4F3001494405C
:100760003C4344600C79E443A4070AD0C4684FEAD0
:10077000420C06FA0CF7BC438F6807FA0CF72743C4
:10078000C7600C7904F00304022C12D1D40800EBEA
:10079000840CDCF820405707FF0E09FA07F824EA1A
:1007A0000804D1F8108008FA07F848EA0408CCF8E1
:1007B000208004684FEA420C06FA0CF7BC430F791C
:1007C00007F0030707FA0CF7274307604C6814F497
:1007D000403F70D03C4C276847F48047276024682E
:1007E00022F0030704F480440094384C07EB040C17
:1007F000DCF8084897074FEA177809FA08F7BC436E
:10080000334FB84202D1002724E054E0314FB842C0
:1008100001D101271EE0304FB84201D1022719E073
:100820002E4FB84201D1032714E02D4FB84201D119
:1008300004270FE02B4FB84201D105270AE02A4FC9
:10084000B84201D1062705E0284FB84201D1072759
:1008500000E0082707FA08F72743CCF80878DAF809
:1008600000405746D1F804C09C435FEACC2C00D529
:100870001C433C60DBF800405F46D1F804C09C4359
:100880005FEA8C2C00D51C433C60DEF800407746C4
:10089000D1F804C09C435FEA8C3C00D51C433C600B
:1008A000084F083F3C68D1F804C09C435FEACC3C49
:1008B00000D51C433C60521C102AFFF42FAFBDE84A
:1008C000F88F0000083C01404438024000300140ED
:1008D000000002400004024000080240000C0240F8
:1008E000001002400014024000180240001C0240A8
:1008F000426921EA02030A4043EA024181617047EA
:100900000AB1816170470904FBE700000148806873
:1009100070470000140000200248816802781144EA
:1009200081607047140000200B4810B5016841F445
:1009300000710160016841F480610160016841F467
:1009400080710160032000F06FF80F2000F006F8BE
:1009500000F024F8002010BD003C024070B50D4DA1
:1009600004464FF47A712878B1FBF0F00A4909681F
:10097000B1FBF0F000F03AFB48B9102C07D200228E
:100980002146501E00F030F800206C6070BD012040
:1009900070BD000014000020200000200A4808B5A7
:1009A000016841F480410160006800F480400090DB
:1009B0000548001F016841F080510160006800F0A7
:1009C0008050009008BD000044380240002809DB38
:1009D00000F01F02012191404009800000F1E02059
:1009E000C0F8001170470000F0B40E4B1B680C46B5
:1009F000C3F30223C3F10705042D00D90425191DF3
:100A0000072901D2002300E0DB1E012606FA05F1CA
:100A1000491E214099409E40761E16403143F0BC4D
:100A200000F0FEBF0CED00E0064900F00702086888
:100A30004FF6FF03184040EA0220034A10430860C3
:100A4000704700000CED00E00000FA052DE9F047CA
:100A50000E46050065D0DFF81481D8F80000F7B223
:100A600000F00700B04207D288F80070D8F8000004
:100A700000F00700B04254D128683D4C810712D5E0
:100A8000400703D5206840F4E05020602878000734
:100A900003D5206840F4604020602068A96820F0F9
:100AA000F000084320602878C0072DD030496868DE
:100AB0000839012812D0022813D0032811D0096860
:100AC000890700292DDA216821F003010143216003
:100AD000FFF71CFF814641F2883A0EE0096889035E
:100AE000EFE709688901ECE7FFF710FFA0EB0901C8
:100AF000514502D90320BDE8F0872068696800F0FD
:100B00000C00B0EB810FEFD1D8F80010404601F097
:100B10000701B14207D90770006800F00700B04232
:100B200001D00120E7E72878400705D52068E9686B
:100B300020F4E050084320602878000706D520689C
:100B4000296920F4604040EAC100206000F038F8D4
:100B50002168084AC1F30311515CC8400649086086
:100B600006480068FFF7FAFE0020C4E7003C024098
:100B7000083802408880000820000020180000206B
:100B80000448054900680968044AC1F38221515CA0
:100B9000C8407047200000200838024098800008B4
:100BA0000448054900680968044AC1F34231515CB0
:100BB000C840704720000020083802409880000894
:100BC000154810B5006810F00C02144813D04110FD
:100BD000042A0FD0082A0ED10F4C241F2268236844
:100BE00002F03F025B0207D52068C0F38810A0FB2B
:100BF000010106E0084610BD2168C1F38811A1FB80
:100C000000010023FFF7DCFA2168C1F30141491C10
:100C10004900B0FBF1F010BD083802400024F40098
:100C20002DE9F84F04006ED02078DFF84C93C00710
:100C3000A9F104054AD009F104000168C1F381015A
:100C4000012908D00068C0F3810002280AD1D9F830
:100C50000000400206D52868800337D56068002868
:100C6000E1D033E06068B0F5803F10D0B0F5A02F40
:100C7000286810D020F480302860286820F4802074
:100C800028606068A8B1FFF741FE06460DE02868BD
:100C900040F48030F4E740F480202860F7E700BF9C
:100CA000FFF734FE801B642873D828688003F7D5CB
:100CB0000CE0FFF72BFE064605E000BFFFF726FE1F
:100CC000801B6428F0D828688003F7D42078DFF8E8
:100CD000AC8280074FF0000A3ED5A748001D01688E
:100CE00011F00C0F08D00068C0F3810002280BD16E
:100CF000D9F80000400207D42868800716D5E068BC
:100D0000012800D112E033E1E068B8B10120C8F851
:100D10000000FFF7FBFD064605E000BFFFF7F6FD0C
:100D2000801B0228C0D828688007F7D52868216969
:100D300020F0F80040EAC10028600DE0C8F800A0EB
:100D4000FFF7E4FD064604E0FFF7E0FD801B022804
:100D50001FD828688007F7D42078000722D5864F4F
:100D600087486169703771B101210160FFF7CEFDDD
:100D7000064604E0FFF7CAFD801B022809D8386840
:100D80008007F7D50EE0C0F800A0FFF7BFFD0646CC
:100D900005E082E0FFF7BAFD801B02287DD83868A5
:100DA0008007F7D42078400768D5DFF8CCB100275A
:100DB0000BF13C0BDBF80000C0000BD4DBF800109B
:100DC00041F08051CBF80010DBF80000012700F063
:100DD000805000906B4E3068C00510D4306840F4ED
:100DE00080703060FFF792FD009005E0FFF78EFD08
:100DF0000099401A022850D83068C005F6D55E4EDA
:100E0000A0686C3601280FD00528306810D020F07B
:100E100001003060306820F004003060A068B8B194
:100E2000FFF774FD00900FE0306840F00100F4E738
:100E300040F004003060F7E7FFF768FD0099411AC1
:100E400041F28830814266D830688007F4D50EE0E0
:100E5000FFF75CFD009007E0FFF758FD0099411A8D
:100E600041F28830814256D830688007F4D42FB1DF
:100E7000DBF8001021F08051CBF80010A069C8B356
:100E80003D49091D0968C1F3810102294AD00228A0
:100E9000504607D0C8F8600000E03CE0FFF736FDA0
:100EA00004463BE04746C8F86000FFF72FFD0646C2
:100EB00005E000BFFFF72AFD801B02282BD8286819
:100EC0008001F7D4D4E907010843A16A2E4A4908F2
:100ED00002EB0141626A41EA8211084394F82C1046
:100EE00040EA0161C9F8001001203866FFF70EFDE5
:100EF000044606E03EE000BFFFF708FD001B0228A5
:100F000009D828688001F7D534E000BFFFF7FEFC60
:100F1000001B022802D90320BDE8F88F2868800151
:100F2000F4D427E00128F7D0D9F80000E26900F4F2
:100F3000800191421CD1226A00F03F01914217D1F9
:100F400047F6C071626A0140B1EB821F10D1A26AFC
:100F50004FF0FF3300F4403103EB5202B1EB024F8C
:100F600006D194F82C1000F07060B0EB016F01D046
:100F70000120D1E70020CFE70438024000004742BB
:100F8000800E4742007000400000FFFF70B515461C
:100F90000E46040003D094F8490010B107E0012088
:100FA00070BD002084F84800204600F01DF804F1D0
:100FB00008012068FFF790FA3146A2682068FFF721
:100FC000BFFAD4E901022946236BFFF767FA2168CB
:100FD000A06851F8202042F0010241F820200120B1
:100FE00084F84900002070BDFFF736BB10B5401EE5
:100FF000B0F1807F01D3012010BD4FF0E02460618B
:101000000F21601700F00CFD0020A0610720206177
:10101000002010BD70477047F8B5016804460868A5
:10102000CA684B6910F00F0F4FF0000559D003F05C
:10103000010602F49077374365D0C10705D0D1058A
:1010400003D5616C41F001016164410705D5D90701
:1010500003D0616C41F002016164810705D5D907B5
:1010600003D0616C41F004016164010707D502F00F
:101070002001314303D0616C41F008016164616C6F
:1010800000293AD0800604D5900602D5204600F00B
:101090005FFB20684069616CC0F38010090700D4D1
:1010A00060B3204600F02DFB20684069400621D542
:1010B0002068143050E8001F21F0400140E8001281
:1010C000002AF5D1E06BA8B172490165E06BFFF72A
:1010D0009EFA002811D0E06B016D01B0BDE8F04030
:1010E000084783060FD593060DD52046BDE8F84086
:1010F00000F02EBB2046FFF78EFFF8BD2046FFF71D
:101100008AFF6564F8BD266B2023012E7ED1C606BA
:101110007CD5D6067AD508684868009048694FF0B3
:10112000020640064DD5E26B106840684FF48077A8
:101130000004000C3AD0A18D814237D9E085D069F6
:10114000B8422DD020680C3050E8001F21F4807187
:1011500040E80012002AF5D12068143050E8001F42
:1011600021F0010140E80012002AF5D12068143076
:1011700050E8001F21F0400140E80012002AF5D19C
:1011800084F84230256320680C3050E8001F21F0BD
:10119000100140E80012002AF5D1E06BFFF7EEF9EC
:1011A0006663A08DE18D401A81B206E0A18D814277
:1011B000A8D1D069B842A5D166632046FFF72AFFBF
:1011C000F8BDA08DE18D401A81B2E08D0028F7D0E6
:1011D0000029F5D020680C3050E8002F22F49072DE
:1011E00040E80027002FF5D12068143050E8002F88
:1011F00022F0010240E80027002FF5D184F84230A8
:10120000256320680C3050E8002F00E006E022F053
:10121000100240E80023002BF3D1CDE705062BD5C3
:10122000150629D594F841002128C9D1A068B0F548
:10123000805F01D12069B0B1206A411C2162216820
:1012400000784860E08C401E0004000CE084B7D1B8
:101250002068C16821F08001C1602068C16841F048
:101260004001C160F8BD206A0088C0F308004860F2
:10127000206A801C2062E5E74006F3D55006F1D5D0
:10128000CA68204622F04002CA6084F8413000F06B
:1012900003F9F8BDF516000870B5040004D094F801
:1012A0004100002510B106E0012070BD84F84050D7
:1012B000204600F023F8242084F841002068C1680B
:1012C00021F40051C160204600F0A4FA20680169B1
:1012D00021F4904101612068416921F02A014161B6
:1012E0002068C16841F40051C1606564202084F821
:1012F000410084F842006563002070BD10B586B0DF
:10130000044614216846FEF793FF17492068884277
:1013100028D11648016841F010010160006800F012
:101320001000059011481438016841F00101016076
:101330000068012100F0010005904FF4C0600090AA
:101340000220CDE901010390072004906946084876
:10135000FFF7D6F9002211462520FFF745FB25208F
:10136000FFF734FB06B010BD0010014044380240C6
:101370000000024090F84230202B01D0022070473C
:1013800021B11AB10023036300F0CABA01207047EB
:1013900030B400681549884225D1154841880A04AF
:1013A00016D402464C0412784FF0000304D50A2AE2
:1013B0000DD141F4004114E00D2A10D0C1F30D0409
:1013C0000C4D491C89B22A554180C72900D9438058
:1013D0000848012230BC0649C830FFF7CBBF41F4B2
:1013E00080414180F4E730BC7047000000100140AC
:1013F00008000020780000202DE9F843044690F80A
:101400004100984616460D46202802D00220BDE82D
:10141000F88385B17EB100206064212084F841000A
:10142000FFF774FAA6848146E684A0682027B0F509
:10143000805F02D003E00120E9E7206910B12E4669
:1014400000250EE000260CE08021204600F083FA03
:10145000A8B9C6B116F8010B21684860E08C401E9F
:10146000E084E08C4B464FF00002CDF8008000286D
:10147000EAD14FF04001204600F06DFA40B184F807
:1014800041700320C3E735F8020BC0F30800E3E71F
:1014900084F841700020BAE77047FEE710B58EB0BF
:1014A0001C216846FEF7C4FE1C2107A8FEF7C0FEFB
:1014B0001A484FF02041102201601949416006216D
:1014C00081600021C160C0E904128161C161130221
:1014D0000162C0E909139302C0E90B134163816300
:1014E00041640F203C230090CDE9010303AC11239C
:1014F00084E80E0009240691CDE907400AA8099462
:1015000080E80E000D9107AA69460448FFF73EFDEA
:10151000002801D0FEF7C0FF0EB010BD280000204B
:10152000040100A02DE9F04387B014216846FEF7BE
:101530007FFE37480025016841F010010160016815
:1015400001F010010591016841F02001016001687E
:1015500001F020010591016841F0800101600168FE
:1015600001F080010591016841F00101016001680D
:1015700001F001010591016841F00201016001687B
:1015800001F002010591016841F008010160016864
:1015900001F008010591016841F040010160006817
:1015A000DFF8708000F040004FF4C0660590012223
:1015B00031464046FFF7A4F9DFF85C904FF400474E
:1015C000002239464846FFF79BF91C20CDE900056B
:1015D0000124694602941148FFF792F8CDE90064AE
:1015E0000226CDE9024669464046FFF789F88DE8B4
:1015F000700069460A48FFF783F80097CDE9014576
:10160000694648460395FFF77BF807B0BDE8F083CD
:101610003038024000140240000402400010024032
:10162000000002400C4810B50A4901604FF4E13156
:101630004160002181600C22C160C0E90412816117
:10164000C161FFF729FE002803D0BDE81040FEF776
:1016500023BF10BD0010014040010020FEE7FEE75F
:1016600070477047FFF758B910B592B030216846FF
:10167000FEF7DEFD14210CA8FEF7DAFD1748002462
:10168000016841F080510160006800F080501190C5
:101690001348016841F4804101600068069400F439
:1016A00080401190022000900120039010200490AF
:1016B0006846FFF7B5FA08B172B6FEE70F20CDE92C
:1016C0000C040E940F9400210CA81094FFF7BEF99F
:1016D000002801D072B6FEE712B010BD40380240BB
:1016E000007000400248016841F4700101607047D9
:1016F00088ED00E010B5806B0021C185FFF78BFC01
:1017000010BD01680C3151E8002F22F4907241E8BD
:101710000023002BF5D10168143151E8002F22F08D
:10172000010241E80023002BF5D1016B012909D109
:1017300001680C3151E8002F22F0100241E800232B
:10174000002BF5D1202180F8421000210163704761
:1017500008B590F84210222901D0022008BD826805
:101760004FF480539A4201D1016921B1816A9A42B2
:101770001BD04AB10AE00268816A5268C2F30802CB
:101780000A80816A891C08E0026972B102685268A5
:1017900002F07F020A70816A491C8162C18D491E74
:1017A0000904090CC18503D01BE002685268F1E707
:1017B0000168CA6822F02002CA600168CA6822F47F
:1017C0008072CA6001684A6922F001024A612021E0
:1017D00080F8421000214163026B012A03D0FFF719
:1017E000D7FD002008BD016301680C3151E8002FCE
:1017F00022F0100241E80023002BF5D101680A68AD
:10180000D20602D50A6849680091818DFFF702FC73
:10181000E7E7000070B5044600680169E26821F45A
:101820004051114301612169A068E269084361697F
:10183000114308432168CA6849F20C639A43024382
:10184000CA6020684169A26921F440711143416175
:1018500031492068884202D03049884202D1FFF7DE
:101860009FF901E0FFF78CF9E26900231921642553
:101870003226B2F5004F626828D0A0FB0101930F19
:101880009200FEF79DFC0146B0FBF5F06FF01802E8
:10189000504301EB800006EB0010B0FBF5F000F0C8
:1018A000F002B1FBF5F002EB0012B1FBF5F06FF0C6
:1018B0001803584301EB800006EB0010B0FBF5F075
:1018C00000F00F0021681044886070BDA0FB01018A
:1018D00092185B41FEF774FC0146B0FBF5F0020183
:1018E000B1FBF5F06FF01803584301EB800006EBF5
:1018F000C000B0FBF5F000F0F80002EB4002B1FBD5
:10190000F5F0584301EB800006EBC000B0FBF5F0AA
:1019100000F00700D6E7000000100140001401406D
:1019200081628285C28500214164222180F84210B3
:10193000016921B10168CA6842F48072CA60016815
:101940004A6942F001024A610068C16841F0200121
:10195000C160002070472DE9F843984617460D46B0
:101960000446089E24E0701C22D0FEF7CFFFA0EBB7
:101970000800B0421AD8CEB12068C168490717D50F
:10198000802D15D0402D13D00168C94309070FD40D
:1019900001680025406800902046FFF7B2FE08204D
:1019A000606484F840500120BDE8F8830320FBE721
:1019B0002068006835EA000004D00020B842D2D088
:1019C0000020F1E70120F9E70148FFF725BB0000FF
:1019D00040010020FEE700000FB4054B10B503A93D
:1019E000044A029800F03CF810BC5DF814FB0000BB
:1019F000CD1E0008240000200FB4084B10B504A928
:101A000002AA039800F02CF8044602A9002000F076
:101A100058FA204610BC5DF814FB0000C31E0008F5
:101A20000907090E002804DB00F1E02080F800140B
:101A3000704700F00F0000F1E02080F8141D70479F
:101A400002E008C8121F08C1002AFAD17047704787
:101A5000002001E001C1121F002AFBD170470000E5
:101A60002DE9FF4F8DB00F460546002606E02528DC
:101A70000BD0DDE90F1290476D1C761C28780028EA
:101A8000F5D111B03046BDE8F08F0024A246A14642
:101A90000122EC4900E0044315F8013F203B02FA23
:101AA00003F00842F7D128782A2810D06FF02F02CF
:101AB0002878A0F13001092914D80AEB8A0102EB39
:101AC000410144F0020400EB010A6D1CF0E701CF74
:101AD0005FEA000A03D544F40054CAF1000A44F056
:101AE00002046D1C28782E2817D115F8010F44F038
:101AF00004042A280ED06FF02F022878A0F13001BC
:101B000009290AD809EB890102EB410100EB01091F
:101B10006D1CF2E757F8049B6D1C28786C280FD0D9
:101B200006DC4C2817D068280DD06A2814D104E0B0
:101B3000742810D07A280FD10DE044F400140AE084
:101B400044F4801401E044F440146978814202D1E5
:101B500004F580146D1C6D1C2A786E2A1FD00CDCD5
:101B6000632A31D004DC002A8BD0582A11D1A3E09B
:101B7000642A68D0692A0CD165E0732A2ED004DC6F
:101B80006F2A73D0702A04D19BE0752A6FD0782A0F
:101B90006ED01046DDE90F129047761C50E1C4F379
:101BA0000250022806D0032809D0042801CF09D00A
:101BB000066045E101CFF117C0E9006140E101CFC6
:101BC00006803DE106703BE117F8040B8DF800003C
:101BD00000208DF80100EB46012003E057F804BB1C
:101BE0004FF0FF3061074FF0000102D40DE008F123
:101BF0000101884649450FDA8045F8DB1BF80810DB
:101C00000029F4D108E008F1010188468142FADB9D
:101C10001BF808100029F6D1DDE90F23AAEB080014
:101C20008146214600F036F9304400EB080604E016
:101C3000DDE90F121BF8010B9047B8F10108F7D24C
:101C400021464846F7E00A21C4F302534FF0000B47
:101C50000891022B04D001CFC117032B09D00AE051
:101C6000FF1D27F00707F7E8020108E032E01FE058
:101C700020E000B2C117042B01D140B2C117031EEE
:101C800071F1000307DA4FF0000CD0EB0C006CEBA5
:101C900001012D2302E0230504D52B238DF82430E8
:101CA000012303E0E30701D02023F7E7984658E03B
:101CB0000A2110E010210EE010204FF0000B0890D8
:101CC0000CE010214FF0000B44F004044FF0080921
:101CD000089103E008214FF0000B0891C4F3025370
:101CE000022B04D001CF0021032B06D006E0FF1DFC
:101CF00027F00707F7E8020103E080B2042B00D1C8
:101D0000C0B24FF0000823072BD5702A07D0DDF8AA
:101D100020C08CF0100C5CEA0B0C05D00EE04023C8
:101D20008DF82430012308E050EA010306D0302367
:101D30008DF824308DF8252002239846DDF820C048
:101D40008CF0080C5CEA0B0C0BD150EA010301D1BA
:101D5000630706D530238DF824304FF00108A9F130
:101D60000109582A04D038A20B9208AA0A920BE063
:101D70003AA2F9E75B46089AFEF722FA0B9B9B5CB6
:101D80000A9A521E0A92137050EA0102F2D10A987E
:101D9000ADEB000000F1200B600702D524F4803485
:101DA00001E04FF00109D94502DDA9EB0B0000E08D
:101DB000002000EB0B0141440890AAEB010AE0036C
:101DC00006D4DDE90F232146504600F063F80644AF
:101DD0004FF0000908E009A911F80900DDE90F1228
:101DE000904709F10109761CC145F4DBE0030CD5ED
:101DF000DDE90F232146504600F04CF8064404E08C
:101E0000DDE90F1230209047761C0899481E089093
:101E10000029F5DC08E00A980A990078491C0A9123
:101E2000DDE90F129047761CBBF10001ABF1010B0D
:101E3000F1DC21465046DDE90F2300F019F8064495
:101E40006D1C1BE60928010030313233343536373A
:101E500038396162636465660000000030313233F6
:101E60003435363738394142434445460000000096
:101E70002DE9F041044600251E461746880404D487
:101E800005E039462020B0476D1C641EF9D5284670
:101E9000BDE8F0812DE9F041044600251E4690463C
:101EA000C80301D5302700E02027880404D505E0C9
:101EB00041463846B0476D1C641EF9D52846BDE83A
:101EC000F0810A68531C0B601070704713B54FF611
:101ED000FF73012269460248FFF78EFA00981CBD85
:101EE0004001002070B50A490646002408884D8844
:101EF00021464543204602F0F5FE03F047F84FF037
:101F0000D84002E0A0F88060641CAC42FAD370BDF7
:101F1000D80100202DE9F04F38492C260A46887157
:101F200092884FF4305A4FF4285B41F6631E2B27FA
:101F30004FF02A0C4FF0F00845F210594FF4487555
:101F40004FF4A0744FF4F07358B10C80A1F80280E4
:101F50004A4530D1A1F808A0A1F80AB0380288811A
:101F600041E0A1F800804C804A4507D1A1F808A0C3
:101F7000A1F80AB04FF42C50888105E072450E811B
:101F800005D14F81A1F80CC00B804D8002E0A1F873
:101F90000AC08F81A2F5A640103803D0A2F5EE400A
:101FA000963801D10C804B80A2F5184006381FD11D
:101FB0000B804D801CE0724511D0A2F51840063808
:101FC0000DD00E81A1F80AC0A1F80C70A2F5A640B0
:101FD00010380BD0A2F5EE40963807D008E00E81FD
:101FE000A1F80AC08F810D804B80EFE70B804C80F9
:101FF000BDE8F04F002002F0B3BD0000D801002082
:1020000010B5144602F06EFE02F0C0FF4FF0D8404B
:10201000A0F8804010BD10B5CF2002F0ABFF00202B
:1020200002F09CFFC12002F099FF302002F096FFE1
:10203000ED2002F09FFF642002F090FF032002F0E9
:102040008DFF122002F08AFF812002F087FFE82036
:1020500002F090FF852002F081FF102002F07EFF49
:102060007A2002F07BFFCB2002F084FF392002F0BF
:1020700075FF2C2002F072FF002002F06FFF342069
:1020800002F06CFF022002F069FFF72002F072FFFD
:10209000202002F063FFEA2002F06CFF002002F033
:1020A0005DFF002002F05AFFC02002F063FF1B20FA
:1020B00002F054FFC12002F05DFF012002F04EFF4C
:1020C000C52002F057FF302002F048FF302002F018
:1020D00045FFC72002F04EFFB72002F03FFF362039
:1020E00002F048FF482002F039FF3A2002F042FF98
:1020F000552002F033FFB12002F03CFF002002F037
:102100002DFF1A2002F02AFFB62002F033FF0A202A
:1021100002F024FFA22002F021FFF22002F02AFFA9
:10212000002002F01BFF262002F024FF012002F015
:1021300015FFE02002F01EFF0F2002F00FFF2A2003
:1021400002F00CFF282002F009FF082002F006FF31
:102150000E2002F003FF082002F000FF542002F0DE
:10216000FDFEA92002F0FAFE432002F0F7FE0A204D
:1021700002F0F4FE0F2002F0F1FE002002F0EEFE6D
:10218000002002F0EBFE002002F0E8FE002002F04A
:10219000E5FEE12002F0EEFE002002F0DFFE152059
:1021A00002F0DCFE172002F0D9FE072002F0D6FE76
:1021B000112002F0D3FE062002F0D0FE2B2002F008
:1021C000CDFE562002F0CAFE3C2002F0C7FE0520DC
:1021D00002F0C4FE102002F0C1FE0F2002F0BEFE8D
:1021E0003F2002F0BBFE3F2002F0B8FE0F2002F0BD
:1021F000B5FE2B2002F0BEFE002002F0AFFE002054
:1022000002F0ACFE012002F0A9FE3F2002F0A6FE83
:102210002A2002F0AFFE002002F0A0FE002002F013
:102220009DFE002002F09AFEEF2002F097FE1120A2
:1022300002F0A0FE7820FEF7FDF9BDE8104029204D
:1022400002F098BE10B5FF2002F094FEFF2002F0CD
:1022500085FE982002F082FE062002F07FFEBC2060
:1022600002F088FE012002F079FE0F2002F076FED7
:10227000612002F073FEFF2002F070FE012002F0E8
:102280006DFE012002F06AFE0B2002F067FE1020B6
:1022900002F064FE372002F061FE632002F05EFE71
:1022A000FF2002F05BFEFF2002F058FE012002F04A
:1022B00055FE012002F052FE002002F04FFE0020E9
:1022C00002F04CFEFF2002F049FE522002F046FED2
:1022D000012002F043FE002002F040FE402002F008
:1022E0003DFEBD2002F046FE012002F037FE232015
:1022F00002F034FE452002F031FE672002F02EFE8F
:10230000012002F02BFE232002F028FE452002F0DF
:1023100025FE672002F022FEBE2002F02BFE0020E8
:1023200002F01CFE012002F019FEAB2002F016FEA6
:10233000602002F013FE222002F010FE222002F0A4
:102340000DFE222002F00AFE222002F007FE2220CB
:1023500002F004FEC72002F00DFE362002F0FEFD62
:10236000ED2002F007FE7F2002F0F8FD0F2002F0C2
:10237000F5FDC02002F0FEFD0F2002F0EFFD0B2066
:1023800002F0ECFD0A2002F0E9FDFC2002F0F2FD73
:10239000082002F0E3FDDF2002F0ECFD002002F057
:1023A000DDFD002002F0DAFD002002F0D7FD002064
:1023B00002F0D4FD002002F0D1FD202002F0CEFD7D
:1023C000F32002F0D7FD742002F0C8FDB42002F023
:1023D000D1FD002002F0C2FD002002F0BFFD002070
:1023E00002F0BCFDF72002F0C5FD822002F0B6FD30
:1023F000B12002F0BFFD002002F0B0FD132002F07A
:10240000ADFD132002F0AAFDF22002F0B3FD802002
:1024100002F0A4FD042002F0A1FD402002F09EFD88
:10242000282002F09BFDC12002F0A4FD172002F03D
:1024300095FD882002F092FD882002F08FFD20207B
:1024400002F08CFDE02002F095FD002002F086FDF8
:102450000A2002F083FD122002F080FD102002F01D
:102460007DFD0E2002F07AFD202002F077FDCC20C9
:1024700002F074FD072002F071FD062002F06EFDEF
:102480000B2002F06BFD0E2002F068FD0F2002F021
:1024900065FD0D2002F062FD152002F05FFD1020A9
:1024A00002F05CFD002002F059FDE12002F062FD27
:1024B000002002F053FD0B2002F050FD132002F02B
:1024C0004DFD0D2002F04AFD0E2002F047FD1B20BD
:1024D00002F044FD712002F041FD062002F03EFDB5
:1024E000062002F03BFD0A2002F038FD0F2002F02A
:1024F00035FD0E2002F032FD0F2002F02FFD1520D9
:1025000002F02CFD0C2002F029FD002002F026FD37
:102510002A2002F02FFD002002F020FD002002F012
:102520001DFD012002F01AFDDF2002F017FD2B2017
:1025300002F020FD002002F011FD002002F00EFD4F
:10254000032002F00BFD1F2002F008FD3A2002F0EC
:1025500011FD552002F002FD362002F00BFD002097
:1025600002F0FCFC112002F005FD7820FEF762F875
:10257000292002F0FFFC1420FEF75CF8BDE81040B3
:102580002C2002F0F7BC10B5ED2002F0F3FC012086
:1025900002F0E4FCFE2002F0E1FCEE2002F0EAFC96
:1025A000DE2002F0DBFC212002F0D8FCF12002F05A
:1025B000E1FC012002F0D2FCDF2002F0DBFC102065
:1025C00002F0CCFCC42002F0D5FC8F2002F0C6FC47
:1025D000C62002F0CFFC002002F0C0FCE22002F096
:1025E000BDFCE22002F0BAFCE22002F0B7FCBF2002
:1025F00002F0C0FCAA2002F0B1FCB02002F0BAFC4C
:102600000D2002F0ABFC002002F0A8FC0D2002F02F
:10261000A5FC002002F0A2FC112002F09FFC00208B
:1026200002F09CFC192002F099FC002002F096FCBC
:10263000212002F093FC002002F090FC2D2002F0FB
:102640008DFC002002F08AFC3D2002F087FC002077
:1026500002F084FC5D2002F081FC002002F07EFC90
:102660005D2002F07BFC002002F078FCB12002F03B
:1026700081FC802002F072FC002002F06FFC8B20B5
:1026800002F06CFC002002F069FC962002F066FC6F
:10269000002002F063FCB22002F06CFC002002F08B
:1026A0005DFC002002F05AFC022002F057FC0020E2
:1026B00002F054FC032002F051FC002002F04EFC1A
:1026C000B32002F057FC002002F048FC002002F08A
:1026D00045FC002002F042FC002002F03FFC0020FC
:1026E00002F03CFC002002F039FC002002F036FC35
:1026F000002002F033FC002002F030FC002002F049
:102700002DFC002002F02AFC002002F027FC002013
:1027100002F024FC002002F021FC002002F01EFC4C
:10272000002002F01BFC002002F018FC002002F048
:1027300015FC002002F012FC002002F00FFC00202B
:1027400002F00CFC002002F009FC002002F006FC64
:10275000002002F003FCB42002F00CFC8B2002F0FD
:10276000FDFB002002F0FAFB962002F0F7FB0020B0
:1027700002F0F4FBA12002F0F1FB002002F0EEFBDE
:10278000B52002F0F7FB022002F0E8FB002002F087
:10279000E5FB032002F0E2FB002002F0DFFB042057
:1027A00002F0DCFB002002F0D9FBB62002F0E2FBD5
:1027B000002002F0D3FB002002F0D0FBB72002F093
:1027C000D9FB002002F0CAFB002002F0C7FB3F202B
:1027D00002F0C4FB002002F0C1FB5E2002F0BEFB51
:1027E000002002F0BBFB642002F0B8FB002002F0E6
:1027F000B5FB8C2002F0B2FB002002F0AFFBAC2056
:1028000002F0ACFB002002F0A9FBDC2002F0A6FBEA
:10281000002002F0A3FB702002F0A0FB002002F0D9
:102820009DFB902002F09AFB002002F097FBEB202A
:1028300002F094FB002002F091FBDC2002F08EFB02
:10284000002002F08BFBB82002F094FB002002F085
:1028500085FB002002F082FB002002F07FFB0020BD
:1028600002F07CFB002002F079FB002002F076FBF6
:10287000002002F073FB002002F070FBBA2002F08F
:1028800079FB242002F06AFB002002F067FB0020A5
:1028900002F064FB002002F061FBC12002F06AFB41
:1028A000202002F05BFB002002F058FB542002F0D5
:1028B00055FB002002F052FBFF2002F04FFB0020EE
:1028C00002F04CFBC22002F055FB0A2002F046FB4E
:1028D000002002F043FB042002F040FB002002F045
:1028E0003DFBC32002F046FB3C2002F037FB0020FA
:1028F00002F034FB3A2002F031FB002002F02EFB04
:10290000392002F02BFB002002F028FB372002F0D8
:1029100025FB002002F022FB3C2002F01FFB0020E0
:1029200002F01CFB362002F019FB002002F016FB1F
:10293000322002F013FB002002F010FB2F2002F0E7
:102940000DFB002002F00AFB2C2002F007FB002008
:1029500002F004FB292002F001FB002002F0FEFA45
:10296000262002F0FBFA002002F0F8FA242002F000
:10297000F5FA002002F0F2FA242002F0EFFA00202B
:1029800002F0ECFA232002F0E9FA002002F0E6FA65
:102990003C2002F0E3FA002002F0E0FA362002F0D8
:1029A000DDFA002002F0DAFA322002F0D7FA002035
:1029B00002F0D4FA2F2002F0D1FA002002F0CEFA71
:1029C0002C2002F0CBFA002002F0C8FA292002F0F5
:1029D000C5FA002002F0C2FA262002F0BFFA002059
:1029E00002F0BCFA242002F0B9FA002002F0B6FA94
:1029F000242002F0B3FA002002F0B0FA232002F003
:102A0000ADFA002002F0AAFAC42002F0B3FA622064
:102A100002F0A4FA002002F0A1FA052002F09EFACA
:102A2000002002F09BFA842002F098FA002002F0C5
:102A300095FAF02002F092FA002002F08FFA1820A6
:102A400002F08CFA002002F089FAA42002F086FA43
:102A5000002002F083FA182002F080FA002002F031
:102A60007DFA502002F07AFA002002F077FA0C206A
:102A700002F074FA002002F071FA172002F06EFAE8
:102A8000002002F06BFA952002F068FA002002F0B4
:102A900065FAF32002F062FA002002F05FFAE62005
:102AA00002F05CFA002002F059FAC52002F062FA46
:102AB000322002F053FA002002F050FA442002F0D3
:102AC0004DFA002002F04AFA652002F047FA002091
:102AD00002F044FA762002F041FA002002F03EFAB9
:102AE000882002F03BFA002002F038FAC62002F0FB
:102AF00041FA202002F032FA002002F02FFA1720CB
:102B000002F02CFA002002F029FA012002F026FA45
:102B1000002002F023FAC72002F02CFA002002F075
:102B20001DFA002002F01AFA002002F017FA002025
:102B300002F014FAC82002F01DFA002002F00EFA8A
:102B4000002002F00BFA002002F008FA002002F048
:102B500005FAC92002F00EFA002002F0FFF9002069
:102B600002F0FCF9002002F0F9F9002002F0F6F979
:102B7000002002F0F3F9002002F0F0F9002002F04A
:102B8000EDF9002002F0EAF9002002F0E7F9002058
:102B900002F0E4F9002002F0E1F9002002F0DEF991
:102BA000002002F0DBF9002002F0D8F9002002F04A
:102BB000D5F9002002F0D2F9E02002F0DBF916206E
:102BC00002F0CCF9002002F0C9F91C2002F0C6F98D
:102BD000002002F0C3F9212002F0C0F9002002F029
:102BE000BDF9362002F0BAF9002002F0B7F946200C
:102BF00002F0B4F9002002F0B1F9522002F0AEF96F
:102C0000002002F0ABF9642002F0A8F9002002F0E5
:102C1000A5F97A2002F0A2F9002002F09FF98B209A
:102C200002F09CF9002002F099F9992002F096F93F
:102C3000002002F093F9A82002F090F9002002F0A1
:102C40008DF9B92002F08AF9002002F087F9C4203A
:102C500002F084F9002002F081F9CA2002F07EF926
:102C6000002002F07BF9D22002F078F9002002F077
:102C700075F9D92002F072F9002002F06FF9E02016
:102C800002F06CF9002002F069F9F32002F066F915
:102C9000002002F063F9E12002F06CF9162002F046
:102CA0005DF9002002F05AF91C2002F057F90020CB
:102CB00002F054F9222002F051F9002002F04EF9FE
:102CC000362002F04BF9002002F048F9452002F0CE
:102CD00045F9002002F042F9522002F03FF90020AD
:102CE00002F03CF9642002F039F9002002F036F9D4
:102CF0007A2002F033F9002002F030F98B2002F044
:102D00002DF9002002F02AF9992002F027F900207D
:102D100002F024F9A82002F021F9002002F01EF9A7
:102D2000B92002F01BF9002002F018F9C42002F0CB
:102D300015F9002002F012F9CA2002F00FF9002064
:102D400002F00CF9D22002F009F9002002F006F995
:102D5000D82002F003F9002002F000F9E02002F090
:102D6000FDF8002002F0FAF8F32002F0F7F8002056
:102D700002F0F4F8E22002F0FDF8052002F0EEF88F
:102D8000002002F0EBF80B2002F0E8F8002002F03F
:102D9000E5F81B2002F0E2F8002002F0DFF8342012
:102DA00002F0DCF8002002F0D9F8442002F0D6F856
:102DB000002002F0D3F84F2002F0D0F8002002F0FB
:102DC000CDF8612002F0CAF8002002F0C7F879209F
:102DD00002F0C4F8002002F0C1F8882002F0BEF82A
:102DE000002002F0BBF8972002F0B8F8002002F0B3
:102DF000B5F8A62002F0B2F8002002F0AFF8B72034
:102E000002F0ACF8002002F0A9F8C22002F0A6F807
:102E1000002002F0A3F8C72002F0A0F8002002F082
:102E20009DF8D12002F09AF8002002F097F8D62001
:102E300002F094F8002002F091F8DD2002F08EF804
:102E4000002002F08BF8F32002F088F8002002F056
:102E500085F8E32002F08EF8052002F07FF80020CC
:102E600002F07CF80A2002F079F8002002F076F8EF
:102E70001C2002F073F8002002F070F8332002F0FA
:102E80006DF8002002F06AF8442002F067F8002094
:102E900002F064F8502002F061F8002002F05EF8C1
:102EA000622002F05BF8002002F058F8782002F06F
:102EB00055F8002002F052F8882002F04FF8002068
:102EC00002F04CF8972002F049F8002002F046F892
:102ED000A62002F043F8002002F040F8B72002F0EC
:102EE0003DF8002002F03AF8C22002F037F8002046
:102EF00002F034F8C72002F031F8002002F02EF87A
:102F0000D12002F02BF8002002F028F8D52002F0A2
:102F100025F8002002F022F8DD2002F01FF8002042
:102F200002F01CF8F32002F019F8002002F016F865
:102F3000E42002F01FF8012002F010F8002002F057
:102F40000DF8012002F00AF8002002F007F8022034
:102F500002F004F8002002F001F82A2001F0FEFF40
:102F6000002001F0FBFF3C2001F0F8FF002001F001
:102F7000F5FF4B2001F0F2FF002001F0EFFF5D2094
:102F800001F0ECFF002001F0E9FF742001F0E6FF02
:102F9000002001F0E3FF842001F0E0FF002001F0B9
:102FA000DDFF932001F0DAFF002001F0D7FFA2201F
:102FB00001F0D4FF002001F0D1FFB32001F0CEFFDB
:102FC000002001F0CBFFBE2001F0C8FF002001F07F
:102FD000C5FFC42001F0C2FF002001F0BFFFCD20DB
:102FE00001F0BCFF002001F0B9FFD32001F0B6FFD3
:102FF000002001F0B3FFDD2001F0B0FF002001F060
:10300000ADFFF32001F0AAFF002001F0A7FFE520AB
:1030100001F0B0FF002001F0A1FF002001F09EFFB1
:10302000002001F09BFF002001F098FF022001F03A
:1030300095FF002001F092FF292001F08FFF002072
:1030400001F08CFF3C2001F089FF002001F086FF99
:103050004B2001F083FF002001F080FF5D2001F094
:103060007DFF002001F07AFF742001F077FF00203F
:1030700001F074FF842001F071FF002001F06EFF69
:10308000932001F06BFF002001F068FFA22001F007
:1030900065FF002001F062FFB32001F05FFF002018
:1030A00001F05CFFBE2001F059FF002001F056FF47
:1030B000C42001F053FF002001F050FFCD2001F0AB
:1030C0004DFF002001F04AFFD32001F047FF002010
:1030D00001F044FFDC2001F041FF002001F03EFF41
:1030E000F32001F03BFF002001F038FFE62001F063
:1030F00041FF112001F032FF002001F02FFF3420AA
:1031000001F02CFF002001F029FF562001F026FFDE
:10311000002001F023FF762001F020FF002001F0C5
:103120001DFF772001F01AFF002001F017FF662035
:1031300001F014FF002001F011FF882001F00EFFC4
:10314000002001F00BFF992001F008FF002001F0A2
:1031500005FFBB2001F002FF002001F0FFFE9920D7
:1031600001F0FCFE002001F0F9FE662001F0F6FE01
:10317000002001F0F3FE552001F0F0FE002001F0E8
:10318000EDFE552001F0EAFE002001F0E7FE4520AB
:1031900001F0E4FE002001F0E1FE432001F0DEFE3C
:1031A000002001F0DBFE442001F0D8FE002001F0F9
:1031B000D5FEE72001F0DEFE322001F0CFFE002038
:1031C00001F0CCFE552001F0C9FE002001F0C6FE42
:1031D000762001F0C3FE002001F0C0FE662001F061
:1031E000BDFE002001F0BAFE672001F0B7FE00200E
:1031F00001F0B4FE672001F0B1FE002001F0AEFE48
:10320000872001F0ABFE002001F0A8FE992001F01C
:10321000A5FE002001F0A2FEBB2001F09FFE0020D1
:1032200001F09CFE992001F099FE002001F096FE2D
:10323000772001F093FE002001F090FE442001F081
:103240008DFE002001F08AFE562001F087FE00204E
:1032500001F084FE232001F081FE002001F07EFEBB
:10326000332001F07BFE002001F078FE452001F0C4
:1032700075FE002001F072FEE82001F07BFE0020C8
:1032800001F06CFE002001F069FE992001F066FE5D
:10329000002001F063FE872001F060FE002001F0B5
:1032A0005DFE882001F05AFE002001F057FE7720D5
:1032B00001F054FE002001F051FE662001F04EFEA8
:1032C000002001F04BFE882001F048FE002001F0B4
:1032D00045FEAA2001F042FE002001F03FFEBB2087
:1032E00001F03CFE002001F039FE992001F036FE8D
:1032F000002001F033FE662001F030FE002001F0D6
:103300002DFE552001F02AFE002001F027FE552059
:1033100001F024FE002001F021FE442001F01EFEF9
:10332000002001F01BFE442001F018FE002001F0F7
:1033300015FE552001F012FE002001F00FFEE920DD
:1033400001F018FEAA2001F009FE002001F006FE9F
:10335000002001F003FE002001F000FE002001F03B
:1033600009FEAA2001F0FAFDCF2001F003FE0020A3
:1033700001F0F4FD002001F0F1FD002001F0EEFD70
:10338000002001F0EBFD002001F0E8FD002001F03D
:10339000E5FD002001F0E2FD002001F0DFFD00204E
:1033A00001F0DCFD002001F0D9FD002001F0D6FD88
:1033B000002001F0D3FD002001F0D0FD002001F03D
:1033C000CDFD002001F0CAFD002001F0C7FD002066
:1033D00001F0C4FDF02001F0CDFD002001F0BEFDA4
:1033E000502001F0BBFD002001F0B8FD002001F0ED
:1033F000B5FD002001F0B2FDF32001F0BBFD00207F
:1034000001F0ACFDF92001F0B5FD062001F0A6FDAC
:10341000102001F0A3FD292001F0A0FD002001F003
:103420009DFD3A2001F0A6FD552001F097FD1120E9
:1034300001F0A0FD6420FDF7FDF8292001F09AFDC0
:10344000352001F097FD002001F088FD512001F0AA
:1034500091FDFF2001F082FD532001F08BFD2C2017
:1034600001F07CFD552001F085FD822001F076FD04
:10347000BDE810402C2001F07DBD2DE9F05F4FF438
:1034800070445521204601F08BFD651CAA21284679
:1034900001F086FDA61C5221304601F081FDE71C9B
:1034A0000821384601F07CFD4FF204080121404616
:1034B00001F076FD4FF436433421184601F070FDDB
:1034C00034214BF2016001F06BFD34214BF20260BC
:1034D00001F066FD4FF430490D21484601F060FDD2
:1034E0004BF2010A0D21504601F05AFD4BF2020B3E
:1034F0000D21584601F054FD24214FF4374001F0CE
:103500004FFD24214BF2017001F04AFD24214BF2C2
:10351000027001F045FD0D214FF4314001F040FDF6
:103520000D214BF2011001F03BFD0D214BF2021079
:1035300001F036FD24214FF4384001F031FD242103
:103540004BF6010001F02CFD24214BF6020001F0A6
:1035500027FD00214FF4324001F022FD24214FF4D9
:10356000394001F01DFD24214BF6011001F018FD3A
:1035700024214BF6021001F013FD05214FF43340D6
:1035800001F00EFD05214BF2013001F009FD05218E
:103590004BF2023001F004FD34214FF43A4001F0C7
:1035A000FFFC34214BF6012001F0FAFC34214BF6EC
:1035B000022001F0F5FC0B214FF4354001F0F0FC46
:1035C0000B214BF2015001F0EBFC0B214BF20250AE
:1035D00001F0E6FC00214FF43C4001F0E1FCA321A6
:1035E0004BF6014001F0DCFC00214BF6024001F0FB
:1035F000D7FC00214FF43D4001F0D2FCA3214BF653
:10360000015001F0CDFC00214BF6025001F0C8FC46
:1036100000214FF43E4001F0C3FC37214BF601601E
:1036200001F0BEFC00214FF4514001F0B9FC3721FC
:103630004DF2011001F0B4FC00214DF2021001F036
:10364000AFFC53214DF2031001F0AAFC00214DF212
:10365000041001F0A5FC79214DF2051001F0A0FC49
:1036600000214DF2061001F09BFC97214DF207104E
:1036700001F096FC00214DF2081001F091FCB121FF
:103680004DF2091001F08CFC00214DF20A1001F0FE
:1036900087FCD5214DF20B1001F082FC00214DF288
:1036A0000C1001F07DFCF4214DF20D1001F078FCBE
:1036B00001214DF20E1001F073FC23214DF20F1089
:1036C00001F06EFC01214DF2101001F069FC49215E
:1036D0004DF2111001F064FC01214DF2121001F0C5
:1036E0005FFC87214DF2131001F05AFC01214DF2CD
:1036F000141001F055FCB6214DF2151001F050FCEC
:1037000002214DF2161001F04BFC00214DF2171072
:1037100001F046FC02214DF2181001F041FC3B2162
:103720004DF2191001F03CFC02214DF21A1001F08B
:1037300037FC3D214DF21B1001F032FC02214DF20D
:103740001C1001F02DFC75214DF21D1001F028FC1C
:1037500002214DF21E1001F023FCB1214DF21F1089
:1037600001F01EFC02214DF2201001F019FCD521C0
:103770004DF2211001F014FC03214DF2221001F052
:103780000FFC09214DF2231001F00AFC03214DF238
:10379000241001F005FC28214DF2251001F000FC59
:1037A00003214DF2261001F0FBFB52214DF22710B0
:1037B00001F0F6FB03214DF2281001F0F1FB6B2123
:1037C0004DF2291001F0ECFB03214DF22A1001F01B
:1037D000E7FB8D214DF22B1001F0E2FB03214DF2AE
:1037E0002C1001F0DDFBA2214DF22D1001F0D8FBD1
:1037F00003214DF22E1001F0D3FBBB214DF22F100F
:1038000001F0CEFB03214DF2301001F0C9FBC121C4
:103810004DF2311001F0C4FB03214DF2321001F0E2
:10382000BFFBC1214DF2331001F0BAFB00214FF470
:10383000524001F0B5FB37214DF2012001F0B0FB01
:1038400000214DF2022001F0ABFB53214DF2032089
:1038500001F0A6FB00214DF2042001F0A1FB79212B
:103860004DF2052001F09CFB00214DF2062001F0F5
:1038700097FB97214DF2072001F092FB00214DF2BA
:10388000082001F08DFBB1214DF2092001F088FBE9
:1038900000214DF20A2001F083FBD5214DF20B20CF
:1038A00001F07EFB00214DF20C2001F079FBF421A8
:1038B0004DF20D2001F074FB01214DF20E2001F0BC
:1038C0006FFB23214DF20F2001F06AFB01214DF225
:1038D000102001F065FB49214DF2112001F060FB41
:1038E00001214DF2122001F05BFB87214DF21320E4
:1038F00001F056FB01214DF2142001F051FBB621DD
:103900004DF2152001F04CFB02214DF2162001F082
:1039100047FB00214DF2172001F042FB02214DF23E
:10392000182001F03DFB3B214DF2192001F038FB3E
:1039300002214DF21A2001F033FB3D214DF21B20F4
:1039400001F02EFB02214DF21C2001F029FB752114
:103950004DF21D2001F024FB02214DF21E2001F04A
:103960001FFBB1214DF21F2001F01AFB02214DF285
:10397000202001F015FBD5214DF2212001F010FB94
:1039800003214DF2222001F00BFB09214DF22320EF
:1039900001F006FB03214DF2242001F001FB282158
:1039A0004DF2252001F0FCFA03214DF2262001F012
:1039B000F7FA52214DF2272001F0F2FA03214DF2DD
:1039C000282001F0EDFA6B214DF2292001F0E8FAF0
:1039D00003214DF22A2001F0E3FA8D214DF22B2034
:1039E00001F0DEFA03214DF22C2001F0D9FAA221D8
:1039F0004DF22D2001F0D4FA03214DF22E2001F0DA
:103A0000CFFABB214DF22F2001F0CAFA03214DF26B
:103A1000302001F0C5FAC1214DF2312001F0C0FA89
:103A200003214DF2322001F0BBFAC1214DF23320C7
:103A300001F0B6FA00214FF4534001F0B1FA3721FA
:103A40004DF2013001F0ACFA00214DF2023001F0EC
:103A5000A7FA53214DF2033001F0A2FA00214DF2F2
:103A6000043001F09DFA79214DF2053001F098FA09
:103A700000214DF2063001F093FA97214DF2073004
:103A800001F08EFA00214DF2083001F089FAB121DF
:103A90004DF2093001F084FA00214DF20A3001F0B4
:103AA0007FFAD5214DF20B3001F07AFA00214DF268
:103AB0000C3001F075FAF4214DF20D3001F070FA7E
:103AC00001214DF20E3001F06BFA23214DF20F303F
:103AD00001F066FA01214DF2103001F061FA49213E
:103AE0004DF2113001F05CFA01214DF2123001F07B
:103AF00057FA87214DF2133001F052FA01214DF2AD
:103B0000143001F04DFAB6214DF2153001F048FAAB
:103B100002214DF2163001F043FA00214DF2173028
:103B200001F03EFA02214DF2183001F039FA3B2142
:103B30004DF2193001F034FA02214DF21A3001F041
:103B40002FFA3D214DF21B3001F02AFA02214DF2ED
:103B50001C3001F025FA75214DF21D3001F020FADC
:103B600002214DF21E3001F01BFAB1214DF21F303F
:103B700001F016FA02214DF2203001F011FAD521A0
:103B80004DF2213001F00CFA03214DF2223001F008
:103B900007FA09214DF2233001F002FA03214DF218
:103BA000243001F0FDF928214DF2253001F0F8F91B
:103BB00003214DF2263001F0F3F952214DF2273066
:103BC00001F0EEF903214DF2283001F0E9F96B2103
:103BD0004DF2293001F0E4F903214DF22A3001F0D1
:103BE000DFF98D214DF22B3001F0DAF903214DF28E
:103BF0002C3001F0D5F9A2214DF22D3001F0D0F991
:103C000003214DF22E3001F0CBF9BB214DF22F30C4
:103C100001F0C6F903214DF2303001F0C1F9C121A4
:103C20004DF2313001F0BCF903214DF2323001F098
:103C3000B7F9C1214DF2333001F0B2F900214FF450
:103C4000544001F0ADF937214DF2014001F0A8F9DF
:103C500000214DF2024001F0A3F953214DF203403F
:103C600001F09EF900214DF2044001F099F979210B
:103C70004DF2054001F094F900214DF2064001F0AB
:103C80008FF997214DF2074001F08AF900214DF29A
:103C9000084001F085F9B1214DF2094001F080F9A9
:103CA00000214DF20A4001F07BF9D5214DF20B4085
:103CB00001F076F900214DF20C4001F071F9F42188
:103CC0004DF20D4001F06CF901214DF20E4001F072
:103CD00067F923214DF20F4001F062F901214DF205
:103CE000104001F05DF949214DF2114001F058F901
:103CF00001214DF2124001F053F987214DF213409A
:103D000001F04EF901214DF2144001F049F9B621BC
:103D10004DF2154001F044F902214DF2164001F038
:103D20003FF900214DF2174001F03AF902214DF21E
:103D3000184001F035F93B214DF2194001F030F9FE
:103D400002214DF21A4001F02BF93D214DF21B40AA
:103D500001F026F902214DF21C4001F021F97521F4
:103D60004DF21D4001F01CF902214DF21E4001F000
:103D700017F9B1214DF21F4001F012F902214DF265
:103D8000204001F00DF9D5214DF2214001F008F954
:103D900003214DF2224001F003F909214DF22340A5
:103DA00001F0FEF803214DF2244001F0F9F828213A
:103DB0004DF2254001F0F4F803214DF2264001F0C8
:103DC000EFF852214DF2274001F0EAF803214DF2BD
:103DD000284001F0E5F86B214DF2294001F0E0F8B0
:103DE00003214DF22A4001F0DBF88D214DF22B40EA
:103DF00001F0D6F803214DF22C4001F0D1F8A221B8
:103E00004DF22D4001F0CCF803214DF22E4001F08F
:103E1000C7F8BB214DF22F4001F0C2F803214DF24B
:103E2000304001F0BDF8C1214DF2314001F0B8F849
:103E300003214DF2324001F0B3F8C1214DF233407D
:103E400001F0AEF800214FF4554001F0A9F83721F8
:103E50004DF2015001F0A4F800214DF2025001F0A2
:103E60009FF853214DF2035001F09AF800214DF2D2
:103E7000045001F095F879214DF2055001F090F8C9
:103E800000214DF2065001F08BF897214DF20750BA
:103E900001F086F800214DF2085001F081F8B121BF
:103EA0004DF2095001F07CF800214DF20A5001F06A
:103EB00077F8D5214DF20B5001F072F800214DF248
:103EC0000C5001F06DF8F4214DF20D5001F068F83E
:103ED00001214DF20E5001F063F823214DF20F50F5
:103EE00001F05EF801214DF2105001F059F849211E
:103EF0004DF2115001F054F801214DF2125001F031
:103F00004FF887214DF2135001F04AF801214DF28C
:103F1000145001F045F8B6214DF2155001F040F86B
:103F200002214DF2165001F03BF800214DF21750DE
:103F300001F036F802214DF2185001F031F83B2122
:103F40004DF2195001F02CF802214DF21A5001F0F7
:103F500027F83D214DF21B5001F022F802214DF2CD
:103F60001C5001F01DF875214DF21D5001F018F89C
:103F700002214DF21E5001F013F8B1214DF21F50F5
:103F800001F00EF802214DF2205001F009F8D52180
:103F90004DF2215001F004F803214DF2225000F0BF
:103FA000FFFF09214DF2235000F0FAFF03214DF2EB
:103FB000245000F0F5FF28214DF2255000F0F0FFCD
:103FC00003214DF2265000F0EBFF52214DF2275015
:103FD00000F0E6FF03214DF2285000F0E1FF6B21D5
:103FE0004DF2295000F0DCFF03214DF22A5000F081
:103FF000D7FF8D214DF22B5000F0D2FF03214DF25F
:104000002C5000F0CDFFA2214DF22D5000F0C8FF42
:1040100003214DF22E5000F0C3FFBB214DF22F5073
:1040200000F0BEFF03214DF2305000F0B9FFC12176
:104030004DF2315000F0B4FF03214DF2325000F048
:10404000AFFFC1214DF2335000F0AAFF00214FF421
:10405000564000F0A5FF37214DF2016000F0A0FFAF
:1040600000214DF2026000F09BFF53214DF20360EE
:1040700000F096FF00214DF2046000F091FF7921DD
:104080004DF2056000F08CFF00214DF2066000F05B
:1040900087FF97214DF2076000F082FF00214DF26B
:1040A000086000F07DFFB1214DF2096000F078FF5B
:1040B00000214DF20A6000F073FFD5214DF20B6034
:1040C00000F06EFF00214DF20C6000F069FFF4215A
:1040D0004DF20D6000F064FF01214DF20E6000F022
:1040E0005FFF23214DF20F6000F05AFF01214DF2D6
:1040F000106000F055FF49214DF2116000F050FFB3
:1041000001214DF2126000F04BFF87214DF2136048
:1041100000F046FF01214DF2146000F041FFB6218E
:104120004DF2156000F03CFF02214DF2166000F0E8
:1041300037FF00214DF2176000F032FF02214DF2EF
:10414000186000F02DFF3B214DF2196000F028FFB0
:1041500002214DF21A6000F023FF3D214DF21B6059
:1041600000F01EFF02214DF21C6000F019FF7521C6
:104170004DF21D6000F014FF02214DF21E6000F0B0
:104180000FFFB1214DF21F6000F00AFF02214DF236
:10419000206000F005FFD5214DF2216000F000FF06
:1041A00003214DF2226000F0FBFE09214DF2236055
:1041B00000F0F6FE03214DF2246000F0F1FE28210C
:1041C0004DF2256000F0ECFE03214DF2266000F078
:1041D000E7FE52214DF2276000F0E2FE03214DF28E
:1041E000286000F0DDFE6B214DF2296000F0D8FE62
:1041F00003214DF22A6000F0D3FE8D214DF22B6099
:1042000000F0CEFE03214DF22C6000F0C9FEA22189
:104210004DF22D6000F0C4FE03214DF22E6000F03F
:10422000BFFEBB214DF22F6000F0BAFE03214DF21C
:10423000306000F0B5FEC1214DF2316000F0B0FEFB
:1042400003214DF2326000F0ABFEC1214DF233602C
:1042500000F0A6FE5521204600F0A2FEAA21284625
:1042600000F09EFE5221304600F09AFE08213846AA
:1042700000F096FE0021404600F092FE00214846E4
:1042800000F08EFE0521504600F08AFE02215846BD
:1042900000F086FE05214BF2030000F081FE0221B2
:1042A0004BF2040000F07CFE0821184600F078FE76
:1042B00050214FF4354000F073FE0521184600F000
:1042C0006FFE00214FF4374000F06AFE00214BF2F0
:1042D000017000F065FE01214FF4384000F060FEEF
:1042E00005214BF6010000F05BFE05214BF60200B4
:1042F00000F056FE05214BF6030000F051FE0221AE
:104300004FF43C4000F04CFE00214BF6014000F021
:1043100047FE00214BF6024000F042FE03214FF41D
:104320004C4000F03DFE00214CF6014000F038FE0C
:1043300000214CF6024000F033FE01214FF43D40D5
:1043400000F02EFE84214BF6015000F029FE0721DB
:104350004BF6025000F024FE31214BF6035000F0E2
:104360001FFE00214BF6045000F01AFE01214FF40D
:104370003A4000F015FEAA214FF47F4000F010FEF5
:1043800055214FF6017000F00BFE25214FF602700B
:1043900000F006FE01214FF6037000F001FE4021FF
:1043A0004FF4585000F0FCFD00214FF4545000F041
:1043B000F7FD05214FF4685000F0F2FD4FF48850EE
:1043C00000F0D8FD7820FCF735F94FF4245000F0C8
:1043D000D1FD0A20FCF72EF9BDE8F05F4FF4305014
:1043E00000F0C8BD10B5E22000F0C4FD1D2000F0B3
:1043F000B5FD022000F0B2FD042000F0AFFD012069
:10440000FCF718F9E02000F0B5FD012000F0A6FD52
:104410000A20FCF70FF9E02000F0ACFD032000F0CB
:104420009DFD0C20FCF706F9012000F0A3FD0A20F9
:10443000FCF700F9E62000F09DFD2F2000F08EFD36
:10444000FF2000F08BFDFF2000F088FDB02000F081
:1044500091FD202000F082FD002000F07FFD032070
:1044600000F07CFD40F21F3000F078FD012000F0EC
:1044700075FD40F2DF1000F071FD002000F06EFDD0
:10448000B42000F077FD042000F068FD40F21F40EA
:1044900000F064FD002000F061FD2E2000F05EFDC4
:1044A000002000F05BFD002000F058FD002000F02F
:1044B00055FD002000F052FDB62000F05BFD02200B
:1044C00000F04CFD4FF4037000F048FD002000F0B8
:1044D00045FD172000F042FD152000F03FFD0020B3
:1044E00000F03CFD002000F039FDF02000F042FD1E
:1044F000032000F033FD292000F03CFDD02000F027
:1045000039FD002000F02AFDBE2000F033FD05201B
:1045100000F024FDFE2000F021FD012000F01EFD32
:10452000002000F01BFD002000F018FD002000F02E
:1045300015FDB82000F01EFD032000F00FFD012046
:1045400000F00CFDBA2000F015FDBDE81040012080
:1045500000F004BD10B5112000F00CFD7820FCF730
:1045600069F8362000F006FD002000F0F7FC3A2044
:1045700000F000FD052000F0F1FCB22000F0FAFC94
:104580000C2000F0EBFC0C2000F0E8FC002000F018
:10459000E5FC332000F0E2FC332000F0DFFCB72024
:1045A00000F0E8FC352000F0D9FCBB2000F0E2FC74
:1045B000322000F0D3FCC02000F0DCFC0C2000F026
:1045C000CDFCC22000F0D6FC012000F0C7FCC320C7
:1045D00000F0D0FC102000F0C1FCC42000F0CAFCA8
:1045E000202000F0BBFCC62000F0C4FC0F2000F02F
:1045F000B5FCD02000F0BEFCA42000F0AFFCA12050
:1046000000F0ACFCE02000F0B5FCD02000F0A6FCEF
:10461000002000F0A3FC022000F0A0FC072000F026
:104620009DFC0A2000F09AFC282000F097FC322024
:1046300000F094FC442000F091FC422000F08EFC3D
:10464000062000F08BFC0E2000F088FC122000F009
:1046500085FC142000F082FC172000F07FFCE12094
:1046600000F088FCD02000F079FC002000F076FCFF
:10467000022000F073FC072000F070FC0A2000F01C
:104680006DFC282000F06AFC312000F067FC54200B
:1046900000F064FC472000F061FC0E2000F05EFC9E
:1046A0001C2000F05BFC172000F058FC1B2000F0E1
:1046B00055FC1E2000F052FC2A2000F05BFC00207C
:1046C00000F04CFC002000F049FC002000F046FC0B
:1046D000EF2000F043FC2B2000F04CFC002000F009
:1046E0003DFC002000F03AFC012000F037FC3F20A8
:1046F00000F034FCBDE81040292000F03BBC10B5B0
:10470000112000F037FC7820FBF794FF362000F0F2
:1047100031FC482000F022FC3A2000F02BFC552010
:1047200000F01CFCF02000F025FCC32000F016FC7B
:10473000F02000F01FFC962000F010FCB42000F0E8
:1047400019FC012000F00AFCB62000F013FC0A203E
:1047500000F004FCA22000F001FCB72000F00AFCED
:10476000C62000F0FBFBB92000F004FC022000F0A2
:10477000F5FBE02000F0F2FBC02000F0FBFB802006
:1047800000F0ECFB162000F0E9FBC12000F0F2FB8A
:10479000192000F0E3FBC22000F0ECFBA72000F0A2
:1047A000DDFBC52000F0E6FB162000F0D7FBE8207B
:1047B00000F0E0FB402000F0D1FB8A2000F0CEFBAF
:1047C000002000F0CBFB002000F0C8FB292000F007
:1047D000C5FB192000F0C2FBA52000F0BFFB332071
:1047E00000F0BCFBE02000F0C5FBF02000F0B6FBC1
:1047F000072000F0B3FB0D2000F0B0FB042000F018
:10480000ADFB052000F0AAFB142000F0A7FB36202A
:1048100000F0A4FB542000F0A1FB4C2000F09EFB14
:10482000382000F09BFB132000F098FB142000F0D0
:1048300095FB2E2000F092FB342000F08FFBE1204E
:1048400000F098FBF02000F089FB102000F086FBC0
:10485000142000F083FB0E2000F080FB0C2000F001
:104860007DFB082000F07AFB352000F077FB442028
:1048700000F074FB4C2000F071FB262000F06EFB72
:10488000102000F06BFB122000F068FB2C2000F0E1
:1048900065FB322000F062FBF02000F06BFB3C2057
:1048A00000F05CFBF02000F065FB692000F056FB97
:1048B0007820FBF7BFFE212000F05CFBBDE8104034
:1048C000292000F057BB00002DE9F04F87B03220BF
:1048D000FBF7B0FED32000F04DFB00F033F9944C11
:1048E000A08000F02FF9A08000F02CF94FF6FF71A6
:1048F00001EA0020A08000F025F9A18849F24136A4
:104900000843A08047F2897545F2103747F2967840
:1049100045F2105949F6060A41F6631BB0427DD0B4
:10492000042000F027FB00F00DF9A08000F00AF948
:10493000A08000F007F94FF6FF7101EA0020A08087
:1049400000F000F9A1880843A0F50541A080523984
:1049500065D0A84262D0D42000F00CFB00F0F2F841
:10496000A08000F0EFF8A08000F0ECF84FF6FF71A7
:1049700001EA0020A08000F0E5F8A1880843A080AB
:10498000B8427ED0D32000F0F5FA00F0DBF8A0802A
:1049900000F0D8F8A08000F0D5F84FF6FF7101EADA
:1049A0000020A08000F0CEF8A1880843A0804045F8
:1049B00067D055214FF4704000F0F2FAAA214FF26F
:1049C000010000F0EDFA52214FF2020000F0E8FA87
:1049D00008214FF2030000F0E3FA01214FF2040036
:1049E00000F0DEFA4FF4454000F0C4FA00F0AAF8F7
:1049F0004FF6FF7101EA0020A0804CF2015000F058
:104A0000B9FA00F09FF8A1880843A0800520FBF7C1
:104A100011FEA188494534D0D32001E02CE02CE0E0
:104A200000F0A8FA00F08EF8A08000F08BF8A080CB
:104A300000F088F84FF6FF7101EA0020A08000F036
:104A400081F8A1880843A08050451AD0A12000F029
:104A500091FA00F077F8A08000F074F84FF6FF713B
:104A600001EA0020A08000F06DF8A1880843A0F5BD
:104A7000AE41A080613902D003E0A58001E0A4F836
:104A800004B0A1882BA0FCF7A7FFA088A84202D100
:104A9000FFF760FD1FE0B04202D1FDF7BCFA1AE05B
:104AA000B84202D1FDF76FFD15E0404502D1FFF796
:104AB00026FE10E0484502D1FEF7DFFC0BE0504532
:104AC00002D1FDF7BFFB06E0584504D1FFF78AFC91
:104AD000642000F01BFA1648A1885038A94201D181
:104AE00003210EE0514503D0B14201D0494501D127
:104AF000022106E0B94203D0414501D0594508D111
:104B0000012100910291036B826840686946FBF7BE
:104B1000C5FC0020FDF7FEF90122D1030848FBF790
:104B2000EFFE4FF6FF70FDF7DDF907B0BDE8F08F3F
:104B3000D80100204C43442049443A25780D0A000E
:104B40000004024008B50220401EFDD24FF0D840BC
:104B5000B0F88000ADF80000BDF8000008BD00000E
:104B600070B55F4C00232146A279898841F663160F
:104B7000012A01D01AB10CE0B14202D109E0B142E0
:104B800007D1082805D2DFE800F0161812140C1916
:104B9000100E082812D2DFE800F0110406080A0CF3
:104BA0000E1080230AE0402308E0C02306E0202303
:104BB00004E0602302E0A02300E0E023362045F279
:104BC0001055A94200D10002A1F51342413A07D085
:104BD000A1F5EE42893A03D0A1F5EE42963A01D111
:104BE00043F00803194600F0DBF9A188B1420AD06E
:104BF00098062088628802D5904202D303E0904252
:104C000001D9228060806089A94240D100F0B2F9C8
:104C1000002000F0A3F96089401C80B200F0AAF9DE
:104C2000002000F09BF96089801C80B200F0A2F99E
:104C30002088401EC0F30F2000F090F96089C01C4E
:104C400080B200F097F92078401EC0B200F086F9DB
:104C5000A08900F08FF9002000F080F9A089401CA5
:104C600080B200F087F9002000F078F9A089801C5C
:104C700080B200F07FF96088401EC0F30F2000F082
:104C80006DF9A089C01C80B200F074F921E000F039
:104C900071F9002000F062F9002000F05FF920882F
:104CA000401EC0F30F2000F059F92078401EC0B21A
:104CB00000F054F9A08900F05DF9002000F04EF9F1
:104CC000002000F04BF96088401EC0F30F2000F078
:104CD00045F9A078BDE87040401EC0B200F03EB972
:104CE000D8010020F0B53B4A0D460446060A9188DB
:104CF00010462F0A4089A1F5C853633B16D0A1F591
:104D0000AA43103B4CD000F035F9304600F026F9AC
:104D1000E0B200F023F9908900F02CF9384600F059
:104D20001DF9E8B2BDE8F04000F018B9917931B34F
:104D300000F020F9304600F011F9E0B200F00EF971
:104D40001088401EC0F30F2000F008F91078401EB4
:104D50005FFA80F000F002F9908900F00BF9384614
:104D600000F0FCF8E8B200F0F9F85088401EC0F3FB
:104D70000F2000F0F3F89078401EC0B2D2E71188FF
:104D8000091B491E8CB200F0F5F8002000F0E6F88F
:104D9000002000F0E3F8200A00F0E0F8E0B2D9E7E4
:104DA00000F0E8F8304600F0D9F85089401C80B295
:104DB00000F0E0F8E0B200F0D1F8908900F0DAF805
:104DC000384600F0CBF89089401C80B200F0D2F851
:104DD000A7E70000D80100202DE9FF4F1D460C4633
:104DE0008B46580700D0012000EBD500690810FB66
:104DF00001F0203A00F0FF0AD0B20C2D0AD0102D9D
:104E00000CD0182D0ED0202D46D1244901EB801650
:104E100000203EE000EB4001214806E0214901EB83
:104E20000016F5E700EBC0011F4800EB8106EFE735
:104E300016F808704FF00009380601D50E9A03E005
:104E40000D9828B91948026821460098FDF7D8F84E
:104E50007806070E1648641CA4B24088A0421BD9ED
:104E6000A4EB0B00A8420AD100985C46401C80B21B
:104E700000900F480188009881420DD906E009F1A1
:104E8000010000F0FF09B9F1080FD5D308F10100C6
:104E9000C0B280465045CBD3BDE8FF8FC86800083C
:104EA000085100087C5500086C5B000810000020C9
:104EB000D80100202DE9FC4F044600F0FF0910192D
:104EC0000D46DDE90BB61FFA80F8581987B24FF08E
:104ED000000A13E0444503D305EB0B004C4685B2B2
:104EE000BD4210D20D985B46CDE900A02946204670
:104EF000FFF772FF04EB5B0084B2761C3278A2F1FC
:104F000020005E28E6D9BDE8FC8F000010B50246FF
:104F1000BE2000F02FF8052000F020F81046FBF727
:104F200004FA9FED0C1B53EC112BFBF78CF9FBF7EC
:104F300009FA80B200F012F8012000F00FF8FF200B
:104F400000F00CF8002000F009F8BDE81040002047
:104F500000F004B8666666666666044001B5BDF892
:104F60000000ADF80000BDF800004FF0D841A1F8F6
:104F7000800008BD01B5BDF80000ADF80000BDF827
:104F800000004FF0D841A1F87E0008BD03484FF063
:104F9000D8410089A1F87E0070470000D8010020A8
:104FA0004FF0D84222F87E0F5180704786B000241F
:104FB000FBF7BAFCFCF758FBFCF7B4FAFCF732FB42
:104FC000FCF76CFAFFF780FC01223E493E48FCF7F3
:104FD000D1F93E4E3E4F0DF10C094FF478454FF09C
:104FE000200A4FF0180B4FF010083560BA8839A12D
:104FF00003A8FCF701FD0C2C0DD2DFE804F0060934
:105000003C3E404346494C4F52554FF6FF7000E03E
:105010000020FCF767FF32A1CDF800A0CDE9011513
:105020002023F02228210A20FFF744FF2EA1CDF8EB
:1050300000B0CDE901151823F02250210A20FFF716
:1050400039FF2CA1CDF80080CDE901151023F02205
:105050006E210A20FFF72EFFCDF80080CDE90195E3
:105060001023F02282210A20FFF724FF641CE4B2FF
:105070000C2C1CD01CE01F20CBE72846C9E74FF6BC
:105080001F00C6E74FF4FC60C3E740F2FF70C0E7C3
:105090004FF6E070BDE74FF60740BAE748F2304000
:1050A000B7E74CF21860B4E74BF64040B1E7002494
:1050B0004FF400711348FBF71BFC4FF47A70FBF7B9
:1050C000B9FA92E778000020400100200C0000208F
:1050D000D80100204C43442049443A25303458003C
:1050E00053544D33320000005446544C4344205432
:1050F0004553540041544F4D40414C49454E544551
:105100004B000000001402400000000000000000FE
:1051100000000000000000003F4000000000000010
:1051200000003000400030004000000009000BC0CB
:105130003D000BC03D00090018C024407FE0224024
:1051400031800000180024C01B000D803240018017
:1051500003801C4027401C80074000401000600076
:1051600000000000000000000000000000001F80A0
:10517000204040200000402020401F800000000010
:10518000090006001F80060009000000040004005A
:105190003F800400040000000010006000000000D8
:1051A00000000000040004000400040004000000EB
:1051B000000000400000000000000000002001C0CE
:1051C00006003800400000001F80204020402040A2
:1051D0001F800000000010403FC0004000000000A1
:1051E00018C0214022402440184000001080204078
:1051F000244024401B80000002000D0011003FC02D
:10520000014000003C8024402440244023800000D2
:105210001F802440244034400380000030002000E0
:1052200027C03800200000001B8024402440244078
:105230001B8000001C0022C0224022401F80000072
:105240000000000008400000000000000000000016
:105250000460000000000000000004000A001100CB
:1052600020804040090009000900090009000000F1
:1052700000004040208011000A00040018002000B7
:1052800023402400180000001F80204027402940B0
:105290001F400000004007C039000F0001C000405F
:1052A00020403FC0244024401B8000001F8020403D
:1052B000204020403080000020403FC0204020405F
:1052C0001F80000020403FC024402E4030C000001E
:1052D00020403FC024402E00300000000F0010800E
:1052E000204022403380020020403FC004000400E0
:1052F0003FC02040204020403FC0204020400000D0
:105300000060202020203FC02000200020403FC01F
:1053100024400B0030C0204020403FC020400040CF
:10532000004000C03FC03C0003C03C003FC0000044
:1053300020403FC00C4023003FC020001F80204081
:10534000204020401F80000020403FC02440240017
:10535000180000001F802140214020E01FA0000015
:1053600020403FC02440260019C0004018C02440FF
:105370002440224031800000300020403FC02040C7
:105380003000000020003F80004000403F802000AF
:1053900020003E0001C0070038002000380007C090
:1053A0003C0007C038000000204039C0060039C06A
:1053B000204000002000384007C038402000000096
:1053C000304021C02640384020C0000000000000CE
:1053D0007FE0402040200000000070000C000380AF
:1053E000004000000000402040207FE0000000005E
:1053F000000020004000200000000000001000100D
:10540000001000100010001000000000400000001C
:1054100000000000000002800540054003C000407D
:1054200020003FC0044004400380000000000380CF
:105430000440044006400000000003800440244073
:105440003FC00040000003800540054003400000CD
:10545000000004401FC0244024402000000002E05F
:10546000055005500650042020403FC00440040071
:1054700003C000400000044027C0004000000000BE
:1054800000100010041027E00000000020403FC082
:105490000140070004C00440204020403FC00040BD
:1054A0000040000007C0040007C0040003C0000063
:1054B000044007C00440040003C000400000038013
:1054C0000440044003800000041007F0045004402E
:1054D00003800000000003800440045007F0001027
:1054E000044007C002400400040000000000064021
:1054F0000540054004C00000000004001F80044077
:1055000000400000040007800040044007C0004045
:105510000400070004C0018006000400060001C06A
:10552000070001C006000000044006C0010006C0DC
:10553000044000000410071004E00180060004008D
:105540000000044005C006400440000000000000C8
:1055500004007BE040200000000000000000FFF09D
:1055600000000000000040207BE00400000000007C
:1055700040008000400020002000400000000000AB
:10558000000000000000000000000000000000001B
:1055900000001FCC000C000000000000000008000C
:1055A000300060000800300060000000022003FCB2
:1055B0001E20022003FC1E200220000000000E1806
:1055C00011043FFF10840C78000000000F001084CD
:1055D0000F3800C0077818840078000000780F8426
:1055E00010C411240E9800E400840008080068002C
:1055F000700000000000000000000000000000003B
:10560000000007E0181820044002000000004002DB
:105610002004181807E000000000000002400240CB
:1056200001800FF0018002400240000000800080F5
:1056300000800FF800800080008000000001000D55
:10564000000E0000000000000000000000000080CC
:105650000080008000800080008000800000000C3E
:10566000000C000000000000000000000000000628
:10567000001800600180060018002000000007F0FC
:10568000080810041004080807F0000000000804CF
:1056900008041FFC000400040000000000000E0CC1
:1056A00010141024104411840E0C000000000C187B
:1056B00010041104110412880C700000000000E0B6
:1056C0000320042408241FFC0024000000001F986D
:1056D000108411041104108810700000000007F0FD
:1056E00008881104110418880070000000001C00D4
:1056F000100010FC13001C001000000000000E3809
:1057000011441084108411440E380000000007007A
:10571000088C10441044088807F0000000000000C6
:105720000000030C030C000000000000000000005B
:1057300000010106000000000000000000000080E1
:10574000014002200410080810040000022002207A
:10575000022002200220022002200000000010048B
:1057600008080410022001400080000000000E0024
:105770001200100C106C10800F00000003E00C18D9
:1057800013E4142417C4082807D000000004003CC8
:1057900003C41C40074000E4001C000410041FFC6C
:1057A0001104110411040E880070000003E00C18AD
:1057B00010041004100410081C10000010041FFC3A
:1057C000100410041004080807F0000010041FFC67
:1057D0001104110417C410040818000010041FFC61
:1057E0001104110017C010000800000003E00C189D
:1057F0001004100410441C780040000010041FFC2A
:1058000010840080008010841FFC1004000010042D
:1058100010041FFC1004100400000000000300012D
:10582000100110011FFE10001000000010041FFCEA
:10583000110403801464181C1004000010041FFCE1
:105840001004000400040004000C000010041FFCFD
:105850001F0000FC1F001FFC1004000010041FFCB0
:105860000C04030000E010181FFC100007F00808EB
:10587000100410041004080807F0000010041FFCB6
:1058800010841080108010800F00000007F00818AE
:1058900010241024101C080A07F2000010041FFC3A
:1058A0001104110011C011300E0C000400000E1C78
:1058B00011041084108410441C38000018001000DB
:1058C00010041FFC100410001800000010001FF846
:1058D00010040004000410041FF8100010001E0043
:1058E00011E0001C007013801C0010001FC0103C51
:1058F00000E01F0000E0103C1FC000001004180C66
:10590000163401C001C01634180C100410001C001D
:10591000130400FC13041C00100000000804101CF9
:105920001064108413041C04101800000000000010
:1059300000007FFE400240024002000000003000F4
:105940000C0003800060001C000300000000400207
:10595000400240027FFE0000000000000000000046
:105960002000400040004000200000000001000135
:1059700000010001000100010001000100004000E1
:10598000400020000000000000000000000000981F
:10599000012401440144014400FC000410001FFCE8
:1059A00000880104010400880070000000000070FD
:1059B0000088010401040104008800000000007058
:1059C00000880104010411081FFC0004000000F815
:1059D000014401440144014400C8000000000104E6
:1059E00001040FFC1104110411001800000000D67E
:1059F00001290129012901C90106000010041FFC29
:105A0000008401000100010400FC00040000010406
:105A1000190419FC00040004000000000000000349
:105A200000010101190119FE0000000010041FFC13
:105A30000024004001B4010C010400000000100427
:105A400010041FFC0004000400000000010401FC1D
:105A50000104010001FC0104010000FC010401FC3F
:105A6000008401000100010400FC0004000000F8B3
:105A7000010401040104010400F80000010101FF18
:105A8000008501040104008800700000000000701F
:105A9000008801040104010501FF00010104010463
:105AA00001FC00840104010001800000000000CC22
:105AB00001240124012401240198000000000100B8
:105AC000010007F80104010400000000010001F8D2
:105AD000000400040004010801FC0004010001802E
