:020000040800F2
:10000000380600209D0100082B1800084B16000838
:1000100029180008A1040008B91B0008000000000E
:100020000000000000000000000000002F18000881
:10003000A3040008000000002D1800083118000873
:10004000B7010008B7010008B7010008B7010008B0
:10005000B7010008B7010008B7010008B7010008A0
:10006000B7010008B7010008B7010008B701000890
:10007000B7010008B7010008B7010008B701000880
:10008000B7010008B701000895040008B70100088F
:10009000B7010008B7010008B7010008B701000860
:1000A000B7010008B7010008B7010008B701000850
:1000B000B7010008B7010008B7010008B701000840
:1000C000B7010008B7010008B7010008B701000830
:1000D000B7010008AD1B0008B7010008B701000810
:1000E000B7010008B7010008B7010008B701000810
:1000F000B7010008B7010008B7010008B701000800
:10010000B7010008B7010008B7010008B7010008EF
:10011000B7010008B7010008B7010008B7010008DF
:10012000B7010008B7010008B7010008B7010008CF
:10013000B7010008B7010008B7010008B7010008BF
:10014000B7010008B7010008B7010008B7010008AF
:10015000B7010008B7010008B7010008B70100089F
:10016000B7010008B7010008B7010008B70100088F
:10017000B7010008B7010008B7010008000000003F
:10018000B7010008B7010008DFF80CD000F070F9E3
:100190000048004769540008380600200648804798
:1001A00006480047FEE7FEE7FEE7FEE7FEE7FEE75C
:1001B000FEE7FEE7FEE7FEE7C91800088901000830
:1001C0002DE9F05F0546002092469B46884606468C
:1001D000814640241BE0284641464746224600F01F
:1001E000D9F853465A46C01A914110D311461846C1
:1001F000224600F0C0F82D1A67EB01084F46224650
:100200000120002100F0B7F817EB00094E41201E35
:10021000A4F10104DFDC484631462A464346BDE8E6
:10022000F09FD2B201E000F8012B491EFBD27047CB
:100230000022F6E710B513460A4604461946FFF7B2
:10024000F0FF204610BD2DE9FE4F81EA030404F0C3
:10025000004421F0004100944FF0000B23F00043D4
:1002600050EA01045ED052EA03045BD0C3F30A549F
:10027000C1F30A552C44A4F2F3340194A0FB0254B8
:10028000C1F3130141F48011C3F3130343F480134A
:1002900001FB024400FB034E840A970A44EA81549E
:1002A00047EA8357A4FB076802958D0A05FB07857B
:1002B0004FEA932C04FB0C542705029D4FEA065885
:1002C00047EA1637B5EB08056EEB070C870E920E62
:1002D00047EA811742EA8312A7FB0201B6EB0B0142
:1002E00064EB00042B0D43EA0C335E1844EB1C5006
:1002F000DA465146E7FB0201C5F313044FEA0B331C
:1003000043EA14534FEA0432019C43EA0603A4F182
:100310000C040294009CCDE900B400F05AF803B03C
:10032000BDE8F08F00200146F9E70EB540F23341F9
:1003300002910021CDE900110A460B4600F049F870
:1003400003B000BDC1F30A5210B5C1F3130140F26E
:10035000FF3341F480119A4201DA002010BD40F2CF
:1003600033439A42A2F2334203DC524200F012F8C5
:1003700010BD904010BD202A04DB203A00FA02F1A3
:10038000002070479140C2F1200320FA03F3194383
:1003900090407047202A04DB203A21FA02F0002125
:1003A000704721FA02F3D040C2F120029140084385
:1003B0001946704710B5141E73F1000408DA401C8A
:1003C00041F1000192185B411A4301D120F0010074
:1003D00010BD2DE9F04D92469B4611B1B1FA81F264
:1003E00002E0B0FA80F220329046FFF7C4FF0446E4
:1003F0000F4640EA0A0041EA0B0153465A460843B9
:1004000013D0114653EA010019D0C8F140025046FA
:10041000FFF7C0FF05460E46504659464246FFF7D5
:10042000AAFF084305D0012004E020463946BDE874
:10043000F08D0020054346EAE0762C4337430A98C6
:100440006305E40AA0EB08000022FD0A44EA4754D1
:100450000A3002D500200146E9E70105101969417B
:10046000DDE9084500196941BDE8F04DA2E700004B
:10047000064C074D06E0E06840F0010394E80700F1
:1004800098471034AC42F6D3FFF782FE94860008FA
:10049000B4860008014800F0AEB800002C0000202F
:1004A000FEE770470949087800280DD1084802681E
:1004B00042F080720260074800224260026842F007
:1004C0000102026001200870704700001400002043
:1004D000FCED00E0001000E04FF47A71484300F0BA
:1004E00001B80000064A10B553680649064C096871
:1004F000B1FBF4F141435068C01A8842FBD310BDF0
:10050000001000E02400002040420F0072B6FEE719
:1005100030B5B3F5804F05D06FF0704140F8221030
:10052000002030BD8C690B688D6823434C68898935
:10053000240144EA0524234343EA014150F82230D0
:10054000014C23401943E9E70000F0CF10B50A68D9
:1005500050F8223023F0010340F822308C68082C38
:1005600023D000234A682243CC681C430B692243F2
:100570001A434B690E4C1A43CB691A430B6A1A4350
:100580004B6A1A438B6A1A43CB6A1A430B6B1A43A2
:100590008B691343CA6B09681A4350F82130A3438F
:1005A000134340F82130002010BD4023DAE700005B
:1005B0007FFF0F0030B5D1E9003443EA04138C68A3
:1005C0008D89240244EA054423430C8A074D00EB3D
:1005D000820005EB045423430C7D6D0105EB04649C
:1005E000896923430B434360002030BD0000F0FFC6
:1005F00070477047704770B50446006806684568E4
:1006000016F0020F05F020012AD049B3216CC9066B
:1006100003D4216C41F400712164816811F0405FC2
:1006200017D1217EA9B9C16A11F4700F02D0816877
:1006300049050ED4416821F020014160206C20F46E
:1006400080702064206CC00403D4206C40F0010052
:1006500020642046FFF7CDFF21686FF0120008608C
:1006600016F0040F05F0800132D089B3206CC0066B
:1006700003D4206C40F4005020642068816811F499
:10068000401F1ED1816B11F4401F02D081684905C3
:1006900017D44168490514D4816811F0405F10D126
:1006A000217E71B9416821F080014160206C20F405
:1006B00080502064206CC00503D4206C40F0010001
:1006C00020642046FFF794FF21686FF00C0008605B
:1006D00016F0010F05F040010FD071B120680068DD
:1006E000C0070AD0206C40F480302064204600F01F
:1006F00019F821686FF00100086016F0200F05F06E
:1007000080610ED000290CD0606C40F00200606463
:1007100020686FF0200505602046FFF76BFF20681A
:10072000056070BD70472DE9F0410446876D00F00B
:10073000C5F9064694F835000025022806D0802029
:10074000606584F834500120BDE8F08120680168BC
:1007500021F0160101602068416921F080014161AA
:10076000206C08B9A06C20B12068016821F0080154
:1007700001602068016821F0010101600CE000F0D7
:100780009DF9801B052807D920206065032084F887
:10079000350084F83450D7E720680068C007EED1F0
:1007A00094F85C103F208840B860012084F8350040
:1007B00084F834500020C7E790F83510022903D0A0
:1007C0008021416501207047052180F835100068BF
:1007D000016821F0010101600020704770B50446F6
:1007E00000F06CF90546601C02D00448007804440F
:1007F00000F064F9401BA042FAD370BD180000203D
:100800002DE9F04186B014216846FFF711FD20481C
:100810000168002939D1012101601E4800240168C6
:1008200041F00101016000684FF4805800F00100C0
:100830000C27CDF80080CDE904700326022503962D
:10084000CDE901546946144800F02EF84FF6807047
:10085000CDE9000502AA694682E8D0000F4800F001
:1008600023F84CF23370CDE9000502AA694682E80C
:10087000D0000B4800F018F802AA694682E8D000C0
:10088000CDE90085074800F00FF806B0BDE8F0811B
:1008900000000020383802400014024000100240DE
:1008A000000C0240001802402DE9F84FDFF8BCA10F
:1008B0000022012503264FF00F090AF1040BAAF1CB
:1008C000040E00BF0B6805FA02F42340A34270D166
:1008D0000F7907F00307012F01D0022F16D1876887
:1008E0004FEA420806FA08FC27EA0C07D1F80CC0C8
:1008F0000CFA08FC4CEA070CC0F808C04768A7438C
:100900000C79C4F3001494403C4344600C79E443F4
:10091000A4070AD0C4684FEA420C06FA0CF7BC439D
:100920008F6807FA0CF72743C7600C7904F00304BB
:10093000022C12D1D40800EB840CDCF820405707BD
:10094000FF0E09FA07F824EA0804D1F8108008FA23
:1009500007F848EA0408CCF8208004684FEA420C03
:1009600006FA0CF7BC430F7907F0030707FA0CF7F8
:10097000274307604C6814F4403F70D03C4C276814
:1009800047F480472760246822F0030704F480447A
:100990000094384C07EB040CDCF8084897074FEA42
:1009A000177809FA08F7BC43334FB84202D1002741
:1009B00024E054E0314FB84201D101271EE0304F0E
:1009C000B84201D1022719E02E4FB84201D10327C6
:1009D00014E02D4FB84201D104270FE02B4FB8424D
:1009E00001D105270AE02A4FB84201D1062705E0C8
:1009F000284FB84201D1072700E0082707FA08F777
:100A00002743CCF80878DAF800405746D1F804C0FC
:100A10009C435FEACC2C00D51C433C60DBF80040D3
:100A20005F46D1F804C09C435FEA8C2C00D51C4380
:100A30003C60DEF800407746D1F804C09C435FEA92
:100A40008C3C00D51C433C60084F083F3C68D1F803
:100A500004C09C435FEACC3C00D51C433C60521C64
:100A6000102AFFF42FAFBDE8F88F0000083C0140CA
:100A700044380240003001400000024000040240BF
:100A800000080240000C0240001002400014024026
:100A900000180240001C02400069084000D00120FC
:100AA0007047426921EA02030A4043EA0241816138
:100AB00070470AB1816170470904FBE7014880680B
:100AC0007047000018000020024881680278114435
:100AD00081607047180000200B4810B5016841F490
:100AE00000710160016841F480610160016841F4B6
:100AF00080710160032000F06FF80F2000F006F80D
:100B000000F024F8002010BD003C024070B50D4DEF
:100B100004464FF47A712878B1FBF0F00A4909686D
:100B2000B1FBF0F000F03AFB48B9102C07D20022DC
:100B30002146501E00F030F800206C6070BD01208E
:100B400070BD000018000020240000200A4808B5ED
:100B5000016841F480410160006800F48040009029
:100B60000548001F016841F080510160006800F0F5
:100B70008050009008BD000044380240002809DB86
:100B800000F01F02012191404009800000F1E020A7
:100B9000C0F8001170470000F0B40E4B1B680C4603
:100BA000C3F30223C3F10705042D00D90425191D41
:100BB000072901D2002300E0DB1E012606FA05F119
:100BC000491E214099409E40761E16403143F0BC9C
:100BD00001F004B80CED00E0064900F007020868D7
:100BE0004FF6FF03184040EA0220034A1043086012
:100BF000704700000CED00E00000FA052DE9F04719
:100C00000E46050065D0DFF81481D8F80000F7B271
:100C100000F00700B04207D288F80070D8F8000052
:100C200000F00700B04254D128683D4C810712D52E
:100C3000400703D5206840F4E05020602878000782
:100C400003D5206840F4604020602068A96820F047
:100C5000F000084320602878C0072DD0304968682C
:100C60000839012812D0022813D0032811D00968AE
:100C7000890700292DDA216821F003010143216051
:100C8000FFF71CFF814641F2883A0EE009688903AC
:100C9000EFE709688901ECE7FFF710FFA0EB090116
:100CA000514502D90320BDE8F0872068696800F04B
:100CB0000C00B0EB810FEFD1D8F80010404601F0E6
:100CC0000701B14207D90770006800F00700B04281
:100CD00001D00120E7E72878400705D52068E968BA
:100CE00020F4E050084320602878000706D52068EB
:100CF000296920F4604040EAC100206000F038F823
:100D00002168084AC1F30311515CC84006490860D4
:100D100006480068FFF7FAFE0020C4E7003C0240E6
:100D2000083802407B860008240000201C000020B8
:100D30000448054900680968044AC1F38221515CEE
:100D4000C840704724000020083802408B86000805
:100D50000448054900680968044AC1F34231515CFE
:100D6000C840704724000020083802408B860008E5
:100D7000154810B5006810F00C02144813D041104B
:100D8000042A0FD0082A0ED10F4C241F2268236892
:100D900002F03F025B0207D52068C0F38810A0FB79
:100DA000010106E0084610BD2168C1F38811A1FBCE
:100DB00000010023FFF704FA2168C1F30141491C37
:100DC0004900B0FBF1F010BD083802400024F400E7
:100DD0002DE9F84F04006ED02078DFF84C93C0075F
:100DE000A9F104054AD009F104000168C1F38101A9
:100DF000012908D00068C0F3810002280AD1D9F87F
:100E00000000400206D52868800337D560680028B6
:100E1000E1D033E06068B0F5803F10D0B0F5A02F8E
:100E2000286810D020F480302860286820F48020C2
:100E300028606068A8B1FFF741FE06460DE028680B
:100E400040F48030F4E740F480202860F7E700BFEA
:100E5000FFF734FE801B642873D828688003F7D519
:100E60000CE0FFF72BFE064605E000BFFFF726FE6D
:100E7000801B6428F0D828688003F7D42078DFF836
:100E8000AC8280074FF0000A3ED5A748001D0168DC
:100E900011F00C0F08D00068C0F3810002280BD1BC
:100EA000D9F80000400207D42868800716D5E0680A
:100EB000012800D112E033E1E068B8B10120C8F8A0
:100EC0000000FFF7FBFD064605E000BFFFF7F6FD5B
:100ED000801B0228C0D828688007F7D528682169B8
:100EE00020F0F80040EAC10028600DE0C8F800A03A
:100EF000FFF7E4FD064604E0FFF7E0FD801B022853
:100F00001FD828688007F7D42078000722D5864F9D
:100F100087486169703771B101210160FFF7CEFD2B
:100F2000064604E0FFF7CAFD801B022809D838688E
:100F30008007F7D50EE0C0F800A0FFF7BFFD06461A
:100F400005E082E0FFF7BAFD801B02287DD83868F3
:100F50008007F7D42078400768D5DFF8CCB10027A8
:100F60000BF13C0BDBF80000C0000BD4DBF80010E9
:100F700041F08051CBF80010DBF80000012700F0B1
:100F8000805000906B4E3068C00510D4306840F43B
:100F900080703060FFF792FD009005E0FFF78EFD56
:100FA0000099401A022850D83068C005F6D55E4E28
:100FB000A0686C3601280FD00528306810D020F0CA
:100FC00001003060306820F004003060A068B8B1E3
:100FD000FFF774FD00900FE0306840F00100F4E787
:100FE00040F004003060F7E7FFF768FD0099411A10
:100FF00041F28830814266D830688007F4D50EE02F
:10100000FFF75CFD009007E0FFF758FD0099411ADB
:1010100041F28830814256D830688007F4D42FB12D
:10102000DBF8001021F08051CBF80010A069C8B3A4
:101030003D49091D0968C1F3810102294AD00228EE
:10104000504607D0C8F8600000E03CE0FFF736FDEE
:1010500004463BE04746C8F86000FFF72FFD064610
:1010600005E000BFFFF72AFD801B02282BD8286867
:101070008001F7D4D4E907010843A16A2E4A490840
:1010800002EB0141626A41EA8211084394F82C1094
:1010900040EA0161C9F8001001203866FFF70EFD33
:1010A000044606E03EE000BFFFF708FD001B0228F3
:1010B00009D828688001F7D534E000BFFFF7FEFCAF
:1010C000001B022802D90320BDE8F88F28688001A0
:1010D000F4D427E00128F7D0D9F80000E26900F441
:1010E000800191421CD1226A00F03F01914217D148
:1010F00047F6C071626A0140B1EB821F10D1A26A4B
:101100004FF0FF3300F4403103EB5202B1EB024FDA
:1011100006D194F82C1000F07060B0EB016F01D094
:101120000120D1E70020CFE7043802400000474209
:10113000800E4742007000400000FFFF70B515466A
:101140000E46040003D094F8490010B107E00120D6
:1011500070BD002084F84800204600F01DF804F11E
:1011600008012068FFF7F2F93146A2682068FFF70E
:1011700021FAD4E901022946236BFFF7C9F9216856
:10118000A06851F8202042F0010241F820200120FF
:1011900084F84900002070BDFFF732BB10B5401E37
:1011A000B0F1807F01D3012010BD4FF0E0246061D9
:1011B0000F21601700F012FD0020A06107202061C0
:1011C000002010BD70477047F8B5016804460868F4
:1011D000CA684B6910F00F0F4FF0000559D003F0AB
:1011E000010602F49077374365D0C10705D0D105D9
:1011F00003D5616C41F001016164410705D5D90750
:1012000003D0616C41F002016164810705D5D90703
:1012100003D0616C41F004016164010707D502F05D
:101220002001314303D0616C41F008016164616CBD
:1012300000293AD0800604D5900602D5204600F059
:1012400079FB20684069616CC0F38010090700D405
:1012500060B3204600F047FB20684069400621D576
:101260002068143050E8001F21F0400140E80012CF
:10127000002AF5D1E06BA8B172490165E06BFFF778
:101280009BFA002811D0E06B016D01B0BDE8F04081
:10129000084783060FD593060DD52046BDE8F840D4
:1012A00000F048BB2046FFF78EFFF8BD2046FFF751
:1012B0008AFF6564F8BD266B2023012E7ED1C60609
:1012C0007CD5D6067AD508684868009048694FF002
:1012D000020640064DD5E26B106840684FF48077F7
:1012E0000004000C3AD0A18D814237D9E085D06945
:1012F000B8422DD020680C3050E8001F21F48071D6
:1013000040E80012002AF5D12068143050E8001F90
:1013100021F0010140E80012002AF5D120681430C4
:1013200050E8001F21F0400140E80012002AF5D1EA
:1013300084F84230256320680C3050E8001F21F00B
:10134000100140E80012002AF5D1E06BFFF7EBF93D
:101350006663A08DE18D401A81B206E0A18D8142C5
:10136000A8D1D069B842A5D166632046FFF72AFF0D
:10137000F8BDA08DE18D401A81B2E08D0028F7D034
:101380000029F5D020680C3050E8002F22F490722C
:1013900040E80027002FF5D12068143050E8002FD6
:1013A00022F0010240E80027002FF5D184F84230F6
:1013B000256320680C3050E8002F00E006E022F0A2
:1013C000100240E80023002BF3D1CDE705062BD512
:1013D000150629D594F841002128C9D1A068B0F597
:1013E000805F01D12069B0B1206A411C216221686F
:1013F00000784860E08C401E0004000CE084B7D107
:101400002068C16821F08001C1602068C16841F096
:101410004001C160F8BD206A0088C0F30800486040
:10142000206A801C2062E5E74006F3D55006F1D51E
:10143000CA68204622F04002CA6084F8413000F0B9
:1014400003F9F8BDD918000870B5040004D094F869
:101450004100002510B106E0012070BD84F8405025
:10146000204600F023F8242084F841002068C16859
:1014700021F40051C160204600F0BEFA20680169E5
:1014800021F4904101612068416921F02A01416104
:101490002068C16841F40051C1606564202084F86F
:1014A000410084F842006563002070BD10B586B02D
:1014B000044614216846FEF7BBFE1749206888429F
:1014C00028D11648016841F010010160006800F061
:1014D0001000059011481438016841F001010160C5
:1014E0000068012100F0010005904FF4C0600090F9
:1014F0000220CDE9010103900720049069460848C5
:10150000FFF7D2F9002211462520FFF745FB2520E1
:10151000FFF734FB06B010BD001001404438024014
:101520000000024090F84230202B01D0022070478A
:1015300021B11AB10023036300F0E4BA012070471F
:1015400030B400681549884225D1154841880A04FD
:1015500016D402464C0412784FF0000304D50A2A30
:101560000DD141F4004114E00D2A10D0C1F30D0457
:101570000C4D491C89B22A554180C72900D94380A6
:101580000848012230BC0649C830FFF7CBBF41F400
:1015900080414180F4E730BC7047000000100140FA
:1015A00008000020C40000202DE9F843044690F80C
:1015B0004100984616460D46202802D00220BDE87C
:1015C000F88385B17EB100206064212084F8410059
:1015D000FFF774FAA6848146E684A0682027B0F558
:1015E000805F02D003E00120E9E7206910B12E46B8
:1015F00000250EE000260CE08021204600F09DFA38
:10160000A8B9C6B116F8010B21684860E08C401EED
:10161000E084E08C4B464FF00002CDF800800028BB
:10162000EAD14FF04001204600F087FA40B184F83B
:1016300041700320C3E735F8020BC0F30800E3E76D
:1016400084F841700020BAE77047FEE710B58EB00D
:101650001C216846FEF7ECFD1C2107A8FEF7E8FDFB
:101660001A484FF0204110220160194941600621BB
:1016700081600021C160C0E904128161C16113026F
:101680000162C0E909139302C0E90B13416381634E
:1016900041640F203C230090CDE9010303AC1123EA
:1016A00084E80E0009240691CDE907400AA80994B0
:1016B00080E80E000D9107AA69460448FFF73EFD39
:1016C000002801D0FEF722FF0EB010BD74000020EC
:1016D000040100A02DE9F04F87B014216846FEF701
:1016E000A7FD3E480025016841F010010160016836
:1016F00001F010010591016841F0200101600168CD
:1017000001F020010591016841F08001016001684C
:1017100001F080010591016841F00201016001685A
:1017200001F002010591016841F0080101600168C2
:1017300001F008010591016841F0010101600168B3
:1017400001F001010591016841F04001016000686C
:10175000DFF88C9000F040004FF4C0660590012245
:1017600031464846FFF7A5F9DFF878A04FF4004767
:10177000002239465046FFF79CF9DFF86CB04FF471
:101780000078002241465846FFF793F91C20CDE926
:1017900000050124694602941448FFF785F8CDE955
:1017A00000640226CDE9024669464846FFF77CF808
:1017B0000097CDE90145694650460395FFF774F857
:1017C00001AA1120CDF8008082E8510069465846F0
:1017D000FFF76AF807B0BDE8F08F0000303802402C
:1017E00000140240000402400018024000100240B1
:1017F0000C4810B50A4901604FF4E1314160002105
:1018000081600C22C160C0E904128161C161FFF7EF
:101810001BFE002803D0BDE81040FEF777BE10BDC8
:10182000001001408C010020FEE7FEE77047704782
:10183000FFF74AB930B593B030216846FEF7F8FC9F
:1018400014210CA8FEF7F4FC1D480025016841F0A6
:1018500080510160006800F08050119019480168C3
:1018600041F4804101600068022400F4804011903E
:101870000120039010200490009406940820CDE9E4
:101880000750A820CDE9090404200B906846FFF713
:101890009FFA08B172B6FEE70CA90F2081E831006B
:1018A0004FF4A0500F904FF48050109005210CA8D9
:1018B000FFF7A4F9002801D072B6FEE713B030BDDF
:1018C00040380240007000400248016841F4700155
:1018D0000160704788ED00E010B5806B0021C18584
:1018E000FFF771FC10BD01680C3151E8002F22F4A4
:1018F000907241E80023002BF5D10168143151E8C2
:10190000002F22F0010241E80023002BF5D1016BEA
:10191000012909D101680C3151E8002F22F0100291
:1019200041E80023002BF5D1202180F8421000214E
:101930000163704708B590F84210222901D00220B7
:1019400008BD82684FF480539A4201D1016921B1E8
:10195000816A9A421BD04AB10AE00268816A5268E1
:10196000C2F308020A80816A891C08E0026972B128
:101970000268526802F07F020A70816A491C816223
:10198000C18D491E0904090CC18503D01BE0026802
:101990005268F1E70168CA6822F02002CA60016853
:1019A000CA6822F48072CA6001684A6922F00102A2
:1019B0004A61202180F8421000214163026B012A14
:1019C00003D0FFF7BDFD002008BD016301680C31A5
:1019D00051E8002F22F0100241E80023002BF5D13E
:1019E00001680A68D20602D50A6849680091818DAB
:1019F000FFF7E8FBE7E7000070B5044600680169FF
:101A0000E26821F44051114301612169A068E26953
:101A100008436169114308432168CA6849F20C63AD
:101A20009A430243CA6020684169A26921F4407167
:101A30001143416131492068884202D030498842CF
:101A400002D1FFF785F901E0FFF772F9E26900239F
:101A5000192164253226B2F5004F626828D0A0FB18
:101A60000101930F9200FEF7ABFB0146B0FBF5F0CE
:101A70006FF01802504301EB800006EB0010B0FB42
:101A8000F5F000F0F002B1FBF5F002EB0012B1FB53
:101A9000F5F06FF01803584301EB800006EB0010DF
:101AA000B0FBF5F000F00F0021681044886070BDB5
:101AB000A0FB010192185B41FEF782FB0146B0FBDF
:101AC000F5F00201B1FBF5F06FF01803584301EB9C
:101AD000800006EBC000B0FBF5F000F0F80002EB70
:101AE0004002B1FBF5F0584301EB800006EBC0006B
:101AF000B0FBF5F000F00700D6E700000010014051
:101B00000014014081628285C28500214164222146
:101B100080F84210016921B10168CA6842F48072FC
:101B2000CA6001684A6942F001024A610068C168FE
:101B300041F02001C160002070472DE9F84398462C
:101B400017460D460446089E24E0701C22D0FEF77E
:101B5000B5FFA0EB0800B0421AD8CEB12068C1682A
:101B6000490717D5802D15D0402D13D00168C943E2
:101B700009070FD401680025406800902046FFF750
:101B8000B2FE0820606484F840500120BDE8F8836C
:101B90000320FBE72068006835EA000004D000203D
:101BA000B842D2D00020F1E70120F9E70148FFF761
:101BB0000BBB00008C010020FEE700000FB4054BBA
:101BC00010B503A9044A029800F028F810BC5DF88B
:101BD00014FB0000C91F0008280000200907090E97
:101BE000002804DB00F1E02080F80014704700F0CA
:101BF0000F0000F1E02080F8141D704702E008C8D3
:101C0000121F08C1002AFAD170477047002001E076
:101C100001C1121F002AFBD1704700002DE9FF4FC0
:101C20008DB09B460F460446002606E025280BD0C3
:101C30005A460F999047641C761C20780028F5D1ED
:101C400011B03046BDE8F08F0025A8460122984922
:101C500000E0054314F8013F203B02FA03F008427C
:101C6000F7D120782E2817D114F8010F45F004057C
:101C70002A280ED06FF02F022078A0F13001092918
:101C80000AD808EB880102EB410100EB0108641C53
:101C9000F2E757F8048B641C20786C280DD004DC24
:101CA0004C2812D06A2811D104E074280DD07A286B
:101CB0000CD10AE045F4001507E0617845F4801581
:101CC000814202D1641C05F58015641C2278692AC2
:101CD00045D008DC002AB3D0582A69D0632A10D036
:101CE000642A08D13BE0702A67D0732A13D0752A82
:101CF0005CD0782A5CD010465A460F999047761CE3
:101D0000D3E017F8040B8DF8000000208DF80100D7
:101D1000E946012003E057F8049B4FF0FF306907C4
:101D20004FF0000501D40AE06D1C45450DDA8542EF
:101D3000FADB19F805100029F6D106E06D1C854282
:101D4000FCDB19F805100029F8D12E4404E019F83D
:101D5000010B5A460F9990476D1EF8D2A5E00A2054
:101D60000021CDE90801C5F3025002280DD001CFB2
:101D7000C117031E71F100030DDA4FF0000CD0EB18
:101D80000C006CEB01012D2308E0FF1D27F0070775
:101D9000F7E80201EDE72B0504D52B238DF8283059
:101DA00001233BE0EB0739D02023F7E70A2000E0CE
:101DB00010200021CDE9080107E01020002145F0A6
:101DC0000405CDE908014FF00808C5F302500228C8
:101DD0000FD001CF00214FF0000A2B071FD5702A2A
:101DE0000DD0DDE908C38CF0100C5CEA030C0CD0BC
:101DF00015E0FF1D27F00707F7E80201EBE7402297
:101E00008DF828204FF0010A0BE050EA010306D0BC
:101E100030238DF828308DF8292002239A46582A3D
:101E200004D024A20DF120090B9209E026A2F9E7C3
:101E3000DDE90823FEF7C4F90B9B9B5C09F8013D23
:101E400050EA0102F4D1ADEB090020300890680798
:101E500001D44FF001080899884502DDA8EB010084
:101E600000E000208046002506E00AA85A46405DB2
:101E70000F9990476D1C761C5545F6DB04E0302029
:101E80005A460F999047761CB8F10001A8F1010855
:101E9000F5DC05E019F8010B5A460F999047761CBE
:101EA0000899481E08900029F4DC641CC5E600006F
:101EB0000928010030313233343536373839616220
:101EC00063646566000000003031323334353637E4
:101ED00038394142434445460000000010B5FF2414
:101EE000204600F021F855280AD05521204600F060
:101EF0004CF8FF2000F018F8552801D0012010BD43
:101F0000002010BD00F096B870B514460D46064688
:101F100006E03046711C8EB200F006F805F8010BA1
:101F2000641EA4B2F5D270BD10B5044600F036F9B7
:101F3000200AA02101EB4000C0B200F0FFF800F041
:101F400073F9E0B200F0FAF800F06EF900F026F94B
:101F5000A12000F0F3F800F067F9002000F0BAF8D3
:101F6000044600F041F9204610BD70B516460C46F7
:101F7000054606E02178284600F007F86D1CADB252
:101F8000641C761EB6B2F5D270BD70B50D4604461F
:101F900000F004F9200AA02101EB4000C0B200F0DB
:101FA000CDF800F041F9E0B200F0C8F800F03CF9DB
:101FB000284600F0C3F800F037F900F015F9BDE845
:101FC00070400A20FEF788BA13B54FF6FF7301225E
:101FD00069460248FFF7E8FA00981CBD8C01002012
:101FE00070B5134D4FF40074002221462846FEF7C9
:101FF00060FD0220FEF776FA0122160231462846DD
:10200000FEF757FD0220FEF76DFA00223146284602
:10201000FEF74FFD0220FEF765FA01222146284611
:10202000FEF747FDBDE870400220FEF75BBA0000F6
:1020300000040240154810B5016886B041F0020165
:102040000160016801F002010591016841F002019F
:10205000016000680E4C00F0020005904FF48070A3
:1020600000900120019002900320039069462046D1
:10207000FEF71AFC60150090112001906946204679
:10208000FEF712FC00F0B0F806B010BD3038024088
:102090000004024070B50E4C012251022046FEF7AA
:1020A00008FD0220FEF71EFA0122150229462046ED
:1020B000FEF7FFFC0220FEF715FA00222946204613
:1020C000FEF7F7FCBDE870400220FEF70BBA0000F7
:1020D000000402402DE9F0470024174E80462546B3
:1020E0004FF400794FF480776006040E01223946E0
:1020F0003046FEF7DEFC0220FEF7F4F94946304692
:10210000FEF7CAFC08B1641CE4B20022394630462E
:10211000FEF7CFFC0220FEF7E5F96D1CEDB2082DAD
:10212000E2D3B8F1000F04D0FFF75AFF2046BDE814
:10213000F087FFF7AFFFF9E7000402402DE9F04117
:10214000154F002405464FF40078BE15280601D52A
:10215000012200E0002241463846FEF7AAFC022098
:10216000FEF7C0F9012231463846FEF7A2FC0220F4
:10217000FEF7B8F9002231463846FEF79AFC6806A9
:10218000641C050EE4B2082CE0D341463846BDE895
:10219000F0410122FEF78DBC0004024070B501221F
:1021A000104D540221462846FEF783FC01221602F8
:1021B00031462846FEF77DFC0220FEF793F9002207
:1021C00021462846FEF775FC0220FEF78BF9002217
:1021D00031462846FEF76DFCBDE870400220FEF750
:1021E00081B900000004024070B50E4D4FF4007438
:1021F000002221462846FEF75CFC0220FEF772F919
:10220000012211022846FEF754FC0220FEF76AF96B
:10221000012221462846FEF74CFCBDE87040022012
:10222000FEF760B9000402402DE9F0410122174E8B
:1022300000245702254639463046FEF73AFC022074
:10224000FEF750F94FF48078012241463046FEF700
:1022500030FC0220FEF746F907E0641CE4B2FA2CD9
:1022600003D9FFF7C1FF012505E039463046FEF7E7
:1022700013FC0028F1D1002241463046FEF719FC3C
:102280000220FEF72FF92846BDE8F0810004024045
:102290002DE9F04100252D4EDFF8B4802D4C0127AB
:1022A00008B1377001E03078A0B110212046FEF768
:1022B000F3FBB0B108212046FEF7EEFB88B1042104
:1022C0002046FEF7E9FB60B101214046FEF7E4FB42
:1022D000012806D010212046FEF7DEFB01281FD082
:1022E00030E00A20FEF7F8F8002030701021204678
:1022F000FEF7D2FB00B9012508212046FEF7CCFBF2
:1023000000B9022504212046FEF7C6FB00B90325CB
:1023100001214046FEF7C0FB012813D1042511E03E
:1023200008212046FEF7B8FB01280BD104212046E6
:10233000FEF7B2FB012805D101214046FEF7ACFBB8
:1023400000B937702846BDE8F08100000C0000207D
:10235000000002400010024070B50A490646002401
:1023600008884D8821464543204602F019FF03F0B6
:102370006BF84FF0D84002E0A0F88060641CAC42DB
:10238000FAD370BD240200202DE9F04F38492C26E5
:102390000A46887192884FF4305A4FF4285B41F610
:1023A000631E2B274FF02A0C4FF0F00845F210590E
:1023B0004FF448754FF4A0744FF4F07358B10C808B
:1023C000A1F802804A4530D1A1F808A0A1F80AB0CE
:1023D0003802888141E0A1F800804C804A4507D14D
:1023E000A1F808A0A1F80AB04FF42C50888105E0AC
:1023F00072450E8105D14F81A1F80CC00B804D8034
:1024000002E0A1F80AC08F81A2F5A640103803D0DF
:10241000A2F5EE40963801D10C804B80A2F5184011
:1024200006381FD10B804D801CE0724511D0A2F5FB
:10243000184006380DD00E81A1F80AC0A1F80C7022
:10244000A2F5A64010380BD0A2F5EE40963807D082
:1024500008E00E81A1F80AC08F810D804B80EFE764
:102460000B804C80BDE8F04F002002F0D7BD00008B
:102470002402002010B5144602F092FE02F0E4FFA0
:102480004FF0D840A0F8804010BD10B5CF2002F02A
:10249000CFFF002002F0C0FFC12002F0BDFF3020BE
:1024A00002F0BAFFED2002F0C3FF642002F0B4FF97
:1024B000032002F0B1FF122002F0AEFF812002F0F3
:1024C000ABFFE82002F0B4FF852002F0A5FF10204A
:1024D00002F0A2FF7A2002F09FFFCB2002F0A8FFBB
:1024E000392002F099FF2C2002F096FF002002F024
:1024F00093FF342002F090FF022002F08DFFF720BE
:1025000002F096FF202002F087FFEA2002F090FF01
:10251000002002F081FF002002F07EFFC02002F0C8
:1025200087FF1B2002F078FFC12002F081FF01200D
:1025300002F072FFC52002F07BFF302002F06CFF3A
:10254000302002F069FFC72002F072FFB72002F0CE
:1025500063FF362002F06CFF482002F05DFF3A2056
:1025600002F066FF552002F057FFB12002F060FF35
:10257000002002F051FF1A2002F04EFFB62002F0B8
:1025800057FF0A2002F048FFA22002F045FFF22088
:1025900002F04EFF002002F03FFF262002F048FF2D
:1025A000012002F039FFE02002F042FF0F2002F08C
:1025B00033FF2A2002F030FF282002F02DFF0820F0
:1025C00002F02AFF0E2002F027FF082002F024FF6D
:1025D000542002F021FFA92002F01EFF432002F048
:1025E0001BFF0A2002F018FF0F2002F015FF002049
:1025F00002F012FF002002F00FFF002002F00CFF9B
:10260000002002F009FFE12002F012FF002002F09A
:1026100003FF152002F000FF172002F0FDFE072047
:1026200002F0FAFE112002F0F7FE062002F0F4FE9E
:102630002B2002F0F1FE562002F0EEFE3C2002F0CC
:10264000EBFE052002F0E8FE102002F0E5FE0F2070
:1026500002F0E2FE3F2002F0DFFE3F2002F0DCFE4F
:102660000F2002F0D9FE2B2002F0E2FE002002F043
:10267000D3FE002002F0D0FE012002F0CDFE3F206C
:1026800002F0CAFE2A2002F0D3FE002002F0C4FEAF
:10269000002002F0C1FE002002F0BEFEEF2002F09A
:1026A000BBFE112002F0C4FE7820FEF797F8BDE8CB
:1026B0001040292002F0BCBE10B5FF2002F0B8FE89
:1026C000FF2002F0A9FE982002F0A6FE062002F0EC
:1026D000A3FEBC2002F0ACFE012002F09DFE0F2004
:1026E00002F09AFE612002F097FEFF2002F094FEB5
:1026F000012002F091FE012002F08EFE0B2002F07C
:102700008BFE102002F088FE372002F085FE632049
:1027100002F082FEFF2002F07FFEFF2002F07CFE2E
:10272000012002F079FE012002F076FE002002F086
:1027300073FE002002F070FEFF2002F06DFE5220BA
:1027400002F06AFE012002F067FE002002F064FE43
:10275000402002F061FEBD2002F06AFE012002F07E
:102760005BFE232002F058FE452002F055FE672054
:1027700002F052FE012002F04FFE232002F04CFE38
:10278000452002F049FE672002F046FEBE2002F01E
:102790004FFE002002F040FE012002F03DFEAB2083
:1027A00002F03AFE602002F037FE222002F034FEF2
:1027B000222002F031FE222002F02EFE222002F022
:1027C0002BFE222002F028FEC72002F031FE362028
:1027D00002F022FEED2002F02BFE7F2002F01CFE14
:1027E0000F2002F019FEC02002F022FE0F2002F09E
:1027F00013FE0B2002F010FE0A2002F00DFEFC205A
:1028000002F016FE082002F007FEDF2002F010FEA4
:10281000002002F001FE002002F0FEFD002002F088
:10282000FBFD002002F0F8FD002002F0F5FD202065
:1028300002F0F2FDF32002F0FBFD742002F0ECFD4B
:10284000B42002F0F5FD002002F0E6FD002002F0C9
:10285000E3FD002002F0E0FDF72002F0E9FD822018
:1028600002F0DAFDB12002F0E3FD002002F0D4FD19
:10287000132002F0D1FD132002F0CEFDF22002F071
:10288000D7FD802002F0C8FD042002F0C5FD4020E5
:1028900002F0C2FD282002F0BFFDC12002F0C8FDF9
:1028A000172002F0B9FD882002F0B6FD882002F062
:1028B000B3FD202002F0B0FDE02002F0B9FD0020C1
:1028C00002F0AAFD0A2002F0A7FD122002F0A4FDEA
:1028D000102002F0A1FD0E2002F09EFD202002F04B
:1028E0009BFDCC2002F098FD072002F095FD06200C
:1028F00002F092FD0B2002F08FFD0E2002F08CFD05
:102900000F2002F089FD0D2002F086FD152002F057
:1029100083FD102002F080FD002002F07DFDE1200B
:1029200002F086FD002002F077FD0B2002F074FD1E
:10293000132002F071FD0D2002F06EFD0E2002F05A
:102940006BFD1B2002F068FD712002F065FD062082
:1029500002F062FD062002F05FFD0A2002F05CFD3D
:102960000F2002F059FD0E2002F056FD0F2002F05C
:1029700053FD152002F050FD0C2002F04DFD00200B
:1029800002F04AFD2A2002F053FD002002F044FD2F
:10299000002002F041FD012002F03EFDDF2002F0A8
:1029A0003BFD2B2002F044FD002002F035FD00200D
:1029B00002F032FD032002F02FFD1F2002F02CFD5B
:1029C0003A2002F035FD552002F026FD362002F0B7
:1029D0002FFD002002F020FD112002F029FD7820BB
:1029E000FDF7FCFE292002F023FD1420FDF7F6FE82
:1029F000BDE810402C2002F01BBD10B5ED2002F008
:102A000017FD012002F008FDFE2002F005FDEE207A
:102A100002F00EFDDE2002F0FFFC212002F0FCFCA3
:102A2000F12002F005FD012002F0F6FCDF2002F0AB
:102A3000FFFC102002F0F0FCC42002F0F9FC8F2013
:102A400002F0EAFCC62002F0F3FC002002F0E4FCF5
:102A5000E22002F0E1FCE22002F0DEFCE22002F0E3
:102A6000DBFCBF2002F0E4FCAA2002F0D5FCB02081
:102A700002F0DEFC0D2002F0CFFC002002F0CCFCC6
:102A80000D2002F0C9FC002002F0C6FC112002F06B
:102A9000C3FC002002F0C0FC192002F0BDFC0020A5
:102AA00002F0BAFC212002F0B7FC002002F0B4FCD6
:102AB0002D2002F0B1FC002002F0AEFC3D2002F01F
:102AC000ABFC002002F0A8FC5D2002F0A5FC002079
:102AD00002F0A2FC5D2002F09FFC002002F09CFCB2
:102AE000B12002F0A5FC802002F096FC002002F04C
:102AF00093FC8B2002F090FC002002F08DFC9620CD
:102B000002F08AFC002002F087FCB22002F090FC68
:102B1000002002F081FC002002F07EFC022002F086
:102B20007BFC002002F078FC032002F075FC002002
:102B300002F072FCB32002F07BFC002002F06CFC7F
:102B4000002002F069FC002002F066FC002002F088
:102B500063FC002002F060FC002002F05DFC00201D
:102B600002F05AFC002002F057FC002002F054FC56
:102B7000002002F051FC002002F04EFC002002F088
:102B80004BFC002002F048FC002002F045FC002035
:102B900002F042FC002002F03FFC002002F03CFC6E
:102BA000002002F039FC002002F036FC002002F088
:102BB00033FC002002F030FC002002F02DFC00204D
:102BC00002F02AFC002002F027FCB42002F030FCC6
:102BD0008B2002F021FC002002F01EFC962002F067
:102BE0001BFC002002F018FCA12002F015FC0020C4
:102BF00002F012FCB52002F01BFC022002F00CFCDB
:102C0000002002F009FC032002F006FC002002F084
:102C100003FC042002F000FC002002F0FDFBB620C3
:102C200002F006FC002002F0F7FB002002F0F4FBAB
:102C3000B72002F0FDFB002002F0EEFB002002F0C6
:102C4000EBFB3F2002F0E8FB002002F0E5FB5E20FA
:102C500002F0E2FB002002F0DFFB642002F0DCFB6C
:102C6000002002F0D9FB8C2002F0D6FB002002F0FD
:102C7000D3FBAC2002F0D0FB002002F0CDFBDC2027
:102C800002F0CAFB002002F0C7FB702002F0C4FB78
:102C9000002002F0C1FB902002F0BEFB002002F0F9
:102CA000BBFBEB2002F0B8FB002002F0B5FBDC2000
:102CB00002F0B2FB002002F0AFFBB82002F0B8FB3C
:102CC000002002F0A9FB002002F0A6FB002002F089
:102CD000A3FB002002F0A0FB002002F09DFB0020DF
:102CE00002F09AFB002002F097FB002002F094FB18
:102CF000BA2002F09DFB242002F08EFB002002F09F
:102D00008BFB002002F088FB002002F085FBC12035
:102D100002F08EFB202002F07FFB002002F07CFB03
:102D2000542002F079FB002002F076FBFF2002F035
:102D300073FB002002F070FBC22002F079FB0A2036
:102D400002F06AFB002002F067FB042002F064FB43
:102D5000002002F061FBC32002F06AFB3C2002F07D
:102D60005BFB002002F058FB3A2002F055FB0020EC
:102D700002F052FB392002F04FFB002002F04CFB26
:102D8000372002F049FB002002F046FB3C2002F015
:102D900043FB002002F040FB362002F03DFB002008
:102DA00002F03AFB322002F037FB002002F034FB45
:102DB0002F2002F031FB002002F02EFB2C2002F02D
:102DC0002BFB002002F028FB292002F025FB00202D
:102DD00002F022FB262002F01FFB002002F01CFB69
:102DE000242002F019FB002002F016FB242002F040
:102DF00013FB002002F010FB232002F00DFB00204B
:102E000002F00AFB3C2002F007FB002002F004FB6A
:102E1000362002F001FB002002F0FEFA322002F020
:102E2000FBFA002002F0F8FA2F2002F0F5FA002059
:102E300002F0F2FA2C2002F0EFFA002002F0ECFA95
:102E4000292002F0E9FA002002F0E6FA262002F03A
:102E5000E3FA002002F0E0FA242002F0DDFA00207C
:102E600002F0DAFA242002F0D7FA002002F0D4FAB5
:102E7000232002F0D1FA002002F0CEFAC42002F0A2
:102E8000D7FA622002F0C8FA002002F0C5FA052045
:102E900002F0C2FA002002F0BFFA842002F0BCFA6D
:102EA000002002F0B9FAF02002F0B6FA002002F099
:102EB000B3FA182002F0B0FA002002F0ADFAA42014
:102EC00002F0AAFA002002F0A7FA182002F0A4FAF1
:102ED000002002F0A1FA502002F09EFA002002F039
:102EE0009BFA0C2002F098FA002002F095FA1720C5
:102EF00002F092FA002002F08FFA952002F08CFA8C
:102F0000002002F089FAF32002F086FA002002F095
:102F100083FAE62002F080FA002002F07DFAC52054
:102F200002F086FA322002F077FA002002F074FAFA
:102F3000442002F071FA002002F06EFA652002F0DF
:102F40006BFA002002F068FA762002F065FA0020A1
:102F500002F062FA882002F05FFA002002F05CFAC8
:102F6000C62002F065FA202002F056FA002002F096
:102F700053FA172002F050FA002002F04DFA012017
:102F800002F04AFA002002F047FAC72002F050FA95
:102F9000002002F041FA002002F03EFA002002F088
:102FA0003BFA002002F038FAC82002F041FA002073
:102FB00002F032FA002002F02FFA002002F02CFA80
:102FC000002002F029FAC92002F032FA002002F0B3
:102FD00023FA002002F020FA002002F01DFA00205F
:102FE00002F01AFA002002F017FA002002F014FA98
:102FF000002002F011FA002002F00EFA002002F088
:103000000BFA002002F008FA002002F005FA002076
:1030100002F002FA002002F0FFF9002002F0FCF9B1
:10302000002002F0F9F9002002F0F6F9E02002F0A9
:10303000FFF9162002F0F0F9002002F0EDF91C2053
:1030400002F0EAF9002002F0E7F9212002F0E4F9A9
:10305000002002F0E1F9362002F0DEF9002002F053
:10306000DBF9462002F0D8F9002002F0D5F9522011
:1030700002F0D2F9002002F0CFF9642002F0CCF97E
:10308000002002F0C9F97A2002F0C6F9002002F00F
:10309000C3F98B2002F0C0F9002002F0BDF999209D
:1030A00002F0BAF9002002F0B7F9A82002F0B4F952
:1030B000002002F0B1F9B92002F0AEF9002002F0D0
:1030C000ABF9C42002F0A8F9002002F0A5F9CA204B
:1030D00002F0A2F9002002F09FF9D22002F09CF940
:1030E000002002F099F9D92002F096F9002002F0B0
:1030F00093F9E02002F090F9002002F08DF9F3201E
:1031000002F08AF9002002F087F9E12002F090F93C
:10311000162002F081F9002002F07EF91C2002F056
:103120007BF9002002F078F9222002F075F90020E6
:1031300002F072F9362002F06FF9002002F06CF90B
:10314000452002F069F9002002F066F9522002F0F1
:1031500063F9002002F060F9642002F05DF90020BC
:1031600002F05AF97A2002F057F9002002F054F9DF
:103170008B2002F051F9002002F04EF9992002F064
:103180004BF9002002F048F9A82002F045F9002090
:1031900002F042F9B92002F03FF9002002F03CF9B8
:1031A000C42002F039F9002002F036F9CA2002F0FA
:1031B00033F9002002F030F9D22002F02DF900207E
:1031C00002F02AF9D82002F027F9002002F024F9B1
:1031D000E02002F021F9002002F01EF9F32002F0B5
:1031E0001BF9002002F018F9E22002F021F9052075
:1031F00002F012F9002002F00FF90B2002F00CF996
:10320000002002F009F91B2002F006F9002002F06C
:1032100003F9342002F000F9002002F0FDF8442008
:1032200002F0FAF8002002F0F7F84F2002F0F4F86C
:10323000002002F0F1F8612002F0EEF8002002F028
:10324000EBF8792002F0E8F8002002F0E5F8882099
:1032500002F0E2F8002002F0DFF8972002F0DCF83C
:10326000002002F0D9F8A62002F0D6F8002002F0E3
:10327000D3F8B72002F0D0F8002002F0CDF8C22039
:1032800002F0CAF8002002F0C7F8C72002F0C4F824
:10329000002002F0C1F8D12002F0BEF8002002F0B8
:1032A000BBF8D62002F0B8F8002002F0B5F8DD2017
:1032B00002F0B2F8002002F0AFF8F32002F0ACF810
:1032C000002002F0A9F8E32002F0B2F8052002F095
:1032D000A3F8002002F0A0F80A2002F09DF80020D8
:1032E00002F09AF81C2002F097F8002002F094F8FF
:1032F000332002F091F8002002F08EF8442002F012
:103300008BF8002002F088F8502002F085F80020A9
:1033100002F082F8622002F07FF8002002F07CF8D0
:10332000782002F079F8002002F076F8882002F088
:1033300073F8002002F070F8972002F06DF800207A
:1033400002F06AF8A62002F067F8002002F064F8A4
:10335000B72002F061F8002002F05EF8C22002F00F
:103360005BF8002002F058F8C72002F055F8002062
:1033700002F052F8D12002F04FF8002002F04CF891
:10338000D52002F049F8002002F046F8DD2002F0D6
:1033900043F8002002F040F8F32002F03DF800204E
:1033A00002F03AF8E42002F043F8012002F034F889
:1033B000002002F031F8012002F02EF8002002F087
:1033C0002BF8022002F028F8002002F025F82A202D
:1033D00002F022F8002002F01FF83C2002F01CF856
:1033E000002002F019F84B2002F016F8002002F03D
:1033F00013F85D2002F010F8002002F00DF87420A0
:1034000002F00AF8002002F007F8842002F004F825
:10341000002002F001F8932001F0FEFF002001F0EF
:10342000FBFFA22001F0F8FF002001F0F5FFB32020
:1034300001F0F2FF002001F0EFFFBE2001F0ECFFF1
:10344000002001F0E9FFC42001F0E6FF002001F0B8
:10345000E3FFCD2001F0E0FF002001F0DDFFD320ED
:1034600001F0DAFF002001F0D7FFDD2001F0D4FFEA
:10347000002001F0D1FFF32001F0CEFF002001F089
:10348000CBFFE52001F0D4FF002001F0C5FF0020B4
:1034900001F0C2FF002001F0BFFF002001F0BCFFDF
:1034A000022001F0B9FF002001F0B6FF292001F051
:1034B000B3FF002001F0B0FF3C2001F0ADFF002081
:1034C00001F0AAFF4B2001F0A7FF002001F0A4FFAC
:1034D0005D2001F0A1FF002001F09EFF742001F0AB
:1034E0009BFF002001F098FF842001F095FF002051
:1034F00001F092FF932001F08FFF002001F08CFF7C
:10350000A22001F089FF002001F086FFB32001F026
:1035100083FF002001F080FFBE2001F07DFF00202E
:1035200001F07AFFC42001F077FF002001F074FF62
:10353000CD2001F071FF002001F06EFFD32001F0DB
:103540006BFF002001F068FFDC2001F065FF002028
:1035500001F062FFF32001F05FFF002001F05CFF4B
:10356000E62001F065FF112001F056FF002001F078
:1035700053FF342001F050FF002001F04DFF562092
:1035800001F04AFF002001F047FF762001F044FFE0
:10359000002001F041FF772001F03EFF002001F004
:1035A0003BFF662001F038FF002001F035FF882046
:1035B00001F032FF002001F02FFF992001F02CFFD5
:1035C000002001F029FFBB2001F026FF002001F0C0
:1035D00023FF992001F020FF002001F01DFF66204D
:1035E00001F01AFF002001F017FF552001F014FF31
:1035F000002001F011FF552001F00EFF002001F026
:103600000BFF452001F008FF002001F005FF4320DB
:1036100001F002FF002001F0FFFE442001F0FCFE5B
:10362000002001F0F9FEE72001F002FF322001F056
:10363000F3FE002001F0F0FE552001F0EDFE002029
:1036400001F0EAFE762001F0E7FE002001F0E4FE42
:10365000662001F0E1FE002001F0DEFE672001F0AF
:10366000DBFE002001F0D8FE672001F0D5FE00202F
:1036700001F0D2FE872001F0CFFE002001F0CCFE49
:10368000992001F0C9FE002001F0C6FEBB2001F028
:10369000C3FE002001F0C0FE992001F0BDFE002015
:1036A00001F0BAFE772001F0B7FE002001F0B4FE71
:1036B000442001F0B1FE002001F0AEFE562001F0E2
:1036C000ABFE002001F0A8FE232001F0A5FE0020A3
:1036D00001F0A2FE332001F09FFE002001F09CFECD
:1036E000452001F099FE002001F096FEE82001F04F
:1036F0009FFE002001F090FE002001F08DFE992039
:1037000001F08AFE002001F087FE872001F084FE90
:10371000002001F081FE882001F07EFE002001F0F3
:103720007BFE772001F078FE002001F075FE662018
:1037300001F072FE002001F06FFE882001F06CFEA7
:10374000002001F069FEAA2001F066FE002001F0D1
:1037500063FEBB2001F060FE002001F05DFE9920B9
:1037600001F05AFE002001F057FE662001F054FEE1
:10377000002001F051FE552001F04EFE002001F026
:103780004BFE552001F048FE002001F045FE44208C
:1037900001F042FE002001F03FFE442001F03CFE1B
:1037A000002001F039FE552001F036FE002001F026
:1037B00033FEE92001F03CFEAA2001F02DFE00209E
:1037C00001F02AFE002001F027FE002001F024FE77
:1037D000002001F02DFEAA2001F01EFECF2001F0F6
:1037E00027FE002001F018FE002001F015FE002049
:1037F00001F012FE002001F00FFE002001F00CFE8F
:10380000002001F009FE002001F006FE002001F07A
:1038100003FE002001F000FE002001F0FDFD00206D
:1038200001F0FAFD002001F0F7FD002001F0F4FDA9
:10383000002001F0F1FD002001F0EEFD002001F07C
:10384000EBFD002001F0E8FDF02001F0F1FD00208B
:1038500001F0E2FD502001F0DFFD002001F0DCFD71
:10386000002001F0D9FD002001F0D6FDF32001F089
:10387000DFFD002001F0D0FDF92001F0D9FD062088
:1038800001F0CAFD102001F0C7FD292001F0C4FDA0
:10389000002001F0C1FD3A2001F0CAFD552001F0E1
:1038A000BBFD112001F0C4FD6420FCF797FF292027
:1038B00001F0BEFD352001F0BBFD002001F0ACFDA4
:1038C000512001F0B5FDFF2001F0A6FD532001F0CD
:1038D000AFFD2C2001F0A0FD552001F0A9FD8220B4
:1038E00001F09AFDBDE810402C2001F0A1BD2DE9AA
:1038F000F05F4FF470445521204601F0AFFD651C88
:10390000AA21284601F0AAFDA61C5221304601F04A
:10391000A5FDE71C0821384601F0A0FD4FF2040880
:103920000121404601F09AFD4FF4364334211846F8
:1039300001F094FD34214BF2016001F08FFD342140
:103940004BF2026001F08AFD4FF430490D214846E8
:1039500001F084FD4BF2010A0D21504601F07EFD7D
:103960004BF2020B0D21584601F078FD24214FF453
:10397000374001F073FD24214BF2017001F06EFD20
:1039800024214BF2027001F069FD0D214FF431400A
:1039900001F064FD0D214BF2011001F05FFD0D21DE
:1039A0004BF2021001F05AFD24214FF4384001F08F
:1039B00055FD24214BF6010001F050FD24214BF66A
:1039C000020001F04BFD00214FF4324001F046FDB2
:1039D00024214FF4394001F041FD24214BF6011020
:1039E00001F03CFD24214BF6021001F037FD0521CA
:1039F0004FF4334001F032FD05214BF2013001F06C
:103A00002DFD05214BF2023001F028FD34214FF449
:103A10003A4001F023FD34214BF6012001F01EFD58
:103A200034214BF6022001F019FD0B214FF43540F3
:103A300001F014FD0B214BF2015001F00FFD0B21A1
:103A40004BF2025001F00AFD00214FF43C4001F01E
:103A500005FDA3214BF6014001F000FD00214BF6CE
:103A6000024001F0FBFC00214FF43D4001F0F6FC68
:103A7000A3214BF6015001F0F1FC00214BF602505E
:103A800001F0ECFC00214FF43E4001F0E7FC37214F
:103A90004BF6016001F0E2FC00214FF4514001F0CF
:103AA000DDFC37214DF2011001F0D8FC00214DF270
:103AB000021001F0D3FC53214DF2031001F0CEFCB3
:103AC00000214DF2041001F0C9FC79214DF20510DE
:103AD00001F0C4FC00214DF2061001F0BFFC97215B
:103AE0004DF2071001F0BAFC00214DF2081001F070
:103AF000B5FCB1214DF2091001F0B0FC00214DF2EE
:103B00000A1001F0ABFCD5214DF20B1001F0A6FC20
:103B100000214DF20C1001F0A1FCF4214DF20D102A
:103B200001F09CFC01214DF20E1001F097FC2321C5
:103B30004DF20F1001F092FC01214DF2101001F036
:103B40008DFC49214DF2111001F088FC01214DF24C
:103B5000121001F083FC87214DF2131001F07EFC5E
:103B600001214DF2141001F079FCB6214DF215102F
:103B700001F074FC02214DF2161001F06FFC0021DF
:103B80004DF2171001F06AFC02214DF2181001F0FD
:103B900065FC3B214DF2191001F060FC02214DF251
:103BA0001A1001F05BFC3D214DF21B1001F056FC98
:103BB00002214DF21C1001F051FC75214DF21D1037
:103BC00001F04CFC02214DF21E1001F047FCB12126
:103BD0004DF21F1001F042FC02214DF2201001F0C5
:103BE0003DFCD5214DF2211001F038FC03214DF2AE
:103BF000221001F033FC09214DF2231001F02EFCBC
:103C000003214DF2241001F029FC28214DF225104A
:103C100001F024FC03214DF2261001F01FFC52217B
:103C20004DF2271001F01AFC03214DF2281001F08B
:103C300015FC6B214DF2291001F010FC03214DF20F
:103C40002A1001F00BFC8D214DF22B1001F006FC27
:103C500003214DF22C1001F001FCA2214DF22D1098
:103C600001F0FCFB03214DF22E1001F0F7FBBB210C
:103C70004DF22F1001F0F2FB03214DF2301001F054
:103C8000EDFBC1214DF2311001F0E8FB03214DF2B3
:103C9000321001F0E3FBC1214DF2331001F0DEFBE5
:103CA00000214FF4524001F0D9FB37214DF20120A1
:103CB00001F0D4FB00214DF2022001F0CFFB532193
:103CC0004DF2032001F0CAFB00214DF2042001F067
:103CD000C5FB79214DF2052001F0C0FB00214DF21A
:103CE000062001F0BBFB97214DF2072001F0B6FB47
:103CF00000214DF2082001F0B1FBB1214DF2092065
:103D000001F0ACFB00214DF20A2001F0A7FBD52108
:103D10004DF20B2001F0A2FB00214DF20C2001F02E
:103D20009DFBF4214DF20D2001F098FB01214DF295
:103D30000E2001F093FB23214DF20F2001F08EFBAA
:103D400001214DF2102001F089FB49214DF2112093
:103D500001F084FB01214DF2122001F07FFB87214D
:103D60004DF2132001F07AFB01214DF2142001F0F5
:103D700075FBB6214DF2152001F070FB02214DF2CA
:103D8000162001F06BFB00214DF2172001F066FBBD
:103D900002214DF2182001F061FB3B214DF2192068
:103DA00001F05CFB02214DF21A2001F057FB3D218E
:103DB0004DF21B2001F052FB02214DF21C2001F0BC
:103DC0004DFB75214DF21D2001F048FB02214DF203
:103DD0001E2001F043FBB1214DF21F2001F03EFBFC
:103DE00002214DF2202001F039FBD5214DF2212096
:103DF00001F034FB03214DF2222001F02FFB0921B9
:103E00004DF2232001F02AFB03214DF2242001F082
:103E100025FB28214DF2252001F020FB03214DF246
:103E2000262001F01BFB52214DF2272001F016FB4A
:103E300003214DF2282001F011FB6B214DF22920C6
:103E400001F00CFB03214DF22A2001F007FB8D212C
:103E50004DF22B2001F002FB03214DF22C2001F04A
:103E6000FDFAA2214DF22D2001F0F8FA03214DF2C6
:103E70002E2001F0F3FABB214DF22F2001F0EEFAD3
:103E800003214DF2302001F0E9FAC1214DF2312039
:103E900001F0E4FA03214DF2322001F0DFFAC121F2
:103EA0004DF2332001F0DAFA00214FF4534001F0D3
:103EB000D5FA37214DF2013001F0D0FA00214DF250
:103EC000023001F0CBFA53214DF2033001F0C6FA73
:103ED00000214DF2043001F0C1FA79214DF2053094
:103EE00001F0BCFA00214DF2063001F0B7FA97213B
:103EF0004DF2073001F0B2FA00214DF2083001F026
:103F0000ADFAB1214DF2093001F0A8FA00214DF2CD
:103F10000A3001F0A3FAD5214DF20B3001F09EFAE0
:103F200000214DF20C3001F099FAF4214DF20D30E0
:103F300001F094FA01214DF20E3001F08FFA2321A5
:103F40004DF20F3001F08AFA01214DF2103001F0EC
:103F500085FA49214DF2113001F080FA01214DF22C
:103F6000123001F07BFA87214DF2133001F076FA1E
:103F700001214DF2143001F071FAB6214DF21530E5
:103F800001F06CFA02214DF2163001F067FA0021BF
:103F90004DF2173001F062FA02214DF2183001F0B3
:103FA0005DFA3B214DF2193001F058FA02214DF231
:103FB0001A3001F053FA3D214DF21B3001F04EFA58
:103FC00002214DF21C3001F049FA75214DF21D30ED
:103FD00001F044FA02214DF21E3001F03FFAB12106
:103FE0004DF21F3001F03AFA02214DF2203001F07B
:103FF00035FAD5214DF2213001F030FA03214DF28E
:10400000223001F02BFA09214DF2233001F026FA7B
:1040100003214DF2243001F021FA28214DF2253000
:1040200001F01CFA03214DF2263001F017FA52215B
:104030004DF2273001F012FA03214DF2283001F041
:104040000DFA6B214DF2293001F008FA03214DF2EF
:104050002A3001F003FA8D214DF22B3001F0FEF9E8
:1040600003214DF22C3001F0F9F9A2214DF22D304F
:1040700001F0F4F903214DF22E3001F0EFF9BB21EC
:104080004DF22F3001F0EAF903214DF2303001F00A
:10409000E5F9C1214DF2313001F0E0F903214DF293
:1040A000323001F0DBF9C1214DF2333001F0D6F9A5
:1040B00000214FF4544001F0D1F937214DF2014075
:1040C00001F0CCF900214DF2024001F0C7F9532173
:1040D0004DF2034001F0C2F900214DF2044001F01D
:1040E000BDF979214DF2054001F0B8F900214DF2FA
:1040F000064001F0B3F997214DF2074001F0AEF907
:1041000000214DF2084001F0A9F9B1214DF209401A
:1041100001F0A4F900214DF20A4001F09FF9D521E8
:104120004DF20B4001F09AF900214DF20C4001F0E4
:1041300095F9F4214DF20D4001F090F901214DF275
:104140000E4001F08BF923214DF20F4001F086F96A
:1041500001214DF2104001F081F949214DF2114049
:1041600001F07CF901214DF2124001F077F987212D
:104170004DF2134001F072F901214DF2144001F0AB
:104180006DF9B6214DF2154001F068F902214DF2AA
:10419000164001F063F900214DF2174001F05EF97D
:1041A00002214DF2184001F059F93B214DF219401E
:1041B00001F054F902214DF21A4001F04FF93D216E
:1041C0004DF21B4001F04AF902214DF21C4001F072
:1041D00045F975214DF21D4001F040F902214DF2E3
:1041E0001E4001F03BF9B1214DF21F4001F036F9BC
:1041F00002214DF2204001F031F9D5214DF221404C
:1042000001F02CF903214DF2224001F027F9092198
:104210004DF2234001F022F903214DF2244001F038
:104220001DF928214DF2254001F018F903214DF226
:10423000264001F013F952214DF2274001F00EF90A
:1042400003214DF2284001F009F96B214DF229407C
:1042500001F004F903214DF22A4001F0FFF88D210D
:104260004DF22B4001F0FAF803214DF22C4001F001
:10427000F5F8A2214DF22D4001F0F0F803214DF2A6
:104280002E4001F0EBF8BB214DF22F4001F0E6F893
:1042900003214DF2304001F0E1F8C1214DF23140EF
:1042A00001F0DCF803214DF2324001F0D7F8C121D2
:1042B0004DF2334001F0D2F800214FF4554001F0A7
:1042C000CDF837214DF2015001F0C8F800214DF230
:1042D000025001F0C3F853214DF2035001F0BEF833
:1042E00000214DF2045001F0B9F879214DF205504A
:1042F00001F0B4F800214DF2065001F0AFF897211B
:104300004DF2075001F0AAF800214DF2085001F0DB
:10431000A5F8B1214DF2095001F0A0F800214DF2AD
:104320000A5001F09BF8D5214DF20B5001F096F8A0
:1043300000214DF20C5001F091F8F4214DF20D5096
:1043400001F08CF801214DF20E5001F087F8232185
:104350004DF20F5001F082F801214DF2105001F0A2
:104360007DF849214DF2115001F078F801214DF20C
:10437000125001F073F887214DF2135001F06EF8DE
:1043800001214DF2145001F069F8B6214DF215509B
:1043900001F064F802214DF2165001F05FF800219F
:1043A0004DF2175001F05AF802214DF2185001F069
:1043B00055F83B214DF2195001F050F802214DF211
:1043C0001A5001F04BF83D214DF21B5001F046F818
:1043D00002214DF21C5001F041F875214DF21D50A3
:1043E00001F03CF802214DF21E5001F037F8B121E6
:1043F0004DF21F5001F032F802214DF2205001F031
:104400002DF8D5214DF2215001F028F803214DF26D
:10441000225001F023F809214DF2235001F01EF83B
:1044200003214DF2245001F019F828214DF22550B6
:1044300001F014F803214DF2265001F00FF852213B
:104440004DF2275001F00AF803214DF2285001F0F7
:1044500005F86B214DF2295001F000F803214DF2CF
:104460002A5000F0FBFF8D214DF22B5000F0F6FF9B
:1044700003214DF22C5000F0F1FFA2214DF22D50FE
:1044800000F0ECFF03214DF22E5000F0E7FFBB21BE
:104490004DF22F5000F0E2FF03214DF2305000F0BA
:1044A000DDFFC1214DF2315000F0D8FF03214DF264
:1044B000325000F0D3FFC1214DF2335000F0CEFF57
:1044C00000214FF4564000F0C9FF37214DF2016042
:1044D00000F0C4FF00214DF2026000F0BFFF532145
:1044E0004DF2036000F0BAFF00214DF2046000F0CD
:1044F000B5FF79214DF2056000F0B0FF00214DF2CB
:10450000066000F0ABFF97214DF2076000F0A6FFB8
:1045100000214DF2086000F0A1FFB1214DF20960C9
:1045200000F09CFF00214DF20A6000F097FFD521BA
:104530004DF20B6000F092FF00214DF20C6000F094
:104540008DFFF4214DF20D6000F088FF01214DF246
:104550000E6000F083FF23214DF20F6000F07EFF1C
:1045600001214DF2106000F079FF49214DF21160F8
:1045700000F074FF01214DF2126000F06FFF8721FF
:104580004DF2136000F06AFF01214DF2146000F05B
:1045900065FFB6214DF2156000F060FF02214DF27B
:1045A000166000F05BFF00214DF2176000F056FF2F
:1045B00002214DF2186000F051FF3B214DF21960CD
:1045C00000F04CFF02214DF21A6000F047FF3D2140
:1045D0004DF21B6000F042FF02214DF21C6000F022
:1045E0003DFF75214DF21D6000F038FF02214DF2B4
:1045F0001E6000F033FFB1214DF21F6000F02EFF6E
:1046000002214DF2206000F029FFD5214DF22160FA
:1046100000F024FF03214DF2226000F01FFF09216A
:104620004DF2236000F01AFF03214DF2246000F0E8
:1046300015FF28214DF2256000F010FF03214DF2F7
:10464000266000F00BFF52214DF2276000F006FFBC
:1046500003214DF2286000F001FF6B214DF229602B
:1046600000F0FCFE03214DF22A6000F0F7FE8D21E0
:104670004DF22B6000F0F2FE03214DF22C6000F0B1
:10468000EDFEA2214DF22D6000F0E8FE03214DF277
:104690002E6000F0E3FEBB214DF22F6000F0DEFE45
:1046A00003214DF2306000F0D9FEC1214DF231609E
:1046B00000F0D4FE03214DF2326000F0CFFEC121A4
:1046C0004DF2336000F0CAFE5521204600F0C6FED0
:1046D000AA21284600F0C2FE5221304600F0BEFE5C
:1046E0000821384600F0BAFE0021404600F0B6FE30
:1046F0000021484600F0B2FE0521504600F0AEFE13
:104700000221584600F0AAFE05214BF2030000F0FA
:10471000A5FE02214BF2040000F0A0FE082118467D
:1047200000F09CFE50214FF4354000F097FE05212B
:10473000184600F093FE00214FF4374000F08EFE43
:1047400000214BF2017000F089FE01214FF4384046
:1047500000F084FE05214BF6010000F07FFE0521EC
:104760004BF6020000F07AFE05214BF6030000F044
:1047700075FE02214FF43C4000F070FE00214BF624
:10478000014000F06BFE00214BF6024000F066FE97
:1047900003214FF44C4000F061FE00214CF6014033
:1047A00000F05CFE00214CF6024000F057FE0121B3
:1047B0004FF43D4000F052FE84214BF6015000F0D2
:1047C0004DFE07214BF6025000F048FE31214BF61A
:1047D000035000F043FE00214BF6045000F03EFE73
:1047E00001214FF43A4000F039FEAA214FF47F40F6
:1047F00000F034FE55214FF6017000F02FFE252108
:104800004FF6027000F02AFE01214FF6037000F00F
:1048100025FE40214FF4585000F020FE00214FF4B7
:10482000545000F01BFE05214FF4685000F016FEB6
:104830004FF4885000F0FCFD7820FBF7CFFF4FF4D9
:10484000245000F0F5FD0A20FBF7C8FFBDE8F05F3B
:104850004FF4305000F0ECBD10B5E22000F0E8FD60
:104860001D2000F0D9FD022000F0D6FD042000F04C
:10487000D3FD0120FBF7B2FFE02000F0D9FD0120BD
:1048800000F0CAFD0A20FBF7A9FFE02000F0D0FDF0
:10489000032000F0C1FD0C20FBF7A0FF012000F079
:1048A000C7FD0A20FBF79AFFE62000F0C1FD2F208C
:1048B00000F0B2FDFF2000F0AFFDFF2000F0ACFDE6
:1048C000B02000F0B5FD202000F0A6FD002000F093
:1048D000A3FD032000F0A0FD40F21F3000F09CFD7E
:1048E000012000F099FD40F2DF1000F095FD00205E
:1048F00000F092FDB42000F09BFD042000F08CFD40
:1049000040F21F4000F088FD002000F085FD2E20C1
:1049100000F082FD002000F07FFD002000F07CFD13
:10492000002000F079FD002000F076FDB62000F0B8
:104930007FFD022000F070FD4FF4037000F06CFD6D
:10494000002000F069FD172000F066FD152000F042
:1049500063FD002000F060FD002000F05DFDF02010
:1049600000F066FD032000F057FD292000F060FDF7
:10497000D02000F05DFD002000F04EFDBE2000F0D4
:1049800057FD052000F048FDFE2000F045FD012008
:1049900000F042FD002000F03FFD002000F03CFD53
:1049A000002000F039FDB82000F042FD032000F0A7
:1049B00033FD012000F030FDBA2000F039FDBDE8E4
:1049C0001040012000F028BD10B5112000F030FD8E
:1049D0007820FBF703FF362000F02AFD002000F0CE
:1049E0001BFD3A2000F024FD052000F015FDB2204B
:1049F00000F01EFD0C2000F00FFD0C2000F00CFD5F
:104A0000002000F009FD332000F006FD332000F007
:104A100003FDB72000F00CFD352000F0FDFCBB20AD
:104A200000F006FD322000F0F7FCC02000F000FD91
:104A30000C2000F0F1FCC22000F0FAFC012000F094
:104A4000EBFCC32000F0F4FC102000F0E5FCC420D7
:104A500000F0EEFC202000F0DFFCC62000F0E8FCB7
:104A60000F2000F0D9FCD02000F0E2FCA42000F0E0
:104A7000D3FCA12000F0D0FCE02000F0D9FCD02035
:104A800000F0CAFC002000F0C7FC022000F0C4FCCB
:104A9000072000F0C1FC0A2000F0BEFC282000F036
:104AA000BBFC322000F0B8FC442000F0B5FC4220F2
:104AB00000F0B2FC062000F0AFFC0E2000F0ACFCD1
:104AC000122000F0A9FC142000F0A6FC172000F032
:104AD000A3FCE12000F0ACFCD02000F09DFC002005
:104AE00000F09AFC022000F097FC072000F094FCF4
:104AF0000A2000F091FC282000F08EFC312000F00C
:104B00008BFC542000F088FC472000F085FC0E2030
:104B100000F082FC1C2000F07FFC172000F07CFCE1
:104B20001B2000F079FC1E2000F076FC2A2000F00B
:104B30007FFC002000F070FC002000F06DFC0020E5
:104B400000F06AFCEF2000F067FC2B2000F070FC06
:104B5000002000F061FC002000F05EFC012000F06D
:104B60005BFC3F2000F058FCBDE81040292000F01D
:104B70005FBC10B5112000F05BFC7820FBF72EFE27
:104B8000362000F055FC482000F046FC3A2000F0AA
:104B90004FFC552000F040FCF02000F049FCC32001
:104BA00000F03AFCF02000F043FC962000F034FCCA
:104BB000B42000F03DFC012000F02EFCB62000F0F7
:104BC00037FC0A2000F028FCA22000F025FCB720CA
:104BD00000F02EFCC62000F01FFCB92000F028FCDD
:104BE000022000F019FCE02000F016FCC02000F0CC
:104BF0001FFC802000F010FC162000F00DFCC120EE
:104C000000F016FC192000F007FCC22000F010FC98
:104C1000A72000F001FCC52000F00AFC162000F0DF
:104C2000FBFBE82000F004FC402000F0F5FB8A20AC
:104C300000F0F2FB002000F0EFFB002000F0ECFBA6
:104C4000292000F0E9FB192000F0E6FBA52000F088
:104C5000E3FB332000F0E0FBE02000F0E9FBF02074
:104C600000F0DAFB072000F0D7FB0D2000F0D4FBAA
:104C7000042000F0D1FB052000F0CEFB142000F052
:104C8000CBFB362000F0C8FB542000F0C5FB4C20C5
:104C900000F0C2FB382000F0BFFB132000F0BCFB8B
:104CA000142000F0B9FB2E2000F0B6FB342000F0F9
:104CB000B3FBE12000F0BCFBF02000F0ADFB1020C6
:104CC00000F0AAFB142000F0A7FB0E2000F0A4FBCC
:104CD0000C2000F0A1FB082000F09EFB352000F026
:104CE0009BFB442000F098FB4C2000F095FB262015
:104CF00000F092FB102000F08FFB122000F08CFBE4
:104D00002C2000F089FB322000F086FBF02000F020
:104D10008FFB3C2000F080FBF02000F089FB692035
:104D200000F07AFB7820FBF759FD212000F080FB92
:104D3000BDE81040292000F07BBB00002DE9F043C6
:104D40008146A2EB09020798521C1F4695B20C46F9
:104D500086B24FF0D84811E02146484600F020FACC
:104D600000F072FB0020414604E000BFA1F8806023
:104D7000401C80B2A842F9D3641CA4B2BC42EBD957
:104D8000BDE8F0832DE9F04F87B03220FBF726FD18
:104D9000D32000F04DFB00F033F9944CA08000F0DC
:104DA0002FF9A08000F02CF94FF6FF7101EA0020E6
:104DB000A08000F025F9A18849F241360843A0807F
:104DC00047F2897545F2103747F2967845F2105947
:104DD00049F6060A41F6631BB0427DD0042000F07C
:104DE00027FB00F00DF9A08000F00AF9A08000F088
:104DF00007F94FF6FF7101EA0020A08000F000F9EA
:104E0000A1880843A0F50541A080523965D0A84289
:104E100062D0D42000F00CFB00F0F2F8A08000F08B
:104E2000EFF8A08000F0ECF84FF6FF7101EA0020E7
:104E3000A08000F0E5F8A1880843A080B8427ED0A9
:104E4000D32000F0F5FA00F0DBF8A08000F0D8F8ED
:104E5000A08000F0D5F84FF6FF7101EA0020A08095
:104E600000F0CEF8A1880843A080404567D05521C6
:104E70004FF4704000F0F2FAAA214FF2010000F066
:104E8000EDFA52214FF2020000F0E8FA08214FF249
:104E9000030000F0E3FA01214FF2040000F0DEFA13
:104EA0004FF4454000F0C4FA00F0AAF84FF6FF7145
:104EB00001EA0020A0804CF2015000F0B9FA00F0A5
:104EC0009FF8A1880843A0800520FBF787FCA188F4
:104ED000494534D0D32001E02CE02CE000F0A8FAC2
:104EE00000F08EF8A08000F08BF8A08000F088F829
:104EF0004FF6FF7101EA0020A08000F081F8A18840
:104F00000843A08050451AD0A12000F091FA00F08B
:104F100077F8A08000F074F84FF6FF7101EA0020E6
:104F2000A08000F06DF8A1880843A0F5AE41A080F4
:104F3000613902D003E0A58001E0A4F804B0A188A3
:104F40002BA0FCF73BFEA088A84202D1FFF73CFD56
:104F50001FE0B04202D1FDF798FA1AE0B84202D140
:104F6000FDF74BFD15E0404502D1FFF702FE10E0D2
:104F7000484502D1FEF7BBFC0BE0504502D1FDF7DE
:104F80009BFB06E0584504D1FFF766FC642000F067
:104F90001BFA1648A1885038A94201D103210EE01E
:104FA000514503D0B14201D0494501D1022106E06B
:104FB000B94203D0414501D0594508D101210091A2
:104FC0000291036B826840686946FBF7A1FA0020F2
:104FD000FDF7DAF90122D1030848FBF76AFD4FF625
:104FE000FF70FDF7B9F907B0BDE8F08F240200208B
:104FF0004C43442049443A25780D0A0000040240FD
:1050000008B50220401EFDD24FF0D840B0F8800015
:10501000ADF80000BDF8000008BD000070B55F4CA1
:1050200000232146A279898841F66316012A01D01E
:105030001AB10CE0B14202D109E0B14207D108280F
:1050400005D2DFE800F0161812140C19100E08280B
:1050500012D2DFE800F0110406080A0C0E108023BB
:105060000AE0402308E0C02306E0202304E0602398
:1050700002E0A02300E0E023362045F21055A942CB
:1050800000D10002A1F51342413A07D0A1F5EE424A
:10509000893A03D0A1F5EE42963A01D143F00803D4
:1050A000194600F0DBF9A188B1420AD098062088A1
:1050B000628802D5904202D303E0904201D9228057
:1050C00060806089A94240D100F0B2F9002000F070
:1050D000A3F96089401C80B200F0AAF9002000F01A
:1050E0009BF96089801C80B200F0A2F92088401EE4
:1050F000C0F30F2000F090F96089C01C80B200F06E
:1051000097F92078401EC0B200F086F9A08900F01F
:105110008FF9002000F080F9A089401C80B200F0D7
:1051200087F9002000F078F9A089801C80B200F097
:105130007FF96088401EC0F30F2000F06DF9A08950
:10514000C01C80B200F074F921E000F071F9002079
:1051500000F062F9002000F05FF92088401EC0F3E3
:105160000F2000F059F92078401EC0B200F054F929
:10517000A08900F05DF9002000F04EF9002000F059
:105180004BF96088401EC0F30F2000F045F9A0786D
:10519000BDE87040401EC0B200F03EB924020020BD
:1051A000F0B53B4A0D460446060A918810462F0A80
:1051B0004089A1F5C853633B16D0A1F5AA43103B23
:1051C0004CD000F035F9304600F026F9E0B200F09E
:1051D00023F9908900F02CF9384600F01DF9E8B267
:1051E000BDE8F04000F018B9917931B300F020F932
:1051F000304600F011F9E0B200F00EF91088401EC0
:10520000C0F30F2000F008F91078401E5FFA80F01C
:1052100000F002F9908900F00BF9384600F0FCF834
:10522000E8B200F0F9F85088401EC0F30F2000F0FB
:10523000F3F89078401EC0B2D2E71188091B491ECE
:105240008CB200F0F5F8002000F0E6F8002000F045
:10525000E3F8200A00F0E0F8E0B2D9E700F0E8F85F
:10526000304600F0D9F85089401C80B200F0E0F8D8
:10527000E0B200F0D1F8908900F0DAF8384600F09A
:10528000CBF89089401C80B200F0D2F8A7E700006C
:10529000240200202DE9FF4F1D460C468B4658077F
:1052A00000D0012000EBD500690810FB01F0203A86
:1052B00000F0FF0AD0B20C2D0AD0102D0CD0182D02
:1052C0000ED0202D46D1244901EB801600203EE06F
:1052D00000EB4001214806E0214901EB0016F5E70B
:1052E00000EBC0011F4800EB8106EFE716F80870DD
:1052F0004FF00009380601D50E9A03E00D9828B941
:105300001948026821460098FDF7B4F87806070EA0
:105310001648641CA4B24088A0421BD9A4EB0B0021
:10532000A8420AD100985C46401C80B200900F4809
:105330000188009881420DD906E009F1010000F0D2
:10534000FF09B9F1080FD5D308F10100C0B28046BA
:105350005045CBD3BDE8FF8FBB6E0008FB5600085D
:105360006F5B00085F61000810000020240200202D
:105370002DE9FC4F044600F0FF0910190D46DDE948
:105380000BB61FFA80F8581987B24FF0000A13E0E5
:10539000444503D305EB0B004C4685B2BD4210D209
:1053A0000D985B46CDE900A029462046FFF772FF25
:1053B00004EB5B0084B2761C3278A2F120005E28F8
:1053C000E6D9BDE8FC8F000010B50246BE2000F013
:1053D0002FF8052000F020F81046FAF7A6FF9FED01
:1053E0000C1B53EC112BFAF72EFFFAF7ABFF80B230
:1053F00000F012F8012000F00FF8FF2000F00CF888
:10540000002000F009F8BDE81040002000F004B8CA
:10541000666666666666044001B5BDF80000ADF8D4
:105420000000BDF800004FF0D841A1F8800008BD91
:1054300001B5BDF80000ADF80000BDF800004FF068
:10544000D841A1F87E0008BD03484FF0D84100893B
:10545000A1F87E0070470000240200204FF0D842DF
:1054600022F87E0F5180704788B00026FBF734FB8E
:10547000FCF7E0F9FCF72EF9FCF7BAF9FCF7E6F8CF
:10548000FBF710F8FFF77EFCFCF73CFD10245FA053
:10549000CDE900404FF478452346C82232210295D9
:1054A0001E20FFF765FF5BA0CDE900401023C82256
:1054B000462102951E20FFF75BFF59A0CDE9004071
:1054C0001023C8225A2102951E20FFF751FF58A031
:1054D000CDE900401023C8226E2102951E20FFF75F
:1054E00047FF4FF40079DFF860814FF4FA771DE051
:1054F00056A0CDE900401023C822822102951E202B
:10550000FFF736FF3846FAF7E7FF55A0CDE9004030
:105510001023C822822102951E20FFF729FF38465A
:10552000FAF7DAFF49464046FBF7BBFAFCF7D6FC30
:105530000028DDD14FA0CDE900401023C8228221F0
:1055400002951E20FFF714FF4E4F1F250020FCF789
:105550009FFE08213846FBF79FFA10BB4FF6FF70FD
:10556000009040F23F13EF2296210020FFF7E6FB68
:1055700045A0CDE900401023C822962102951E20A7
:10558000FFF7F6FE0F2246490020FCF7EEFC45A08F
:10559000CDE900401023C822962102951E20FFF776
:1055A000E7FE10213846FBF777FA10BB43A0CDE9A0
:1055B00000401023C822962102951E20FFF7D8FE36
:1055C0000F2203A90020FCF79FFC42A0CDE9004078
:1055D0001023C822962102951E20FFF7C9FE03A8BA
:1055E000CDE900401023C822AA2102951E20FFF712
:1055F000BFFE761CB6B2142E04D149464046FBF7D6
:1056000050FA00260A20FAF767FF9FE753544D33FC
:105610003200000049494320544553540000000023
:1056200041544F4D40414C49454E54454B000000BC
:105630004B4559313A577269746520204B455930B2
:105640003A52656164000000001402403234433075
:105650003220436865636B204661696C6564210094
:10566000506C6561736520436865636B2120202061
:105670002020200032344330322052656164792189
:1056800000000000001002405374617274205772D1
:105690006974652032344330322E2E2E2E000000E5
:1056A000EC5600083234433032205772697465205A
:1056B00046696E6973686564210000005374617205
:1056C0007420526561642032344330322E2E2E2EE7
:1056D00020000000546865204461746120526561B7
:1056E0006465642049733A202000000053544D3310
:1056F0003220494943205445535400000000000023
:1057000000000000000000000000003F400000001A
:1057100000000000003000400030004000000009A0
:10572000000BC03D000BC03D00090018C024407FA5
:10573000E0224031800000180024C01B000D8032A0
:1057400040018003801C4027401C8007400040101F
:1057500000600000000000000000000000000000E9
:10576000001F80204040200000402020401F80007B
:10577000000000090006001F800600090000000468
:105780000004003F800400040000000010006000DE
:1057900000000000000000040004000400040004F5
:1057A00000000000000040000000000000000000B9
:1057B0002001C006003800400000001F802040206B
:1057C0004020401F800000000010403FC00040000B
:1057D00000000018C0214022402440184000001062
:1057E000802040244024401B80000002000D001156
:1057F000003FC0014000003C80244024402440235E
:105800008000001F8024402440344003800000308A
:1058100000200027C03800200000001B8024402406
:105820004024401B8000001C0022C0224022401F58
:1058300080000000000000084000000000000000A0
:105840000000000460000000000000000004000AE6
:1058500000110020804040090009000900090009EA
:1058600000000000004040208011000A00040018E1
:1058700000200023402400180000001F8020402743
:105880004029401F400000004007C039000F0001C0
:10589000C0004020403FC0244024401B8000001F27
:1058A000802040204020403080000020403FC02029
:1058B0004020401F80000020403FC024402E403048
:1058C000C0000020403FC024402E00300000000FE8
:1058D000001080204022403380020020403FC0045E
:1058E0000004003FC02040204020403FC020402016
:1058F0004000000060202020203FC0200020002029
:10590000403FC024400B0030C0204020403FC0201A
:10591000400040004000C03FC03C0003C03C003F8E
:10592000C0000020403FC00C4023003FC020001FAB
:10593000802040204020401F80000020403FC024A5
:10594000402400180000001F802140214020E01F5B
:10595000A0000020403FC02440260019C00040188D
:10596000C024402440224031800000300020403FCD
:10597000C020403000000020003F80004000403F39
:1059800080200020003E0001C007003800200038C1
:105990000007C03C0007C038000000204039C006A6
:1059A0000039C0204000002000384007C0384020A7
:1059B000000000304021C02640384020C0000000D8
:1059C0000000007FE0402040200000000070000C3C
:1059D000000380004000000000402040207FE000E5
:1059E0000000000000200040002000000000000037
:1059F0001000100010001000100010000000004007
:105A00000000000000000000000280054005400387
:105A1000C0004020003FC00440044003800000005C
:105A2000000380044004400640000000000380049E
:105A30004024403FC0004000000380054005400373
:105A4000400000000004401FC0244024402000000B
:105A50000002E0055005500650042020403FC004DD
:105A600040040003C000400000044027C000400084
:105A700000000000100010041027E00000000020CB
:105A8000403FC00140070004C00440204020403F88
:105A9000C000400040000007C0040007C00400032D
:105AA000C00000044007C00440040003C0004000E0
:105AB0000003800440044003800000041007F00449
:105AC000500440038000000000038004400450079D
:105AD000F00010044007C002400400040000000071
