:020000040800F2
:10000000900600209D010008DB1E00085B1C000814
:10001000D91E0008C9050008E12200080000000000
:10002000000000000000000000000000DF1E0008CB
:100030005506000800000000DD1E0008E11E000853
:10004000B7010008B7010008B7010008B7010008B0
:10005000B7010008B7010008B7010008B7010008A0
:10006000B7010008B7010008B7010008B701000890
:10007000B7010008B7010008B7010008B701000880
:10008000B7010008B701000895040008B70100088F
:10009000B7010008B7010008B7010008B701000860
:1000A000B7010008B7010008B7010008B701000850
:1000B000B7010008B7010008B7010008B701000840
:1000C000B7010008B7010008B7010008B701000830
:1000D000B7010008D5220008B7010008B7010008E1
:1000E000B7010008B7010008B7010008B701000810
:1000F000B7010008B7010008B7010008B701000800
:10010000B7010008B7010008B7010008B7010008EF
:10011000B7010008B7010008B7010008B7010008DF
:10012000CD050008B7010008B7010008B7010008B5
:10013000B7010008B7010008B7010008B7010008BF
:10014000B7010008B7010008B7010008B7010008AF
:10015000B7010008B7010008B7010008B70100089F
:10016000B7010008B7010008B7010008B70100088F
:10017000B7010008B7010008B7010008000000003F
:10018000B7010008B7010008DFF80CD000F070F9E3
:10019000004800477D590008900600200648804727
:1001A00006480047FEE7FEE7FEE7FEE7FEE7FEE75C
:1001B000FEE7FEE7FEE7FEE7F11F00088901000801
:1001C0002DE9F05F0546002092469B46884606468C
:1001D000814640241BE0284641464746224600F01F
:1001E000D9F853465A46C01A914110D311461846C1
:1001F000224600F0C0F82D1A67EB01084F46224650
:100200000120002100F0B7F817EB00094E41201E35
:10021000A4F10104DFDC484631462A464346BDE8E6
:10022000F09FD2B201E000F8012B491EFBD27047CB
:100230000022F6E710B513460A4604461946FFF7B2
:10024000F0FF204610BD2DE9FE4F81EA030404F0C3
:10025000004421F0004100944FF0000B23F00043D4
:1002600050EA01045ED052EA03045BD0C3F30A549F
:10027000C1F30A552C44A4F2F3340194A0FB0254B8
:10028000C1F3130141F48011C3F3130343F480134A
:1002900001FB024400FB034E840A970A44EA81549E
:1002A00047EA8357A4FB076802958D0A05FB07857B
:1002B0004FEA932C04FB0C542705029D4FEA065885
:1002C00047EA1637B5EB08056EEB070C870E920E62
:1002D00047EA811742EA8312A7FB0201B6EB0B0142
:1002E00064EB00042B0D43EA0C335E1844EB1C5006
:1002F000DA465146E7FB0201C5F313044FEA0B331C
:1003000043EA14534FEA0432019C43EA0603A4F182
:100310000C040294009CCDE900B400F05AF803B03C
:10032000BDE8F08F00200146F9E70EB540F23341F9
:1003300002910021CDE900110A460B4600F049F870
:1003400003B000BDC1F30A5210B5C1F3130140F26E
:10035000FF3341F480119A4201DA002010BD40F2CF
:1003600033439A42A2F2334203DC524200F012F8C5
:1003700010BD904010BD202A04DB203A00FA02F1A3
:10038000002070479140C2F1200320FA03F3194383
:1003900090407047202A04DB203A21FA02F0002125
:1003A000704721FA02F3D040C2F120029140084385
:1003B0001946704710B5141E73F1000408DA401C8A
:1003C00041F1000192185B411A4301D120F0010074
:1003D00010BD2DE9F04D92469B4611B1B1FA81F264
:1003E00002E0B0FA80F220329046FFF7C4FF0446E4
:1003F0000F4640EA0A0041EA0B0153465A460843B9
:1004000013D0114653EA010019D0C8F140025046FA
:10041000FFF7C0FF05460E46504659464246FFF7D5
:10042000AAFF084305D0012004E020463946BDE874
:10043000F08D0020054346EAE0762C4337430A98C6
:100440006305E40AA0EB08000022FD0A44EA4754D1
:100450000A3002D500200146E9E70105101969417B
:10046000DDE9084500196941BDE8F04DA2E700004B
:10047000064C074D06E0E06840F0010394E80700F1
:1004800098471034AC42F6D3FFF782FEB48A0008D6
:10049000D48A0008014800F0FBB9000028000020C1
:1004A000464910B54A6822F440324A604A684368B7
:1004B0001A434A6001684A6822F480724A600168FF
:1004C0004A68036942EA03224A6001684A6822F0E6
:1004D00040724A6001684A6883681A434A6001684A
:1004E0008A6822F400628A6001688A68C3681A43D5
:1004F0008A60816A6FF07062D14201688A6822F076
:1005000070628A6001688A680CD0836A1A438A60C4
:1005100001688A6822F040528A6001688A68C36A6A
:100520001A4301E022F040528A6001688A6822F092
:1005300002028A6001688A68037E42EA43028A6096
:1005400090F82010002901684A680FD042F4006238
:100550004A6001684A6822F460424A6001684A6859
:10056000174C436A04EB43331A4301E022F4006260
:100570004A600168CA6A22F47002CA620168CA6AE3
:10058000838B104C04EB03531A43CA6201688A68D8
:1005900022F400728A6001688A6890F8303042EA7A
:1005A00043228A6001688A6822F480628A60016856
:1005B0008A68406942EA8020886010BD00230140BB
:1005C00000E0FFFF0000F0FFFEE70000014800F040
:1005D000D1BA00007000002001681823CAB2103A96
:1005E000B2FBF3F2054B6FF30901032A9B5CC36571
:1005F00000D9091D8165084670470000948A0008EB
:1006000010B5014600208B698A6A4FF0C07453B15F
:10061000B3F5005F15D072B1012A0CD0022A0AD0BE
:10062000032A09D104E01AB1012A06D0022A03D113
:10063000C96AC90100D5012010BDC96AA142FAD01A
:1006400010BD002AF7D0012AF2D0022AF3D0032AE3
:10065000F3D010BD704772B6FEE7000030B5B3F5B9
:10066000804F05D06FF0704140F82210002030BD5F
:100670008C690B688D6823434C688989240144EA9E
:100680000524234343EA014150F82230014C234022
:100690001943E9E70000F0CF10B50A6850F822309E
:1006A00023F0010340F822308C68082C23D000236B
:1006B0004A682243CC681C430B6922431A434B69A6
:1006C0000E4C1A43CB691A430B6A1A434B6A1A43FE
:1006D0008B6A1A43CB6A1A430B6B1A438B69134319
:1006E000CA6B09681A4350F82130A343134340F8FA
:1006F0002130002010BD4023DAE700007FFF0F000B
:1007000030B5D1E9003443EA04138C688D892402A2
:1007100044EA054423430C8A074D00EB820005EBB5
:10072000045423430C7D6D0105EB04648969234364
:100730000B434360002030BD0000F0FF7047000015
:1007400078B50024009490F83C20012A19D00122A9
:1007500080F83C200A6807230568092A13D9EE6847
:100760000A3A02EB420293409E43EE600B788A689D
:100770000A3B03EB43039A400368DD682A43DA60CF
:1007800010E0022078BD2E6902EB420293409E43A6
:100790002E610B788A6803EB43039A4003681D6956
:1007A0002A431A614A681F23072A13D205686E6B11
:1007B000521E02EB820293409E436E630B790A88BD
:1007C0005B1E92B203EB83039A4003685D6B2A437E
:1007D0005A6327E005680D2A12D22E6BD21F02EB56
:1007E000820293409E432E630B790A88DB1F92B2EC
:1007F00003EB83039A4003681D6B2A431A6311E0DD
:10080000EE6A0D3A02EB820293409E43EE620B7950
:100810000A880D3B92B203EB83039A400368DD6ABA
:100820002A43DA62164B0568144A9D4206D10D68C8
:10083000122D03D1556845F48005556005689D4229
:1008400018D10B68102B01D0112B13D1536843F42E
:1008500000035360096810290CD10A490A4A096843
:10086000B1FBF2F101EB8101490000E0491E00916A
:100870000029FBD180F83C40002078BD00230140D6
:10088000002001402000002040420F0070477047C8
:1008900070B5044600680668456816F0020F05F05A
:1008A00020012AD049B3216CC90603D4216C41F43C
:1008B00000712164816811F0405F17D1217EA9B9D0
:1008C000C16A11F4700F02D0816849050ED44168E5
:1008D00021F020014160206C20F480702064206CA5
:1008E000C00403D4206C40F0010020642046FFF7D0
:1008F000CDFF21686FF01200086016F0040F05F0BC
:10090000800132D089B3206CC00603D4206C40F43F
:10091000005020642068816811F4401F1ED1816B53
:1009200011F4401F02D08168490517D44168490578
:1009300014D4816811F0405F10D1217E71B94168F3
:1009400021F080014160206C20F480502064206CF4
:10095000C00503D4206C40F0010020642046FFF75E
:10096000EDFE21686FF00C00086016F0010F05F035
:1009700040010FD071B120680068C0070AD0206C18
:1009800040F480302064204600F043F821686FF086
:100990000100086016F0200F05F080610ED00029DC
:1009A0000CD0606C40F00200606420686FF020059D
:1009B00005602046FFF76BFF2068056070BD70B5CD
:1009C00004004FF0000503D0206C002610B107E0B2
:1009D000012070BD204600F01DF8666484F83C607C
:1009E000206CC00610D4206C20F4885040F0020027
:1009F00020642046FFF754FD6664206C20F002005E
:100A000040F00100206400E0012584F83C602846A5
:100A100070BD704770B586B0064614216846FFF772
:100A200007FC2149306888423CD1204800250168F4
:100A300041F480610160006800F4806005901B480B
:100A40001438016841F0200101600068694600F037
:100A500020000590802000900320CDE90105144876
:100A600000F028FA144C134820608005C4E9010501
:100A70000014C4E90350400060618000C4E9060529
:100A800025622046656200F045F908B1FFF7E3FDF5
:100A9000B463002211461220A66300F083FB1220EB
:100AA00000F072FB06B070BD0022014044380240E5
:100AB0000014024010640240700000202DE9F04153
:100AC0000446876D00F000FB064694F835000025CB
:100AD000022806D08020606584F834500120BDE8EB
:100AE000F0812068016821F01601016020684169E9
:100AF00021F080014161206C08B9A06C20B1206810
:100B0000016821F0080101602068016821F00101FD
:100B100001600CE000F0D8FA801B052807D92020DE
:100B20006065032084F8350084F83450D7E72068E6
:100B30000068C007EED194F85C103F208840B86090
:100B4000012084F8350084F834500020C7E790F87D
:100B50003510022903D0802141650120704705210D
:100B600080F835100068016821F001010160002063
:100B7000704700002DE9F84304464FF00009CDF816
:100B8000009063484FF41651A56D0068B0FBF1F773
:100B90002E6894F85C10082000FA01F131420FD061
:100BA00021680A6852070BD50A6822F004020A601D
:100BB00094F85C108840A860606D40F001006065AA
:100BC00094F85C104FF0010808FA01F0304208D0A8
:100BD00021684969090604D5A860606D40F00200EB
:100BE000606594F85C1004208840304208D0216889
:100BF0000968890704D5A860606D40F0040060654D
:100C000094F85C1010208840304218D021680968A0
:100C1000090714D5A86020680168490304D5006855
:100C2000000308D5A16C07E00168C90503D4016879
:100C300021F008010160216C09B12046884794F831
:100C40005C1020208840304231D021680968C906F4
:100C50002DD5A86094F8350005282068016806D0D5
:100C6000490347D5006800031DD4616C1CE021F0E6
:100C7000160101602068416921F080014161206C0A
:100C800008B9A06C20B12068016821F0080101605A
:100C900094F85C103F208840A86084F8358084F880
:100CA0003490216D1FE0E16B09B120468847606DEB
:100CB00000282BD0606DC00714D0052084F83500C3
:100CC0002068016821F0010101600098401C00903B
:100CD000B84203D820680068C007F6D184F8358090
:100CE00084F83490E16C002910D001B02046BDE8B2
:100CF000F04308470168C905D5D4016821F0100107
:100D0000016084F8358084F83490CCE7BDE8F8833E
:100D1000200000202DE9F041044600F0D5F90646F8
:100D20005CB1022084F83500002584F83450206836
:100D3000016821F0010101600DE00120BDE8F081B2
:100D400000F0C2F9801B052805D92020606503202A
:100D500084F83500F2E720680068C007F0D1226807
:100D6000116820480140D4E901031843D4E903364F
:100D70003343184363691843A3691843E36918436D
:100D8000236A18430843616A042903D1D4E90B1389
:100D900019430843106020684069666A20F0070123
:100DA00030460E43012704280CD1A06A0643E06AAE
:100DB00040B12046FFF724FC20B14020606584F854
:100DC0003570BAE7206846612046FFF705FC94F8C5
:100DD0005C203F2191408160656584F8357000207A
:100DE000ACE700003F8010F070B5044600F06CF9ED
:100DF0000546601C02D004480078044400F064F901
:100E0000401BA042FAD370BD140000202DE9F04130
:100E100086B014216846FFF70BFA204801680029C4
:100E200039D1012101601E480024016841F001010F
:100E3000016000684FF4805800F001000C27CDF8E5
:100E40000080CDE90470032602250396CDE9015404
:100E50006946144800F02EF84FF68070CDE9000581
:100E600002AA694682E8D0000F4800F023F84CF24D
:100E70003370CDE9000502AA694682E8D0000B482C
:100E800000F018F802AA694682E8D000CDE9008592
:100E9000074800F00FF806B0BDE8F0810000002020
:100EA000383802400014024000100240000C02409A
:100EB000001802402DE9F84FDFF8BCA100220125FF
:100EC00003264FF00F090AF1040BAAF1040E00BF2C
:100ED0000B6805FA02F42340A34270D10F7907F0A2
:100EE0000307012F01D0022F16D187684FEA42086D
:100EF00006FA08FC27EA0C07D1F80CC00CFA08FC2B
:100F00004CEA070CC0F808C04768A7430C79C4F343
:100F1000001494403C4344600C79E443A4070AD095
:100F2000C4684FEA420C06FA0CF7BC438F6807FA14
:100F30000CF72743C7600C7904F00304022C12D18C
:100F4000D40800EB840CDCF820405707FF0E09FAA8
:100F500007F824EA0804D1F8108008FA07F848EAEC
:100F60000408CCF8208004684FEA420C06FA0CF71B
:100F7000BC430F7907F0030707FA0CF72743076014
:100F80004C6814F4403F70D03C4C276847F48047CD
:100F90002760246822F0030704F480440094384C4E
:100FA00007EB040CDCF8084897074FEA177809FAB2
:100FB00008F7BC43334FB84202D1002724E054E085
:100FC000314FB84201D101271EE0304FB84201D164
:100FD000022719E02E4FB84201D1032714E02D4F0C
:100FE000B84201D104270FE02B4FB84201D10527A9
:100FF0000AE02A4FB84201D1062705E0284FB8423F
:1010000001D1072700E0082707FA08F72743CCF8A3
:101010000878DAF800405746D1F804C09C435FEAEC
:10102000CC2C00D51C433C60DBF800405F46D1F877
:1010300004C09C435FEA8C2C00D51C433C60DEF866
:1010400000407746D1F804C09C435FEA8C3C00D551
:101050001C433C60084F083F3C68D1F804C09C43E7
:101060005FEACC3C00D51C433C60521C102AFFF4C4
:101070002FAFBDE8F88F0000083C01404438024023
:10108000003001400000024000040240000802401D
:10109000000C024000100240001402400018024000
:1010A000001C02400069084000D0012070474269DE
:1010B00021EA02030A4043EA0241816170470AB112
:1010C000816170470904FBE70148806870470000B0
:1010D0001400002002488168027811448160704742
:1010E000140000200B4810B5016841F40071016044
:1010F000016841F480610160016841F48071016020
:10110000032000F06FF80F2000F006F800F024F83C
:10111000002010BD003C024070B50D4D04464FF458
:101120007A712878B1FBF0F00A490968B1FBF0F058
:1011300000F03AFB48B9102C07D200222146501E7D
:1011400000F030F800206C6070BD012070BD000020
:1011500014000020200000200A4808B5016841F46E
:1011600080410160006800F4804000900548001F45
:10117000016841F080510160006800F080500090EB
:1011800008BD000044380240002809DB00F01F02BF
:10119000012191404009800000F1E020C0F80011D9
:1011A00070470000F0B40E4B1B680C46C3F30223DB
:1011B000C3F10705042D00D90425191D072901D203
:1011C000002300E0DB1E012606FA05F1491E21403E
:1011D00099409E40761E16403143F0BC01F092B813
:1011E0000CED00E0064900F0070208684FF6FF0327
:1011F000184040EA0220034A10430860704700008C
:101200000CED00E00000FA052DE9F0470E46050060
:1012100065D0DFF81481D8F80000F7B200F00700BD
:10122000B04207D288F80070D8F8000000F007003C
:10123000B04254D128683D4C810712D5400703D5F0
:10124000206840F4E05020602878000703D520682B
:1012500040F4604020602068A96820F0F000084356
:1012600020602878C0072DD03049686808390128E7
:1012700012D0022813D0032811D009688907002949
:101280002DDA216821F0030101432160FFF71CFFE3
:10129000814641F2883A0EE009688903EFE7096860
:1012A0008901ECE7FFF710FFA0EB0901514502D9D6
:1012B0000320BDE8F0872068696800F00C00B0EBFF
:1012C000810FEFD1D8F80010404601F00701B1427C
:1012D00007D90770006800F00700B04201D0012074
:1012E000E7E72878400705D52068E96820F4E05052
:1012F000084320602878000706D52068296920F473
:10130000604040EAC100206000F038F82168084AD7
:10131000C1F30311515CC8400649086006480068E3
:10132000FFF7FAFE0020C4E7003C02400838024004
:101330009C8A00082000002018000020044805496D
:1013400000680968044AC1F38221515CC8407047B3
:101350002000002008380240AC8A000804480549F3
:1013600000680968044AC1F34231515CC8407047C3
:101370002000002008380240AC8A0008154810B54B
:10138000006810F00C02144813D04110042A0FD04A
:10139000082A0ED10F4C241F2268236802F03F0256
:1013A0005B0207D52068C0F38810A0FB010106E0AE
:1013B000084610BD2168C1F38811A1FB000100237C
:1013C000FEF7FEFE2168C1F30141491C4900B0FB54
:1013D000F1F010BD083802400024F4002DE9F84F68
:1013E00004006ED02078DFF84C93C007A9F1040503
:1013F0004AD009F104000168C1F38101012908D034
:101400000068C0F3810002280AD1D9F80000400228
:1014100006D52868800337D560680028E1D033E01E
:101420006068B0F5803F10D0B0F5A02F286810D0CC
:1014300020F480302860286820F4802028606068CC
:10144000A8B1FFF741FE06460DE0286840F4803061
:10145000F4E740F480202860F7E700BFFFF734FE90
:10146000801B642873D828688003F7D50CE0FFF749
:101470002BFE064605E000BFFFF726FE801B642812
:10148000F0D828688003F7D42078DFF8AC82800792
:101490004FF0000A3ED5A748001D016811F00C0F5F
:1014A00008D00068C0F3810002280BD1D9F80000F1
:1014B000400207D42868800716D5E068012800D1CB
:1014C00012E033E1E068B8B10120C8F80000FFF78E
:1014D000FBFD064605E000BFFFF7F6FD801B022876
:1014E000C0D828688007F7D52868216920F0F8005F
:1014F00040EAC10028600DE0C8F800A0FFF7E4FD55
:10150000064604E0FFF7E0FD801B02281FD828688C
:101510008007F7D42078000722D5864F8748616975
:10152000703771B101210160FFF7CEFD064604E07E
:10153000FFF7CAFD801B022809D838688007F7D555
:101540000EE0C0F800A0FFF7BFFD064605E082E010
:10155000FFF7BAFD801B02287DD838688007F7D4D2
:101560002078400768D5DFF8CCB100270BF13C0BA1
:10157000DBF80000C0000BD4DBF8001041F0805114
:10158000CBF80010DBF80000012700F0805000903D
:101590006B4E3068C00510D4306840F48070306005
:1015A000FFF792FD009005E0FFF78EFD0099401ACD
:1015B000022850D83068C005F6D55E4EA0686C365B
:1015C00001280FD00528306810D020F001003060CD
:1015D000306820F004003060A068B8B1FFF774FDF7
:1015E00000900FE0306840F00100F4E740F00400A4
:1015F0003060F7E7FFF768FD0099411A41F2883043
:10160000814266D830688007F4D50EE0FFF75CFDB4
:10161000009007E0FFF758FD0099411A41F2883029
:10162000814256D830688007F4D42FB1DBF800101F
:1016300021F08051CBF80010A069C8B33D49091DC5
:101640000968C1F3810102294AD00228504607D017
:10165000C8F8600000E03CE0FFF736FD04463BE0E0
:101660004746C8F86000FFF72FFD064605E000BFBB
:10167000FFF72AFD801B02282BD828688001F7D4A9
:10168000D4E907010843A16A2E4A490802EB014147
:10169000626A41EA8211084394F82C1040EA016121
:1016A000C9F8001001203866FFF70EFD044606E079
:1016B0003EE000BFFFF708FD001B022809D828689C
:1016C0008001F7D534E000BFFFF7FEFC001B0228C5
:1016D00002D90320BDE8F88F28688001F4D427E000
:1016E0000128F7D0D9F80000E26900F480019142A6
:1016F0001CD1226A00F03F01914217D147F6C07118
:10170000626A0140B1EB821F10D1A26A4FF0FF3331
:1017100000F4403103EB5202B1EB024F06D194F8D2
:101720002C1000F07060B0EB016F01D00120D1E708
:101730000020CFE70438024000004742800E4742B5
:10174000007000400000FFFF70B515460E46040013
:1017500003D094F8490010B107E0012070BD0020CB
:1017600084F84800204600F01DF804F108012068C4
:10177000FEF792FF3146A2682068FEF7C1FFD4E968
:1017800001022946236BFEF769FF2168A06851F822
:10179000202042F0010241F82020012084F8490075
:1017A000002070BDFFF732BB10B5401EB0F1807F46
:1017B00001D3012010BD4FF0E02460610F216017BC
:1017C00000F0A0FD0020A06107202061002010BDD6
:1017D00070477047F8B5016804460868CA684B69E5
:1017E00010F00F0F4FF0000559D003F0010602F47E
:1017F0009077374365D0C10705D0D10503D5616C1B
:1018000041F001016164410705D5D90703D0616C3E
:1018100041F002016164810705D5D90703D0616CED
:1018200041F004016164010707D502F02001314352
:1018300003D0616C41F008016164616C00293AD009
:10184000800604D5900602D5204600F007FC2068EB
:101850004069616CC0F38010090700D460B3204672
:1018600000F0D5FB20684069400621D5206814307F
:1018700050E8001F21F0400140E80012002AF5D195
:10188000E06BA8B172490165E06BFFF760F90028D1
:1018900011D0E06B016D01B0BDE8F0400847830650
:1018A0000FD593060DD52046BDE8F84000F0D6BB15
:1018B0002046FFF78EFFF8BD2046FFF78AFF6564DC
:1018C000F8BD266B2023012E7ED1C6067CD5D60618
:1018D0007AD508684868009048694FF002064006CB
:1018E0004DD5E26B106840684FF480770004000C1F
:1018F0003AD0A18D814237D9E085D069B8422DD048
:1019000020680C3050E8001F21F4807140E800127C
:10191000002AF5D12068143050E8001F21F00101A1
:1019200040E80012002AF5D12068143050E8001F6A
:1019300021F0400140E80012002AF5D184F842303D
:10194000256320680C3050E8001F21F0100140E8AA
:101950000012002AF5D1E06BFFF7B0F86663A08DA6
:10196000E18D401A81B206E0A18D8142A8D1D069F3
:10197000B842A5D166632046FFF72AFFF8BDA08DC7
:10198000E18D401A81B2E08D0028F7D00029F5D012
:1019900020680C3050E8002F22F4907240E80027B5
:1019A000002FF5D12068143050E8002F22F00102FA
:1019B00040E80027002FF5D184F8423025632068E5
:1019C0000C3050E8002F00E006E022F0100240E862
:1019D0000023002BF3D1CDE705062BD5150629D51D
:1019E00094F841002128C9D1A068B0F5805F01D1E9
:1019F0002069B0B1206A411C2162216800784860EA
:101A0000E08C401E0004000CE084B7D12068C1685F
:101A100021F08001C1602068C16841F04001C160CF
:101A2000F8BD206A0088C0F308004860206A801C66
:101A30002062E5E74006F3D55006F1D5CA68204696
:101A400022F04002CA6084F8413000F005F9F8BD88
:101A50000120000870B5040004D094F8410000256E
:101A600010B106E0012070BD84F84050204600F01F
:101A700023F8242084F841002068C16821F4005133
:101A8000C160204600F04CFB2068016921F49041C0
:101A900001612068416921F02A0141612068C16823
:101AA00041F40051C1606564202084F8410084F84D
:101AB00042006563002070BD10B586B00446142155
:101AC0006846FEF7B5FB18492068884229D11748B7
:101AD000016841F010010160006800F010000590FD
:101AE00012481438016841F001010160006869463C
:101AF00000F0010005904FF4C060009002200190BA
:101B00000120029003200390072004900848FFF76B
:101B1000D1F9002211462520FFF744FB2520FFF7CD
:101B200033FB06B010BD00000010014044380240F5
:101B30000000024090F84230202B01D00220704774
:101B400021B11AB10023036300F070BB012070477C
:101B500030B400681449884224D1144841880A04EA
:101B600016D402464C0412784FF0000304D50A2A1A
:101B70000DD141F4004113E00D2A0FD0C1F30D0443
:101B80000B4D491C89B22A554180C72900D3438097
:101B900030BC012205490748FFF7CCBF41F4804122
:101BA0004180F5E730BC7047001001400C00002078
:101BB00068010020200100202DE9F843044690F838
:101BC0004100984616460D46202802D00220BDE866
:101BD000F88385B17EB100206064212084F8410043
:101BE000FFF772FAA6848146E684A0682027B0F544
:101BF000805F02D003E00120E9E7206910B12E46A2
:101C000000250EE000260CE08021204600F029FB94
:101C1000A8B9C6B116F8010B21684860E08C401ED7
:101C2000E084E08C4B464FF00002CDF800800028A5
:101C3000EAD14FF04001204600F013FB40B184F898
:101C400041700320C3E735F8020BC0F30800E3E757
:101C500084F841700020BAE77047FEE71FB5002105
:101C60001648009101910291134A039102604FF4CA
:101C70008032C0E901210161017680F82010104A0C
:101C8000C0E90A210124C461C16080F830104461B8
:101C9000FEF795FE08B1FEF7DEFC0520CDE9000455
:101CA0000720029069460548FEF74AFD002801D04A
:101CB000FEF7D1FC1FBD00000022014028000020DB
:101CC0000100000F094808B5016841F48001016076
:101CD0000068002200F48000009011463820FFF7D1
:101CE00061FABDE808403820FFF74EBA30380240AC
:101CF00010B58EB01C216846FEF79AFA1C2107A881
:101D0000FEF796FA1A484FF0204110220160194957
:101D10004160062181600021C160C0E90412816137
:101D2000C16113020162C0E909139302C0E90B13F8
:101D30004163816341640F203C230090CDE901039E
:101D400003AC112384E80E0009240691CDE9074075
:101D50000AA8099480E80E000D9107AA6946044874
:101D6000FFF7F2FC002801D0FEF775FC0EB010BDA5
:101D7000D0000020040100A02DE9F04F87B014210D
:101D80006846FEF755FA40480025016841F0100109
:101D90000160016801F010010591016841F0200126
:101DA0000160016801F020010591016841F08001A6
:101DB0000160016801F080010591016841F00101B5
:101DC0000160016801F001010591016841F0020123
:101DD0000160016801F002010591016841F008010C
:101DE0000160016801F008010591016841F04001BE
:101DF00001600068012200F04000DFF89090960238
:101E0000059031464846FFF75AF9DFF884A077017C
:101E1000002239465046FFF752F9DFF878B04FF408
:101E20000078002241465846FFF749F91C20CDE9C9
:101E300000050124694602941748FFF73BF8CDE9F5
:101E400000640226CDE9024669464846FFF732F8AB
:101E50008DE8700069461148FFF72CF80097CDE92E
:101E60000145694650460395FFF724F801AA112061
:101E7000CDF8008082E8510069465846FFF71AF80D
:101E800007B0BDE8F08F0000303802400014024077
:101E9000000402400018024000100240000002400E
:101EA0000C4810B50A4901604FF4E131416000214E
:101EB00081600C22C160C0E904128161C161FFF739
:101EC000C9FD002803D0BDE81040FEF7C4BB10BD1B
:101ED0000010014020010020FEE7FEE77047704738
:101EE000FFF7F8B830B593B030216846FEF7A0F997
:101EF00014210CA8FEF79CF91D480025016841F04B
:101F000080510160006800F080501190194801680C
:101F100041F4804101600068022400F48040119087
:101F20000120039010200490009406940820CDE92D
:101F30000750A820CDE9090404200B906846FFF75C
:101F40004DFA08B172B6FEE70CA90F2081E8310006
:101F50004FF4A0500F904FF48050109005210CA822
:101F6000FFF752F9002801D072B6FEE713B030BD7A
:101F7000403802400070004070B5194C2068194A82
:101F800010F00C01184804D05510042903D008297A
:101F900003D002601BE0056019E01149091F0B68BE
:101FA000C3F380560B6803F03F0316B1B5FBF3F2A1
:101FB00001E0B2FBF3F20B680968C3F388135A43DC
:101FC000C1F30141491C4900B2FBF1F101602168F4
:101FD000064AC1F30311515C0268CA40026070BD39
:101FE000083802400024F400200000209C8A0008E9
:101FF0000248016841F470010160704788ED00E01B
:1020000010B5806B0021C185FFF7E3FB10BD0168AF
:102010000C3151E8002F22F4907241E80023002B8C
:10202000F5D10168143151E8002F22F0010241E896
:102030000023002BF5D1016B012909D101680C3176
:1020400051E8002F22F0100241E80023002BF5D1C7
:10205000202180F8421000210163704708B590F8F4
:102060004210222901D0022008BD82684FF480531B
:102070009A4201D1016921B1816A9A421BD04AB1C9
:102080000AE00268816A5268C2F308020A80816A23
:10209000891C08E0026972B10268526802F07F028E
:1020A0000A70816A491C8162C18D491E0904090CAC
:1020B000C18503D01BE002685268F1E70168CA6875
:1020C00022F02002CA600168CA6822F48072CA60E5
:1020D00001684A6922F001024A61202180F8421019
:1020E00000214163026B012A03D0FFF731FD00207C
:1020F00008BD016301680C3151E8002F22F0100285
:1021000041E80023002BF5D101680A68D20602D508
:102110000A6849680091818DFFF75AFBE7E70000E4
:1021200070B5044600680169E26821F4405111432A
:1021300001612169A068E2690843616911430843AC
:102140002168CA6849F20C639A430243CA60206856
:102150004169A26921F4407111434161314920680C
:10216000884202D03049884202D1FFF7F7F801E0F7
:10217000FFF7E4F8E2690023192164253226B2F55D
:10218000004F626828D0A0FB0101930F9200FEF778
:1021900017F80146B0FBF5F06FF01802504301EB61
:1021A000800006EB0010B0FBF5F000F0F002B1FB90
:1021B000F5F002EB0012B1FBF5F06FF01803584395
:1021C00001EB800006EB0010B0FBF5F000F00F0013
:1021D00021681044886070BDA0FB010192185B412A
:1021E000FDF7EEFF0146B0FBF5F00201B1FBF5F0A3
:1021F0006FF01803584301EB800006EBC000B0FB02
:10220000F5F000F0F80002EB4002B1FBF5F05843A6
:1022100001EB800006EBC000B0FBF5F000F007001A
:10222000D6E7000000100140001401408162828561
:10223000C28500214164222180F84210016921B148
:102240000168CA6842F48072CA6001684A6942F053
:1022500001024A610068C16841F02001C1600020AC
:1022600070472DE9F843984617460D460446089EE8
:1022700024E0701C22D0FEF727FFA0EB0800B0423C
:102280001AD8CEB12068C168490717D5802D15D05E
:10229000402D13D00168C94309070FD401680025F8
:1022A000406800902046FFF7B2FE0820606484F882
:1022B00040500120BDE8F8830320FBE72068006858
:1022C00035EA000004D00020B842D2D00020F1E767
:1022D0000120F9E70148FFF77DBA00002001002046
:1022E000FEE700000FB4054B10B503A9044A02989D
:1022F00000F028F810BC5DF814FB0000D52700089A
:10230000240000200907090E002804DB00F1E0206A
:1023100080F80014704700F00F0000F1E02080F812
:10232000141D704702E008C8121F08C1002AFAD124
:1023300070477047002001E001C1121F002AFBD145
:10234000704700002DE9FF4F8DB09B460F460446B5
:10235000002606E025280BD05A460F999047641CAA
:10236000761C20780028F5D111B03046BDE8F08FFA
:102370000025A8460122984900E0054314F8013FD2
:10238000203B02FA03F00842F7D120782E2817D11B
:1023900014F8010F45F004052A280ED06FF02F0223
:1023A0002078A0F1300109290AD808EB880102EB56
:1023B000410100EB0108641CF2E757F8048B641C30
:1023C00020786C280DD004DC4C2812D06A2811D15A
:1023D00004E074280DD07A280CD10AE045F40015E9
:1023E00007E0617845F48015814202D1641C05F54F
:1023F0008015641C2278692A45D008DC002AB3D0F5
:10240000582A69D0632A10D0642A08D13BE0702A88
:1024100067D0732A13D0752A5CD0782A5CD0104616
:102420005A460F999047761CD3E017F8040B8DF8A5
:10243000000000208DF80100E946012003E057F874
:10244000049B4FF0FF3069074FF0000501D40AE00C
:102450006D1C45450DDA8542FADB19F80510002997
:10246000F6D106E06D1C8542FCDB19F80510002949
:10247000F8D12E4404E019F8010B5A460F99904701
:102480006D1EF8D2A5E00A200021CDE90801C5F3B0
:10249000025002280DD001CFC117031E71F10003B5
:1024A0000DDA4FF0000CD0EB0C006CEB01012D238A
:1024B00008E0FF1D27F00707F7E80201EDE72B050D
:1024C00004D52B238DF8283001233BE0EB0739D0CE
:1024D0002023F7E70A2000E010200021CDE90801C1
:1024E00007E01020002145F00405CDE908014FF078
:1024F0000808C5F3025002280FD001CF00214FF089
:10250000000A2B071FD5702A0DD0DDE908C38CF017
:10251000100C5CEA030C0CD015E0FF1D27F0070738
:10252000F7E80201EBE740228DF828204FF0010A7E
:102530000BE050EA010306D030238DF828308DF8E7
:10254000292002239A46582A04D024A20DF12009FA
:102550000B9209E026A2F9E7DDE90823FDF730FE3A
:102560000B9B9B5C09F8013D50EA0102F4D1ADEBF5
:10257000090020300890680701D44FF0010808993D
:10258000884502DDA8EB010000E000208046002520
:1025900006E00AA85A46405D0F9990476D1C761CCC
:1025A0005545F6DB04E030205A460F999047761CDB
:1025B000B8F10001A8F10108F5DC05E019F8010BFC
:1025C0005A460F999047761C0899481E0890002992
:1025D000F4DC641CC5E60000092801003031323308
:1025E000343536373839616263646566000000004F
:1025F0003031323334353637383941424344454639
:102600000000000010B5064C206808B9FFF7B4FCC4
:1026100004492068B0FBF1F00349086010BD0000D8
:102620002000002040420F000800002070B5054641
:1026300000244FF47A7603E0304600F005F8641C7D
:10264000AC42F9D370BD000030B54FF0E024002259
:102650006569084909684843A169A3698B42FCD0B0
:1026600000D32944A1EB03010A4419468242F4D362
:1026700030BD0000080000202DE9F041002425466F
:102680004FF40076124F04E0641CE4B20120FFF71F
:10269000DBFF31463846FEF705FD10B1642CF3D35D
:1026A0000FE0642C0DD2002404E0641CE4B201208D
:1026B000FFF7CAFF31463846FEF7F4FC28B1642C18
:1026C00000D301252846BDE8F081642CEDD3F8E75E
:1026D0000018024010B500F065F8BDE81040FFF7A3
:1026E000CBBF000070B500244FF40075134E04E01A
:1026F000641CE4B20120FFF7A7FF29463046FEF72D
:10270000D1FC08B1642CF3D3002404E0641CE4B2CF
:102710000120FFF799FF29463046FEF7C3FC08B9B0
:10272000642CF3D32820FFF78FFF29463046FEF7AD
:10273000B9FC002800D0012070BD00000018024044
:102740002DE9FC478846814600F02CF8FFF794FFFE
:1027500010B10120BDE8FC8700246F46002005462B
:102760004600FFF7BFFF30436D1C082DF8DB3855DE
:10277000641CE4B2052CF1D39DF800109DF8010013
:102780009DF803300A189DF8020003441A449DF88E
:1027900004309A4203D188F8001089F80000002024
:1027A000D8E7000070B50A4D4FF4007400222146AE
:1027B0002846FEF784FC1420FFF738FF012221464B
:1027C0002846FEF77CFCBDE870401E20FFF73CBFAA
:1027D0000018024013B56423012269460248FFF73E
:1027E000EBF900981CBD00002001002070B50A49DB
:1027F0000646002408884D8821464543204602F0BD
:1028000021FF03F0ABF84FF0D84002E0A0F8806061
:10281000641CAC42FAD370BD800200202DE9F04F59
:1028200038492C260A46887192884FF4305A4FF462
:10283000285B41F6631E2B274FF02A0C4FF0F0085F
:1028400045F210594FF448754FF4A0744FF4F073EB
:1028500058B10C80A1F802804A4530D1A1F808A0F7
:10286000A1F80AB03802888141E0A1F800804C80CC
:102870004A4507D1A1F808A0A1F80AB04FF42C509E
:10288000888105E072450E8105D14F81A1F80CC009
:102890000B804D8002E0A1F80AC08F81A2F5A6400E
:1028A000103803D0A2F5EE40963801D10C804B8051
:1028B000A2F5184006381FD10B804D801CE07245F0
:1028C00011D0A2F5184006380DD00E81A1F80AC02B
:1028D000A1F80C70A2F5A64010380BD0A2F5EE407E
:1028E000963807D008E00E81A1F80AC08F810D80CC
:1028F0004B80EFE70B804C80BDE8F04F002002F0EA
:10290000DFBD00008002002010B5144602F09AFEE0
:1029100003F024F84FF0D840A0F8804010BD10B567
:10292000CF2003F00FF8002003F000F8C12002F0E0
:10293000FDFF302002F0FAFFED2003F003F86420E1
:1029400002F0F4FF032002F0F1FF122002F0EEFF8C
:10295000812002F0EBFFE82002F0F4FF852002F076
:10296000E5FF102002F0E2FF7A2002F0DFFFCB202B
:1029700002F0E8FF392002F0D9FF2C2002F0D6FF48
:10298000002002F0D3FF342002F0D0FF022002F03A
:10299000CDFFF72002F0D6FF202002F0C7FFEA208B
:1029A00002F0D0FF002002F0C1FF002002F0BEFFC5
:1029B000C02002F0C7FF1B2002F0B8FFC12002F0C8
:1029C000C1FF012002F0B2FFC52002F0BBFF3020A2
:1029D00002F0ACFF302002F0A9FFC72002F0B2FFE6
:1029E000B72002F0A3FF362002F0ACFF482002F02F
:1029F0009DFF3A2002F0A6FF552002F097FFB1207C
:102A000002F0A0FF002002F091FF1A2002F08EFFDA
:102A1000B62002F097FF0A2002F088FFA22002F001
:102A200085FFF22002F08EFF002002F07FFF2620BB
:102A300002F088FF012002F079FFE02002F082FF1F
:102A40000F2002F073FF2A2002F070FF282002F00E
:102A50006DFF082002F06AFF0E2002F067FF0820D9
:102A600002F064FF542002F061FFA92002F05EFF33
:102A7000432002F05BFF0A2002F058FF0F2002F013
:102A800055FF002002F052FF002002F04FFF00200F
:102A900002F04CFF002002F049FFE12002F052FF5B
:102AA000002002F043FF152002F040FF172002F043
:102AB0003DFF072002F03AFF112002F037FF062009
:102AC00002F034FF2B2002F031FF562002F02EFFDF
:102AD0003C2002F02BFF052002F028FF102002F01E
:102AE00025FF0F2002F022FF3F2002F01FFF3F20B2
:102AF00002F01CFF0F2002F019FF2B2002F022FF32
:102B0000002002F013FF002002F010FF012002F06D
:102B10000DFF3F2002F00AFF2A2002F013FF0020E1
:102B200002F004FF002002F001FF002002F0FEFE90
:102B3000EF2002F0FBFE112002F004FF7820FEF7E8
:102B400053F9BDE81040292002F0FCBE10B5FF206B
:102B500002F0F8FEFF2002F0E9FE982002F0E6FE07
:102B6000062002F0E3FEBC2002F0ECFE012002F0A1
:102B7000DDFE0F2002F0DAFE612002F0D7FEFF201A
:102B800002F0D4FE012002F0D1FE012002F0CEFEC0
:102B90000B2002F0CBFE102002F0C8FE372002F01E
:102BA000C5FE632002F0C2FEFF2002F0BFFEFF2040
:102BB00002F0BCFE012002F0B9FE012002F0B6FED8
:102BC000002002F0B3FE002002F0B0FEFF2002F071
:102BD000ADFE522002F0AAFE012002F0A7FE002066
:102BE00002F0A4FE402002F0A1FEBD2002F0AAFEE9
:102BF000012002F09BFE232002F098FE452002F007
:102C000095FE672002F092FE012002F08FFE232045
:102C100002F08CFE452002F089FE672002F086FE5D
:102C2000BE2002F08FFE002002F080FE012002F0A4
:102C30007DFEAB2002F07AFE602002F077FE2220BB
:102C400002F074FE222002F071FE222002F06EFEDD
:102C5000222002F06BFE222002F068FEC72002F064
:102C600071FE362002F062FEED2002F06BFE7F2046
:102C700002F05CFE0F2002F059FEC02002F062FE5E
:102C80000F2002F053FE0B2002F050FE0A2002F04B
:102C90004DFEFC2002F056FE082002F047FEDF2029
:102CA00002F050FE002002F041FE002002F03EFE45
:102CB000002002F03BFE002002F038FE002002F06F
:102CC00035FE202002F032FEF32002F03BFE74209D
:102CD00002F02CFEB42002F035FE002002F026FEA9
:102CE000002002F023FE002002F020FEF72002F078
:102CF00029FE822002F01AFEB12002F023FE0020FD
:102D000002F014FE132002F011FE132002F00EFE5A
:102D1000F22002F017FE802002F008FE042002F0EC
:102D200005FE402002F002FE282002F0FFFDC12037
:102D300002F008FE172002F0F9FD882002F0F6FDEF
:102D4000882002F0F3FD202002F0F0FDE02002F0E8
:102D5000F9FD002002F0EAFD0A2002F0E7FD122052
:102D600002F0E4FD102002F0E1FD0E2002F0DEFD95
:102D7000202002F0DBFDCC2002F0D8FD072002F07D
:102D8000D5FD062002F0D2FD0B2002F0CFFD0E2073
:102D900002F0CCFD0F2002F0C9FD0D2002F0C6FDAF
:102DA000152002F0C3FD102002F0C0FD002002F04B
:102DB000BDFDE12002F0C6FD002002F0B7FD0B20B2
:102DC00002F0B4FD132002F0B1FD0D2002F0AEFDC3
:102DD0000E2002F0ABFD1B2002F0A8FD712002F0D6
:102DE000A5FD062002F0A2FD062002F09FFD0A20AC
:102DF00002F09CFD0F2002F099FD0E2002F096FDDE
:102E00000F2002F093FD152002F090FD0C2002F03F
:102E10008DFD002002F08AFD2A2002F093FD0020A3
:102E200002F084FD002002F081FD012002F07EFD11
:102E3000DF2002F07BFD2B2002F084FD002002F059
:102E400075FD002002F072FD032002F06FFD1F20CF
:102E500002F06CFD3A2002F075FD552002F066FD8F
:102E6000362002F06FFD002002F060FD112002F01C
:102E700069FD7820FDF7B8FF292002F063FD1420DA
:102E8000FDF7B2FFBDE810402C2002F05BBD10B58D
:102E9000ED2002F057FD012002F048FDFE2002F077
:102EA00045FDEE2002F04EFDDE2002F03FFD212028
:102EB00002F03CFDF12002F045FD012002F036FD5C
:102EC000DF2002F03FFD102002F030FDC42002F0B0
:102ED00039FD8F2002F02AFDC62002F033FD0020CC
:102EE00002F024FDE22002F021FDE22002F01EFDAE
:102EF000E22002F01BFDBF2002F024FDAA2002F018
:102F000015FDB02002F01EFD0D2002F00FFD002087
:102F100002F00CFD0D2002F009FD002002F006FD7C
:102F2000112002F003FD002002F000FD192002F044
:102F3000FDFC002002F0FAFC212002F0F7FC00204A
:102F400002F0F4FC2D2002F0F1FC002002F0EEFC77
:102F50003D2002F0EBFC002002F0E8FC5D2002F0D6
:102F6000E5FC002002F0E2FC5D2002F0DFFC002026
:102F700002F0DCFCB12002F0E5FC802002F0D6FC7F
:102F8000002002F0D3FC8B2002F0D0FC002002F0E5
:102F9000CDFC962002F0CAFC002002F0C7FCB22053
:102FA00002F0D0FC002002F0C1FC002002F0BEFCC8
:102FB000022002F0BBFC002002F0B8FC032002F06B
:102FC000B5FC002002F0B2FCB32002F0BBFC0020F4
:102FD00002F0ACFC002002F0A9FC002002F0A6FCEC
:102FE000002002F0A3FC002002F0A0FC002002F070
:102FF0009DFC002002F09AFC002002F097FC0020CB
:1030000002F094FC002002F091FC002002F08EFC03
:10301000002002F08BFC002002F088FC002002F06F
:1030200085FC002002F082FC002002F07FFC0020E2
:1030300002F07CFC002002F079FC002002F076FC1B
:10304000002002F073FC002002F070FC002002F06F
:103050006DFC002002F06AFC002002F067FCB42046
:1030600002F070FC8B2002F061FC002002F05EFC9C
:10307000962002F05BFC002002F058FCA12002F038
:1030800055FC002002F052FCB52002F05BFC02204F
:1030900002F04CFC002002F049FC032002F046FC48
:1030A000002002F043FC042002F040FC002002F06B
:1030B0003DFCB62002F046FC002002F037FC002068
:1030C00002F034FCB72002F03DFC002002F02EFCA0
:1030D000002002F02BFC3F2002F028FC002002F030
:1030E00025FC5E2002F022FC002002F01FFC642080
:1030F00002F01CFC002002F019FC8C2002F016FCEF
:10310000002002F013FCAC2002F010FC002002F0C2
:103110000DFCDC2002F00AFC002002F007FC70200D
:1031200002F004FC002002F001FC902002F0FEFB03
:10313000002002F0FBFBEB2002F0F8FB002002F085
:10314000F5FBDC2002F0F2FB002002F0EFFBB820E0
:1031500002F0F8FB002002F0E9FB002002F0E6FBA1
:10316000002002F0E3FB002002F0E0FB002002F070
:10317000DDFB002002F0DAFB002002F0D7FB00208C
:1031800002F0D4FBBA2002F0DDFB242002F0CEFBDB
:10319000002002F0CBFB002002F0C8FB002002F070
:1031A000C5FBC12002F0CEFB202002F0BFFB0020B7
:1031B00002F0BCFB542002F0B9FB002002F0B6FB89
:1031C000FF2002F0B3FB002002F0B0FBC22002F0AF
:1031D000B9FB0A2002F0AAFB002002F0A7FB0420A2
:1031E00002F0A4FB002002F0A1FBC32002F0AAFB26
:1031F0003C2002F09BFB002002F098FB3A2002F0FA
:1032000095FB002002F092FB392002F08FFB00209A
:1032100002F08CFB372002F089FB002002F086FBD5
:103220003C2002F083FB002002F080FB362002F0FD
:103230007DFB002002F07AFB322002F077FB0020B9
:1032400002F074FB2F2002F071FB002002F06EFBF5
:103250002C2002F06BFB002002F068FB292002F01A
:1032600065FB002002F062FB262002F05FFB0020DD
:1032700002F05CFB242002F059FB002002F056FB18
:10328000242002F053FB002002F050FB232002F028
:103290004DFB002002F04AFB3C2002F047FB0020DF
:1032A00002F044FB362002F041FB002002F03EFB1E
:1032B000322002F03BFB002002F038FB2F2002F00E
:1032C00035FB002002F032FB2C2002F02FFB002007
:1032D00002F02CFB292002F029FB002002F026FB43
:1032E000262002F023FB002002F020FB242002F025
:1032F0001DFB002002F01AFB242002F017FB002027
:1033000002F014FB232002F011FB002002F00EFB60
:10331000C42002F017FB622002F008FB002002F03C
:1033200005FB052002F002FB002002F0FFFA8420DA
:1033300002F0FCFA002002F0F9FAF02002F0F6FAAE
:10334000002002F0F3FA182002F0F0FA002002F058
:10335000EDFAA42002F0EAFA002002F0E7FA1820C1
:1033600002F0E4FA002002F0E1FA502002F0DEFA66
:10337000002002F0DBFA0C2002F0D8FA002002F064
:10338000D5FA172002F0D2FA002002F0CFFA9520E9
:1033900002F0CCFA002002F0C9FAF32002F0C6FADB
:1033A000002002F0C3FAE62002F0C0FA002002F08A
:1033B000BDFAC52002F0C6FA322002F0B7FA0020AA
:1033C00002F0B4FA442002F0B1FA002002F0AEFAA2
:1033D000652002F0ABFA002002F0A8FA762002F095
:1033E000A5FA002002F0A2FA882002F09FFA00203D
:1033F00002F09CFAC62002F0A5FA202002F096FA0C
:10340000002002F093FA172002F090FA002002F058
:103410008DFA012002F08AFA002002F087FAC72014
:1034200002F090FA002002F081FA002002F07EFA09
:10343000002002F07BFA002002F078FAC82002F0A7
:1034400081FA002002F072FA002002F06FFA0020E8
:1034500002F06CFA002002F069FAC92002F072FA58
:10346000002002F063FA002002F060FA002002F06F
:103470005DFA002002F05AFA002002F057FA00200C
:1034800002F054FA002002F051FA002002F04EFA45
:10349000002002F04BFA002002F048FA002002F06F
:1034A00045FA002002F042FA002002F03FFA002024
:1034B00002F03CFA002002F039FA002002F036FA5D
:1034C000E02002F03FFA162002F030FA002002F06D
:1034D0002DFA1C2002F02AFA002002F027FA2120FF
:1034E00002F024FA002002F021FA362002F01EFA3F
:1034F000002002F01BFA462002F018FA002002F029
:1035000015FA522002F012FA002002F00FFA64209D
:1035100002F00CFA002002F009FA7A2002F006FA12
:10352000002002F003FA8B2002F000FA002002F0E3
:10353000FDF9992002F0FAF9002002F0F7F9A8202D
:1035400002F0F4F9002002F0F1F9B92002F0EEF9EE
:10355000002002F0EBF9C42002F0E8F9002002F0AC
:10356000E5F9CA2002F0E2F9002002F0DFF9D220EA
:1035700002F0DCF9002002F0D9F9D92002F0D6F9E6
:10358000002002F0D3F9E02002F0D0F9002002F090
:10359000CDF9F32002F0CAF9002002F0C7F9E120CA
:1035A00002F0D0F9162002F0C1F9002002F0BEF9B5
:1035B0001C2002F0BBF9002002F0B8F9222002F032
:1035C000B5F9002002F0B2F9362002F0AFF9002080
:1035D00002F0ACF9452002F0A9F9002002F0A6F9AA
:1035E000522002F0A3F9002002F0A0F9642002F0BA
:1035F0009DF9002002F09AF97A2002F097F9002054
:1036000002F094F98B2002F091F9002002F08EF97B
:10361000992002F08BF9002002F088F9A82002F02E
:1036200085F9002002F082F9B92002F07FF900202C
:1036300002F07CF9C42002F079F9002002F076F95A
:10364000CA2002F073F9002002F070F9D22002F0D3
:103650006DF9002002F06AF9D82002F067F9002025
:1036600002F064F9E02002F061F9002002F05EF956
:10367000F32002F05BF9002002F058F9E22002F09A
:1036800061F9052002F052F9002002F04FF90B20F9
:1036900002F04CF9002002F049F91B2002F046F933
:1036A000002002F043F9342002F040F9002002F03B
:1036B0003DF9442002F03AF9002002F037F94F209A
:1036C00002F034F9002002F031F9612002F02EF905
:1036D000002002F02BF9792002F028F9002002F0F6
:1036E00025F9882002F022F9002002F01FF9972026
:1036F00002F01CF9002002F019F9A62002F016F9D8
:10370000002002F013F9B72002F010F9002002F0B7
:103710000DF9C22002F00AF9002002F007F9C720D3
:1037200002F004F9002002F001F9D12002F0FEF8C5
:10373000002002F0FBF8D62002F0F8F8002002F09A
:10374000F5F8DD2002F0F2F8002002F0EFF8F320A7
:1037500002F0ECF8002002F0E9F8E32002F0F2F8C1
:10376000052002F0E3F8002002F0E0F80A2002F061
:10377000DDF8002002F0DAF81C2002F0D7F8002073
:1037800002F0D4F8332002F0D1F8002002F0CEF895
:10379000442002F0CBF8002002F0C8F8502002F0DC
:1037A000C5F8002002F0C2F8622002F0BFF8002045
:1037B00002F0BCF8782002F0B9F8002002F0B6F868
:1037C000882002F0B3F8002002F0B0F8972002F051
:1037D000ADF8002002F0AAF8A62002F0A7F8002019
:1037E00002F0A4F8B72002F0A1F8002002F09EF841
:1037F000C22002F09BF8002002F098F8C72002F0E7
:1038000095F8002002F092F8D12002F08FF8002005
:1038100002F08CF8D52002F089F8002002F086F83A
:10382000DD2002F083F8002002F080F8F32002F09F
:103830007DF8002002F07AF8E42002F083F80120FD
:1038400002F074F8002002F071F8012002F06EF826
:10385000002002F06BF8022002F068F8002002F06D
:1038600065F82A2002F062F8002002F05FF83C20A0
:1038700002F05CF8002002F059F84B2002F056F8F4
:10388000002002F053F85D2002F050F8002002F012
:103890004DF8742002F04AF8002002F047F8842026
:1038A00002F044F8002002F041F8932002F03EF8C4
:1038B000002002F03BF8A22002F038F8002002F0CD
:1038C00035F8B32002F032F8002002F02FF8BE20C5
:1038D00002F02CF8002002F029F8C42002F026F8AB
:1038E000002002F023F8CD2002F020F8002002F0A2
:1038F0001DF8D32002F01AF8002002F017F8DD209E
:1039000002F014F8002002F011F8F32002F00EF893
:10391000002002F00BF8E52002F014F8002002F07D
:1039200005F8002002F002F8002001F0FFFF00205F
:1039300001F0FCFF022001F0F9FF002001F0F6FF8A
:10394000292001F0F3FF002001F0F0FF3C2001F0FE
:10395000EDFF002001F0EAFF4B2001F0E7FF00201F
:1039600001F0E4FF5D2001F0E1FF002001F0DEFF47
:10397000742001F0DBFF002001F0D8FF842001F06B
:10398000D5FF002001F0D2FF932001F0CFFF0020EF
:1039900001F0CCFFA22001F0C9FF002001F0C6FF1A
:1039A000B32001F0C3FF002001F0C0FFBE2001F0F2
:1039B000BDFF002001F0BAFFC42001F0B7FF0020D6
:1039C00001F0B4FFCD2001F0B1FF002001F0AEFF07
:1039D000D32001F0ABFF002001F0A8FFDC2001F0B4
:1039E000A5FF002001F0A2FFF32001F09FFF0020BF
:1039F00001F09CFFE62001F0A5FF112001F096FFE9
:103A0000002001F093FF342001F090FF002001F02E
:103A10008DFF562001F08AFF002001F087FF7620FD
:103A200001F084FF002001F081FF772001F07EFF8C
:103A3000002001F07BFF662001F078FF002001F0FC
:103A400075FF882001F072FF002001F06FFF9920C0
:103A500001F06CFF002001F069FFBB2001F066FF60
:103A6000002001F063FF992001F060FF002001F0C9
:103A70005DFF662001F05AFF002001F057FF55203E
:103A800001F054FF002001F051FF552001F04EFFDE
:103A9000002001F04BFF452001F048FF002001F01D
:103AA00045FF432001F042FF002001F03FFF44208A
:103AB00001F03CFF002001F039FFE72001F042FF58
:103AC000322001F033FF002001F030FF552001F0DB
:103AD0002DFF002001F02AFF762001F027FF0020B3
:103AE00001F024FF662001F021FF002001F01EFFFD
:103AF000672001F01BFF002001F018FF672001F094
:103B000015FF002001F012FF872001F00FFF0020B9
:103B100001F00CFF992001F009FF002001F006FFE1
:103B2000BB2001F003FF002001F000FF992001F00D
:103B3000FDFE002001F0FAFE772001F0F7FE0020E4
:103B400001F0F4FE442001F0F1FE002001F0EEFE51
:103B5000562001F0EBFE002001F0E8FE232001F0EA
:103B6000E5FE002001F0E2FE332001F0DFFE002040
:103B700001F0DCFE452001F0D9FE002001F0D6FE68
:103B8000E82001F0DFFE002001F0D0FE002001F06F
:103B9000CDFE992001F0CAFE002001F0C7FE87206B
:103BA00001F0C4FE002001F0C1FE882001F0BEFE3D
:103BB000002001F0BBFE772001F0B8FE002001F0EC
:103BC000B5FE662001F0B2FE002001F0AFFE8820B5
:103BD00001F0ACFE002001F0A9FEAA2001F0A6FE33
:103BE000002001F0A3FEBB2001F0A0FE002001F0A8
:103BF0009DFE992001F09AFE002001F097FE6620BC
:103C000001F094FE002001F091FE552001F08EFE9F
:103C1000002001F08BFE552001F088FE002001F00D
:103C200085FE442001F082FE002001F07FFE44204A
:103C300001F07CFE002001F079FE552001F076FEB7
:103C4000002001F073FEE92001F07CFEAA2001F0C3
:103C50006DFE002001F06AFE002001F067FE0020EA
:103C600001F064FE002001F06DFEAA2001F05EFE6E
:103C7000CF2001F067FE002001F058FE002001F087
:103C800055FE002001F052FE002001F04FFE002002
:103C900001F04CFE002001F049FE002001F046FE3C
:103CA000002001F043FE002001F040FE002001F062
:103CB0003DFE002001F03AFE002001F037FE00201A
:103CC00001F034FE002001F031FE002001F02EFE54
:103CD000002001F02BFE002001F028FEF02001F072
:103CE00031FE002001F022FE502001F01FFE0020D6
:103CF00001F01CFE002001F019FE002001F016FE6C
:103D0000F32001F01FFE002001F010FEF92001F069
:103D100019FE062001F00AFE102001F007FE2920FE
:103D200001F004FE002001F001FE3A2001F00AFE3D
:103D3000552001F0FBFD112001F004FE6420FDF789
:103D400053F8292001F0FEFD352001F0FBFD002095
:103D500001F0ECFD512001F0F5FDFF2001F0E6FD42
:103D6000532001F0EFFD2C2001F0E0FD552001F083
:103D7000E9FD822001F0DAFDBDE810402C2001F0C1
:103D8000E1BD2DE9F05F4FF470445521204601F06C
:103D9000EFFD651CAA21284601F0EAFDA61C522170
:103DA000304601F0E5FDE71C0821384601F0E0FD52
:103DB0004FF204080121404601F0DAFD4FF436438A
:103DC0003421184601F0D4FD34214BF2016001F09A
:103DD000CFFD34214BF2026001F0CAFD4FF43049AF
:103DE0000D21484601F0C4FD4BF2010A0D21504659
:103DF00001F0BEFD4BF2020B0D21584601F0B8FD5B
:103E000024214FF4374001F0B3FD24214BF201701F
:103E100001F0AEFD24214BF2027001F0A9FD0D214D
:103E20004FF4314001F0A4FD0D214BF2011001F0DF
:103E30009FFD0D214BF2021001F09AFD24214FF459
:103E4000384001F095FD24214BF6010001F090FD72
:103E500024214BF6020001F08BFD00214FF432408B
:103E600001F086FD24214FF4394001F081FD242129
:103E70004BF6011001F07CFD24214BF6021001F0FD
:103E800077FD05214FF4334001F072FD05214BF21F
:103E9000013001F06DFD05214BF2023001F068FDAB
:103EA00034214FF43A4001F063FD34214BF60120F8
:103EB00001F05EFD34214BF6022001F059FD0B218B
:103EC0004FF4354001F054FD0B214BF2015001F04D
:103ED0004FFD0B214BF2025001F04AFD00214FF43F
:103EE0003C4001F045FDA3214BF6014001F040FDAF
:103EF00000214BF6024001F03BFD00214FF43D4014
:103F000001F036FDA3214BF6015001F031FD0021F7
:103F10004BF6025001F02CFD00214FF43E4001F021
:103F200027FD37214BF6016001F022FD00214FF4FF
:103F3000514001F01DFD37214DF2011001F018FD37
:103F400000214DF2021001F013FD53214DF2031038
:103F500001F00EFD00214DF2041001F009FD792160
:103F60004DF2051001F004FD00214DF2061001F0A4
:103F7000FFFC97214DF2071001F0FAFC00214DF2F1
:103F8000081001F0F5FCB1214DF2091001F0F0FC30
:103F900000214DF20A1001F0EBFCD5214DF20B107F
:103FA00001F0E6FC00214DF20C1001F0E1FCF421DF
:103FB0004DF20D1001F0DCFC01214DF20E1001F06C
:103FC000D7FC23214DF20F1001F0D2FC01214DF25C
:103FD000101001F0CDFC49214DF2111001F0C8FC88
:103FE00001214DF2121001F0C3FC87214DF2131094
:103FF00001F0BEFC01214DF2141001F0B9FCB62114
:104000004DF2151001F0B4FC02214DF2161001F032
:10401000AFFC00214DF2171001F0AAFC02214DF275
:10402000181001F0A5FC3B214DF2191001F0A0FC85
:1040300002214DF21A1001F09BFC3D214DF21B10A4
:1040400001F096FC02214DF21C1001F091FC75214B
:104050004DF21D1001F08CFC02214DF21E1001F0FA
:1040600087FCB1214DF21F1001F082FC02214DF2BC
:10407000201001F07DFCD5214DF2211001F078FCDB
:1040800003214DF2221001F073FC09214DF223109F
:1040900001F06EFC03214DF2241001F069FC28218F
:1040A0004DF2251001F064FC03214DF2261001F0C1
:1040B0005FFC52214DF2271001F05AFC03214DF212
:1040C000281001F055FC6B214DF2291001F050FC35
:1040D00003214DF22A1001F04BFC8D214DF22B10E3
:1040E00001F046FC03214DF22C1001F041FCA2210D
:1040F0004DF22D1001F03CFC03214DF22E1001F089
:1041000037FCBB214DF22F1001F032FC03214DF2A0
:10411000301001F02DFCC1214DF2311001F028FCCE
:1041200003214DF2321001F023FCC1214DF2331076
:1041300001F01EFC00214FF4524001F019FC372120
:104140004DF2012001F014FC00214DF2022001F09B
:104150000FFC53214DF2032001F00AFC00214DF227
:10416000042001F005FC79214DF2052001F000FC4E
:1041700000214DF2062001F0FBFB97214DF20720B4
:1041800001F0F6FB00214DF2082001F0F1FBB12116
:104190004DF2092001F0ECFB00214DF20A2001F064
:1041A000E7FBD5214DF20B2001F0E2FB00214DF29F
:1041B0000C2001F0DDFBF4214DF20D2001F0D8FBC5
:1041C00001214DF20E2001F0D3FB23214DF20F20EF
:1041D00001F0CEFB01214DF2102001F0C9FB492175
:1041E0004DF2112001F0C4FB01214DF2122001F02B
:1041F000BFFB87214DF2132001F0BAFB01214DF2E4
:10420000142001F0B5FBB6214DF2152001F0B0FBF2
:1042100002214DF2162001F0ABFB00214DF21720D8
:1042200001F0A6FB02214DF2182001F0A1FB3B2179
:104230004DF2192001F09CFB02214DF21A2001F0F1
:1042400097FB3D214DF21B2001F092FB02214DF224
:104250001C2001F08DFB75214DF21D2001F088FB23
:1042600002214DF21E2001F083FBB1214DF21F20EF
:1042700001F07EFB02214DF2202001F079FBD521D7
:104280004DF2212001F074FB03214DF2222001F0B8
:104290006FFB09214DF2232001F06AFB03214DF24F
:1042A000242001F065FB28214DF2252001F060FB60
:1042B00003214DF2262001F05BFB52214DF2272015
:1042C00001F056FB03214DF2282001F051FB6B2138
:1042D0004DF2292001F04CFB03214DF22A2001F080
:1042E00047FB8D214DF22B2001F042FB03214DF2C3
:1042F0002C2001F03DFBA2214DF22D2001F038FBD6
:1043000003214DF22E2001F033FBBB214DF22F2073
:1043100001F02EFB03214DF2302001F029FBC121D9
:104320004DF2312001F024FB03214DF2322001F047
:104330001FFBC1214DF2332001F01AFB00214FF485
:10434000534001F015FB37214DF2013001F010FB15
:1043500000214DF2023001F00BFB53214DF20330EE
:1043600001F006FB00214DF2043001F001FB792140
:104370004DF2053001F0FCFA00214DF2063001F05B
:10438000F7FA97214DF2073001F0F2FA00214DF2D1
:10439000083001F0EDFAB1214DF2093001F0E8FAF0
:1043A00000214DF20A3001F0E3FAD5214DF20B3035
:1043B00001F0DEFA00214DF20C3001F0D9FAF421BF
:1043C0004DF20D3001F0D4FA01214DF20E3001F022
:1043D000CFFA23214DF20F3001F0CAFA01214DF23C
:1043E000103001F0C5FA49214DF2113001F0C0FA48
:1043F00001214DF2123001F0BBFA87214DF213304A
:1044000001F0B6FA01214DF2143001F0B1FAB621F3
:104410004DF2153001F0ACFA02214DF2163001F0E8
:10442000A7FA00214DF2173001F0A2FA02214DF255
:10443000183001F09DFA3B214DF2193001F098FA45
:1044400002214DF21A3001F093FA3D214DF21B305A
:1044500001F08EFA02214DF21C3001F089FA75212B
:104460004DF21D3001F084FA02214DF21E3001F0B0
:104470007FFAB1214DF21F3001F07AFA02214DF29C
:10448000203001F075FAD5214DF2213001F070FA9B
:1044900003214DF2223001F06BFA09214DF2233055
:1044A00001F066FA03214DF2243001F061FA28216F
:1044B0004DF2253001F05CFA03214DF2263001F077
:1044C00057FA52214DF2273001F052FA03214DF2F2
:1044D000283001F04DFA6B214DF2293001F048FAF5
:1044E00003214DF22A3001F043FA8D214DF22B3099
:1044F00001F03EFA03214DF22C3001F039FAA221ED
:104500004DF22D3001F034FA03214DF22E3001F03E
:104510002FFABB214DF22F3001F02AFA03214DF280
:10452000303001F025FAC1214DF2313001F020FA8E
:1045300003214DF2323001F01BFAC1214DF233302C
:1045400001F016FA00214FF4544001F011FA37211E
:104550004DF2014001F00CFA00214DF2024001F051
:1045600007FA53214DF2034001F002FA00214DF207
:10457000044001F0FDF979214DF2054001F0F8F910
:1045800000214DF2064001F0F3F997214DF207406A
:1045900001F0EEF900214DF2084001F0E9F9B121F6
:1045A0004DF2094001F0E4F900214DF20A4001F01A
:1045B000DFF9D5214DF20B4001F0DAF900214DF27F
:1045C0000C4001F0D5F9F4214DF20D4001F0D0F985
:1045D00001214DF20E4001F0CBF923214DF20F40A5
:1045E00001F0C6F901214DF2104001F0C1F9492155
:1045F0004DF2114001F0BCF901214DF2124001F0E1
:10460000B7F987214DF2134001F0B2F901214DF2C3
:10461000144001F0ADF9B6214DF2154001F0A8F9B2
:1046200002214DF2164001F0A3F900214DF217408E
:1046300001F09EF902214DF2184001F099F93B2159
:104640004DF2194001F094F902214DF21A4001F0A7
:104650008FF93D214DF21B4001F08AF902214DF204
:104660001C4001F085F975214DF21D4001F080F9E3
:1046700002214DF21E4001F07BF9B1214DF21F40A5
:1046800001F076F902214DF2204001F071F9D521B7
:104690004DF2214001F06CF903214DF2224001F06E
:1046A00067F909214DF2234001F062F903214DF22F
:1046B000244001F05DF928214DF2254001F058F920
:1046C00003214DF2264001F053F952214DF22740CB
:1046D00001F04EF903214DF2284001F049F96B2118
:1046E0004DF2294001F044F903214DF22A4001F036
:1046F0003FF98D214DF22B4001F03AF903214DF2A3
:104700002C4001F035F9A2214DF22D4001F030F995
:1047100003214DF22E4001F02BF9BB214DF22F4029
:1047200001F026F903214DF2304001F021F9C121B9
:104730004DF2314001F01CF903214DF2324001F0FD
:1047400017F9C1214DF2334001F012F900214FF465
:10475000554001F00DF937214DF2015001F008F9F3
:1047600000214DF2025001F003F953214DF20350A4
:1047700001F0FEF800214DF2045001F0F9F8792122
:104780004DF2055001F0F4F800214DF2065001F011
:10479000EFF897214DF2075001F0EAF800214DF2B1
:1047A000085001F0E5F8B1214DF2095001F0E0F8B0
:1047B00000214DF20A5001F0DBF8D5214DF20B50EB
:1047C00001F0D6F800214DF20C5001F0D1F8F4219F
:1047D0004DF20D5001F0CCF801214DF20E5001F0D8
:1047E000C7F823214DF20F5001F0C2F801214DF21C
:1047F000105001F0BDF849214DF2115001F0B8F808
:1048000001214DF2125001F0B3F887214DF21350FF
:1048100001F0AEF801214DF2145001F0A9F8B621D3
:104820004DF2155001F0A4F802214DF2165001F09E
:104830009FF800214DF2175001F09AF802214DF235
:10484000185001F095F83B214DF2195001F090F805
:1048500002214DF21A5001F08BF83D214DF21B5010
:1048600001F086F802214DF21C5001F081F875210B
:104870004DF21D5001F07CF802214DF21E5001F066
:1048800077F8B1214DF21F5001F072F802214DF27C
:10489000205001F06DF8D5214DF2215001F068F85B
:1048A00003214DF2225001F063F809214DF223500B
:1048B00001F05EF803214DF2245001F059F828214F
:1048C0004DF2255001F054F803214DF2265001F02D
:1048D0004FF852214DF2275001F04AF803214DF2D2
:1048E000285001F045F86B214DF2295001F040F8B5
:1048F00003214DF22A5001F03BF88D214DF22B504F
:1049000001F036F803214DF22C5001F031F8A221CC
:104910004DF22D5001F02CF803214DF22E5001F0F4
:1049200027F8BB214DF22F5001F022F803214DF260
:10493000305001F01DF8C1214DF2315001F018F84E
:1049400003214DF2325001F013F8C1214DF23350E2
:1049500001F00EF800214FF4564001F009F837211C
:104960004DF2016001F004F800214DF2026000F008
:10497000FFFF53214DF2036000F0FAFF00214DF2DA
:10498000046000F0F5FF79214DF2056000F0F0FFC2
:1049900000214DF2066000F0EBFF97214DF2076019
:1049A00000F0E6FF00214DF2086000F0E1FFB121C8
:1049B0004DF2096000F0DCFF00214DF20A6000F0CA
:1049C000D7FFD5214DF20B6000F0D2FF00214DF250
:1049D0000C6000F0CDFFF4214DF20D6000F0C8FF37
:1049E00001214DF20E6000F0C3FF23214DF20F6054
:1049F00000F0BEFF01214DF2106000F0B9FF492127
:104A00004DF2116000F0B4FF01214DF2126000F090
:104A1000AFFF87214DF2136000F0AAFF01214DF294
:104A2000146000F0A5FFB6214DF2156000F0A0FF64
:104A300002214DF2166000F09BFF00214DF217603D
:104A400000F096FF02214DF2186000F091FF3B212B
:104A50004DF2196000F08CFF02214DF21A6000F057
:104A600087FF3D214DF21B6000F082FF02214DF2D5
:104A70001C6000F07DFF75214DF21D6000F078FF95
:104A800002214DF21E6000F073FFB1214DF21F6054
:104A900000F06EFF02214DF2206000F069FFD52189
:104AA0004DF2216000F064FF03214DF2226000F01E
:104AB0005FFF09214DF2236000F05AFF03214DF200
:104AC000246000F055FF28214DF2256000F050FFD2
:104AD00003214DF2266000F04BFF52214DF227607A
:104AE00000F046FF03214DF2286000F041FF6B21EA
:104AF0004DF2296000F03CFF03214DF22A6000F0E6
:104B000037FF8D214DF22B6000F032FF03214DF273
:104B10002C6000F02DFFA2214DF22D6000F028FF47
:104B200003214DF22E6000F023FFBB214DF22F60D8
:104B300000F01EFF03214DF2306000F019FFC1218B
:104B40004DF2316000F014FF03214DF2326000F0AD
:104B50000FFFC1214DF2336000F00AFF55212046BE
:104B600000F006FFAA21284600F002FF522130463D
:104B700000F0FEFE0821384600F0FAFE0021404613
:104B800000F0F6FE0021484600F0F2FE05215046F6
:104B900000F0EEFE0221584600F0EAFE05214BF23D
:104BA000030000F0E5FE02214BF2040000F0E0FEFD
:104BB0000821184600F0DCFE50214FF4354000F08B
:104BC000D7FE0521184600F0D3FE00214FF43740F0
:104BD00000F0CEFE00214BF2017000F0C9FE012171
:104BE0004FF4384000F0C4FE05214BF6010000F000
:104BF000BFFE05214BF6020000F0BAFE05214BF680
:104C0000030000F0B5FE02214FF43C4000F0B0FE7E
:104C100000214BF6014000F0ABFE00214BF60240B4
:104C200000F0A6FE03214FF44C4000F0A1FE00214D
:104C30004CF6014000F09CFE00214CF6024000F0D2
:104C400097FE01214FF43D4000F092FE84214BF687
:104C5000015000F08DFE07214BF6025000F088FE57
:104C600031214BF6035000F083FE00214BF6045037
:104C700000F07EFE01214FF43A4000F079FEAA21B7
:104C80004FF47F4000F074FE55214FF6017000F0A4
:104C90006FFE25214FF6027000F06AFE01214FF6EB
:104CA000037000F065FE40214FF4585000F060FEA4
:104CB00000214FF4545000F05BFE05214FF4685082
:104CC00000F056FE4FF4885000F03CFE7820FCF7D0
:104CD0008BF84FF4245000F035FE0A20FCF784F8DE
:104CE000BDE8F05F4FF4305000F02CBE10B5E2206C
:104CF00000F028FE1D2000F019FE022000F016FE34
:104D0000042000F013FE0120FCF76EF8E02000F014
:104D100019FE012000F00AFE0A20FCF765F8E020E9
:104D200000F010FE032000F001FE0C20FCF75CF800
:104D3000012000F007FE0A20FCF756F8E62000F0FC
:104D400001FE2F2000F0F2FDFF2000F0EFFDFF201C
:104D500000F0ECFDB02000F0F5FD202000F0E6FDB5
:104D6000002000F0E3FD032000F0E0FD40F21F30E2
:104D700000F0DCFD012000F0D9FD40F2DF1000F072
:104D8000D5FD002000F0D2FDB42000F0DBFD0420B2
:104D900000F0CCFD40F21F4000F0C8FD002000F004
:104DA000C5FD2E2000F0C2FD002000F0BFFD002058
:104DB00000F0BCFD002000F0B9FD002000F0B6FDC1
:104DC000B62000F0BFFD022000F0B0FD4FF40370EC
:104DD00000F0ACFD002000F0A9FD172000F0A6FDBA
:104DE000152000F0A3FD002000F0A0FD002000F041
:104DF0009DFDF02000F0A6FD032000F097FD292086
:104E000000F0A0FDD02000F09DFD002000F08EFD00
:104E1000BE2000F097FD052000F088FDFE2000F088
:104E200085FD012000F082FD002000F07FFD0020C4
:104E300000F07CFD002000F079FDB82000F082FD3C
:104E4000032000F073FD012000F070FDBA2000F097
:104E500079FDBDE81040012000F068BD10B51120BB
:104E600000F070FD7820FBF7BFFF362000F06AFDF0
:104E7000002000F05BFD3A2000F064FD052000F00A
:104E800055FDB22000F05EFD0C2000F04FFD0C201F
:104E900000F04CFD002000F049FD332000F046FDFD
:104EA000332000F043FDB72000F04CFD352000F02A
:104EB0003DFDBB2000F046FD322000F037FDC02054
:104EC00000F040FD0C2000F031FDC22000F03AFD62
:104ED000012000F02BFDC32000F034FD102000F075
:104EE00025FDC42000F02EFD202000F01FFDC6206F
:104EF00000F028FD0F2000F019FDD02000F022FD69
:104F0000A42000F013FDA12000F010FDE02000F02F
:104F100019FDD02000F00AFD002000F007FD02205E
:104F200000F004FD072000F001FD0A2000F0FEFC67
:104F3000282000F0FBFC322000F0F8FC442000F0B8
:104F4000F5FC422000F0F2FC062000F0EFFC0E2001
:104F500000F0ECFC122000F0E9FC142000F0E6FC6C
:104F6000172000F0E3FCE12000F0ECFCD02000F082
:104F7000DDFC002000F0DAFC022000F0D7FC072066
:104F800000F0D4FC0A2000F0D1FC282000F0CEFC78
:104F9000312000F0CBFC542000F0C8FC472000F08A
:104FA000C5FC0E2000F0C2FC1C2000F0BFFC172046
:104FB00000F0BCFC1B2000F0B9FC1E2000F0B6FC89
:104FC0002A2000F0BFFC002000F0B0FC002000F020
:104FD000ADFC002000F0AAFCEF2000F0A7FC2B2085
:104FE00000F0B0FC002000F0A1FC002000F09EFCCE
:104FF000012000F09BFC3F2000F098FCBDE8104031
:10500000292000F09FBC10B5112000F09BFC7820F7
:10501000FBF7EAFE362000F095FC482000F086FC05
:105020003A2000F08FFC552000F080FCF02000F0CA
:1050300089FCC32000F07AFCF02000F083FC96206D
:1050400000F074FCB42000F07DFC012000F06EFC48
:10505000B62000F077FC0A2000F068FCA22000F0E7
:1050600065FCB72000F06EFCC62000F05FFCB920A4
:1050700000F068FC022000F059FCE02000F056FC33
:10508000C02000F05FFC802000F050FC162000F0F3
:105090004DFCC12000F056FC192000F047FCC22056
:1050A00000F050FCA72000F041FCC52000F04AFCB5
:1050B000162000F03BFCE82000F044FC402000F00B
:1050C00035FC8A2000F032FC002000F02FFC00208C
:1050D00000F02CFC292000F029FC192000F026FC0F
:1050E000A52000F023FC332000F020FCE02000F09D
:1050F00029FCF02000F01AFC072000F017FC0D201E
:1051000000F014FC042000F011FC052000F00EFC5F
:10511000142000F00BFC362000F008FC542000F0B6
:1051200005FC4C2000F002FC382000F0FFFB1320AF
:1051300000F0FCFB142000F0F9FB2E2000F0F6FB41
:10514000342000F0F3FBE12000F0FCFBF02000F045
:10515000EDFB102000F0EAFB142000F0E7FB0E202E
:1051600000F0E4FB0C2000F0E1FB082000F0DEFB87
:10517000352000F0DBFB442000F0D8FB4C2000F091
:10518000D5FB262000F0D2FB102000F0CFFB122030
:1051900000F0CCFB2C2000F0C9FB322000F0C6FB55
:1051A000F02000F0CFFB3C2000F0C0FBF02000F02E
:1051B000C9FB692000F0BAFB7820FBF715FE21201F
:1051C00000F0C0FBBDE81040292000F0BBBB000090
:1051D0002DE9F0438146A2EB09020798521C1F46B5
:1051E00095B20C4686B24FF0D84811E021464846A9
:1051F00000F028FA00F0B2FB0020414604E000BFB6
:10520000A1F88060401C80B2A842F9D3641CA4B20B
:10521000BC42EBD9BDE8F0832DE9F04F87B03220D6
:10522000FBF7E2FDD32000F08DFB00F03BF9944C3E
:10523000A08000F037F9A08000F034F94FF6FF713C
:1052400001EA0020A08000F02DF9A18849F2413642
:105250000843A08047F2897545F2103747F29678E7
:1052600045F2105949F6060A41F6631BB0427DD05B
:10527000042000F067FB00F015F9A08000F012F99F
:10528000A08000F00FF94FF6FF7101EA0020A08026
:1052900000F008F9A1880843A0F50541A080523923
:1052A00065D0A84262D0D42000F04CFB00F0FAF8A0
:1052B000A08000F0F7F8A08000F0F4F84FF6FF713E
:1052C00001EA0020A08000F0EDF8A1880843A0804A
:1052D000B8427ED0D32000F035FB00F0E3F8A08088
:1052E00000F0E0F8A08000F0DDF84FF6FF7101EA71
:1052F0000020A08000F0D6F8A1880843A080404597
:1053000067D055214FF4704000F032FBAA214FF2D4
:10531000010000F02DFB52214FF2020000F028FBAB
:1053200008214FF2030000F023FB01214FF204009B
:1053300000F01EFB4FF4454000F004FB00F0B2F813
:105340004FF6FF7101EA0020A0804CF2015000F0FE
:10535000F9FA00F0A7F8A1880843A0800520FBF720
:1053600043FDA188494534D0D32001E02CE02CE056
:1053700000F0E8FA00F096F8A08000F093F8A08022
:1053800000F090F84FF6FF7101EA0020A08000F0D5
:1053900089F8A1880843A08050451AD0A12000F0C8
:1053A000D1FA00F07FF8A08000F07CF84FF6FF7192
:1053B00001EA0020A08000F075F8A1880843A0F55C
:1053C000AE41A080613902D003E0A58001E0A4F8DD
:1053D00004B0A1882BA0FCF785FFA088A84202D1C9
:1053E000FFF73CFD1FE0B04202D1FDF798FA1AE04A
:1053F000B84202D1FDF74BFD15E0404502D1FFF761
:1054000002FE10E0484502D1FEF7BBFC0BE0504520
:1054100002D1FDF79BFB06E0584504D1FFF766FC7F
:10542000642000F05BFA1648A1885038A94201D1E7
:1054300003210EE0514503D0B14201D0494501D1CD
:10544000022106E0B94203D0414501D0594508D1B7
:10545000012100910291036B826840686946FBF765
:10546000FDF80020FDF7DAF90122D1030848FBF727
:1054700026FE4FF6FF70FDF7B9F907B0BDE8F08FD3
:10548000800200204C43442049443A25780D0A000C
:10549000000402400246012000E05043491EC9B208
:1054A000FBD2704708B50220401EFDD24FF0D84015
:1054B000B0F88000ADF80000BDF8000008BD0000A5
:1054C00070B55F4C00232146A279898841F66316A6
:1054D000012A01D01AB10CE0B14202D109E0B14277
:1054E00007D1082805D2DFE800F0161812140C19AD
:1054F000100E082812D2DFE800F0110406080A0C8A
:105500000E1080230AE0402308E0C02306E0202399
:1055100004E0602302E0A02300E0E023362045F20F
:105520001055A94200D10002A1F51342413A07D01B
:10553000A1F5EE42893A03D0A1F5EE42963A01D1A7
:1055400043F00803194600F013FAA188B1420AD0CB
:1055500098062088628802D5904202D303E09042E8
:1055600001D9228060806089A94240D100F0EAF927
:10557000002000F0DBF96089401C80B200F0E2F905
:10558000002000F0D3F96089801C80B200F0DAF9C5
:105590002088401EC0F30F2000F0C8F96089C01CAD
:1055A00080B200F0CFF92078401EC0B200F0BEF902
:1055B000A08900F0C7F9002000F0B8F9A089401CCC
:1055C00080B200F0BFF9002000F0B0F9A089801C83
:1055D00080B200F0B7F96088401EC0F30F2000F0E1
:1055E000A5F9A089C01C80B200F0ACF921E000F060
:1055F000A9F9002000F09AF9002000F097F920881E
:10560000401EC0F30F2000F091F92078401EC0B278
:1056100000F08CF9A08900F095F9002000F086F9DF
:10562000002000F083F96088401EC0F30F2000F0D6
:105630007DF9A078BDE87040401EC0B200F076B998
:1056400080020020F0B53B4A0D460446060A9188C8
:1056500010462F0A4089A1F5C853633B16D0A1F527
:10566000AA43103B4CD000F06DF9304600F05EF9D3
:10567000E0B200F05BF9908900F064F9384600F080
:1056800055F9E8B2BDE8F04000F050B9917931B376
:1056900000F058F9304600F049F9E0B200F046F960
:1056A0001088401EC0F30F2000F040F91078401E13
:1056B0005FFA80F000F03AF9908900F043F938463B
:1056C00000F034F9E8B200F031F95088401EC0F320
:1056D0000F2000F02BF99078401EC0B2D2E711885D
:1056E000091B491E8CB200F02DF9002000F01EF9B4
:1056F000002000F01BF9200A00F018F9E0B2D9E709
:1057000000F020F9304600F011F95089401C80B2B9
:1057100000F018F9E0B200F009F9908900F012F9F0
:10572000384600F003F99089401C80B200F00AF975
:10573000A7E70000800200202DE9FF4F1D460C4620
:105740008B46580700D0012000EBD500690810FBFC
:1057500001F0203A00F0FF0AD0B20C2D0AD0102D33
:105760000CD0182D0ED0202D46D1244901EB8016E7
:1057700000203EE000EB4001214806E0214901EB1A
:105780000016F5E700EBC0011F4800EB8106EFE7CC
:1057900016F808704FF00009380601D50E9A03E09C
:1057A0000D9828B91948026821460098FDF7ACF811
:1057B0007806070E1648641CA4B24088A0421BD984
:1057C000A4EB0B00A8420AD100985C46401C80B2B2
:1057D00000900F480188009881420DD906E009F138
:1057E000010000F0FF09B9F1080FD5D308F101005D
:1057F000C0B280465045CBD3BDE8FF8FD4720008BD
:10580000145B0008885F000878650008100000201D
:10581000800200202DE9FF4F83B00026DDE910BA99
:105820001D4681463446B0464FEA5B0726E0281BFA
:10583000401EC1B20A20FFF72DFE0599B1FBF0F022
:105840000A21B0FBF1F201FB120026B9691E8C425D
:1058500001DA38B101263030C2B207FB049080B2C1
:105860005B4604E007FB049080B25B462022CDE952
:10587000008A0499FFF760FF641CE4B2AC42D6D3FF
:1058800007B0BDE8F08F2DE9FC4F044600F0FF099A
:1058900010190D46DDE90BB61FFA80F8581987B2CA
:1058A0004FF0000A13E0444503D305EB0B004C46D0
:1058B00085B2BD4210D20D985B46CDE900A02946C5
:1058C0002046FFF739FF04EB5B0084B2761C327888
:1058D000A2F120005E28E6D9BDE8FC8F10B5024693
:1058E000BE2000F02FF8052000F020F81046FAF74F
:1058F0001CFD9FED0C1B53EC112BFAF7A4FCFAF7DF
:1059000021FD80B200F012F8012000F00FF8FF2016
:1059100000F00CF8002000F009F8BDE8104000206D
:1059200000F004B8666666666666044001B5BDF8B8
:105930000000ADF80000BDF800004FF0D841A1F81C
:10594000800008BD01B5BDF80000ADF80000BDF84D
:1059500000004FF0D841A1F87E0008BD03484FF089
:10596000D8410089A1F87E00704700008002002025
:105970004FF0D84222F87E0F5180704786B0002445
:10598000FBF7B0FBFCF7AEFAFCF7F6F9FCF79AF977
:10599000FCF786FAFCF7ACF9FCF760F9FFF73CFC82
:1059A000FCF730FE102545A0CDE900504FF47846B5
:1059B0002B46C822322102961E20FFF764FF41A029
:1059C000CDE900501023C822462102961E20FFF781
:1059D0005AFF3FA0CDE900501023C8225A21029659
:1059E0001E20FFF750FF4FF6FF7716E03CA0CDE9F1
:1059F00000501023C8226E2102961E20FFF743FF9D
:105A0000C820FCF713FE9223EF226E211E20009780
:105A1000FFF7DEFBC820FCF709FEFCF75BFE002861
:105A2000E4D132A0CDE900501023C8226E210296A5
:105A30001E20FFF728FF30A0CDE900501F261023BD
:105A4000C822822102961E20FFF71DFF2DA0CDE95E
:105A500000501023C822962102961E20FFF713FF44
:105A6000DFF8AC900A274FF4007800BFB4FBF7F0E2
:105A700007FB1040A8B904A903A8FCF761FECDE913
:105A8000005602239DF80C2082214620FFF7C2FE1B
:105A9000CDE9005602239DF8102096214620FFF7FD
:105AA000B9FE0A20FCF7C2FD641CE4B2142CDDD15F
:105AB000002441464846FBF7FAFAD7E753544D33E2
:105AC0003200000044485431312054455354000002
:105AD00041544F4D40414C49454E54454B00000008
