:020000040800F2
:10000000900600209D01000887200008071E0008B8
:1000100085200008C90500088D24000800000000A4
:100020000000000000000000000000008B2000081D
:100030005506000800000000892000088D200008F7
:10004000B7010008B7010008B7010008B7010008B0
:10005000B7010008B7010008B7010008B7010008A0
:10006000B7010008B7010008B7010008B701000890
:10007000B7010008B7010008B7010008B701000880
:10008000B7010008B701000895040008B70100088F
:10009000B7010008B7010008B7010008B701000860
:1000A000B7010008B7010008B7010008B701000850
:1000B000B7010008B7010008B7010008B701000840
:1000C000B7010008B7010008B7010008B701000830
:1000D000B701000881240008B7010008B701000833
:1000E000B7010008B7010008B7010008B701000810
:1000F000B7010008B7010008B7010008B701000800
:10010000B7010008B7010008B7010008B7010008EF
:10011000B7010008B7010008B7010008B7010008DF
:10012000CD050008B7010008B7010008B7010008B5
:10013000B7010008B7010008B7010008B7010008BF
:10014000B7010008B7010008B7010008B7010008AF
:10015000B7010008B7010008B7010008B70100089F
:10016000B7010008B7010008B7010008B70100088F
:10017000B7010008B7010008B7010008000000003F
:10018000B7010008B7010008DFF80CD000F070F9E3
:1001900000480047095A000890060020064880479A
:1001A00006480047FEE7FEE7FEE7FEE7FEE7FEE75C
:1001B000FEE7FEE7FEE7FEE79D2100088901000853
:1001C0002DE9F05F0546002092469B46884606468C
:1001D000814640241BE0284641464746224600F01F
:1001E000D9F853465A46C01A914110D311461846C1
:1001F000224600F0C0F82D1A67EB01084F46224650
:100200000120002100F0B7F817EB00094E41201E35
:10021000A4F10104DFDC484631462A464346BDE8E6
:10022000F09FD2B201E000F8012B491EFBD27047CB
:100230000022F6E710B513460A4604461946FFF7B2
:10024000F0FF204610BD2DE9FE4F81EA030404F0C3
:10025000004421F0004100944FF0000B23F00043D4
:1002600050EA01045ED052EA03045BD0C3F30A549F
:10027000C1F30A552C44A4F2F3340194A0FB0254B8
:10028000C1F3130141F48011C3F3130343F480134A
:1002900001FB024400FB034E840A970A44EA81549E
:1002A00047EA8357A4FB076802958D0A05FB07857B
:1002B0004FEA932C04FB0C542705029D4FEA065885
:1002C00047EA1637B5EB08056EEB070C870E920E62
:1002D00047EA811742EA8312A7FB0201B6EB0B0142
:1002E00064EB00042B0D43EA0C335E1844EB1C5006
:1002F000DA465146E7FB0201C5F313044FEA0B331C
:1003000043EA14534FEA0432019C43EA0603A4F182
:100310000C040294009CCDE900B400F05AF803B03C
:10032000BDE8F08F00200146F9E70EB540F23341F9
:1003300002910021CDE900110A460B4600F049F870
:1003400003B000BDC1F30A5210B5C1F3130140F26E
:10035000FF3341F480119A4201DA002010BD40F2CF
:1003600033439A42A2F2334203DC524200F012F8C5
:1003700010BD904010BD202A04DB203A00FA02F1A3
:10038000002070479140C2F1200320FA03F3194383
:1003900090407047202A04DB203A21FA02F0002125
:1003A000704721FA02F3D040C2F120029140084385
:1003B0001946704710B5141E73F1000408DA401C8A
:1003C00041F1000192185B411A4301D120F0010074
:1003D00010BD2DE9F04D92469B4611B1B1FA81F264
:1003E00002E0B0FA80F220329046FFF7C4FF0446E4
:1003F0000F4640EA0A0041EA0B0153465A460843B9
:1004000013D0114653EA010019D0C8F140025046FA
:10041000FFF7C0FF05460E46504659464246FFF7D5
:10042000AAFF084305D0012004E020463946BDE874
:10043000F08D0020054346EAE0762C4337430A98C6
:100440006305E40AA0EB08000022FD0A44EA4754D1
:100450000A3002D500200146E9E70105101969417B
:10046000DDE9084500196941BDE8F04DA2E700004B
:10047000064C074D06E0E06840F0010394E80700F1
:1004800098471034AC42F6D3FFF782FE8C8A0008FE
:10049000AC8A0008014800F0FEB9000028000020E6
:1004A000464910B54A6822F440324A604A684368B7
:1004B0001A434A6001684A6822F480724A600168FF
:1004C0004A68036942EA03224A6001684A6822F0E6
:1004D00040724A6001684A6883681A434A6001684A
:1004E0008A6822F400628A6001688A68C3681A43D5
:1004F0008A60816A6FF07062D14201688A6822F076
:1005000070628A6001688A680CD0836A1A438A60C4
:1005100001688A6822F040528A6001688A68C36A6A
:100520001A4301E022F040528A6001688A6822F092
:1005300002028A6001688A68037E42EA43028A6096
:1005400090F82010002901684A680FD042F4006238
:100550004A6001684A6822F460424A6001684A6859
:10056000174C436A04EB43331A4301E022F4006260
:100570004A600168CA6A22F47002CA620168CA6AE3
:10058000838B104C04EB03531A43CA6201688A68D8
:1005900022F400728A6001688A6890F8303042EA7A
:1005A00043228A6001688A6822F480628A60016856
:1005B0008A68406942EA8020886010BD00230140BB
:1005C00000E0FFFF0000F0FFFEE70000014800F040
:1005D000ABBB00007000002001681823CAB2103ABB
:1005E000B2FBF3F2054B6FF30901032A9B5CC36571
:1005F00000D9091D81650846704700006C8A000813
:1006000010B5014600208B698A6A4FF0C07453B15F
:10061000B3F5005F15D072B1012A0CD0022A0AD0BE
:10062000032A09D104E01AB1012A06D0022A03D113
:10063000C96AC90100D5012010BDC96AA142FAD01A
:1006400010BD002AF7D0012AF2D0022AF3D0032AE3
:10065000F3D010BD704772B6FEE7000030B5B3F5B9
:10066000804F05D06FF0704140F82210002030BD5F
:100670008C690B688D6823434C688989240144EA9E
:100680000524234343EA014150F82230014C234022
:100690001943E9E70000F0CF10B50A6850F822309E
:1006A00023F0010340F822308C68082C23D000236B
:1006B0004A682243CC681C430B6922431A434B69A6
:1006C0000E4C1A43CB691A430B6A1A434B6A1A43FE
:1006D0008B6A1A43CB6A1A430B6B1A438B69134319
:1006E000CA6B09681A4350F82130A343134340F8FA
:1006F0002130002010BD4023DAE700007FFF0F000B
:1007000030B5D1E9003443EA04138C688D892402A2
:1007100044EA054423430C8A074D00EB820005EBB5
:10072000045423430C7D6D0105EB04648969234364
:100730000B434360002030BD0000F0FF7047000015
:1007400078B50024009490F83C20012A19D00122A9
:1007500080F83C200A6807230568092A13D9EE6847
:100760000A3A02EB420293409E43EE600B788A689D
:100770000A3B03EB43039A400368DD682A43DA60CF
:1007800010E0022078BD2E6902EB420293409E43A6
:100790002E610B788A6803EB43039A4003681D6956
:1007A0002A431A614A681F23072A13D205686E6B11
:1007B000521E02EB820293409E436E630B790A88BD
:1007C0005B1E92B203EB83039A4003685D6B2A437E
:1007D0005A6327E005680D2A12D22E6BD21F02EB56
:1007E000820293409E432E630B790A88DB1F92B2EC
:1007F00003EB83039A4003681D6B2A431A6311E0DD
:10080000EE6A0D3A02EB820293409E43EE620B7950
:100810000A880D3B92B203EB83039A400368DD6ABA
:100820002A43DA62164B0568144A9D4206D10D68C8
:10083000122D03D1556845F48005556005689D4229
:1008400018D10B68102B01D0112B13D1536843F42E
:1008500000035360096810290CD10A490A4A096843
:10086000B1FBF2F101EB8101490000E0491E00916A
:100870000029FBD180F83C40002078BD00230140D6
:10088000002001402000002040420F0070477047C8
:100890000068C06C704770B504460068066845681B
:1008A00016F0020F05F020012AD049B3216CC906C9
:1008B00003D4216C41F400712164816811F0405F20
:1008C00017D1217EA9B9C16A11F4700F02D08168D5
:1008D00049050ED4416821F020014160206C20F4CC
:1008E00080702064206CC00403D4206C40F00100B0
:1008F00020642046FFF7CAFF21686FF012000860ED
:1009000016F0040F05F0800132D089B3206CC006C8
:1009100003D4206C40F4005020642068816811F4F6
:10092000401F1ED1816B11F4401F02D08168490520
:1009300017D44168490514D4816811F0405F10D183
:10094000217E71B9416821F080014160206C20F462
:1009500080502064206CC00503D4206C40F001005E
:1009600020642046FFF7EAFE21686FF00C00086063
:1009700016F0010F05F040010FD071B1206800683A
:10098000C0070AD0206C40F480302064204600F07C
:1009900043F821686FF00100086016F0200F05F0A1
:1009A00080610ED000290CD0606C40F002006064C1
:1009B00020686FF0200505602046FFF768FF20687B
:1009C000056070BD70B504004FF0000503D0206CC9
:1009D000002610B107E0012070BD204600F01EF88F
:1009E000666484F83C60206CC00610D4206C20F44F
:1009F000885040F0020020642046FFF751FD6664F5
:100A0000206C20F0020040F00100206400E001258D
:100A100084F83C60284670BD7047000070B586B011
:100A2000064614216846FFF703FC224930688842D5
:100A30003DD121480025016841F4806101600068D2
:100A400000F4806005901C481438016841F02001D2
:100A500001600068694600F0200005908020009049
:100A60000320CDE90105154800F0FEFA154C1448A5
:100A700020608005C4E901050014C4E9035040006A
:100A800060618000A0614011C4E9070520466562ED
:100A900000F01AFA08B1FFF7DEFDB4630022114638
:100AA0001220A66300F054FC122000F043FC06B0B4
:100AB00070BD000000220140443802400014024092
:100AC00010640240700000202DE9F04104460068E7
:100AD0000D4681684FF0000749050BD58068C005B9
:100AE00008D5206C40F02000206484F83C70012080
:100AF000BDE8F08100F0BEFB064613E0681C11D093
:100B000025B100F0B7FB801BA8420BD92068006814
:100B1000800707D4206C40F00400206484F83C7007
:100B20000320E5E7206800688007E7D521686FF0BB
:100B300012000860206C40F4007020642068816816
:100B400011F0405F13D1217E89B9C16A11F4700F91
:100B500002D0806840050AD4206C20F480702064A4
:100B6000206CC00403D4206C40F0010020640020FD
:100B7000BEE7000018B50021009190F83C20012A42
:100B800007D0012280F83C2002689368DB0702D07E
:100B900011E0022018BD936843F0010393602E4AD0
:100BA0002E4B1268B2FBF3F202EB420200E0521E3F
:100BB0000092002AFBD102689368DB0742D0036CE5
:100BC00040F20164A34343F48073036453685B05FC
:100BD00005D5036C23F4005343F480530364036C82
:100BE000DB0404D5436C23F00603436400E0416456
:100BF00080F83C101A496FF02203136049680068BE
:100C0000CA06184906D0884224D1816811F0405F95
:100C100013D01FE08842F8D0134A904203D1D1F894
:100C20000423D206F1D0114A904213D1D1F8041313
:100C300001F01F011029E8D30CE0816841F08041E8
:100C4000816007E0016C41F010010164416C41F0EA
:100C500001014164002018BD2000002040420F0027
:100C600000230140002001400021014000220140FA
:100C70002DE9F0410446876D00F0FCFA064694F831
:100C800035000025022806D08020606584F83450A5
:100C90000120BDE8F0812068016821F016010160A3
:100CA0002068416921F080014161206C08B9A06C85
:100CB00020B12068016821F0080101602068016806
:100CC00021F0010101600CE000F0D4FA801B05283E
:100CD00007D920206065032084F8350084F834505B
:100CE000D7E720680068C007EED194F85C103F2079
:100CF0008840B860012084F8350084F83450002022
:100D0000C7E790F83510022903D080214165012002
:100D10007047052180F835100068016821F0010155
:100D200001600020704700002DE9F84304464FF0B1
:100D30000009CDF8009063484FF41651A56D006886
:100D4000B0FBF1F72E6894F85C10082000FA01F16E
:100D500031420FD021680A6852070BD50A6822F089
:100D600004020A6094F85C108840A860606D40F04E
:100D70000100606594F85C104FF0010808FA01F07A
:100D8000304208D021684969090604D5A860606D21
:100D900040F00200606594F85C1004208840304206
:100DA00008D021680968890704D5A860606D40F003
:100DB0000400606594F85C1010208840304218D020
:100DC00021680968090714D5A860206801684903EB
:100DD00004D50068000308D5A16C07E00168C905C7
:100DE00003D4016821F008010160216C09B120469B
:100DF000884794F85C1020208840304231D0216828
:100E00000968C9062DD5A86094F835000528206822
:100E1000016806D0490347D5006800031DD4616C02
:100E20001CE021F0160101602068416921F0800179
:100E30004161206C08B9A06C20B12068016821F0E4
:100E40000801016094F85C103F208840A86084F895
:100E5000358084F83490216D1FE0E16B09B12046A4
:100E60008847606D00282BD0606DC00714D0052026
:100E700084F835002068016821F0010101600098C4
:100E8000401C0090B84203D820680068C007F6D123
:100E900084F8358084F83490E16C002910D001B0DA
:100EA0002046BDE8F04308470168C905D5D401686C
:100EB00021F01001016084F8358084F83490CCE78B
:100EC000BDE8F883200000202DE9F041044600F041
:100ED000D1F906465CB1022084F83500002584F87B
:100EE00034502068016821F0010101600DE001200B
:100EF000BDE8F08100F0BEF9801B052805D920204F
:100F00006065032084F83500F2E720680068C007B8
:100F1000F0D12268116820480140D4E90103184348
:100F2000D4E903363343184363691843A36918436C
:100F3000E3691843236A18430843616A042903D10B
:100F4000D4E90B1319430843106020684069666AAE
:100F500020F0070130460E43012704280CD1A06A77
:100F60000643E06A40B12046FFF74AFB20B140202B
:100F7000606584F83570BAE7206846612046FFF75F
:100F80002BFB94F85C203F2191408160656584F8DB
:100F900035700020ACE700003F8010F070B50446CB
:100FA00000F068F90546601C02D00448007804444B
:100FB00000F060F9401BA042FAD370BD140000207D
:100FC0002DE9F04186B014216846FFF731F9204839
:100FD0000168002939D1012101601E4800240168FF
:100FE00041F00101016000684FF4805800F00100F9
:100FF0000C27CDF80080CDE9047003260225039666
:10100000CDE901546946144800F02EF84FF680707F
:10101000CDE9000502AA694682E8D0000F4800F039
:1010200023F84CF23370CDE9000502AA694682E844
:10103000D0000B4800F018F802AA694682E8D000F8
:10104000CDE90085074800F00FF806B0BDE8F08153
:101050000000002038380240001402400010024016
:10106000000C0240001802402DE9F84FDFF8BCA147
:101070000022012503264FF00F090AF1040BAAF103
:10108000040E00BF0B6805FA02F42340A34270D19E
:101090000F7907F00307012F01D0022F16D18768BF
:1010A0004FEA420806FA08FC27EA0C07D1F80CC000
:1010B0000CFA08FC4CEA070CC0F808C04768A743C4
:1010C0000C79C4F3001494403C4344600C79E4432D
:1010D000A4070AD0C4684FEA420C06FA0CF7BC43D6
:1010E0008F6807FA0CF72743C7600C7904F00304F4
:1010F000022C12D1D40800EB840CDCF820405707F6
:10110000FF0E09FA07F824EA0804D1F8108008FA5B
:1011100007F848EA0408CCF8208004684FEA420C3B
:1011200006FA0CF7BC430F7907F0030707FA0CF730
:10113000274307604C6814F4403F70D03C4C27684C
:1011400047F480472760246822F0030704F48044B2
:101150000094384C07EB040CDCF8084897074FEA7A
:10116000177809FA08F7BC43334FB84202D1002779
:1011700024E054E0314FB84201D101271EE0304F46
:10118000B84201D1022719E02E4FB84201D10327FE
:1011900014E02D4FB84201D104270FE02B4FB84285
:1011A00001D105270AE02A4FB84201D1062705E000
:1011B000284FB84201D1072700E0082707FA08F7AF
:1011C0002743CCF80878DAF800405746D1F804C035
:1011D0009C435FEACC2C00D51C433C60DBF800400C
:1011E0005F46D1F804C09C435FEA8C2C00D51C43B9
:1011F0003C60DEF800407746D1F804C09C435FEACB
:101200008C3C00D51C433C60084F083F3C68D1F83B
:1012100004C09C435FEACC3C00D51C433C60521C9C
:10122000102AFFF42FAFBDE8F88F0000083C014002
:1012300044380240003001400000024000040240F7
:1012400000080240000C024000100240001402405E
:1012500000180240001C0240426921EA02030A40D1
:1012600043EA0241816170470AB181617047090414
:10127000FBE7000001488068704700001400002070
:101280000248816802781144816070471400002090
:101290000B4810B5016841F400710160016841F428
:1012A00080610160016841F480710160032000F0F9
:1012B0006FF80F2000F006F800F024F8002010BDB1
:1012C000003C024070B50D4D04464FF47A71287809
:1012D000B1FBF0F00A490968B1FBF0F000F03AFB0D
:1012E00048B9102C07D200222146501E00F030F8D9
:1012F00000206C6070BD012070BD00001400002053
:10130000200000200A4808B5016841F480410160CE
:10131000006800F4804000900548001F016841F01B
:1013200080510160006800F08050009008BD00000E
:1013300044380240002809DB00F01F0201219140DF
:101340004009800000F1E020C0F800117047000063
:10135000F0B40E4B1B680C46C3F30223C3F1070520
:10136000042D00D90425191D072901D2002300E00E
:10137000DB1E012606FA05F1491E214099409E40D8
:10138000761E16403143F0BC01F092B80CED00E03F
:10139000064900F0070208684FF6FF03184040EACC
:1013A0000220034A10430860704700000CED00E083
:1013B0000000FA052DE9F0470E46050065D0DFF87C
:1013C0001481D8F80000F7B200F00700B04207D24D
:1013D00088F80070D8F8000000F00700B04254D13F
:1013E00028683D4C810712D5400703D5206840F49A
:1013F000E05020602878000703D5206840F4604062
:1014000020602068A96820F0F00008432060287858
:10141000C0072DD0304968680839012812D0022849
:1014200013D0032811D00968890700292DDA216813
:1014300021F0030101432160FFF71CFF814641F2C7
:10144000883A0EE009688903EFE709688901ECE74B
:10145000FFF710FFA0EB0901514502D90320BDE8B9
:10146000F0872068696800F00C00B0EB810FEFD1C5
:10147000D8F80010404601F00701B14207D90770C3
:10148000006800F00700B04201D00120E7E72878AB
:10149000400705D52068E96820F4E0500843206043
:1014A0002878000706D52068296920F4604040EAC2
:1014B000C100206000F038F82168084AC1F3031128
:1014C000515CC8400649086006480068FFF7FAFE0C
:1014D0000020C4E7003C024008380240748A00083B
:1014E0002000002018000020044805490068096811
:1014F000044AC1F38221515CC8407047200000209B
:1015000008380240848A00080448054900680968D0
:10151000044AC1F34231515CC840704720000020AA
:1015200008380240848A0008154810B5006810F099
:101530000C02144813D04110042A0FD0082A0ED1EF
:101540000F4C241F2268236802F03F025B0207D57C
:101550002068C0F38810A0FB010106E0084610BD1A
:101560002168C1F38811A1FB00010023FEF728FECA
:101570002168C1F30141491C4900B0FBF1F010BDE5
:10158000083802400024F4002DE9F84F04006ED022
:101590002078DFF84C93C007A9F104054AD009F17F
:1015A00004000168C1F38101012908D00068C0F37B
:1015B000810002280AD1D9F80000400206D5286827
:1015C000800337D560680028E1D033E06068B0F56B
:1015D000803F10D0B0F5A02F286810D020F48030C4
:1015E0002860286820F4802028606068A8B1FFF790
:1015F00041FE06460DE0286840F48030F4E740F4F0
:1016000080202860F7E700BFFFF734FE801B6428C6
:1016100073D828688003F7D50CE0FFF72BFE064649
:1016200005E000BFFFF726FE801B6428F0D828687D
:101630008003F7D42078DFF8AC8280074FF0000AEF
:101640003ED5A748001D016811F00C0F08D00068B6
:10165000C0F3810002280BD1D9F80000400207D462
:101660002868800716D5E068012800D112E033E130
:10167000E068B8B10120C8F80000FFF7FBFD06469E
:1016800005E000BFFFF7F6FD801B0228C0D82868E0
:101690008007F7D52868216920F0F80040EAC100EA
:1016A00028600DE0C8F800A0FFF7E4FD064604E05E
:1016B000FFF7E0FD801B02281FD828688007F7D4B9
:1016C0002078000722D5864F87486169703771B14D
:1016D00001210160FFF7CEFD064604E0FFF7CAFDD9
:1016E000801B022809D838688007F7D50EE0C0F8BB
:1016F00000A0FFF7BFFD064605E082E0FFF7BAFD58
:10170000801B02287DD838688007F7D420784007EE
:1017100068D5DFF8CCB100270BF13C0BDBF80000FB
:10172000C0000BD4DBF8001041F08051CBF8001062
:10173000DBF80000012700F0805000906B4E30680D
:10174000C00510D4306840F480703060FFF792FD1F
:10175000009005E0FFF78EFD0099401A022850D84E
:101760003068C005F6D55E4EA0686C3601280FD0F3
:101770000528306810D020F001003060306820F07B
:1017800004003060A068B8B1FFF774FD00900FE06E
:10179000306840F00100F4E740F004003060F7E703
:1017A000FFF768FD0099411A41F28830814266D8FE
:1017B00030688007F4D50EE0FFF75CFD009007E08D
:1017C000FFF758FD0099411A41F28830814256D8FE
:1017D00030688007F4D42FB1DBF8001021F080517D
:1017E000CBF80010A069C8B33D49091D0968C1F3D1
:1017F000810102294AD00228504607D0C8F860006B
:1018000000E03CE0FFF736FD04463BE04746C8F801
:101810006000FFF72FFD064605E000BFFFF72AFD39
:10182000801B02282BD828688001F7D4D4E907014F
:101830000843A16A2E4A490802EB0141626A41EA63
:101840008211084394F82C1040EA0161C9F8001095
:1018500001203866FFF70EFD044606E03EE000BFBB
:10186000FFF708FD001B022809D828688001F7D57A
:1018700034E000BFFFF7FEFC001B022802D9032062
:10188000BDE8F88F28688001F4D427E00128F7D05C
:10189000D9F80000E26900F4800191421CD1226A6B
:1018A00000F03F01914217D147F6C071626A0140D2
:1018B000B1EB821F10D1A26A4FF0FF3300F4403128
:1018C00003EB5202B1EB024F06D194F82C1000F05A
:1018D0007060B0EB016F01D00120D1E70020CFE7AD
:1018E0000438024000004742800E4742007000402A
:1018F0000000FFFF70B515460E46040003D094F8B3
:10190000490010B107E0012070BD002084F84800B4
:10191000204600F01DF804F108012068FEF7BCFE27
:101920003146A2682068FEF7EBFED4E901022946A1
:10193000236BFEF793FE2168A06851F8202042F047
:10194000010241F82020012084F84900002070BDE8
:10195000FFF736BB10B5401EB0F1807F01D30120E8
:1019600010BD4FF0E02460610F21601700F0A0FD72
:101970000020A06107202061002010BD7047704743
:10198000F8B5016804460868CA684B6910F00F0F83
:101990004FF0000559D003F0010602F49077374369
:1019A00065D0C10705D0D10503D5616C41F00101B7
:1019B0006164410705D5D90703D0616C41F002018C
:1019C0006164810705D5D90703D0616C41F004013A
:1019D0006164010707D502F02001314303D0616C37
:1019E00041F008016164616C00293AD0800604D599
:1019F000900602D5204600F007FC20684069616C23
:101A0000C0F38010090700D460B3204600F0D5FB76
:101A100020684069400621D52068143050E8001F36
:101A200021F0400140E80012002AF5D1E06BA8B196
:101A300072490165E06BFFF764F9002811D0E06B93
:101A4000016D01B0BDE8F040084783060FD593064D
:101A50000DD52046BDE8F84000F0D6BB2046FFF784
:101A60008EFFF8BD2046FFF78AFF6564F8BD266B40
:101A70002023012E7ED1C6067CD5D6067AD50868ED
:101A80004868009048694FF0020640064DD5E26B69
:101A9000106840684FF480770004000C3AD0A18DA4
:101AA000814237D9E085D069B8422DD020680C300A
:101AB00050E8001F21F4807140E80012002AF5D19F
:101AC0002068143050E8001F21F0010140E80012A6
:101AD000002AF5D12068143050E8001F21F04001A1
:101AE00040E80012002AF5D184F8423025632068CE
:101AF0000C3050E8001F21F0100140E80012002ACD
:101B0000F5D1E06BFFF7B4F86663A08DE18D401A64
:101B100081B206E0A18D8142A8D1D069B842A5D199
:101B200066632046FFF72AFFF8BDA08DE18D401ABD
:101B300081B2E08D0028F7D00029F5D020680C3064
:101B400050E8002F22F4907240E80027002FF5D1D2
:101B50002068143050E8002F22F0010240E80027EE
:101B6000002FF5D184F84230256320680C3050E80E
:101B7000002F00E006E022F0100240E80023002BD6
:101B8000F3D1CDE705062BD5150629D594F84100EC
:101B90002128C9D1A068B0F5805F01D12069B0B11A
:101BA000206A411C2162216800784860E08C401E58
:101BB0000004000CE084B7D12068C16821F08001E6
:101BC000C1602068C16841F04001C160F8BD206A71
:101BD0000088C0F308004860206A801C2062E5E7A6
:101BE0004006F3D55006F1D5CA68204622F04002DF
:101BF000CA6084F8413000F005F9F8BDAD21000855
:101C000070B5040004D094F84100002510B106E03E
:101C1000012070BD84F84050204600F023F82420B5
:101C200084F841002068C16821F40051C160204659
:101C300000F04CFB2068016921F4904101612068AB
:101C4000416921F02A0141612068C16841F40051D5
:101C5000C1606564202084F8410084F84200656317
:101C6000002070BD10B586B0044614216846FEF70A
:101C7000DFFA18492068884229D11748016841F0E5
:101C800010010160006800F010000590124814383F
:101C9000016841F0010101600068694600F001003F
:101CA00005904FF4C0600090022001900120029046
:101CB00003200390072004900848FFF7D5F900227D
:101CC00011462520FFF744FB2520FFF733FB06B024
:101CD00010BD0000001001404438024000000240E6
:101CE00090F84230202B01D00220704721B11AB168
:101CF0000023036300F070BB0120704730B400681C
:101D00001449884224D1144841880A0416D4024652
:101D10004C0412784FF0000304D50A2A0DD141F487
:101D2000004113E00D2A0FD0C1F30D040B4D491CE7
:101D300089B22A554180C72900D3438030BC012293
:101D400005490748FFF7CCBF41F480414180F5E7E2
:101D500030BC7047001001400C00002068010020DA
:101D6000200100202DE9F843044690F841009846F0
:101D700016460D46202802D00220BDE8F88385B122
:101D80007EB100206064212084F84100FFF772FAE0
:101D9000A6848146E684A0682027B0F5805F02D043
:101DA00003E00120E9E7206910B12E4600250EE08E
:101DB00000260CE08021204600F029FBA8B9C6B11E
:101DC00016F8010B21684860E08C401EE084E08C2E
:101DD0004B464FF00002CDF800800028EAD14FF0CA
:101DE0004001204600F013FB40B184F8417003200D
:101DF000C3E735F8020BC0F30800E3E784F841704D
:101E00000020BAE77047FEE71FB500211648009191
:101E100001910291134A039102604FF48032C0E9AC
:101E200001210161017680F82010104AC0E90A21E1
:101E30000124C461C16080F830104461FEF7C2FD26
:101E400008B1FEF708FC0520CDE900040720029048
:101E500069460548FEF774FC002801D0FEF7FBFB3D
:101E60001FBD000000220140280000200100000FDB
:101E7000094808B5016841F480010160006800224A
:101E800000F48000009011463820FFF761FABDE8A9
:101E900008403820FFF74EBA3038024010B58EB0F7
:101EA0001C216846FEF7C4F91C2107A8FEF7C0F9FB
:101EB0001A484FF020411022016019494160062163
:101EC00081600021C160C0E904128161C161130217
:101ED0000162C0E909139302C0E90B1341638163F6
:101EE00041640F203C230090CDE9010303AC112392
:101EF00084E80E0009240691CDE907400AA8099458
:101F000080E80E000D9107AA69460448FFF7F2FC2D
:101F1000002801D0FEF79FFB0EB010BDD0000020BE
:101F2000040100A02DE9F04F87B014216846FEF7A8
:101F30007FF940480025016841F010010160016807
:101F400001F010010591016841F020010160016874
:101F500001F020010591016841F0800101600168F4
:101F600001F080010591016841F001010160016803
:101F700001F001010591016841F002010160016871
:101F800001F002010591016841F00801016001685A
:101F900001F008010591016841F04001016000680D
:101FA000012200F04000DFF8909096020590314643
:101FB0004846FFF759F9DFF884A077010022394637
:101FC0005046FFF751F9DFF878B04FF4007800225F
:101FD00041465846FFF748F91C20CDE90005012489
:101FE000694602941748FFF73FF8CDE900640226DE
:101FF000CDE9024669464846FFF736F88DE870009D
:1020000069461148FFF730F80097CDE90145694668
:1020100050460395FFF728F801AA1120CDF800805B
:1020200082E8510069465846FFF71EF807B0BDE840
:10203000F08F0000303802400014024000040240DB
:102040000018024000100240000002400C4810B589
:102050000A4901604FF4E1314160002181600C22A6
:10206000C160C0E904128161C161FFF7C9FD0028A8
:1020700003D0BDE81040FEF7EEBA10BD00100140DD
:1020800020010020FEE7FEE770477047FFF7F8B831
:1020900030B593B030216846FEF7CAF814210CA879
:1020A000FEF7C6F81D480025016841F08051016027
:1020B000006800F0805011901948016841F4804197
:1020C00001600068022400F4804011900120039018
:1020D00010200490009406940820CDE90750A82011
:1020E000CDE9090404200B906846FFF74DFA08B1CA
:1020F00072B6FEE70CA90F2081E831004FF4A05022
:102100000F904FF48050109005210CA8FFF752F962
:10211000002801D072B6FEE713B030BD403802404F
:102120000070004070B5194C2068194A10F00C017D
:10213000184804D05510042903D0082903D00260A0
:102140001BE0056019E01149091F0B68C3F38056B5
:102150000B6803F03F0316B1B5FBF3F201E0B2FBED
:10216000F3F20B680968C3F388135A43C1F30141C2
:10217000491C4900B2FBF1F101602168064AC1F334
:102180000311515C0268CA40026070BD0838024009
:102190000024F40020000020748A0008024801682E
:1021A00041F470010160704788ED00E010B5806B6C
:1021B0000021C185FFF7E3FB10BD01680C3151E838
:1021C000002F22F4907241E80023002BF5D1016822
:1021D000143151E8002F22F0010241E80023002BC6
:1021E000F5D1016B012909D101680C3151E8002FAB
:1021F00022F0100241E80023002BF5D1202180F8C5
:10220000421000210163704708B590F8421022295E
:1022100001D0022008BD82684FF480539A4201D158
:10222000016921B1816A9A421BD04AB10AE0026871
:10223000816A5268C2F308020A80816A891C08E038
:10224000026972B10268526802F07F020A70816A04
:10225000491C8162C18D491E0904090CC18503D046
:102260001BE002685268F1E70168CA6822F02002A8
:10227000CA600168CA6822F48072CA6001684A694B
:1022800022F001024A61202180F8421000214163BE
:10229000026B012A03D0FFF731FD002008BD016366
:1022A00001680C3151E8002F22F0100241E80023B0
:1022B000002BF5D101680A68D20602D50A68496880
:1022C0000091818DFFF75AFBE7E7000070B50446E7
:1022D00000680169E26821F44051114301612169FC
:1022E000A068E26908436169114308432168CA682C
:1022F00049F20C639A430243CA6020684169A269AB
:1023000021F440711143416131492068884202D073
:102310003049884202D1FFF7F7F801E0FFF7E4F80F
:10232000E2690023192164253226B2F5004F626864
:1023300028D0A0FB0101930F9200FDF741FF014659
:10234000B0FBF5F06FF01802504301EB800006EB94
:102350000010B0FBF5F000F0F002B1FBF5F002EB7D
:102360000012B1FBF5F06FF01803584301EB800049
:1023700006EB0010B0FBF5F000F00F0021681044F0
:10238000886070BDA0FB010192185B41FDF718FF4A
:102390000146B0FBF5F00201B1FBF5F06FF0180358
:1023A000584301EB800006EBC000B0FBF5F000F0F5
:1023B000F80002EB4002B1FBF5F0584301EB80005E
:1023C00006EBC000B0FBF5F000F00700D6E7000018
:1023D000001001400014014081628285C285002105
:1023E0004164222180F84210016921B10168CA6864
:1023F00042F48072CA6001684A6942F001024A618F
:102400000068C16841F02001C160002070472DE9DB
:10241000F843984617460D460446089E24E0701C73
:1024200022D0FEF727FFA0EB0800B0421AD8CEB1A9
:102430002068C168490717D5802D15D0402D13D0CD
:102440000168C94309070FD401680025406800905E
:102450002046FFF7B2FE0820606484F84050012057
:10246000BDE8F8830320FBE72068006835EA000038
:1024700004D00020B842D2D00020F1E70120F9E7D3
:102480000148FFF77DBA000020010020FEE70000B0
:102490000FB4054B10B503A9044A029800F028F8C0
:1024A00010BC5DF814FB0000712800082400002017
:1024B0000907090E002804DB00F1E02080F8001471
:1024C000704700F00F0000F1E02080F8141D704705
:1024D00002E008C8121F08C1002AFAD170477047ED
:1024E000002001E001C1121F002AFBD1704700004B
:1024F0002DE9FF4F8DB09B460F460446002606E0AF
:1025000025280BD05A460F999047641C761C2078DA
:102510000028F5D111B03046BDE8F08F0025A8465F
:102520000122984900E0054314F8013F203B02FADC
:1025300003F00842F7D120782E2817D114F8010FA4
:1025400045F004052A280ED06FF02F022078A0F164
:10255000300109290AD808EB880102EB410100EBA0
:102560000108641CF2E757F8048B641C20786C287F
:102570000DD004DC4C2812D06A2811D104E0742854
:102580000DD07A280CD10AE045F4001507E06178F7
:1025900045F48015814202D1641C05F58015641C48
:1025A0002278692A45D008DC002AB3D0582A69D09D
:1025B000632A10D0642A08D13BE0702A67D0732ABE
:1025C00013D0752A5CD0782A5CD010465A460F99F1
:1025D0009047761CD3E017F8040B8DF8000000201C
:1025E0008DF80100E946012003E057F8049B4FF005
:1025F000FF3069074FF0000501D40AE06D1C454526
:102600000DDA8542FADB19F805100029F6D106E04B
:102610006D1C8542FCDB19F805100029F8D12E4409
:1026200004E019F8010B5A460F9990476D1EF8D235
:10263000A5E00A200021CDE90801C5F302500228D7
:102640000DD001CFC117031E71F100030DDA4FF059
:10265000000CD0EB0C006CEB01012D2308E0FF1DFA
:1026600027F00707F7E80201EDE72B0504D52B2338
:102670008DF8283001233BE0EB0739D02023F7E722
:102680000A2000E010200021CDE9080107E0102019
:10269000002145F00405CDE908014FF00808C5F315
:1026A000025002280FD001CF00214FF0000A2B0763
:1026B0001FD5702A0DD0DDE908C38CF0100C5CEA40
:1026C000030C0CD015E0FF1D27F00707F7E8020107
:1026D000EBE740228DF828204FF0010A0BE050EA8A
:1026E000010306D030238DF828308DF829200223ED
:1026F0009A46582A04D024A20DF120090B9209E031
:1027000026A2F9E7DDE90823FDF75AFD0B9B9B5C48
:1027100009F8013D50EA0102F4D1ADEB0900203087
:102720000890680701D44FF001080899884502DD38
:10273000A8EB010000E000208046002506E00AA882
:102740005A46405D0F9990476D1C761C5545F6DB47
:1027500004E030205A460F999047761CB8F10001EA
:10276000A8F10108F5DC05E019F8010B5A460F99AC
:102770009047761C0899481E08900029F4DC641CD8
:10278000C5E60000092801003031323334353637D0
:1027900038396162636465660000000030313233AD
:1027A000343536373839414243444546000000004D
:1027B00010B50648FEF7DEF90A210448FEF784F951
:1027C0000248FEF765F880B210BD00002800002026
:1027D0002DE9F04100250E4607462C4608E0384614
:1027E000FFF7E6FF0544052000F01CF8641CE4B286
:1027F000B442F4D3B5FBF6F0BDE8F08110B5064C59
:10280000206808B9FFF78EFC04492068B0FBF1F09E
:102810000349086010BD00002000002040420F0066
:102820000800002070B5054600244FF47A7603E0D6
:10283000304600F005F8641CAC42F9D370BD0000CE
:1028400030B54FF0E0240022656908490968484323
:10285000A169A3698B42FCD000D32944A1EB0301F9
:102860000A4419468242F4D330BD0000080000201B
:1028700013B56423012269460248FFF773FA0098F2
:102880001CBD00002001002070B50A490646002446
:1028900008884D8821464543204602F0FDFE03F09E
:1028A00093F84FF0D84002E0A0F88060641CAC427E
:1028B000FAD370BD800200202DE9F04F38492C2654
:1028C0000A46887192884FF4305A4FF4285B41F6DB
:1028D000631E2B274FF02A0C4FF0F00845F21059D9
:1028E0004FF448754FF4A0744FF4F07358B10C8056
:1028F000A1F802804A4530D1A1F808A0A1F80AB099
:102900003802888141E0A1F800804C804A4507D117
:10291000A1F808A0A1F80AB04FF42C50888105E076
:1029200072450E8105D14F81A1F80CC00B804D80FE
:1029300002E0A1F80AC08F81A2F5A640103803D0AA
:10294000A2F5EE40963801D10C804B80A2F51840DC
:1029500006381FD10B804D801CE0724511D0A2F5C6
:10296000184006380DD00E81A1F80AC0A1F80C70ED
:10297000A2F5A64010380BD0A2F5EE40963807D04D
:1029800008E00E81A1F80AC08F810D804B80EFE72F
:102990000B804C80BDE8F04F002002F0BBBD000072
:1029A0008002002010B5144602F076FE03F00CF809
:1029B0004FF0D840A0F8804010BD10B5CF2002F0F5
:1029C000F7FF002002F0E8FFC12002F0E5FF302011
:1029D00002F0E2FFED2002F0EBFF642002F0DCFFEA
:1029E000032002F0D9FF122002F0D6FF812002F06E
:1029F000D3FFE82002F0DCFF852002F0CDFF10209D
:102A000002F0CAFF7A2002F0C7FFCB2002F0D0FF0D
:102A1000392002F0C1FF2C2002F0BEFF002002F09E
:102A2000BBFF342002F0B8FF022002F0B5FFF72010
:102A300002F0BEFF202002F0AFFFEA2002F0B8FF54
:102A4000002002F0A9FF002002F0A6FFC02002F043
:102A5000AFFF1B2002F0A0FFC12002F0A9FF012060
:102A600002F09AFFC52002F0A3FF302002F094FF8D
:102A7000302002F091FFC72002F09AFFB72002F049
:102A80008BFF362002F094FF482002F085FF3A20A9
:102A900002F08EFF552002F07FFFB12002F088FF88
:102AA000002002F079FF1A2002F076FFB62002F033
:102AB0007FFF0A2002F070FFA22002F06DFFF220DB
:102AC00002F076FF002002F067FF262002F070FF80
:102AD000012002F061FFE02002F06AFF0F2002F007
:102AE0005BFF2A2002F058FF282002F055FF082043
:102AF00002F052FF0E2002F04FFF082002F04CFFC0
:102B0000542002F049FFA92002F046FF432002F0C2
:102B100043FF0A2002F040FF0F2002F03DFF00209B
:102B200002F03AFF002002F037FF002002F034FFED
:102B3000002002F031FFE12002F03AFF002002F015
:102B40002BFF152002F028FF172002F025FF072099
:102B500002F022FF112002F01FFF062002F01CFFEE
:102B60002B2002F019FF562002F016FF3C2002F045
:102B700013FF052002F010FF102002F00DFF0F20C0
:102B800002F00AFF3F2002F007FF3F2002F004FF9F
:102B90000F2002F001FF2B2002F00AFF002002F0BC
:102BA000FBFE002002F0F8FE012002F0F5FE3F20BF
:102BB00002F0F2FE2A2002F0FBFE002002F0ECFE02
:102BC000002002F0E9FE002002F0E6FEEF2002F015
:102BD000E3FE112002F0ECFE7820FEF7DFF9BDE8FD
:102BE0001040292002F0E4BE10B5FF2002F0E0FE04
:102BF000FF2002F0D1FE982002F0CEFE062002F067
:102C0000CBFEBC2002F0D4FE012002F0C5FE0F2056
:102C100002F0C2FE612002F0BFFEFF2002F0BCFE07
:102C2000012002F0B9FE012002F0B6FE0B2002F0F6
:102C3000B3FE102002F0B0FE372002F0ADFE63209C
:102C400002F0AAFEFF2002F0A7FEFF2002F0A4FE81
:102C5000012002F0A1FE012002F09EFE002002F001
:102C60009BFE002002F098FEFF2002F095FE52200D
:102C700002F092FE012002F08FFE002002F08CFE96
:102C8000402002F089FEBD2002F092FE012002F0F9
:102C900083FE232002F080FE452002F07DFE6720A7
:102CA00002F07AFE012002F077FE232002F074FE8B
:102CB000452002F071FE672002F06EFEBE2002F099
:102CC00077FE002002F068FE012002F065FEAB20D6
:102CD00002F062FE602002F05FFE222002F05CFE45
:102CE000222002F059FE222002F056FE222002F09D
:102CF00053FE222002F050FEC72002F059FE36207B
:102D000002F04AFEED2002F053FE7F2002F044FE66
:102D10000F2002F041FEC02002F04AFE0F2002F018
:102D20003BFE0B2002F038FE0A2002F035FEFC20AC
:102D300002F03EFE082002F02FFEDF2002F038FEF7
:102D4000002002F029FE002002F026FE002002F002
:102D500023FE002002F020FE002002F01DFE2020B5
:102D600002F01AFEF32002F023FE742002F014FE9B
:102D7000B42002F01DFE002002F00EFE002002F042
:102D80000BFE002002F008FEF72002F011FE822068
:102D900002F002FEB12002F00BFE002002F0FCFD6A
:102DA000132002F0F9FD132002F0F6FDF22002F0EC
:102DB000FFFD802002F0F0FD042002F0EDFD402038
:102DC00002F0EAFD282002F0E7FDC12002F0F0FD4C
:102DD000172002F0E1FD882002F0DEFD882002F0DD
:102DE000DBFD202002F0D8FDE02002F0E1FD002014
:102DF00002F0D2FD0A2002F0CFFD122002F0CCFD3D
:102E0000102002F0C9FD0E2002F0C6FD202002F0C5
:102E1000C3FDCC2002F0C0FD072002F0BDFD06205E
:102E200002F0BAFD0B2002F0B7FD0E2002F0B4FD57
:102E30000F2002F0B1FD0D2002F0AEFD152002F0D2
:102E4000ABFD102002F0A8FD002002F0A5FDE1205E
:102E500002F0AEFD002002F09FFD0B2002F09CFD71
:102E6000132002F099FD0D2002F096FD0E2002F0D5
:102E700093FD1B2002F090FD712002F08DFD0620D5
:102E800002F08AFD062002F087FD0A2002F084FD90
:102E90000F2002F081FD0E2002F07EFD0F2002F0D7
:102EA0007BFD152002F078FD0C2002F075FD00205E
:102EB00002F072FD2A2002F07BFD002002F06CFD82
:102EC000002002F069FD012002F066FDDF2002F023
:102ED00063FD2B2002F06CFD002002F05DFD002060
:102EE00002F05AFD032002F057FD1F2002F054FDAE
:102EF0003A2002F05DFD552002F04EFD362002F032
:102F000057FD002002F048FD112002F051FD78200D
:102F1000FEF744F8292002F04BFD1420FEF73EF89E
:102F2000BDE810402C2002F043BD10B5ED2002F0AA
:102F30003FFD012002F030FDFE2002F02DFDEE20CD
:102F400002F036FDDE2002F027FD212002F024FDF4
:102F5000F12002F02DFD012002F01EFDDF2002F025
:102F600027FD102002F018FDC42002F021FD8F2063
:102F700002F012FDC62002F01BFD002002F00CFD45
:102F8000E22002F009FDE22002F006FDE22002F05C
:102F900003FDBF2002F00CFDAA2002F0FDFCB020D2
:102FA00002F006FD0D2002F0F7FC002002F0F4FC18
:102FB0000D2002F0F1FC002002F0EEFC112002F0E6
:102FC000EBFC002002F0E8FC192002F0E5FC0020F8
:102FD00002F0E2FC212002F0DFFC002002F0DCFC29
:102FE0002D2002F0D9FC002002F0D6FC3D2002F09A
:102FF000D3FC002002F0D0FC5D2002F0CDFC0020CC
:1030000002F0CAFC5D2002F0C7FC002002F0C4FC04
:10301000B12002F0CDFC802002F0BEFC002002F0C6
:10302000BBFC8B2002F0B8FC002002F0B5FC96201F
:1030300002F0B2FC002002F0AFFCB22002F0B8FCBB
:10304000002002F0A9FC002002F0A6FC022002F001
:10305000A3FC002002F0A0FC032002F09DFC002055
:1030600002F09AFCB32002F0A3FC002002F094FCD2
:10307000002002F091FC002002F08EFC002002F003
:103080008BFC002002F088FC002002F085FC002070
:1030900002F082FC002002F07FFC002002F07CFCA9
:1030A000002002F079FC002002F076FC002002F003
:1030B00073FC002002F070FC002002F06DFC002088
:1030C00002F06AFC002002F067FC002002F064FCC1
:1030D000002002F061FC002002F05EFC002002F003
:1030E0005BFC002002F058FC002002F055FC0020A0
:1030F00002F052FC002002F04FFCB42002F058FC19
:103100008B2002F049FC002002F046FC962002F0E1
:1031100043FC002002F040FCA12002F03DFC002016
:1031200002F03AFCB52002F043FC022002F034FC2D
:10313000002002F031FC032002F02EFC002002F0FF
:103140002BFC042002F028FC002002F025FCB62015
:1031500002F02EFC002002F01FFC002002F01CFCFC
:10316000B72002F025FC002002F016FC002002F03F
:1031700013FC3F2002F010FC002002F00DFC5E204A
:1031800002F00AFC002002F007FC642002F004FCBC
:10319000002002F001FC8C2002F0FEFB002002F077
:1031A000FBFBAC2002F0F8FB002002F0F5FBDC207A
:1031B00002F0F2FB002002F0EFFB702002F0ECFBCB
:1031C000002002F0E9FB902002F0E6FB002002F074
:1031D000E3FBEB2002F0E0FB002002F0DDFBDC2053
:1031E00002F0DAFB002002F0D7FBB82002F0E0FB8F
:1031F000002002F0D1FB002002F0CEFB002002F004
:10320000CBFB002002F0C8FB002002F0C5FB002031
:1032100002F0C2FB002002F0BFFB002002F0BCFB6A
:10322000BA2002F0C5FB242002F0B6FB002002F019
:10323000B3FB002002F0B0FB002002F0ADFBC12088
:1032400002F0B6FB202002F0A7FB002002F0A4FB56
:10325000542002F0A1FB002002F09EFBFF2002F0B0
:103260009BFB002002F098FBC22002F0A1FB0A2089
:1032700002F092FB002002F08FFB042002F08CFB96
:10328000002002F089FBC32002F092FB3C2002F0F8
:1032900083FB002002F080FB3A2002F07DFB00203F
:1032A00002F07AFB392002F077FB002002F074FB79
:1032B000372002F071FB002002F06EFB3C2002F090
:1032C0006BFB002002F068FB362002F065FB00205B
:1032D00002F062FB322002F05FFB002002F05CFB98
:1032E0002F2002F059FB002002F056FB2C2002F0A8
:1032F00053FB002002F050FB292002F04DFB002080
:1033000002F04AFB262002F047FB002002F044FBBB
:10331000242002F041FB002002F03EFB242002F0BA
:103320003BFB002002F038FB232002F035FB00209D
:1033300002F032FB3C2002F02FFB002002F02CFBBD
:10334000362002F029FB002002F026FB322002F09A
:1033500023FB002002F020FB2F2002F01DFB0020A9
:1033600002F01AFB2C2002F017FB002002F014FBE5
:10337000292002F011FB002002F00EFB262002F0B3
:103380000BFB002002F008FB242002F005FB0020CC
:1033900002F002FB242002F0FFFA002002F0FCFA07
:1033A000232002F0F9FA002002F0F6FAC42002F01D
:1033B000FFFA622002F0F0FA002002F0EDFA052098
:1033C00002F0EAFA002002F0E7FA842002F0E4FAC0
:1033D000002002F0E1FAF02002F0DEFA002002F014
:1033E000DBFA182002F0D8FA002002F0D5FAA42067
:1033F00002F0D2FA002002F0CFFA182002F0CCFA44
:10340000002002F0C9FA502002F0C6FA002002F0B3
:10341000C3FA0C2002F0C0FA002002F0BDFA172017
:1034200002F0BAFA002002F0B7FA952002F0B4FADE
:10343000002002F0B1FAF32002F0AEFA002002F010
:10344000ABFAE62002F0A8FA002002F0A5FAC520A7
:1034500002F0AEFA322002F09FFA002002F09CFA4D
:10346000442002F099FA002002F096FA652002F05A
:1034700093FA002002F090FA762002F08DFA0020F4
:1034800002F08AFA882002F087FA002002F084FA1B
:10349000C62002F08DFA202002F07EFA002002F011
:1034A0007BFA172002F078FA002002F075FA01206A
:1034B00002F072FA002002F06FFAC72002F078FAE8
:1034C000002002F069FA002002F066FA002002F003
:1034D00063FA002002F060FAC82002F069FA0020C6
:1034E00002F05AFA002002F057FA002002F054FAD3
:1034F000002002F051FAC92002F05AFA002002F02E
:103500004BFA002002F048FA002002F045FA0020B1
:1035100002F042FA002002F03FFA002002F03CFAEA
:10352000002002F039FA002002F036FA002002F002
:1035300033FA002002F030FA002002F02DFA0020C9
:1035400002F02AFA002002F027FA002002F024FA02
:10355000002002F021FA002002F01EFAE02002F022
:1035600027FA162002F018FA002002F015FA1C20A3
:1035700002F012FA002002F00FFA212002F00CFAF9
:10358000002002F009FA362002F006FA002002F0CC
:1035900003FA462002F000FA002002F0FDF9522062
:1035A00002F0FAF9002002F0F7F9642002F0F4F9D1
:1035B000002002F0F1F97A2002F0EEF9002002F08A
:1035C000EBF98B2002F0E8F9002002F0E5F99920F0
:1035D00002F0E2F9002002F0DFF9A82002F0DCF9A5
:1035E000002002F0D9F9B92002F0D6F9002002F04B
:1035F000D3F9C42002F0D0F9002002F0CDF9CA209E
:1036000002F0CAF9002002F0C7F9D22002F0C4F992
:10361000002002F0C1F9D92002F0BEF9002002F02A
:10362000BBF9E02002F0B8F9002002F0B5F9F32070
:1036300002F0B2F9002002F0AFF9E12002F0B8F98F
:10364000162002F0A9F9002002F0A6F91C2002F0D1
:10365000A3F9002002F0A0F9222002F09DF9002039
:1036600002F09AF9362002F097F9002002F094F95E
:10367000452002F091F9002002F08EF9522002F06C
:103680008BF9002002F088F9642002F085F900200F
:1036900002F082F97A2002F07FF9002002F07CF932
:1036A0008B2002F079F9002002F076F9992002F0DF
:1036B00073F9002002F070F9A82002F06DF90020E3
:1036C00002F06AF9B92002F067F9002002F064F90B
:1036D000C42002F061F9002002F05EF9CA2002F075
:1036E0005BF9002002F058F9D22002F055F90020D1
:1036F00002F052F9D82002F04FF9002002F04CF904
:10370000E02002F049F9002002F046F9F32002F02F
:1037100043F9002002F040F9E22002F049F90520C7
:1037200002F03AF9002002F037F90B2002F034F9E8
:10373000002002F031F91B2002F02EF9002002F0E7
:103740002BF9342002F028F9002002F025F944205A
:1037500002F022F9002002F01FF94F2002F01CF9BC
:10376000002002F019F9612002F016F9002002F0A1
:1037700013F9792002F010F9002002F00DF98820E9
:1037800002F00AF9002002F007F9972002F004F98C
:10379000002002F001F9A62002F0FEF8002002F05D
:1037A000FBF8B72002F0F8F8002002F0F5F8C2208C
:1037B00002F0F2F8002002F0EFF8C72002F0ECF877
:1037C000002002F0E9F8D12002F0E6F8002002F033
:1037D000E3F8D62002F0E0F8002002F0DDF8DD206A
:1037E00002F0DAF8002002F0D7F8F32002F0D4F863
:1037F000002002F0D1F8E32002F0DAF8052002F010
:10380000CBF8002002F0C8F80A2002F0C5F800202A
:1038100002F0C2F81C2002F0BFF8002002F0BCF851
:10382000332002F0B9F8002002F0B6F8442002F08C
:10383000B3F8002002F0B0F8502002F0ADF80020FC
:1038400002F0AAF8622002F0A7F8002002F0A4F823
:10385000782002F0A1F8002002F09EF8882002F003
:103860009BF8002002F098F8972002F095F80020CD
:1038700002F092F8A62002F08FF8002002F08CF8F7
:10388000B72002F089F8002002F086F8C22002F08A
:1038900083F8002002F080F8C72002F07DF80020B5
:1038A00002F07AF8D12002F077F8002002F074F8E4
:1038B000D52002F071F8002002F06EF8DD2002F051
:1038C0006BF8002002F068F8F32002F065F80020A1
:1038D00002F062F8E42002F06BF8012002F05CF8DC
:1038E000002002F059F8012002F056F8002002F002
:1038F00053F8022002F050F8002002F04DF82A2080
:1039000002F04AF8002002F047F83C2002F044F8A8
:10391000002002F041F84B2002F03EF8002002F0B7
:103920003BF85D2002F038F8002002F035F87420F2
:1039300002F032F8002002F02FF8842002F02CF878
:10394000002002F029F8932002F026F8002002F06F
:1039500023F8A22002F020F8002002F01DF8B32086
:1039600002F01AF8002002F017F8BE2002F014F856
:10397000002002F011F8C42002F00EF8002002F03E
:103980000BF8CD2002F008F8002002F005F8D32053
:1039900002F002F8002001F0FFFFDD2001F0FCFF43
:1039A000002001F0F9FFF32001F0F6FF002001F004
:1039B000F3FFE52001F0FCFF002001F0EDFF002007
:1039C00001F0EAFF002001F0E7FF002001F0E4FF32
:1039D000022001F0E1FF002001F0DEFF292001F0CC
:1039E000DBFF002001F0D8FF3C2001F0D5FF0020D4
:1039F00001F0D2FF4B2001F0CFFF002001F0CCFFFF
:103A00005D2001F0C9FF002001F0C6FF742001F025
:103A1000C3FF002001F0C0FF842001F0BDFF0020A3
:103A200001F0BAFF932001F0B7FF002001F0B4FFCE
:103A3000A22001F0B1FF002001F0AEFFB32001F0A1
:103A4000ABFF002001F0A8FFBE2001F0A5FF002081
:103A500001F0A2FFC42001F09FFF002001F09CFFB5
:103A6000CD2001F099FF002001F096FFD32001F056
:103A700093FF002001F090FFDC2001F08DFF00207B
:103A800001F08AFFF32001F087FF002001F084FF9E
:103A9000E62001F08DFF112001F07EFF002001F0F3
:103AA0007BFF342001F078FF002001F075FF5620E5
:103AB00001F072FF002001F06FFF762001F06CFF33
:103AC000002001F069FF772001F066FF002001F07F
:103AD00063FF662001F060FF002001F05DFF882099
:103AE00001F05AFF002001F057FF992001F054FF28
:103AF000002001F051FFBB2001F04EFF002001F03B
:103B00004BFF992001F048FF002001F045FF66209F
:103B100001F042FF002001F03FFF552001F03CFF83
:103B2000002001F039FF552001F036FF002001F0A0
:103B300033FF452001F030FF002001F02DFF43202E
:103B400001F02AFF002001F027FF442001F024FFAC
:103B5000002001F021FFE72001F02AFF322001F0D0
:103B60001BFF002001F018FF552001F015FF002079
:103B700001F012FF762001F00FFF002001F00CFF92
:103B8000662001F009FF002001F006FF672001F028
:103B900003FF002001F000FF672001F0FDFE002080
:103BA00001F0FAFE872001F0F7FE002001F0F4FE9C
:103BB000992001F0F1FE002001F0EEFEBB2001F0A3
:103BC000EBFE002001F0E8FE992001F0E5FE002068
:103BD00001F0E2FE772001F0DFFE002001F0DCFEC4
:103BE000442001F0D9FE002001F0D6FE562001F05D
:103BF000D3FE002001F0D0FE232001F0CDFE0020F6
:103C000001F0CAFE332001F0C7FE002001F0C4FE1F
:103C1000452001F0C1FE002001F0BEFEE82001F0C9
:103C2000C7FE002001F0B8FE002001F0B5FE99208B
:103C300001F0B2FE002001F0AFFE872001F0ACFEE3
:103C4000002001F0A9FE882001F0A6FE002001F06E
:103C5000A3FE772001F0A0FE002001F09DFE66206B
:103C600001F09AFE002001F097FE882001F094FEFA
:103C7000002001F091FEAA2001F08EFE002001F04C
:103C80008BFEBB2001F088FE002001F085FE99200C
:103C900001F082FE002001F07FFE662001F07CFE34
:103CA000002001F079FE552001F076FE002001F0A1
:103CB00073FE552001F070FE002001F06DFE4420DF
:103CC00001F06AFE002001F067FE442001F064FE6E
:103CD000002001F061FE552001F05EFE002001F0A1
:103CE0005BFEE92001F064FEAA2001F055FE0020F1
:103CF00001F052FE002001F04FFE002001F04CFECA
:103D0000002001F055FEAA2001F046FECF2001F070
:103D10004FFE002001F040FE002001F03DFE00209B
:103D200001F03AFE002001F037FE002001F034FEE1
:103D3000002001F031FE002001F02EFE002001F0F5
:103D40002BFE002001F028FE002001F025FE0020BF
:103D500001F022FE002001F01FFE002001F01CFEF9
:103D6000002001F019FE002001F016FE002001F0F5
:103D700013FE002001F010FEF02001F019FE0020DB
:103D800001F00AFE502001F007FE002001F004FEC1
:103D9000002001F001FE002001F0FEFDF32001F003
:103DA00007FE002001F0F8FDF92001F001FE0620D9
:103DB00001F0F2FD102001F0EFFD292001F0ECFDF3
:103DC000002001F0E9FD3A2001F0F2FD552001F05C
:103DD000E3FD112001F0ECFD6420FDF7DFF8292060
:103DE00001F0E6FD352001F0E3FD002001F0D4FDF7
:103DF000512001F0DDFDFF2001F0CEFD532001F048
:103E0000D7FD2C2001F0C8FD552001F0D1FD822006
:103E100001F0C2FDBDE810402C2001F0C9BD2DE924
:103E2000F05F4FF470445521204601F0D7FD651C2A
:103E3000AA21284601F0D2FDA61C5221304601F0ED
:103E4000CDFDE71C0821384601F0C8FD4FF20408FB
:103E50000121404601F0C2FD4FF43643342118469B
:103E600001F0BCFD34214BF2016001F0B7FD3421BB
:103E70004BF2026001F0B2FD4FF430490D2148468B
:103E800001F0ACFD4BF2010A0D21504601F0A6FDF8
:103E90004BF2020B0D21584601F0A0FD24214FF4F6
:103EA000374001F09BFD24214BF2017001F096FD9B
:103EB00024214BF2027001F091FD0D214FF43140AD
:103EC00001F08CFD0D214BF2011001F087FD0D2159
:103ED0004BF2021001F082FD24214FF4384001F032
:103EE0007DFD24214BF6010001F078FD24214BF6E5
:103EF000020001F073FD00214FF4324001F06EFD2D
:103F000024214FF4394001F069FD24214BF60110C2
:103F100001F064FD24214BF6021001F05FFD052144
:103F20004FF4334001F05AFD05214BF2013001F00E
:103F300055FD05214BF2023001F050FD34214FF4C4
:103F40003A4001F04BFD34214BF6012001F046FDD3
:103F500034214BF6022001F041FD0B214FF4354096
:103F600001F03CFD0B214BF2015001F037FD0B211C
:103F70004BF2025001F032FD00214FF43C4001F0C1
:103F80002DFDA3214BF6014001F028FD00214BF649
:103F9000024001F023FD00214FF43D4001F01EFDE1
:103FA000A3214BF6015001F019FD00214BF6025000
:103FB00001F014FD00214FF43E4001F00FFD3721C8
:103FC0004BF6016001F00AFD00214FF4514001F071
:103FD00005FD37214DF2011001F000FD00214DF2E9
:103FE000021001F0FBFC53214DF2031001F0F6FC2E
:103FF00000214DF2041001F0F1FC79214DF2051081
:1040000001F0ECFC00214DF2061001F0E7FC9721D5
:104010004DF2071001F0E2FC00214DF2081001F012
:10402000DDFCB1214DF2091001F0D8FC00214DF268
:104030000A1001F0D3FCD5214DF20B1001F0CEFC9B
:1040400000214DF20C1001F0C9FCF4214DF20D10CD
:1040500001F0C4FC01214DF20E1001F0BFFC232140
:104060004DF20F1001F0BAFC01214DF2101001F0D9
:10407000B5FC49214DF2111001F0B0FC01214DF2C7
:10408000121001F0ABFC87214DF2131001F0A6FCD9
:1040900001214DF2141001F0A1FCB6214DF21510D2
:1040A00001F09CFC02214DF2161001F097FC00215A
:1040B0004DF2171001F092FC02214DF2181001F0A0
:1040C0008DFC3B214DF2191001F088FC02214DF2CC
:1040D0001A1001F083FC3D214DF21B1001F07EFC13
:1040E00002214DF21C1001F079FC75214DF21D10DA
:1040F00001F074FC02214DF21E1001F06FFCB121A1
:104100004DF21F1001F06AFC02214DF2201001F067
:1041100065FCD5214DF2211001F060FC03214DF228
:10412000221001F05BFC09214DF2231001F056FC36
:1041300003214DF2241001F051FC28214DF22510ED
:1041400001F04CFC03214DF2261001F047FC5221F6
:104150004DF2271001F042FC03214DF2281001F02E
:104160003DFC6B214DF2291001F038FC03214DF28A
:104170002A1001F033FC8D214DF22B1001F02EFCA2
:1041800003214DF22C1001F029FCA2214DF22D103B
:1041900001F024FC03214DF22E1001F01FFCBB2185
:1041A0004DF22F1001F01AFC03214DF2301001F0F6
:1041B00015FCC1214DF2311001F010FC03214DF22C
:1041C000321001F00BFCC1214DF2331001F006FC5E
:1041D00000214FF4524001F001FC37214DF2012043
:1041E00001F0FCFB00214DF2022001F0F7FB53210E
:1041F0004DF2032001F0F2FB00214DF2042001F00A
:10420000EDFB79214DF2052001F0E8FB00214DF294
:10421000062001F0E3FB97214DF2072001F0DEFBC1
:1042200000214DF2082001F0D9FBB1214DF2092007
:1042300001F0D4FB00214DF20A2001F0CFFBD52183
:104240004DF20B2001F0CAFB00214DF20C2001F0D1
:10425000C5FBF4214DF20D2001F0C0FB01214DF210
:104260000E2001F0BBFB23214DF20F2001F0B6FB25
:1042700001214DF2102001F0B1FB49214DF2112036
:1042800001F0ACFB01214DF2122001F0A7FB8721C8
:104290004DF2132001F0A2FB01214DF2142001F098
:1042A0009DFBB6214DF2152001F098FB02214DF245
:1042B000162001F093FB00214DF2172001F08EFB38
:1042C00002214DF2182001F089FB3B214DF219200B
:1042D00001F084FB02214DF21A2001F07FFB3D2109
:1042E0004DF21B2001F07AFB02214DF21C2001F05F
:1042F00075FB75214DF21D2001F070FB02214DF27E
:104300001E2001F06BFBB1214DF21F2001F066FB76
:1043100002214DF2202001F061FBD5214DF2212038
:1043200001F05CFB03214DF2222001F057FB092133
:104330004DF2232001F052FB03214DF2242001F025
:104340004DFB28214DF2252001F048FB03214DF2C1
:10435000262001F043FB52214DF2272001F03EFBC5
:1043600003214DF2282001F039FB6B214DF2292069
:1043700001F034FB03214DF22A2001F02FFB8D21A7
:104380004DF22B2001F02AFB03214DF22C2001F0ED
:1043900025FBA2214DF22D2001F020FB03214DF23F
:1043A0002E2001F01BFBBB214DF22F2001F016FB4C
:1043B00003214DF2302001F011FBC1214DF23120DB
:1043C00001F00CFB03214DF2322001F007FBC1216B
:1043D0004DF2332001F002FB00214FF4534001F075
:1043E000FDFA37214DF2013001F0F8FA00214DF2CB
:1043F000023001F0F3FA53214DF2033001F0EEFAEE
:1044000000214DF2043001F0E9FA79214DF2053036
:1044100001F0E4FA00214DF2063001F0DFFA9721B5
:104420004DF2073001F0DAFA00214DF2083001F0C8
:10443000D5FAB1214DF2093001F0D0FA00214DF248
:104440000A3001F0CBFAD5214DF20B3001F0C6FA5B
:1044500000214DF20C3001F0C1FAF4214DF20D3083
:1044600001F0BCFA01214DF20E3001F0B7FA232120
:104470004DF20F3001F0B2FA01214DF2103001F08F
:10448000ADFA49214DF2113001F0A8FA01214DF2A7
:10449000123001F0A3FA87214DF2133001F09EFA99
:1044A00001214DF2143001F099FAB6214DF2153088
:1044B00001F094FA02214DF2163001F08FFA00213A
:1044C0004DF2173001F08AFA02214DF2183001F056
:1044D00085FA3B214DF2193001F080FA02214DF2AC
:1044E0001A3001F07BFA3D214DF21B3001F076FAD3
:1044F00002214DF21C3001F071FA75214DF21D3090
:1045000001F06CFA02214DF21E3001F067FAB12180
:104510004DF21F3001F062FA02214DF2203001F01D
:104520005DFAD5214DF2213001F058FA03214DF208
:10453000223001F053FA09214DF2233001F04EFAF6
:1045400003214DF2243001F049FA28214DF22530A3
:1045500001F044FA03214DF2263001F03FFA5221D6
:104560004DF2273001F03AFA03214DF2283001F0E4
:1045700035FA6B214DF2293001F030FA03214DF26A
:104580002A3001F02BFA8D214DF22B3001F026FA62
:1045900003214DF22C3001F021FAA2214DF22D30F1
:1045A00001F01CFA03214DF22E3001F017FABB2165
:1045B0004DF22F3001F012FA03214DF2303001F0AC
:1045C0000DFAC1214DF2313001F008FA03214DF20C
:1045D000323001F003FAC1214DF2333001F0FEF91F
:1045E00000214FF4544001F0F9F937214DF2014018
:1045F00001F0F4F900214DF2024001F0EFF95321EE
:104600004DF2034001F0EAF900214DF2044001F0BF
:10461000E5F979214DF2054001F0E0F900214DF274
:10462000064001F0DBF997214DF2074001F0D6F981
:1046300000214DF2084001F0D1F9B1214DF20940BD
:1046400001F0CCF900214DF20A4001F0C7F9D52163
:104650004DF20B4001F0C2F900214DF20C4001F087
:10466000BDF9F4214DF20D4001F0B8F901214DF2F0
:104670000E4001F0B3F923214DF20F4001F0AEF9E5
:1046800001214DF2104001F0A9F949214DF21140EC
:1046900001F0A4F901214DF2124001F09FF98721A8
:1046A0004DF2134001F09AF901214DF2144001F04E
:1046B00095F9B6214DF2154001F090F902214DF225
:1046C000164001F08BF900214DF2174001F086F9F8
:1046D00002214DF2184001F081F93B214DF21940C1
:1046E00001F07CF902214DF21A4001F077F93D21E9
:1046F0004DF21B4001F072F902214DF21C4001F015
:104700006DF975214DF21D4001F068F902214DF25D
:104710001E4001F063F9B1214DF21F4001F05EF936
:1047200002214DF2204001F059F9D5214DF22140EE
:1047300001F054F903214DF2224001F04FF9092113
:104740004DF2234001F04AF903214DF2244001F0DB
:1047500045F928214DF2254001F040F903214DF2A1
:10476000264001F03BF952214DF2274001F036F985
:1047700003214DF2284001F031F96B214DF229401F
:1047800001F02CF903214DF22A4001F027F98D2187
:104790004DF22B4001F022F903214DF22C4001F0A3
:1047A0001DF9A2214DF22D4001F018F903214DF21F
:1047B0002E4001F013F9BB214DF22F4001F00EF90C
:1047C00003214DF2304001F009F9C1214DF2314091
:1047D00001F004F903214DF2324001F0FFF8C1214C
:1047E0004DF2334001F0FAF800214FF4554001F04A
:1047F000F5F837214DF2015001F0F0F800214DF2AB
:10480000025001F0EBF853214DF2035001F0E6F8AD
:1048100000214DF2045001F0E1F879214DF20550EC
:1048200001F0DCF800214DF2065001F0D7F8972195
:104830004DF2075001F0D2F800214DF2085001F07E
:10484000CDF8B1214DF2095001F0C8F800214DF228
:104850000A5001F0C3F8D5214DF20B5001F0BEF81B
:1048600000214DF20C5001F0B9F8F4214DF20D5039
:1048700001F0B4F801214DF20E5001F0AFF8232100
:104880004DF20F5001F0AAF801214DF2105001F045
:10489000A5F849214DF2115001F0A0F801214DF287
:1048A000125001F09BF887214DF2135001F096F859
:1048B00001214DF2145001F091F8B6214DF215503E
:1048C00001F08CF802214DF2165001F087F800211A
:1048D0004DF2175001F082F802214DF2185001F00C
:1048E0007DF83B214DF2195001F078F802214DF28C
:1048F0001A5001F073F83D214DF21B5001F06EF893
:1049000002214DF21C5001F069F875214DF21D5045
:1049100001F064F802214DF21E5001F05FF8B12160
:104920004DF21F5001F05AF802214DF2205001F0D3
:1049300055F8D5214DF2215001F050F803214DF2E8
:10494000225001F04BF809214DF2235001F046F8B6
:1049500003214DF2245001F041F828214DF2255059
:1049600001F03CF803214DF2265001F037F85221B6
:104970004DF2275001F032F803214DF2285001F09A
:104980002DF86B214DF2295001F028F803214DF24A
:104990002A5001F023F88D214DF22B5001F01EF822
:1049A00003214DF22C5001F019F8A2214DF22D50A7
:1049B00001F014F803214DF22E5001F00FF8BB2145
:1049C0004DF22F5001F00AF803214DF2305001F062
:1049D00005F8C1214DF2315001F000F803214DF2EC
:1049E000325000F0FBFFC1214DF2335000F0F6FFD2
:1049F00000214FF4564000F0F1FF37214DF20160E5
:104A000000F0ECFF00214DF2026000F0E7FF5321BF
:104A10004DF2036000F0E2FF00214DF2046000F06F
:104A2000DDFF79214DF2056000F0D8FF00214DF245
:104A3000066000F0D3FF97214DF2076000F0CEFF33
:104A400000214DF2086000F0C9FFB1214DF209606C
:104A500000F0C4FF00214DF20A6000F0BFFFD52135
:104A60004DF20B6000F0BAFF00214DF20C6000F037
:104A7000B5FFF4214DF20D6000F0B0FF01214DF2C1
:104A80000E6000F0ABFF23214DF20F6000F0A6FF97
:104A900001214DF2106000F0A1FF49214DF211609B
:104AA00000F09CFF01214DF2126000F097FF87217A
:104AB0004DF2136000F092FF01214DF2146000F0FE
:104AC0008DFFB6214DF2156000F088FF02214DF2F6
:104AD000166000F083FF00214DF2176000F07EFFAA
:104AE00002214DF2186000F079FF3B214DF2196070
:104AF00000F074FF02214DF21A6000F06FFF3D21BB
:104B00004DF21B6000F06AFF02214DF21C6000F0C4
:104B100065FF75214DF21D6000F060FF02214DF22E
:104B20001E6000F05BFFB1214DF21F6000F056FFE8
:104B300002214DF2206000F051FFD5214DF221609D
:104B400000F04CFF03214DF2226000F047FF0921E5
:104B50004DF2236000F042FF03214DF2246000F08B
:104B60003DFF28214DF2256000F038FF03214DF272
:104B7000266000F033FF52214DF2276000F02EFF37
:104B800003214DF2286000F029FF6B214DF22960CE
:104B900000F024FF03214DF22A6000F01FFF8D2159
:104BA0004DF22B6000F01AFF03214DF22C6000F053
:104BB00015FFA2214DF22D6000F010FF03214DF2F0
:104BC0002E6000F00BFFBB214DF22F6000F006FFBE
:104BD00003214DF2306000F001FFC1214DF2316040
:104BE00000F0FCFE03214DF2326000F0F7FEC1211F
:104BF0004DF2336000F0F2FE5521204600F0EEFE4B
:104C0000AA21284600F0EAFE5221304600F0E6FED6
:104C10000821384600F0E2FE0021404600F0DEFEAA
:104C20000021484600F0DAFE0521504600F0D6FE8D
:104C30000221584600F0D2FE05214BF2030000F09D
:104C4000CDFE02214BF2040000F0C8FE08211846F8
:104C500000F0C4FE50214FF4354000F0BFFE0521A6
:104C6000184600F0BBFE00214FF4374000F0B6FEBE
:104C700000214BF2017000F0B1FE01214FF43840E9
:104C800000F0ACFE05214BF6010000F0A7FE052167
:104C90004BF6020000F0A2FE05214BF6030000F0E7
:104CA0009DFE02214FF43C4000F098FE00214BF69F
:104CB000014000F093FE00214BF6024000F08EFE12
:104CC00003214FF44C4000F089FE00214CF60140D6
:104CD00000F084FE00214CF6024000F07FFE01212E
:104CE0004FF43D4000F07AFE84214BF6015000F075
:104CF00075FE07214BF6025000F070FE31214BF695
:104D0000035000F06BFE00214BF6045000F066FEED
:104D100001214FF43A4000F061FEAA214FF47F4098
:104D200000F05CFE55214FF6017000F057FE252182
:104D30004FF6027000F052FE01214FF6037000F0B2
:104D40004DFE40214FF4585000F048FE00214FF432
:104D5000545000F043FE05214FF4685000F03EFE31
:104D60004FF4885000F024FE7820FCF717F94FF438
:104D7000245000F01DFE0A20FCF710F9BDE8F05F9A
:104D80004FF4305000F014BE10B5E22000F010FED9
:104D90001D2000F001FE022000F0FEFD042000F0C6
:104DA000FBFD0120FCF7FAF8E02000F001FE0120F5
:104DB00000F0F2FD0A20FCF7F1F8E02000F0F8FD29
:104DC000032000F0E9FD0C20FCF7E8F8012000F0DA
:104DD000EFFD0A20FCF7E2F8E62000F0E9FD2F20C5
:104DE00000F0DAFDFF2000F0D7FDFF2000F0D4FD39
:104DF000B02000F0DDFD202000F0CEFD002000F00E
:104E0000CBFD032000F0C8FD40F21F3000F0C4FDD0
:104E1000012000F0C1FD40F2DF1000F0BDFD0020D8
:104E200000F0BAFDB42000F0C3FD042000F0B4FD92
:104E300040F21F4000F0B0FD002000F0ADFD2E203C
:104E400000F0AAFD002000F0A7FD002000F0A4FD66
:104E5000002000F0A1FD002000F09EFDB62000F033
:104E6000A7FD022000F098FD4FF4037000F094FDC0
:104E7000002000F091FD172000F08EFD152000F0BD
:104E80008BFD002000F088FD002000F085FDF02063
:104E900000F08EFD032000F07FFD292000F088FD4A
:104EA000D02000F085FD002000F076FDBE2000F04F
:104EB0007FFD052000F070FDFE2000F06DFD01205B
:104EC00000F06AFD002000F067FD002000F064FDA6
:104ED000002000F061FDB82000F06AFD032000F022
:104EE0005BFD012000F058FDBA2000F061FDBDE837
:104EF0001040012000F050BD10B5112000F058FD09
:104F00007820FCF74BF8362000F052FD002000F02E
:104F100043FD3A2000F04CFD052000F03DFDB2209D
:104F200000F046FD0C2000F037FD0C2000F034FDB1
:104F3000002000F031FD332000F02EFD332000F082
:104F40002BFDB72000F034FD352000F025FDBB20FF
:104F500000F02EFD322000F01FFDC02000F028FDE3
:104F60000C2000F019FDC22000F022FD012000F00D
:104F700013FDC32000F01CFD102000F00DFDC42027
:104F800000F016FD202000F007FDC62000F010FD07
:104F90000F2000F001FDD02000F00AFDA42000F059
:104FA000FBFCA12000F0F8FCE02000F001FDD02087
:104FB00000F0F2FC002000F0EFFC022000F0ECFC1E
:104FC000072000F0E9FC0A2000F0E6FC282000F0B1
:104FD000E3FC322000F0E0FC442000F0DDFC422045
:104FE00000F0DAFC062000F0D7FC0E2000F0D4FC24
:104FF000122000F0D1FC142000F0CEFC172000F0AD
:10500000CBFCE12000F0D4FCD02000F0C5FC002057
:1050100000F0C2FC022000F0BFFC072000F0BCFC46
:105020000A2000F0B9FC282000F0B6FC312000F086
:10503000B3FC542000F0B0FC472000F0ADFC0E2083
:1050400000F0AAFC1C2000F0A7FC172000F0A4FC34
:105050001B2000F0A1FC1E2000F09EFC2A2000F086
:10506000A7FC002000F098FC002000F095FC002038
:1050700000F092FCEF2000F08FFC2B2000F098FC59
:10508000002000F089FC002000F086FC012000F0E8
:1050900083FC3F2000F080FCBDE81040292000F098
:1050A00087BC10B5112000F083FC7820FBF776FF59
:1050B000362000F07DFC482000F06EFC3A2000F025
:1050C00077FC552000F068FCF02000F071FCC32054
:1050D00000F062FCF02000F06BFC962000F05CFC1D
:1050E000B42000F065FC012000F056FCB62000F072
:1050F0005FFC0A2000F050FCA22000F04DFCB7201D
:1051000000F056FCC62000F047FCB92000F050FC2F
:10511000022000F041FCE02000F03EFCC02000F046
:1051200047FC802000F038FC162000F035FCC12040
:1051300000F03EFC192000F02FFCC22000F038FCEB
:10514000A72000F029FCC52000F032FC162000F05A
:1051500023FCE82000F02CFC402000F01DFC8A20FD
:1051600000F01AFC002000F017FC002000F014FCF6
:10517000292000F011FC192000F00EFCA52000F001
:105180000BFC332000F008FCE02000F011FCF020C4
:1051900000F002FC072000F0FFFB0D2000F0FCFBFC
:1051A000042000F0F9FB052000F0F6FB142000F0CD
:1051B000F3FB362000F0F0FB542000F0EDFB4C2018
:1051C00000F0EAFB382000F0E7FB132000F0E4FBDE
:1051D000142000F0E1FB2E2000F0DEFB342000F074
:1051E000DBFBE12000F0E4FBF02000F0D5FB102019
:1051F00000F0D2FB142000F0CFFB0E2000F0CCFB1F
:105200000C2000F0C9FB082000F0C6FB352000F0A0
:10521000C3FB442000F0C0FB4C2000F0BDFB262067
:1052200000F0BAFB102000F0B7FB122000F0B4FB36
:105230002C2000F0B1FB322000F0AEFBF02000F09B
:10524000B7FB3C2000F0A8FBF02000F0B1FB692088
:1052500000F0A2FB7820FBF7A1FE212000F0A8FBC4
:10526000BDE81040292000F0A3BB00002DE9F04F5D
:1052700087B03220FBF792FED32000F099FB00F0BC
:105280003BF9944CA08000F037F9A08000F034F98D
:105290004FF6FF7101EA0020A08000F02DF9A188EF
:1052A00049F241360843A08047F2897545F210372C
:1052B00047F2967845F2105949F6060A41F6631B03
:1052C000B0427DD0042000F073FB00F015F9A080FF
:1052D00000F012F9A08000F00FF94FF6FF7101EA1B
:1052E0000020A08000F008F9A1880843A0F505413E
:1052F000A080523965D0A84262D0D42000F058FB7B
:1053000000F0FAF8A08000F0F7F8A08000F0F4F8C0
:105310004FF6FF7101EA0020A08000F0EDF8A188AF
:105320000843A080B8427ED0D32000F041FB00F0BB
:10533000E3F8A08000F0E0F8A08000F0DDF84FF680
:10534000FF7101EA0020A08000F0D6F8A188084390
:10535000A080404567D055214FF4704000F03EFBDF
:10536000AA214FF2010000F039FB52214FF2020056
:1053700000F034FB08214FF2030000F02FFB012165
:105380004FF2040000F02AFB4FF4454000F010FB00
:1053900000F0B2F84FF6FF7101EA0020A0804CF255
:1053A000015000F005FB00F0A7F8A1880843A08099
:1053B0000520FBF7F3FDA188494534D0D32001E057
:1053C0002CE02CE000F0F4FA00F096F8A08000F059
:1053D00093F8A08000F090F84FF6FF7101EA0020EA
:1053E000A08000F089F8A1880843A08050451AD019
:1053F000A12000F0DDFA00F07FF8A08000F07CF83A
:105400004FF6FF7101EA0020A08000F075F8A18836
:105410000843A0F5AE41A080613902D003E0A58029
:1054200001E0A4F804B0A1882BA0FDF731F8A08812
:10543000A84202D1FFF760FD1FE0B04202D1FDF7A4
:10544000BCFA1AE0B84202D1FDF76FFD15E0404505
:1054500002D1FFF726FE10E0484502D1FEF7DFFC3F
:105460000BE0504502D1FDF7BFFB06E0584504D1E3
:10547000FFF78AFC642000F067FA1648A1885038CC
:10548000A94201D103210EE0514503D0B14201D020
:10549000494501D1022106E0B94203D0414501D07E
:1054A000594508D1012100910291036B826840683F
:1054B0006946FBF7D3F80020FDF7FEF90122D1037E
:1054C0000848FBF7D1FE4FF6FF70FDF7DDF907B096
:1054D000BDE8F08F800200204C43442049443A2527
:1054E000780D0A00000402400246012000E050430B
:1054F000491EC9B2FBD2704708B50220401EFDD23A
:105500004FF0D840B0F88000ADF80000BDF80000C2
:1055100008BD000070B55F4C00232146A279898840
:1055200041F66316012A01D01AB10CE0B14202D152
:1055300009E0B14207D1082805D2DFE800F01618CB
:1055400012140C19100E082812D2DFE800F0110412
:1055500006080A0C0E1080230AE0402308E0C0234E
:1055600006E0202304E0602302E0A02300E0E02323
:10557000362045F21055A94200D10002A1F5134290
:10558000413A07D0A1F5EE42893A03D0A1F5EE42A7
:10559000963A01D143F00803194600F01FFAA1889A
:1055A000B1420AD098062088628802D5904202D380
:1055B00003E0904201D9228060806089A94240D1F5
:1055C00000F0F6F9002000F0E7F96089401C80B295
:1055D00000F0EEF9002000F0DFF96089801C80B255
:1055E00000F0E6F92088401EC0F30F2000F0D4F947
:1055F0006089C01C80B200F0DBF92078401EC0B288
:1056000000F0CAF9A08900F0D3F9002000F0C4F935
:10561000A089401C80B200F0CBF9002000F0BCF95A
:10562000A089801C80B200F0C3F96088401EC0F3DE
:105630000F2000F0B1F9A089C01C80B200F0B8F9C9
:1056400021E000F0B5F9002000F0A6F9002000F0FC
:10565000A3F92088401EC0F30F2000F09DF92078A8
:10566000401EC0B200F098F9A08900F0A1F9002016
:1056700000F092F9002000F08FF96088401EC0F31E
:105680000F2000F089F9A078BDE87040401EC0B23C
:1056900000F082B980020020F0B53B4A0D46044676
:1056A000060A918810462F0A4089A1F5C853633B2A
:1056B00016D0A1F5AA43103B4CD000F079F9304642
:1056C00000F06AF9E0B200F067F9908900F070F933
:1056D000384600F061F9E8B2BDE8F04000F05CB98E
:1056E000917931B300F064F9304600F055F9E0B239
:1056F00000F052F91088401EC0F30F2000F04CF962
:105700001078401E5FFA80F000F046F9908900F0B2
:105710004FF9384600F040F9E8B200F03DF9508802
:10572000401EC0F30F2000F037F99078401EC0B241
:10573000D2E71188091B491E8CB200F039F900200C
:1057400000F02AF9002000F027F9200A00F024F9DF
:10575000E0B2D9E700F02CF9304600F01DF950898D
:10576000401C80B200F024F9E0B200F015F99089F5
:1057700000F01EF9384600F00FF99089401C80B205
:1057800000F016F9A7E70000800200202DE9FF4F86
:105790001D460C468B46580700D0012000EBD50073
:1057A000690810FB01F0203A00F0FF0AD0B20C2D7E
:1057B0000AD0102D0CD0182D0ED0202D46D1244902
:1057C00001EB801600203EE000EB4001214806E09E
:1057D000214901EB0016F5E700EBC0011F4800EB83
:1057E0008106EFE716F808704FF00009380601D57A
:1057F0000E9A03E00D9828B91948026821460098CE
:10580000FDF7D0F87806070E1648641CA4B240884D
:10581000A0421BD9A4EB0B00A8420AD100985C4619
:10582000401C80B200900F480188009881420DD939
:1058300006E009F1010000F0FF09B9F1080FD5D326
:1058400008F10100C0B280465045CBD3BDE8FF8FC0
:10585000AC720008EC5A0008605F00085065000850
:1058600010000020800200202DE9FC4F044600F0CB
:10587000FF0910190D46DDE90BB61FFA80F858191B
:1058800087B24FF0000A13E0444503D305EB0B0049
:105890004C4685B2BD4210D20D985B46CDE900A0C2
:1058A00029462046FFF772FF04EB5B0084B2761CAA
:1058B0003278A2F120005E28E6D9BDE8FC8F2DE900
:1058C000FF4F83B08146DDE911BA10984FF0000810
:1058D0001E4644460BF0010547082EE0301B401ED3
:1058E000C1B20A20FFF700FE0599B1FBF0F00A21D2
:1058F000B0FBF1F201FB1200B8F1000F05D1711EEF
:105900008C4202DA50B14FF001083030C2B2CDE91A
:10591000005A07FB049080B2109B09E0CDE9005AC1
:105920005FEA0B6007FB0490109B80B20AD530221F
:105930000499FFF72BFF641CE4B2B442CED307B046
:10594000BDE8F08F2022F3E710B50246BE2000F03C
:105950002FF8052000F020F81046FAF7E6FC9FED3E
:105960000C1B53EC112BFAF76EFCFAF7EBFC80B230
:1059700000F012F8012000F00FF8FF2000F00CF802
:10598000002000F009F8BDE81040002000F004B845
:10599000666666666666044001B5BDF80000ADF84F
:1059A0000000BDF800004FF0D841A1F8800008BD0C
:1059B00001B5BDF80000ADF80000BDF800004FF0E3
:1059C000D841A1F87E0008BD03484FF0D8410089B6
:1059D000A1F87E0070470000800200204FF0D842FE
:1059E00022F87E0F5180704710B50A210520FCF780
:1059F000EFFE2821B0FBF1F0642800D96420C0F14B
:105A00006400C0B210BD00000EB5FBF741FCFCF70E
:105A10003FFBFCF787FAFCF72BFAFCF717FBFCF7C8
:105A20003DFAFCF7F1F9FFF721FCFCF7E7FE102443
:105A300021A0CDE900404FF478452346C822322109
:105A400002951E20FFF710FF1DA0CDE90040102396
:105A5000C822462102951E20FFF706FF1BA0CDE9B4
:105A600000401023C8225A2102951E20FFF7FCFE99
:105A70001AA0CDE900401F251023C8226E210295EF
:105A80001E20FFF7F1FE0026DFF85C80670100BFF3
:105A9000FFF7AAFFCDE9004602466E210323084620
:105AA0000295FFF70CFF39464046FBF7D5FBFA207D
:105AB000FCF7B8FEECE7000053544D333200000011
:105AC00044485431312054455354000041544F4D03
:105AD00040414C49454E54454B0000004C53454E07
